:020000040800F2
:10000000B00C0020950200089D0200089F02000825
:10001000A1020008A3020008A502000800000000D9
:10002000000000000000000000000000A70200081F
:10003000A902000800000000AB020008AD020008A1
:10004000AF020008AF020008AF020008D12F00087D
:10005000AF020008AF020008AF020008AF020008BC
:10006000AF020008AF020008AF020008AF020008AC
:10007000AF020008AF020008AF020008AF0200089C
:10008000AF020008AF020008AF0200080000000045
:10009000000000000000000000000000AF020008A7
:1000A000C9330008AF020008AF020008AF02000821
:1000B000AF020008AF020008AF020008AF0200085C
:1000C000AF020008AF020008AF020008AF0200084C
:1000D000AF020008B9370008D1380008000000005E
:1000E000AF020008FD2B0008AF020008000000006E
:1000F000000000000000000000000000AF02000847
:1001000000000000AF020008AF020008AF020008C4
:1001100000000000000000000000000000000000DF
:10012000AF020008AF020008AF020008AF020008EB
:10013000AF02000800000000000000000000000006
:10014000000000000000000000000000AF020008F6
:10015000AF020008AF020008AF02000845390008EE
:10016000AF020008AF02000800000000000000001D
:10017000000000000000000000000000000000007F
:1001800000000000AF0200080000000000000000B6
:10019000AF02000800F002F800F06DF80AA090E845
:1001A000000C82448344AAF10107DA4501D100F032
:1001B00062F8AFF2090EBAE80F0013F0010F18BF92
:1001C000FB1A43F001031847288002004880020010
:1001D0000A444FF0000C10F8013B13F0070408BF6D
:1001E00010F8014B1D1108BF10F8015B641E05D00B
:1001F00010F8016B641E01F8016BF9D113F0080FC0
:100200001EBF10F8014BAD1C0C1B09D16D1E58BF51
:1002100001F801CBFAD505E014F8016B01F8016B88
:100220006D1EF9D59142D6D37047000000230024FB
:1002300000250026103A28BF78C1FBD8520728BFF6
:1002400030C148BF0B607047642900F09F8075295A
:1002500000F09C80002070471FB508F087FB00F07D
:10026000FFFB04000020002108F06AFB401C6060D6
:100270001FBD10B510BD00F0CEFB1146FFF7ECFF1F
:1002800005F016FA00F0FEFB03B4FFF7F2FF03BC23
:1002900003F023FD0948804709480047FEE7FEE7D1
:1002A000FEE7FEE7FEE7FEE7FEE7FEE7FEE7FEE726
:1002B00004480549054A064B7047000061330008B1
:1002C00095010008B0060020B00C0020B008002006
:1002D000B00800207047B2F120030AD5C2F1200314
:1002E00001FA02F120FA03F300FA02F041EA0301F5
:1002F000704700FA03F14FF0000070470FB4044953
:1003000010B503AA029800F0BBFA10BC5DF814FB0C
:100310005C0000200FB41CB5074B06AA7B4469465D
:100320000090059800F093FA0020694600F0A2FAC8
:100330001CBC5DF814FB00005505000070B50446B8
:1003400085690068C10601D5302600E02026C00777
:1003500007D070BDD4E9012130469047206A401C87
:1003600020626D1EF6D570BD70B5044685690078B3
:10037000C00707D170BDD4E9012120209047206A31
:10038000401C20626D1EF6D570BD00002DE9F041C5
:100390000646002410687529314616A510D0AFF323
:1003A0000080002802DA404213A507E031688A077E
:1003B00001D512A502E0490704D511A5012401E0E9
:1003C000AFF3008000210A2206F1240709E0B0FB08
:1003D000F2FCB0FBF2F302FB1C00303078541846FC
:1003E000491C0028F3D123462A463046BDE8F04197
:1003F00000F0CEB9000000002D0000002B0000002E
:10040000200000002DE9F05F894604464FF0000A05
:10041000DFF824B1FB44C0F820A02046E1688847FB
:1004200000287DD0252806D0D4E901219047206AF4
:10043000401C2062F1E700255F462046E1688847BE
:100440002028064607DB312E05D2B81910F8200CFB
:1004500008B10543F1E7A80701D525F00405C4F864
:100460001CA00027C4F818A02A2E09D0304603F09B
:100470002DFC38B304EB8708303EC8F8186019E04B
:1004800059F8041B204604EB87029161E168884714
:10049000012F064618D1E069002820DA25F0200552
:1004A0001DE0D8F8180000EB800006EB4000303863
:1004B000C8F818002046E1688847064603F006FCA5
:1004C0000028EED1012F0AD02E2E08D12046E16857
:1004D00088477F1C0646022F45F02005C4DBA06933
:1004E000002803DA404245F00105A061E80701D089
:1004F00025F01005A6B1A6F14100192802D8203632
:1005000045F400654A463146204625604D46FFF7D2
:100510009BFE60B1012807D0ED1D25F0070000E02B
:1005200007E000F1080978E705F1040975E73046AE
:100530007AE7206ABDE8F09FCE7C020070B50646DF
:1005400000F022F90468054630460A22002100F036
:10055000A9F92C6070BD401ECAB210F8011F8A4272
:1005600002D00029F9D10020704730B505460B466E
:100570002A4613F8014B12F8010B08B1A042F8D03B
:100580001CB1002802D06D1CF1E7284630BD40EABE
:10059000010370B59B072ED14FF00136042A2AD3F0
:1005A00008C810C99D1B9D43121F15EAC61517D018
:1005B000D8B2E1B2401A50EA056110D198B2A1B2A6
:1005C000401A50EA05410AD123F07F4024F07F41D0
:1005D000401A50EA052102D1180EA0EB146070BD3C
:1005E000A342DBD018BA21BA884201D9012070BDDC
:1005F0004FF0FF3070BD0AB9002070BD10F8013B0C
:1006000011F8014B63B1A3420AD1521E08D010F871
:10061000013B11F8014B1BB1A34201D1521EEDD198
:10062000181B70BD421E12F8013F002BFBD111F8C0
:10063000013B002B02F8013BF9D1704710B5203A7D
:10064000C0F00B80B1E81850203AA0E81850B1E88B
:100650001850A0E81850BFF4F5AF5FEA027C24BF41
:10066000B1E81850A0E8185044BF18C918C0BDE838
:1006700010405FEA827C24BF51F8043B40F8043B01
:1006800008BF7047D20728BF31F8023B48BF11F8B6
:10069000012B28BF20F8023B48BF00F8012B704710
:1006A00002F0FF0343EA032242EA024200F034B9B7
:1006B0004FF0000200B5134694469646203922BFFB
:1006C000A0E80C50A0E80C50B1F12001BFF4F7AF46
:1006D000090728BFA0E80C5048BF0CC05DF804EB28
:1006E000890028BF40F8042B08BF704748BF20F896
:1006F000022B11F0804F18BF00F8012B704700004B
:100700004FF0013C50F8042B51F8043B9A4221D1A0
:10071000A2EB0C03934313EACC1317D150F8042B2C
:1007200051F8043B9A4215D1A2EB0C03934313EA10
:10073000CC130BD150F8042B51F8043B9A4209D149
:10074000A2EB0C03934313EACC13DBD04FF0000071
:10075000704700BFD01A01BAB1FA81F101F0180157
:1007600022FA01F0CB40C1F12001DBB2C0B2C01AC5
:100770002CFA01F3D11A914311EAC311E6D1704763
:100780007047704770477047004870475006002018
:100790002DE9F0470D4699469246044600F124089B
:1007A0000168880604D5E06921F01001216000E0AD
:1007B0000120A84201DD471B00E00027A1697A194A
:1007C00002EB0900081AA0612078C00602D4204676
:1007D000FFF7B4FD002608E0D4E901211AF806006D
:1007E0009047206A401C761C20624E45F4DB20783E
:1007F000C0060AD52046FFF7A1FD06E0D4E9012195
:1008000030209047206A401C2062381EA7F1010763
:10081000F4DC07E0D4E9012118F805009047206ACC
:10082000401C2062281EA5F10105F3DC2046FFF7DD
:100830009BFD2078000602D50220BDE8F08701204C
:10084000FBE7000001694A1C02610878704700B5A7
:100850008FB0CDE901310021059105497944CDE9F9
:10086000031011466846FFF7CDFD0FB000BD000034
:10087000E5FFFFFF0A6802F8010B0A6070470000FD
:10088000074B70B50D467B44FFF7E1FF0446284651
:1008900000F0BDF810B14FF0FF3070BD204670BDC4
:1008A000BF4900002DE9F04791460F4680460446B7
:1008B000002614F8015B2DB100F052F80068405D8D
:1008C000C007F6D12B2D02D02D2D18D0641E4A461C
:1008D0003946204600F04CF827B13968A14201D1D1
:1008E000C7F800804FF0020471050BD54042002884
:1008F00003DDFFF749FF0460A007BDE8F08746F479
:100900008066E4E70028F8DAFFF73EFF04606FF046
:100910000040F2E74FF000020429C0F0128010F00E
:10092000030C3FF4C7AECCF1040CBCF1020F18BFAE
:1009300000F8012BA8BF20F8022BA1EB0C01FFF758
:10094000B9BE5FEAC17C24BF00F8012B00F8012B7F
:1009500048BF00F8012B7047004870475006002040
:1009600010B500F07DF8001D10BD00BFD57F000060
:100970002DE9F05F824615468B4600270AF10104F7
:10098000B9460078302801D09DB113E014F8010B6E
:100990000127782803D0582801D045B10AE00DB1CD
:1009A000102D07D1002714F8010B102502E00825AF
:1009B00000E00A250026B0460EE005FB080005FB16
:1009C00006F101271FFA80F801EB1046B6F5803FCB
:1009D00000D3B94614F8010B294600F045F8002869
:1009E000EBDABBF1000F05D00FB1641E00E05446F6
:1009F000CBF80040B9F1000F06D0FFF7C5FE022189
:100A00000160C81EBDE8F09F48EA0640FAE7007B97
:100A100000F0800070477546FFF79EFFAE46050068
:100A20006946534620F00700854618B020B5FFF709
:100A30003FFCBDE820404FF000064FF000074FF0AC
:100A400000084FF0000B21F00701AC46ACE8C009EC
:100A5000ACE8C009ACE8C009ACE8C0098D467047F5
:100A600000487047700600203A2800D2303820F045
:100A70002002412A01D3A2F13700884201D34FF06E
:100A8000FF30704710B50446AFF300802046BDE844
:100A90001040FFF7F9BB2DE9F04104460D4616461C
:100AA00004F0FEFCA046E11704EB11610912A0223C
:100AB00002EB4101C8B204F0B9FC04F017FC074690
:100AC000012F04D104F016FD0120BDE8F081E0B251
:100AD00004F0ACFC04F00AFC0746012F03D104F03B
:100AE00009FD0220F1E704F0DBFCA046E11704EB6E
:100AF00011610912A12202EB4101C8B204F096FC77
:100B000004F0F4FB0746012F03D104F0F3FC0120AD
:100B1000DBE70DE004F01EFC3070681E85B21DB9E5
:100B2000012004F053FC04E0002004F04FFC761C8C
:100B3000F0E700BF04F0DEFC0020C6E72DE9F0413D
:100B400006460D4690461F4619E0F80096FBF0F168
:100B500000FB1160C0EBC700C4B2AC4205DBE9B2D8
:100B60004246304600F010F80AE042462146304640
:100B700000F00AF8301986B2281B85B2A044E4E7D9
:100B800000BF0020BDE8F0812DE9F04104460D468C
:100B9000164604F085FCA046E11704EB116109122A
:100BA000A02202EB4101C8B204F040FC04F09EFB1D
:100BB0000746012F04D104F09DFC0120BDE8F0811F
:100BC000E0B204F033FC04F091FB0746012F03D19F
:100BD00004F090FC0220F1E710E0307804F026FCED
:100BE00004F084FB0746012F03D104F083FC0320AB
:100BF000E4E7681EC5B205B901E0761CEDE700BF69
:100C000004F078FC052007F039F90020D6E7000051
:100C100010B5FF240E48006900F0020068B90D48C5
:100C2000007850B100F018F80446FF2C05D00020E1
:100C3000084908701D2007F0C1FA0548006900F056
:100C4000020010B1012003490870204610BD0000C9
:100C500000000240B500002010B503F011FBA020F9
:100C600003F0D6FA03F042FA18B103F033FB012087
:100C700010BD00BF3B48006800F040000028F9D0DC
:100C8000082003F0C5FA03F031FA18B103F022FB93
:100C90000220EDE700BF3348006800F04000002864
:100CA000F9D003F0EDFAA12003F0B2FA03F01EFA36
:100CB00018B103F00FFB0320DAE700BF29480068F2
:100CC00000F040000028F9D003F03AFA0446002072
:100CD00003F06EFA03F034FA44EA0024012003F032
:100CE00067FA03F0F7FA402C2AD00EDC082C29D042
:100CF00006DC012C1AD0022C1ED0042C2ED127E0A9
:100D0000102C29D0202C29D120E0B4F5007F21D04F
:100D100005DC802C0ED0B4F5807F1FD114E0B4F533
:100D2000806F05D0B4F5006F18D107E031209FE740
:100D300032209DE733209BE7342099E7352097E761
:100D4000362095E7372093E7382091E739208FE761
:100D50002A208DE730208BE7232089E700BFFF2082
:100D600086E700001004024070B50446002603F038
:100D700087FAA02003F04CFA03F0B8F918B103F099
:100D8000A9FA012070BD00BF1D48006800F04000B6
:100D90000028F9D0B02003F03BFA03F0A7F918B10E
:100DA00003F098FA0220EDE700BF1548006800F054
:100DB00040000028F9D001251BE0162D03D1F0B228
:100DC00003F026FA05E0207803F022FA20780644A2
:100DD000641C03F08BF918B103F07CFA0320D1E70F
:100DE00000BF0748006800F040000028F9D0681CE8
:100DF000C5B2162DE1DD03F06DFA0020C2E7000058
:100E00001004024000B58DB0182107A8FFF750FC70
:100E100018220BA101A8FFF711FC03F047F90E48B7
:100E2000006840F001000C4908600C48006820F0A0
:100E30000C000A49086001A8FFF796FF0DB000BD3D
:100E4000000083F3983F3F3F3F3F3F3F3F3F3F3FDF
:100E50003F3F3F3F7F00000030380240000002402B
:100E60002DE9F0410746884615460421052000F08B
:100E70002DF80021012002F00DFF80210A2002F050
:100E8000EDF9002405E0395D092002F003FF601C44
:100E9000C4B24445F7DB0321012002F0FBFEFF242E
:100EA00000BF052002F04AF90646601EC4B21CB11C
:100EB00006F004000028F4D0222002F03FF9287048
:100EC000212002F03BF96870BDE8F08170B505465D
:100ED0000C460026284602F031F9064626EA0401AF
:100EE000284602F0D7FE70BD10B540F6B83208A112
:100EF00009A000F07FFA04461CB90BA0FFF7FEF929
:100F000002E00EA0FFF7FAF903F004FA204610BD44
:100F1000726561647900000041542B524553544F6F
:100F200052450D0A00000000BBD6B8B4B3F6B3A713
:100F3000C9E8D6C3B3C9B9A60D0A0000BBD6B8B478
:100F4000B3F6B3A7C9E8D6C3CAA7B0DC0D0A000040
:100F50000149086070470000143C01403EB5054659
:100F60005F48007800286ED05EA0FFF7C7F963A045
:100F7000FFF7C4F967A0FFF7C1F96B4A00210846E3
:100F800000F0E2FD2020FF21002247F67C53CDE94E
:100F90000021029065A23021182000F0E0FB102013
:100FA000FF21002247F67C53CDE90021029063A285
:100FB000DC21002000F0D3FB1020FF21002247F6A7
:100FC0007C53CDE9002102905FA2DC21962000F045
:100FD000C6FB554801214CF218635EA2CDE9001012
:100FE0007821602000F0E0FC5B4A09211520FFF722
:100FF00052FD1E2059490880002420E05648005D1B
:10100000FF281AD05448015D55A0FFF777F920203A
:10101000FF210022CDE9002102904F48005D3030D1
:10102000C2B247F67C5350214C48008800F0DAFBEE
:101030004A480088143049490880601CC4B2092C11
:10104000DCDB002407E016E04348005DFF2800D108
:1010500003E0601CC4B2092CF6DB00BF601C4249EF
:101060000870084600780A2802D140A0FFF746F928
:1010700000201B4908703C4800780A281BDA3A48CF
:10108000007804F0A3FF3F4908600846006890B963
:10109000354801780078401E2F4A11540223092157
:1010A0001520FFF74BFD3048017837A0FFF726F9F0
:1010B00001200B490870232D02D02A2D0DD106E006
:1010C00004203549088001200549087005E0012009
:1010D000314908800249087000BF00BF3EBD0000D2
:1010E000920000200D0AD7A2B2E1D3C3BBA7D6B8A5
:1010F000CEC6BDE7C3E63A0D0A000000A1BE23A19B
:10110000BFBBD8B5BDC9CFD2BBBCB6B2CBB5A50DA0
:101110000A000000A1BE2AA1BFBBD8B5BDD6F7BD4D
:10112000E7C3E60D0A000000A4BE0008D7A2B2E1A2
:10113000D3C3BBA7D6B8CEC600000000A1BE2AA16B
:10114000BFD6F7BDE7C3E600C9CFD2BBBCB6A1BED0
:1011500023A1BF005A000000E801002098000020F1
:1011600025752020000000009A000020D7A2B2E1DF
:10117000D6B8CEC6CAFDC1BFD2D4B4EFC9CFCFDE78
:101180000D0A000094000020D2D1D7A2B2E125645C
:10119000BAC549440D0A0000120000201CB50446DF
:1011A000FE20009002211E4800F060FA1E2006F08A
:1011B00065FE2146732005F017F96A4601A97320E0
:1011C00004F0C6FE40B117A0FFF798F802211448BA
:1011D00000F04AFAFF201CBD9DF8000030B18328C2
:1011E00009D090280BD0FF2811D10CE0214614A083
:1011F000FFF784F80BE017A0FFF780F807E018A0CE
:10120000FFF77CF803E01AA0FFF778F800BF00BFF3
:101210000221034800F028FA9DF80000DBE70000F7
:1012200000080240CDA8D0C5CAA7B0DC2CBDD3CAE7
:10123000D5CAFDBEDDB0FCB4EDCEF30D0A00000052
:10124000D6B8CEC62564C9BEB3FDB3C9B9A60D0ACA
:1012500000000000B2CECAFDB4EDCEF30D0A0000CE
:10126000CEB4D7A2B2E1B5C4D3C3BBA70D0A000068
:10127000D0B4C8EB524F4DB4EDCEF30D0A000000D0
:1012800010B506F019FF0A2221A122A000F0B2F841
:1012900003F040F80A221EA11EA000F0ABF818B11E
:1012A00003F038F800F04EF903F034F8FFF71CFEB5
:1012B00003F030F80A2216A118A000F09BF818B924
:1012C0001AA0FFF71BF802E01FA0FFF717F803F0C2
:1012D00021F80A220EA123A000F08CF818B925A04D
:1012E000FFF70CF802E028A0FFF708F803F012F867
:1012F0000A2207A129A000F07DF818B92DA0FEF759
:10130000FDFF02E033A0FEF7F9FF03F003F810BD84
:101310004F4B000041540D0A0000000041542B4384
:10132000574D4F44453D310D0A000000BFCDBBA7CE
:10133000B6CBC4A3CABDD6B8C1EED6B4D0D0B3C95B
:10134000B9A60D0A00000000BFCDBBA7B6CBC4A351
:10135000CABDD6B8C1EED6B4D0D0CAA7B0DC0D0A8B
:101360000000000041542B4349504D4F44453D314E
:101370000D0A0000CDB8B4ABD6B8C1EED6B4D0D00B
:10138000B3C9B9A60D0A0000CDB8B4ABD6B8C1EE4A
:10139000D6B4D0D0CAA7B0DC0D0A000041542B430C
:1013A000575245434F4E4E4346473D362C300D0A6B
:1013B0000000000057692D466920D6D8C1ACC5E4AD
:1013C000D6C3D6B8C1EED6B4D0D0B3C9B9A60D0A2B
:1013D0000000000057692D466920D6D8C1ACC5E48D
:1013E000D6C3D6B8C1EED6B4D0D0CAA7B0DC0D0AE9
:1013F000000000002DE9F04106460F461546002486
:10140000304606F0BFFE642006F038FD40F6B838DE
:1014100022E00DE0641C012006F030FDAC4207D153
:1014200002F078FF0DA0FEF769FF0120BDE8F08112
:101430000E4890F802040028ECD039460B48FFF71C
:1014400094F808B10020F1E7641C012006F016FDB5
:10145000444501D10120E9E7DBE70000CFECD3A64A
:10146000CAFDBEDDB3ACCAB10D0A000026020020E1
:1014700030B58DB004460D46342219496846FFF751
:10148000DDF821466846FFF7CDF816A16846FFF75C
:10149000C9F829466846FFF7C5F813A16846FFF763
:1014A000C1F802F037FF41F2883210A16846FFF719
:1014B000A1FF68B90EA0FEF721FF00201549486181
:1014C00001201549087002F025FF00200DB030BD45
:1014D00012A0FEF713FF02F01DFF0120F6E7000047
:1014E000B4800208222C2200220D0A004F4B00007B
:1014F00057494649C1ACBDD3D6B8C1EED6B4D0D059
:10150000B3C9B9A62CBFAACABCC1ACBDD34D5154F6
:10151000540D0A00C00100204E00002057494649E2
:10152000C1ACBDD3D6B8C1EED6B4D0D0CAA7B0DC5A
:101530002CD4B6B3CCBFAACBF8B9A6C4DCCAA7D00A
:10154000A70D0A0010B505A006F01CFE4FF4FA60C6
:1015500006F094FC02A0FEF7D1FE10BD2B2B2B0051
:10156000CDB8B4ABC4A3CABDD2D4CDCBB3F62CBDD9
:10157000F8C8EBC9E8D6C3C4A3CABD0D0A00000071
:10158000F0B50A4600210023002400BF3DE00125FC
:1015900005FA01F3156805EA03049C4234D1056895
:1015A0004F000326BE40B543056015794E00B54097
:1015B0000668354305601579012D02D01579022D95
:1015C00016D185684F000326BE40B5438560557926
:1015D0004E00B540866835438560456801268E40DB
:1015E000B5434560456896798E40B6B2354345604F
:1015F000C5684F000326BE40B543C560D5794E008F
:10160000B540C6683543C560491C1029BFD3F0BD3D
:10161000F0B5002300244D07ED0E02FA05F3CE10BD
:1016200000F1200555F826504E07F70E0F26BE4054
:10163000B543CF1000F1200646F82750CE1000F138
:10164000200555F8265045EA0304CE1000F1200588
:1016500045F82640F0BD0246002013690B400BB14F
:10166000012000E0002070474183704701837047EC
:101670001CB50121022001F0D3F945F2024000908F
:1016800001208DF8040000208DF806008DF8070079
:1016900069460648FFF774FF02210448FFF7E4FF9C
:1016A0004FF480510148FFF7E1FF1CBD00040240E8
:1016B00070B506460C4615462A2006F0D3F930468A
:1016C00006F000FA304606F0FDF92B2006F0CAF9C4
:1016D000204606F0F7F9204606F0F4F92C2006F033
:1016E000C1F9284606F0EEF970BD2DE9F04707462E
:1016F0000C4615469946781B801E1FFA80F828E094
:10170000601B801E86B21CE0A8EB07004043311B23
:10171000321B01FB020105FB05F081420FDBA8EB48
:1017200007004043311B321B01FB0201A81C404350
:10173000814204DC4A4631464046FFF7B9FF701C3F
:1017400086B26019801CB042DEDA08F101001FFA8F
:1017500080F87819801C4045D2DABDE8F0872DE981
:10176000FE4F06460F4615469A46DDE90C890E9C4B
:1017700033E0287820281DDB28787F281ADC04EB4A
:10178000D4714910C1F1F001B14202DA00263819D2
:1017900087B2CDE9008902942A785346394630460B
:1017A00000F020F86D1C204604EBD07106EB6101BF
:1017B0008EB212E0C4F1F000B04202DA002638190D
:1017C00087B253462A4639463046CDE9008902940D
:1017D00000F06AF8AD1C301986B228780028C8D10C
:1017E000BDE8FE8F2DE9F04F95B0804689469246C0
:1017F0009B46209C5046C7B2102C07D1610301EBD9
:10180000071010AA102106F0C5FF08E0202C06D111
:10181000244901EB87106A46402106F0BBFF0025F2
:101820003BE0102C03D110A8405D14900AE0202C5E
:1018300008D16800401C1DF800001DF8151040EA92
:1018400001201490002621E004EBD4714910491EB8
:101850008A1B01219140149A114049B109EB0502FC
:1018600091B208EB060290B25A46FFF721FF0BE057
:101870001E98012808D109EB050291B208EB060277
:1018800090B21F9AFFF714FF701CC6B204EBD4711C
:10189000B6EB610FD8DB681CC5B2A542C1DB15B041
:1018A000BDE8F08F060802002DE9F04FA9B0804690
:1018B000894692469B46349D00BF9AF80100A138A4
:1018C0009AF80010A139C1EB011202EB411100EBB3
:1018D000410087B2102D07D1314901EB471020AAF2
:1018E000202106F057FF08E0202D06D12D4901EBFD
:1018F000C7106A46802106F04DFF00244AE0102DF3
:1019000009D1012000EB440020A9085C11F8141053
:1019100040EA01202890202D17D11DF82400000650
:10192000012101EB84011DF8011040EA0140022170
:1019300001EB84011DF8011040EA0120032101EBB5
:1019400084011DF801100843289000261EE0681E3F
:10195000811B012088402899084048B109EB040206
:1019600091B208EB060290B25A46FFF7A1FE0BE0D7
:101970003298012808D109EB040291B208EB060263
:1019800090B2339AFFF794FE701CC6B2AE42DEDB13
:10199000601CC4B2AC42B2DB29B0BDE8F08F0000DD
:1019A0000C280200522606002DE9FF4F83B0814625
:1019B0008A469346BDE0002508E09BF80000604998
:1019C000495D884200D105E0681C85B25C48405DF5
:1019D0000028F2D100BF5A48405D10B907B0BDE8F9
:1019E000F08F00249CE004EB4400400005EBC501AF
:1019F00000EB41105349085C0102002204EB440053
:101A0000400005EBC50300EB4310401C4D4B185C38
:101A10001243014304EB4400400005EBC50300EB17
:101A20004310801C474B1B5C0020000640EA13203B
:101A300042EA0362084304EB4401490005EBC50395
:101A400001EB4311C91C3F4B5B5C0021090441EAD7
:101A500013414FEA034C034642EA0C0043EA0102F9
:101A600004EB4401490005EBC50301EB4311091DDB
:101A7000344B5B5C0021090241EA13614FEA032CFD
:101A8000134640EA0C0243EA010004EB440149001A
:101A900005EBC50301EB4311491D2A4B595C42EA92
:101AA00001078046002637E0C6F12F020121002001
:101AB000CDE9010108460199FEF70DFC384001EA25
:101AC0000801002358405940084309D00AEB04029A
:101AD00091B209EB060290B2069AFFF7E9FD19E010
:101AE0001098012816D109EB06000AEB0401C1EB9E
:101AF000011100EB01111198083000EB4103009334
:101B0000009B1A880AEB040399B209EB060398B20A
:101B1000FFF7CEFD701C86B2302EC5DB601C84B290
:101B2000302CFFF660AF0BF1010B09F130001FFA0A
:101B300080F99BF8000000287FF43DAF00BF4DE71F
:101B400076890008898900082DE9F04707460E4686
:101B50001446254604F108082A2005F083FF38467C
:101B600005F0B0FF69883944491E88B205F0AAFF24
:101B70002B2005F077FF304605F0A4FFA9883144FB
:101B8000491E88B205F09EFF2C2005F06BFF4FF038
:101B9000000907E0B8F8000005F094FF08F102081A
:101BA00009F101096888A98848434845F2D8BDE889
:101BB000F08710B500F0E6F8FFF75AFD05F040FF9A
:101BC000362005F04FFF002005F064FF3A2005F0B5
:101BD00049FF052005F05EFFB22005F043FF0C2011
:101BE00005F058FF0C2005F055FF002005F052FFCE
:101BF000332005F04FFF332005F04CFFB72005F0F0
:101C000031FF352005F046FFBB2005F02BFF1920E2
:101C100005F040FFC02005F025FF2C2005F03AFF1D
:101C2000C22005F01FFF012005F034FFC32005F09E
:101C300019FF122005F02EFFC42005F013FF20200D
:101C400005F028FFC62005F00DFF0F2005F022FF4C
:101C5000D02005F007FFA42005F01CFFA12005F00F
:101C600019FFE02005F0FEFED02005F013FF042050
:101C700005F010FF0D2005F00DFF112005F00AFF03
:101C8000132005F007FF2B2005F004FF3F2005F08F
:101C900001FF542005F0FEFE4C2005F0FBFE18204D
:101CA00005F0F8FE0D2005F0F5FE0B2005F0F2FE24
:101CB0001F2005F0EFFE232005F0ECFEE12005F0EB
:101CC000D1FED02005F0E6FE042005F0E3FE0C2056
:101CD00005F0E0FE112005F0DDFE132005F0DAFE30
:101CE0002C2005F0D7FE3F2005F0D4FE442005F05F
:101CF000D1FE512005F0CEFE2F2005F0CBFE1F2097
:101D000005F0C8FE1F2005F0C5FE202005F0C2FE2C
:101D1000232005F0BFFE212005F0A4FE112005F0D0
:101D2000A1FE292005F09EFE01F0AAFB10BD2DE9C1
:101D3000F04707460D4614469946381B1FFA80F8AF
:101D40001BE0281B86B211E0A8EB07004043711B83
:101D5000721B01FB020104FB04F0814204DC4A46D1
:101D600031464046FFF7A4FC701C86B22819B042E9
:101D7000EADA08F101001FFA80F838194045E0DA84
:101D8000BDE8F0871CB50121022000F049FE4FF4A8
:101D90002040009001208DF8040000208DF80600FE
:101DA0008DF8070002208DF8050069460448FFF70A
:101DB000E7FB4FF400510248FFF756FC1CBD000042
:101DC0000004024070B5044600251BE04FF40051AA
:101DD0000E48FFF749FC04F0800028B14FF40041A1
:101DE0000A48FFF743FC04E04FF400410748FFF7BF
:101DF0003BFC4FF400510548FFF738FC6006040E29
:101E0000681CC5B2082DE1DB70BD00000004024073
:101E10002DE9F05F06460D4614461F46DDF82C906E
:101E20004FF0000AC5EB051006EB00110C980830C6
:101E300000EB41082A2005F015FE304605F042FE71
:101E40003119491E88B205F03DFE2B2005F00AFE2F
:101E5000284605F037FEE919491E88B205F032FE22
:101E60002C2005F0FFFDD3461DE0B9F1000F03D192
:101E70000A9805F027FE14E0B9F1010F11D1B8F866
:101E8000000005F01FFE08F102080AF101001FFA28
:101E900080FAA24505D1C4F1F00008EB40084FF0EC
:101EA000000A0BF1010B04FB07F05845DDD8BDE833
:101EB000F09F10B503211420FFF708F810BD10B5EE
:101EC000142001F03BF9044604F0030018B9032183
:101ED000142001F0C3F910BDF0B587B00546002706
:101EE00008210846FEF7F2FF00210D2001F0D2FE86
:101EF00080210E20FEF7EAFF93208DF804002020B9
:101F00008DF8050006A801AB022201A900900C2063
:101F100000F07DF90646262E10D1002407E001A826
:101F2000005D285501A8005D4740601CC4B2042C28
:101F3000F5DB01A8005DB84200D0BB2680210E2051
:101F400001F08CF9304607B0F0BD2DE9F04387B0C1
:101F500006460F4690469946002006908DF804608C
:101F60008DF80570002406E018F8041001AAA01CE2
:101F70001154601CC4B2062CF6DB002407E019F8EB
:101F8000041001AA04F108001154601CC4B2042C0E
:101F9000F5DB06A801AB0C2201A900900E2000F091
:101FA00036F90546262D05D1082001F0C7F800F0C6
:101FB000080000B9BB25284607B0BDE8F08310B57E
:101FC00088B050208DF8080000208DF809000DF130
:101FD0000A02022102A8FEF743FF07A802AB04226F
:101FE00002A900900C2000F012F90446262008B047
:101FF00010BD00001CB501210D2000F011FD4FF4B3
:10200000A050009001208DF8040000208DF80600FB
:102010008DF8070069461248FFF7B2FA4FF4004006
:10202000009069460F48FFF7ABFA0420009069461C
:102030000D48FFF7A5FA00208DF804004FF400606A
:10204000009069460648FFF79BFA04210648FFF70F
:102050000DFB4FF400410348FFF708FB1CBD0000D7
:102060000008024000000240000C0240F0B587B0BA
:1020700005460E4630208DF804008DF805500DF110
:102080000602022101A8FEF7EBFE06A801AB04221E
:1020900001A900900C2000F0BAF80746262F0CD1B9
:1020A0000698902809D1002404E001A8005D30556D
:1020B000601CC4B2102CF8DB00E0BB27384607B028
:1020C000F0BD70B588B005460C4608210846FEF7FD
:1020D000FDFE07210D2001F0DDFD0321142001F09C
:1020E000BDF88DF8085007A802AB012202A90090A4
:1020F0000C2000F08CF80646262E09D107981028EF
:1021000006D19DF8080020709DF80900607000E07D
:10211000BB26304608B070BD10B504211E48FFF73D
:10212000A5FA022005F0E6FE04211B48FFF79CFA01
:10213000022005F0DFFE04211748FFF797FA02207E
:1021400005F0D8FE0F21012001F0A4FD00BF012001
:1021500000F0F4FF00F010000028F8D1022005F094
:10216000C9FE3D21112001F095FD1E212D2001F019
:1021700091FD00212C2001F08DFD8D212A2001F000
:1021800089FD3E212B2001F085FD4021152001F025
:1021900081FD262010BD0000000C024070B588B003
:1021A000054693208DF8080070208DF80900002066
:1021B0008DF80E0000240BE0295D02AAA01C11542A
:1021C0009DF80E00295D48408DF80E00601CC4B2D9
:1021D000042CF1DB0DF10F02072102A8FEF740FEEF
:1021E00008210846FEF772FE07A802AB092202A9E1
:1021F00000900C2000F00BF80646262E03D107981D
:10220000182800D100E0BB26304608B070BD2DE98B
:10221000FE4F0646884691469A46DDF830B0BB2010
:1022200002900020019000900C2E06D00E2E09D1B5
:10223000122001901020009005E0772001903020BE
:10224000009000E000BF00BF019840F08001022034
:1022500001F020FD80210420FEF738FE002101203E
:1022600001F018FD80210A2000F0F8FF002505E0AC
:1022700018F80510092001F00DFD6D1C4D45F7D330
:102280003146012001F006FD0C2E03D180210D20E6
:1022900000F0E4FF042000F051FF044640F2DC555A
:1022A00000BF042000F04AFF04466D1E35B104F063
:1022B000010018B9009820400028F2D080210D209C
:1022C000FEF704FE95B3062000F038FF00F01B0077
:1022D00068BB262002900198204000F0010008B160
:1022E000CC2002900C2E24D10A2000F027FF0446B7
:1022F0000C2000F023FF00F007072FB1601E07EB52
:10230000C000CBF8000002E0E000CBF8000004B908
:102310000124122C00DD1224002505E0092000F024
:102320000DFF0AF805006D1CA542F7D301E0BB20A4
:10233000029080210C2000F091FF0021012001F08B
:10234000A9FC0298BDE8FE8FF0B587B006460F469F
:10235000A0208DF804008DF805600DF10602022121
:1023600001A8FEF77DFD06A801AB042201A900909B
:102370000C20FFF74CFF0546262D08D106980428AF
:1023800005D19DF8040000F00F000A2800D0BB25FD
:10239000262D22D1002404E0385D01A90855601CD7
:1023A000C4B2102CF8DB05AA102101A8FEF758FDD5
:1023B00006A801AB122201A900900C20FFF727FF0D
:1023C0000546262D08D10698042805D19DF804005D
:1023D00000F00F000A2800D0BB25284607B0F0BD4A
:1023E00038B504460020009069465220FFF769FE88
:1023F000262807D0FFF790FEFFF75BFDFFF75FFD94
:10240000012038BD2046FFF767FD262801D00220B5
:10241000F7E72620F5E700001FB50446FE200290EE
:102420004F48007898B9162005F0C8FE4DA0FDF77A
:1024300065FF554801214CF2186354A2CDE9001004
:1024400078216020FFF7B0FA01204549087001218A
:102450004F48FFF700F900283DD041480078012897
:1024600039D102214A48FFF701F91E2005F006FD87
:1024700000204849C860444801214FF6E07343A258
:10248000CDE9001078216020FFF78EFA00BF002010
:1024900003F086FA02903F48C06841F288318842D2
:1024A0000CD33DA0FDF72AFF00202D490870022122
:1024B0003748FFF7D9F8FC2004B010BD9DF808009C
:1024C0000028E4D1FF20264908703CA0FDF716FF44
:1024D000162005F073FE01212D48FFF7BCF80028F7
:1024E0003CD11F480078FF2838D1274801214CF201
:1024F000186326A2CDE9001078216020FFF754FA76
:102500000021712003F070FF02AA03A9712003F0DB
:102510001FFD40B12FA0FDF7F1FE02211C48FFF77F
:10252000A3F8FF20C8E79DF8080028B99DF80C1013
:102530002FA0FDF7E3FE03E032A0FDF7DFFE00BFB2
:1025400000BF9DF80C002070012005490870022191
:102550000F48FFF789F89DF80800ADE7FE20ABE7CC
:1025600051010020C7EBBDABCAD6D6B8B7C5B5BDC3
:10257000D6B8CEC6C4A3BFE9BFAACABCCAB6B1F01A
:10258000D6B8CEC60D0A0000A4BE00085A0000004E
:1025900000080240C0010020B4ABB8D0C6F7D2ECAE
:1025A000B3A3A3ACB2C9BCAFCAA7B0DCA3ACC7EBA2
:1025B000D6D8D0C2D7A2B2E10D0A0000D6B8CEC696
:1025C000B2C9BCAFB3C9B9A62CC7EBB7C5CAD6D67A
:1025D000B80D0A00CDA8D0C5CAA7B0DC2CBDD3CA9F
:1025E000D5CAFDBEDDB0FCB4EDCEF30D0A0000008F
:1025F000D6B8CEC6B6D4B1C8B3C9B9A63A25640D0B
:102600000A000000B8C3D6B8CEC6B2BBB4E6D4DA6E
:102610000D0A000070B5002100230F22C4781CB3FE
:10262000174C246804F4E064C4F5E064C4F30721A3
:10263000C1F10404E3B20A4144789C40E1B28478D9
:10264000144021430C07210E0E4C05786155047887
:1026500004F01F050124AC4005786D11AD0005F1B3
:10266000E025C5F8004109E0047804F01F050124C5
:10267000AC40054D0678761145F8264070BD000047
:102680000CED00E000E400E080E100E002490143DD
:10269000024A1160704700000000FA050CED00E0EE
:1026A000014908627047000000000E422DE9F34F17
:1026B00087B000200590069093A10798FDF755FF7D
:1026C00000282ED094A10798FDF74FFF074647B387
:1026D0003A213846FDF73FFF074617B37F1C3846BF
:1026E000FDF72CFF8146B9F1000F07D14FF480713F
:1026F0008D48FEF7BBFF01F023FE12E0B9F1010F98
:102700000FD14FF480718848FEF7AEFF182005F016
:1027100055FD01F02BFE0020844908610120844909
:10272000087084A10798FDF720FF8046B8F1000FDC
:1027300035D03A214046FDF70EFF8046B8F1000F34
:102740002AD008F101084046FDF7F8FE06461EB102
:10275000032E01D0042E08D179A0FDF7CFFD012072
:102760007A4908707A49087016E0012E01D0022ECD
:1027700012D176480078012808D176A0FDF7BEFD79
:102780000020724908707A49087005E079A0FDF7C9
:10279000B5FD00206E49087000207A4908707AA1C2
:1027A0000798FDF7E2FE0546DDB13A212846FDF720
:1027B000D2FE0546ADB16D1C6D1C6D1C2846FDF7A3
:1027C000BDFE8346BBF1060F08D072A0FDF796FD53
:1027D00000205E4908706649087002E072A0FDF7AB
:1027E0008DFD75A10798FDF7C0FE0446002C7DD035
:1027F0000D344FF0000A14E0734850F82A100322F9
:102800002046FDF7C4FE50B90AF10100072190FBF4
:10281000F1F201FB1200C0B28DF8170004E00AF1DA
:10282000010ABAF1070FE7DB00BF241D4FF0000AD1
:102830000FE0664850F82A1003222046FDF7A7FE55
:1028400028B90AF10100C0B28DF8150004E00AF1C0
:10285000010ABAF10C0FECDB00BF241D2046FDF786
:102860006DFEC0B28DF8160000E0641C20782028B0
:10287000FBD1641C2046FDF761FEC0B28DF8180044
:1028800000E0641C20783A28FBD1641C2046FDF748
:1028900055FEC0B28DF8190000E0641C20783A287B
:1028A000FBD1641C2046FDF749FEC0B28DF81A002A
:1028B00000E0641C20782028FBD1641C2046FDF732
:1028C0003DFE04900498A0F5FA60C0B28DF81400A3
:1028D0009DF81A009DF819109DF81820CDE90021E7
:1028E00002909DF816309DF8152000E009E09DF853
:1028F000141037A0FDF702FDDDE9050104F05EFFCD
:1029000000BF09B0BDE8F08F6174747269627574BC
:1029100065732F7075736800226C6F636B5F7374DF
:1029200061747573223A000000040240C001002067
:10293000480000202B435753544154453A000000AF
:1029400077696669B6CFBFAA0D0A0000490000206A
:102950004B00002077696669C1ACBDD3BBD6B8B463
:102960002CBFAACABCC1ACBDD34D5154540D0A00F2
:102970004A00002077696669D5FDB3A3C1ACBDD319
:102980000D0A00004C0000202B4D515454434F4E73
:102990004E3A00004D515454B6CFBFAA2CB3A2CA30
:1029A000D4D6D8C1AC0D0A004D515454C1ACBDD3DE
:1029B000D5FDB3A30D0A00002B434950534E54508C
:1029C00054494D453A000000E8000020B8000020BE
:1029D000B5B1C7B0CAB1BCE43A2032302530326458
:1029E0002D253032642D2530326420253032643A72
:1029F000253032643A253032640A000010B50748A9
:102A000090F8020400B910BD0448B0F80014FFF7B4
:102A10004DFE01F07FFC00BFF5E70000260200201C
:102A200029B1064A12680243044B1A6004E0034AC3
:102A300012688243014B1A60704700003038024030
:102A400029B1064A12680243044B1A6004E0034AA3
:102A500012688243014B1A60704700004038024000
:102A600029B1064A12680243044B1A6004E0034A83
:102A700012688243014B1A607047000044380240DC
:102A8000F0B5002100220024022500260223324F47
:102A90003F6807F00C0121B1042905D0082937D17E
:102AA00005E02E4F076036E02D4F076033E02A4FD8
:102AB0003F1F3F68C7F38056274F3F1F3F6807F00F
:102AC0003F036EB1264FB7FBF3F7DFF88CC0ACF1D4
:102AD000040CDCF800C0CCF3881C07FB0CF40CE001
:102AE0001E4FB7FBF3F7DFF870C0ACF1040CDCF855
:102AF00000C0CCF3881C07FB0CF4174F3F1F3F6846
:102B0000C7F301477F1C7D00B4FBF5F7076002E0C7
:102B1000124F076000BF00BF0F4F3F6807F0F00182
:102B20000909104F7A5C0768D74047600A4F3F6831
:102B300007F4E051890A0B4F7A5C4768D7408760F9
:102B4000054F3F6807F46041490B064F7A5C4768C0
:102B5000D740C760F0BD0000083802400024F400F0
:102B600040787D010000002010B5014600220023BE
:102B700000204A11012A02D10A4C236808E0022AE7
:102B800003D1084C7034236802E0064C7434236887
:102B900001F01F02012494401C400CB1012000E010
:102BA000002010BD00380240014908607047000055
:102BB000800E474201490860704700003C0E4742C2
:102BC000002100F44072B2F5407F08D1094A116833
:102BD00021F4F811084A02401143064A1160054ADF
:102BE00068321268C0F30B031A43024B68331A6051
:102BF0007047000008380240FFFCFF0F10B54FF48B
:102C0000805000F09FF818B14FF4805000F01EF88B
:102C10004FF40030FEF79CF910BD014600BF0809D3
:102C200000EB8000420001F00F001044C0B270477A
:102C30000146002204E0501CC2B2A1F10A00C1B258
:102C40000A29F8DA100741EA1060704700210109EB
:102C50008AB242F08002044B1B6803F0800363EAEF
:102C60000202014B1A6070470C28004008B5002290
:102C7000009200200021104A126802F04002CAB9F6
:102C8000421E0D4B1A6000BF0B4A126802F0400151
:102C9000009A521C0092009AB2F5803F01D00029A0
:102CA000F2D0054A126802F040020AB1012002E0A7
:102CB000002000E0012008BD0C2800400348006807
:102CC00020F0800001490860704700000C28004097
:102CD00070B506460C4600250E4800680E4900EA0D
:102CE0000105280CE070C5F30420607005F03F007A
:102CF000A070C5F3423020705EB9E078FFF78DFF19
:102D0000E0706078FFF789FF6070A078FFF785FFBB
:102D1000A07070BD042800403FFFFF0010B50146C1
:102D200000200022054B1B68054C03EA040202EA5E
:102D300001030BB1012000E0002010BD0C28004071
:102D40007F3F010030B501460020002200230C4CDB
:102D5000246804F004020A4C383C24680C4002EA5F
:102D6000D13544EA0503064C343C246804EA1112C8
:102D70001BB194B20CB1012000E0002030BD000076
:102D80004028004070B506460C4600250F480068F4
:102D90000F4900EA0105C5F305402070C5F3062080
:102DA000607005F07F00A07005F48000000CE070FA
:102DB0005EB92078FFF731FF20706078FFF72DFFB4
:102DC0006070A078FFF729FFA07070BD0028004058
:102DD0007F7F7F0030B504460025CA201549086072
:102DE00053200860FFF742FF00B91DE011481C386E
:102DF000006820F040000F491C3908600846006850
:102E0000216808430B491C3908600A491439A06835
:102E1000086008460068A18840EA01400549143965
:102E20000860FFF74BFF0125FF2002490860284694
:102E300030BD0000242800402DE9F04105460C4635
:102E4000002600274DB9607800F01000102804D14A
:102E5000607820F010000A30607005B908E06078F2
:102E6000FFF7DBFE0646A078FFF7D7FE064600BF59
:102E700055B1E0780004617840EA0120A178084368
:102E8000217840EA413611E0E078FFF7D1FE4FEAC1
:102E900000486078FFF7CCFE48EA0028A078FFF7EA
:102EA000C7FE48EA0008207848EA4036CA2012499E
:102EB000086053200860FFF7D9FE08B9002714E026
:102EC0000E4830400C4920390860FFF7F7FE0A48E9
:102ED0001C38006800F0200030B900F085F808B90F
:102EE000002702E0012700E00127FF2002490860D7
:102EF0003846BDE8F0810000242800403FFFFF0075
:102F00002DE9F04105460C46002600274DB92E4814
:102F1000006800F0400000B102E00020E07000BF57
:102F20000DE02948006800F0400020B12078FFF74C
:102F300074FE064602E00020E07000BF00BF55B1FD
:102F400020780004617840EA0120A1780843E17804
:102F500040EA014611E02078FFF76AFE4FEA004898
:102F60006078FFF765FE48EA0028A078FFF760FE6A
:102F700048EA0008E07848EA0046CA2012491C31B5
:102F8000086053200860FFF771FE08B9002713E0BE
:102F90000E4830400C4908390860FFF78FFE0A4898
:102FA000006800F0200030B900F01EF808B90027D2
:102FB00002E0012700E00127FF2003491C310860DF
:102FC0003846BDE8F0810000082800407F7F7F0080
:102FD00010B54FF48040FFF7B5FE18B14FF48040B4
:102FE000FFF734FE10BD000008B50022009200205B
:102FF0000021CA22134B1A6053221A60114A183A50
:10300000126822F0A0020F4B183B1A6000BF0D4A55
:10301000183A126802F02001009A521C0092009A9D
:10302000B2F5003F01D00029F1D0064A183A1268E3
:1030300002F020020AB1012000E00020FF22014B33
:103040001A6008BD2428004018B1FF21044A11600D
:1030500004E0CA21024A1160532111607047000048
:1030600024280040F8B504460F461546002000907D
:1030700069465220FFF725F8262807D0FFF74CF8BD
:10308000FEF717FFFEF71BFF0120F8BD2846FEF7ED
:1030900023FF262801D00220F7E72846FFF77EF815
:1030A000262801D00320F0E71D2005F087F8E0175F
:1030B00004EB90708010032202EB8000C1B22B461B
:1030C000104A6020FEF741FF262806D00EA0FDF72B
:1030D00015F9FEF774FF0420D7E739462046FEF7BE
:1030E000C5FF262806D00DA0FDF708F9FEF767FFFB
:1030F0000520CAE7FEF763FF0CA0FDF7FFF82620C6
:10310000C3E7000025000020C3DCC2EB41B6D4B108
:10311000C8CAA7B0DC210D0A00000000CAFDBEDD50
:10312000B6C1C8A1CAA7B0DC210D0A00CAFDBEDD28
:10313000B6C1C8A1B3C9B9A60D0A000070B504464E
:1031400000264FF400410E48FEF78EFA022004F0EC
:10315000D1FE7E2000EA440040F08005284600F0C1
:1031600011F8FF2000F00EF806464FF40041044825
:10317000FEF77CFA022004F0BDFE304670BD000070
:103180000000024070B504464FF480611648FEF717
:103190006DFA002523E04FF480611348FEF764FACE
:1031A00004F0800028B14FF480510F48FEF75EFA1A
:1031B00004E04FF480510C48FEF756FA6006040E06
:1031C0004FF480610848FEF751FA4FF40061064859
:1031D000FEF741FA08B144F00104681CC5B2082D9D
:1031E000D9DB204670BD00000008024021B10288F2
:1031F00042F04002028004E002884FF6BF731A409A
:10320000028070470246002013890B400BB1012059
:1032100000E000207047014688897047818170472F
:1032200010B50022028802F441520B884C882343D7
:103230008C882343CC8823430C8923434C89234324
:103240008C892343CC8923431A430280838B4FF21A
:10325000FF74234083830B8A038210BD70B505463B
:103260000C4600262846FFF769FF064646EA040199
:10327000284600F00FFD70BD0CB5002001900090B5
:103280003348006840F480303149086000BF30485E
:10329000006800F4003000900198401C01900098F4
:1032A00018B90198B0F5A04FF1D12948006800F491
:1032B000003010B10120009001E000200090009843
:1032C000012844D122484030006840F08050204915
:1032D000403108601F48006840F440401D490860C4
:1032E0001B48083000681A49083108600846006821
:1032F00008600846006840F4805008601648091FBE
:103300000860081F006840F08070091F086000BF57
:103310000F48006800F000700028F9D040F20270F9
:103320000E4908600A480830006820F00300084988
:10333000083108600846006840F00200086000BFDD
:1033400003480830006800F00C000828F8D10CBDD4
:10335000003802400070004019544107003C024010
:1033600010B51548006840F4700013490860134810
:10337000006840F001001149086000200F49083141
:1033800008600E4800680E4908400C4908600D4866
:10339000091D0860081F006820F48020091F0860CC
:1033A000002006490C310860FFF766FF4FF000600F
:1033B00001498039086010BD88ED00E00038024006
:1033C000FFFFF6FE1030002410B50121284800F060
:1033D000C0F801284AD10121254800F0A2F825486B
:1033E0000068401E2349086008464068401C486049
:1033F00008468068401C88600846C068401CC86059
:1034000008460069401C086108464069401C486144
:1034100008468069401C88610846C069401CC86134
:1034200008464068022821D30020486012480078EE
:1034300001280DD111480068401C10490860084659
:103440000068B0F57A7F11D300200B4908700DE0B9
:103450000948007850B909480068401E07490860CB
:103460000846006810B901200349087010BD00002B
:1034700000400140C00100205800002040080040EA
:1034800000B58BB001210220FFF7CAFA02208DF8A7
:10349000280000208DF82A000220099000208DF8D5
:1034A0002B008DF8290009A91A48FEF769F80222B5
:1034B00001211848FEF7ACF801210220FFF7C0FAFD
:1034C0000020069007900890ADF81A0040F2E7300F
:1034D00007905320ADF8180006A90F4800F020F916
:1034E000142101A8FDF7E4F86020ADF804000020E5
:1034F000ADF810000120ADF806004FF47A7003908B
:1035000001A9054800F0D0F80121034800F00CF8AB
:103510000BB000BD0004024000040040CA43028218
:103520007047CA430282704721B1028842F001020B
:10353000028004E002884FF6FE731A400280704752
:1035400002460020138A0B400BB1012000E000204E
:10355000704730B50246002000230024158A05EA92
:103560000103958905EA010413B10CB1012000E0C3
:10357000002030BD1AB183890B43838102E0838927
:103580008B4383817047000070B500240022002324
:10359000058C4FF6FE7635400584028C8388048BBB
:1035A0004FF68F752C40B51E2C400D882C43751E90
:1035B0002A408D892A434D882A43104DA84202D0C3
:1035C0000F4DA84213D14FF6F7752A40CD892A43F3
:1035D0004FF6FB752A408D882A434FF6FF652B4036
:1035E0004FF6FF552B400D8A2B434D8A2B4383808A
:1035F00004838D684563028470BD000000000140B3
:103600000004014070B5002400220023058C4FF611
:10361000EF7635400584028C8388048B48F6FF756D
:103620002C404FF6FF452C400D884FF6FF7606EAFA
:1036300005252C434FF6DF752A408D8906EA0515CE
:103640002A434D8806EA05152A43154DA84202D0A3
:10365000144DA8421DD14FF67F752A40CD894FF6F3
:10366000FF7606EA05152A434FF6BF752A408D8876
:1036700006EA05152A434FF6FF352B404FF2FF753A
:103680002B400D8A06EA85052B434D8A06EA8505FF
:103690002B43838004838D688563028470BD0000A2
:1036A000000001400004014070B500220023002406
:1036B000058C4EF6FF7635400584038C8488828B1A
:1036C00048F6FF752A404FF6FF452A400D884FF611
:1036D000FF7606EA05252A434DF6FF752B408D89B6
:1036E00006EA05352B434D8806EA05352B430A4D7E
:1036F000A84202D0094DA84208D14BF6FF752C40D4
:103700000D8A4FF6FF7606EA85152C438480828366
:103710008D680564038470BD000001400004014011
:1037200000220288184B98420ED0184B98420BD0BA
:10373000B0F1804F08D0164B984205D0154B9842F7
:1037400002D0154B984204D14FF68F731A404B8824
:103750001A43124B984207D0114B984204D04FF6AF
:10376000FF431A400B891A4302804B68C3620B88DF
:103770000385054B984202D0044B984201D18B7AC5
:10378000038601238382704700000140000401404A
:103790000004004000080040000C00400010004001
:1037A000001400404FF0FF31416000210180018191
:1037B000418081727047000008B540F225513548BC
:1037C00000F038F9002850D040F22551314800F07F
:1037D00009F93148007801283BD12E4800F0E4F97E
:1037E000C0B200906A4601212C48006804F098FF9E
:1037F0004FF480712A48FDF737FF28480068401CC5
:103800002649086027480068401E26490860084687
:103810000068002829D124A0FCF770FD4FF48071C6
:103820001F48FDF723FF00201B49087045F2555043
:103830002549086000BF2448C06800F00200002845
:10384000F9D1FA20204988604AF6AA20086000BF12
:10385000FEE7104800F0A8F9C1B21C48426E406E65
:10386000401C1A4B58661846815440F224410948BE
:1038700000F0E0F868B1074800880648808800201A
:103880001249496E114A505411464866012081F888
:10389000680008BD0010014010000020500000200A
:1038A0000004024054000020D7D6BFE2C9D5C2BCF4
:1038B000CDEAB3C92C3173BAF3D7D4B6AFB8B4CE0E
:1038C000BBC9E8B1B80D0A00003000405401002027
:1038D00010B540F22551194800F0ACF8B8B11748BE
:1038E00000F062F9C4B21648B0F80004B0F57F7F6A
:1038F00002D900F00FFD10BD1148B0F80014B0F867
:103900000004401C0E4AA2F800041046445440F241
:1039100024410A4800F08EF870B108480088074832
:10392000001D008800200649B1F80014044A5054D4
:103930000120114681F8020400BFDCE7004400408A
:103940002602002010B540F22551134800F072F80D
:1039500080B140F22551104800F044F80E4800F0C4
:1039600023F9C1B20D4802780078401C0B4B187047
:103970000B48815440F22441074800F05BF850B1F5
:10398000054800880448001D00880020034908708D
:1039900001200449087010BD0014014059000020A6
:1039A0001C0000202400002070B505460E460024AF
:1039B00004E0285D00F006F8601CC4B2B442F8DBF5
:1039C00070BD000010B5044600BF8021044800F01F
:1039D00024F80028F9D02146014800F0EAF810BD8B
:1039E0000014014010B50022002340F66A14A142E1
:1039F00000D100BF0A1201249440A3B2DC4304802A
:103A000010BD21B1828942F40052828104E0828992
:103A10004DF6FF731A408281704702460020B1F5CF
:103A2000007F00D100BF13880B400BB1012000E0E4
:103A30000020704770B502460024002300250020B6
:103A400040F66A16B14200D100BFC1F3421501F041
:103A50001F03012606FA03F3012D02D19689334094
:103A600006E0022D02D1168A334001E0968A3340E7
:103A70000C12012606FA04F41688344013B10CB176
:103A8000012000E0002070BDF0B5034600240026B0
:103A90000025002040F66A17B94200D100BF184641
:103AA000C1F3421401F01F06012707FA06F5012CA5
:103AB00001D10C3004E0022C01D1103000E01430B0
:103AC0001AB107682F43076002E00768AF43076039
:103AD000F0BD00002DE9FF4705460E460024A14633
:103AE00000BFA046B08900B100BF2C8A24F4405426
:103AF000F08804432C82AC8941F20C608443B08886
:103B000031890843718908430443AC81AC8A24F4A9
:103B10004074B0890443AC826846FEF7B1FF204888
:103B2000854202D01F48854202D1DDF80C9001E0A9
:103B3000DDF80890A88900F4004040B109EBC90005
:103B400000EB091031684900B0FBF1F707E009EB21
:103B5000C90000EB091031688900B0FBF1F764205F
:103B6000B7FBF0F004012009642101FB1078A8895B
:103B700000F4004040B1322000EBC800B0FBF1F08F
:103B800000F00700044308E0322000EB0810642135
:103B9000B0FBF1F000F00F0004432C81BDE8FF877B
:103BA000001001400014014001468888C0F308005D
:103BB0007047C1F30802828070470000F8B50446E0
:103BC0000F4615460020009069465220FEF779FA0C
:103BD000262807D0FEF7A0FAFEF76BF9FEF76FF97B
:103BE0000120F8BD2846FEF777F9262801D00220EB
:103BF000F7E72846FEF7D2FA262801D00320F0E79F
:103C00001D2004F0DBFAE01704EB90708010032213
:103C100002EB8000C1B22B46104A6020FEF795F9F6
:103C2000262806D00EA0FCF769FBFEF7C8F9042091
:103C3000D7E739462046FEF787FB262806D00DA099
:103C4000FCF75CFBFEF7BBF90520CAE7FEF7B7F906
:103C50000CA0FCF753FB2620C3E700002500002042
:103C6000C3DCC2EB41B6D4B1C8CAA7B0DC210D0A8F
:103C700000000000CAFDBEDDD0B4C8EBCAA7B0DCAE
:103C8000210D0A00CAFDBEDDD0B4C8EBB3C9B9A688
:103C90000D0A000070B504460D464FF400410A4875
:103CA000FDF7E2FC7E2000EA44063046FFF76AFAA0
:103CB0002846FFF767FA4FF400410348FDF7D6FCAA
:103CC000022004F017F970BD0000024030380A28C5
:103CD00001D2012070470020704700BF70470000EC
:103CE0003EB5044663480078012879D162A0FCF70C
:103CF00005FB65A0FCF702FB67A0FCF7FFFA6AA0D2
:103D0000FCF7FCFA6DA0FCF7F9FA71A0FCF7F6FAE3
:103D100074A0FCF7F3FA784A00210846FDF714FF77
:103D20002020FF21002247F67C53CDE9002102909C
:103D300072A230212820FDF712FD1020FF21002261
:103D400047F67C53CDE9002102906FA25321052054
:103D5000FDF705FD1020FF21002247F67C53CDE939
:103D6000002102906CA26C210520FDF7F8FC1020C8
:103D7000FF21002247F67C53CDE9002102906AA280
:103D800085210520FDF7EBFC1020FF21002247F6DE
:103D90007C53CDE90021029067A29E210520FDF70A
:103DA000DEFC1020FF21002247F67C53CDE90021E4
:103DB000029066A2B7210520FDF7D1FC1020FF215B
:103DC000002247F67C53CDE90021029064A2D02165
:103DD0000520FDF7C4FC002066498861254908706C
:103DE0006448806942F21071884208D362A0FCF7EF
:103DF00085FA0120664908801E4908703EBD332CB3
:103E00001AD006DC232C2CD0312C07D0322C2ED10A
:103E10000BE0342C17D0352C29D11BE003205C4952
:103E2000088001201349087021E0042058490880C7
:103E30000120104908701AE005205549088001202A
:103E40000C49087013E006205149088001200949F7
:103E500008700CE007204E490880012005490870D1
:103E600005E001204A4908800249087000BF00BFF0
:103E700000BFC3E77E0000200D0AB9DCC0EDD4B15D
:103E8000BDE7C3E63A0D0A00A1BE31A1BFC3DCC243
:103E9000EBB9DCC0ED0D0A00A1BE32A1BFD6B8CE91
:103EA000C6B9DCC0ED0D0A00A1BE33A1BFC9E4C68E
:103EB000B5BFA8B9DCC0ED0D0A000000A1BE34A159
:103EC000BFC9F9D2F4C1C1B6C8B5F7BDDA0D0A0051
:103ED000A1BE35A1BFBBD6B8B4B3F6B3A7C9E8D667
:103EE000C30D0A00A1BE23A1BFCDCBB3F6B9DCC080
:103EF000EDBDE7C3E60D0A00A4BE0008B9DCC0EDC5
:103F0000D4B1BDE7C3E60000A1BE31A1BFC3DCC28E
:103F1000EBB9DCC0ED000000A1BE32A1BFD6B8CE27
:103F2000C6B9DCC0ED000000A1BE33A1BFC9E4C624
:103F3000B5BFA8B9DCC0ED00A1BE34A1BFC9F9D29C
:103F4000F4C1C1B6C8B5F7BDDA000000A1BE35A105
:103F5000BFBBD6B8B4B3F6B3A7C9E8D6C300000058
:103F6000A1BE23A1BFCDCBB3F6B9DCC0EDD4B1BDAA
:103F7000E7C3E600C0010020CEDEB2D9D7F73AB7DA
:103F8000B5BBD8D6F7BDE7C3E6210D0A0000000097
:103F90001200002000B501F065F900BD2DE9F041E7
:103FA00004460E4601F07CFA2746E11704EB116146
:103FB0000912A02202EB4101C8B201F037FA01F068
:103FC00095F90546012D04D101F094FA0120BDE8D0
:103FD000F081E0B201F02AFA01F088F90546012DDE
:103FE00003D101F087FA0220F1E701F059FA2746E0
:103FF000E11704EB11610912A12202EB4101C8B2E1
:1040000001F014FA01F072F90546012D03D101F017
:1040100071FA0120DBE701F09DF93070012001F019
:10402000D5F901F067FA0020D1E72DE9F041044607
:104030000F4601F035FA2646E11704EB116109122B
:10404000A02202EB4101C8B201F0F0F901F04EF9F3
:104050000546012D04D101F04DFA0120BDE8F081A3
:104060002646E11704EB11610912A4EB0121C8B245
:1040700001F0DCF901F03AF90546012D03D101F018
:1040800039FA0220EAE7384601F0D0F901F02EF9BA
:104090000546012D03D101F02DFA0320DEE701F0E2
:1040A00029FA052003F0EAFE0020D7E71CB501211C
:1040B0000220FEF7B5FC01208DF804008DF8060003
:1040C000C020009000208DF807008DF8050069469B
:1040D0000548FDF755FA40210348FDF7C7FA80214E
:1040E0000148FDF7C3FA1CBD0004024010B50024CE
:1040F0001248006820F04000104908600846006837
:1041000040F0800008600846006820F04000086029
:10411000052003F0EFFE0948006840F04000074921
:104120000860052003F0E6FE0448001F006800F068
:10413000800000B900E00124204610BD14040240B4
:1041400070B51A48006820F0400018490860084619
:10415000006840F08000086000251DE013480068FA
:1041600020F0400011490860052003F0C3FE0F480D
:10417000006840F040000D490860052003F0BAFED9
:104180006006040E0948001F006800F0800008B1B6
:1041900044F00104681CC5B2082DDFDB0348006849
:1041A00020F0400001490860204670BD1404024020
:1041B00010B504461548006820F040001349086017
:1041C000032003F097FE34B91048006820F0800007
:1041D0000E49086007E0012C05D10C48006840F04A
:1041E00080000A490860022003F084FE0748006846
:1041F00040F0400005490860052003F07BFE0348BD
:10420000006820F040000149086010BD140402401D
:1042100070B50446002528E01848006820F04000EA
:1042200016490860032003F065FE04F0800030B1F9
:104230001248006840F080001049086005E00F480F
:10424000006820F080000D490860022003F052FE53
:104250000A48006840F0400008490860052003F063
:1042600049FE6006040E681CC5B2082DD4DB034865
:10427000006820F040000149086070BD140402404D
:1042800010B51348006820F040001149086005206F
:1042900003F030FE0E48006840F080000C490860D2
:1042A0000846006840F040000860052003F022FE48
:1042B0000748006820F0800005490860052003F0E9
:1042C00019FE0348006820F040000149086010BD55
:1042D0001404024010B50E48006820F040000C495C
:1042E00008600846006820F0800008600846006802
:1042F00040F040000860052003F0FCFD0448006821
:1043000040F0800002490860052003F0F3FD10BD75
:1043100014040240002004E00021084A1154411C0A
:1043200088B20649B1F800148142F5DC0020034947
:10433000A1F8000481F80204704700002602002062
:1043400010B5054802F0DAF84FF4967003F096FDC8
:10435000002002F0D3F810BD18FCFFFF10B503F0E9
:1043600081FC03F0D9FCFFF7EBFF10BD10B54FF453
:104370007A7002F0C3F84FF4967003F07FFD0020CE
:1043800002F0BCF810BD00001CB5FE200090022118
:104390001948FDF76BF91E2003F070FD0021542031
:1043A00002F022F86A4601A9542001F0D1FD40B183
:1043B00012A0FBF7A3FF02210F48FDF755F9FF20DC
:1043C0001CBD9DF8000010B1902808D103E012A098
:1043D000FBF794FF07E015A0FBF790FF03E017A0A1
:1043E000FBF78CFF00BF00BF02210348FDF73CF93B
:1043F0009DF80000E4E7000000080240CDA8D0C509
:10440000CAA7B0DC2CBDD3CAD5CAFDBEDDB0FCB492
:10441000EDCEF30D0A000000CBF9D3D0D6B8CEC64E
:10442000C9BEB3FDB3C9B9A60D0A0000CEB4D7A268
:10443000B2E1B5C4D3C3BBA70D0A0000C9BEB3FD2A
:10444000CAA7B0DC0D0A00003EB504463B48007820
:10445000002852D03AA0FBF751FF3EA0FBF74EFFD9
:104460003FA0FBF74BFF414A00210846FDF76CFBDC
:104470002020FF21002247F67C53CDE90021029045
:104480003BA230211820FDF76AF92020FF210022ED
:104490004FF47843CDE90021029039A25A21382007
:1044A000FDF75DF9314801214FF4784337A2CDE99A
:1044B00000107E216020FDF777FA1020FF210022F6
:1044C00047F67C53CDE90021029031A2DC21002087
:1044D000FDF745F91020FF21002247F67C53CDE976
:1044E000002102902CA2DC21B420FDF738F90A202B
:1044F00003F064FE0020114908702A2C14D1FF2219
:1045000024212748FCF7CCF80223254A24211F2028
:10451000FCF714FB112003F051FE0520214908800F
:1045200001200649087007E0232C05D105201D490C
:1045300008800120014908703EBD0000AF00002046
:104540000D0AC9BEB3FDCBF9D3D0BFA8C6AC3F3A64
:104550000D0A0000A1BE2AA1BFC8B7C8CF0D0A002E
:10456000A1BE23A1BFC8A1CFFB0D0A00A4BE0008B5
:10457000C9BEB3FDCBF9D3D0BFA8C6AC00000000C4
:10458000C8B7C8CFC9BEB3FD000000003F0000009F
:10459000C8B7C8CF282A2900C8A1CFFB28232900E3
:1045A000F1010020120000202DE9FE4F06464FF0D9
:1045B000010AD3464FF0000893480078002866D0DF
:1045C00092A0FBF79BFE97A0FBF798FE98A0FBF745
:1045D00095FE9AA0FBF792FE9B4A00210846FDF744
:1045E000B3FA2020FF21002247F67C53CDE90021B9
:1045F000029096A230211920FDF7B1F892480121CE
:104600004CF2186395A2CDE9001078213220FDF715
:10461000CBF98D4801214CF2186391A2CDE900102D
:1046200078218220FDF7C0F91020FF21002247F6F3
:104630007C53CDE9002102908AA2DC210020FDF705
:104640008EF81020FF21002247F67C53CDE900218F
:10465000029086A2DC21B420FDF781F8132003F03C
:10466000ADFD844A24211F20FCF715FA1E20824943
:10467000087000208149087000BF03E00021804AD3
:104680001154401C0928F9DB00205F4908707B4861
:104690000078092804D17BA0FBF730FE4FF0000A18
:1046A000BAF1010F60D17D48FDF79AFE0746262F2B
:1046B0005AD100241DE04FF0000800250DE06D48A0
:1046C00000EB8400405D7549495D884203D108F1E3
:1046D000010000F0FF08681CC5B2042DEFDBB8F143
:1046E000040F04D1611C6EA0FBF708FE03E0601C00
:1046F000C4B2092CDFDB00BFB8F1040F31D10020B8
:1047000007E05F490A5C611C8A4201D14FF0000B4F
:10471000401C0928F5D3BBF1010F25D12020FF2132
:104720000022CDE90021029004F13100C2B247F627
:104730007C53502150480078FDF754F8601C5049D4
:104740004E4A127888544D480078401C4B490870F6
:10475000494800781430484908701D2003F02EFDA8
:1047600002E055A0FBF7CAFD2A2E43D1002000909D
:1047700001900290814600BF2AE0002200210AE059
:104780001DF80130DFF8F8C01CF800C0634501D106
:10479000012202E0491C0929F2DB00BFBAB900215D
:1047A0000BE04FF0FF0C364B1B5C5B1EDFF8C4E0E8
:1047B0000EEB830303F801C0491C0429F1DB3049E7
:1047C000095C0DF8091009F1010101F0FF09401C15
:1047D0000928D2DB0223274A24211F20FCF7AEF947
:1047E000112003F0EBFC052039490880012006491F
:1047F000087007E0232E05D10520354908800120E7
:1048000001490870BDE8FE8FB00000200D0ACAB64D
:10481000B1F0C9BEB3FDBFA8C6ACBDE7C3E60D0A83
:1048200000000000CAB6B1F0BFA8C6AC0D0A000077
:10483000C8B7C8CF282A290D0A000000B7B5BBD8D1
:104840002823290D0A000000A4BE0008CAB6B1F052
:10485000C9BEB3FDBFA8C6AC0000000050000000F8
:1048600051000000C8B7C8CF282A2900B7B5BBD867
:1048700028232900F1010020B1000020B20000200F
:1048800047060020CAB6B1F0D2D1B4EFC9CFCFDE0F
:104890002CC7EBCFC8C9BEB3FD0D0A003B000020FA
:1048A000B4CBBFA8C6ACB5C4D7A2B2E14944CEAA26
:1048B00025640D0A00000000B4CBBFA8C6ACCEB47E
:1048C000D7A2B2E12CC7EBCFC8D7A2B2E10D0A0044
:1048D000120000203EB504463D480078002852D022
:1048E000062003F06BFC3BA0FBF708FD3EA0FBF7A6
:1048F00005FD40A0FBF702FD414A00210846FDF7F7
:1049000023F92020FF21002247F67C53CDE9002126
:1049100002903CA230211820FCF721FF2020FF212B
:10492000002247F67C53CDE90021029039A255219F
:104930003820FCF714FF324801214FF4784338A2A5
:10494000CDE900107E216020FDF72EF81020FF2118
:10495000002247F67C53CDE90021029031A2DC21F0
:104960000020FCF7FCFE1020FF21002247F67C53BC
:10497000CDE9002102902DA2DC21B420FCF7EFFE4E
:104980000020134908702A2C19D1FFF7FDFCFF22E3
:1049900009212848FBF784FE0223264A0921152015
:1049A000FCF7CCF824A0FBF7A9FC112003F006FCCF
:1049B00004202649088001200549087007E0232CBF
:1049C00005D10420214908800120014908703EBD1D
:1049D000A00000200D0AC9BEB3FDCBF9D3D0D6B8D4
:1049E000CEC63F3A0D0A0000A1BE2AA1BFC8B7C873
:1049F000CF0D0A0023A1BFC8A1CFFB0D0A00000004
:104A0000A4BE0008C9BEB3FDCBF9D3D0D6B8CEC67C
:104A100000000000C8B7C8CFC9BEB3FD0000000049
:104A20003F000000C8B7C8CF282A2900C8A1CFFB83
:104A300028232900E8010020D2D1C9BEB3FDCBF95B
:104A4000D3D0D6B8CEC60D0A000000001200002058
:104A5000FEB5054670480078012858D16FA0FBF7D5
:104A60004DFC74A0FBF74AFC75A0FBF747FC77A050
:104A7000FBF744FC784A00210846FDF765F8202042
:104A8000FF21002247F67C53CDE90021029073A25A
:104A900030211920FCF763FE6F4801214CF21863A6
:104AA00072A2CDE9001078216020FCF77DFF102074
:104AB000FF21002247F67C53CDE9002102906CA231
:104AC000DC21A020FCF74BFE1020FF21002247F63E
:104AD0007C53CDE90021029068A2DC210020FCF784
:104AE0003EFE694A09211520FBF7D5FF1E206749C4
:104AF000088000206649087000BF03E00021654A75
:104B00001154401C0928F9DB002043490870614911
:104B10005F4A12788818FDF77FFC08BB5C48007874
:104B200009281DDA5A480078401C5949087020208D
:104B3000FF210022CDE90021029055480078401E57
:104B40005449085C3030C2B247F67C5350214F487C
:104B50000088FCF747FE4D48008814304B49088018
:104B60004B480078092807D149480078401C48493B
:104B7000087049A0FBF7C2FB2A2D43D1002000900A
:104B8000019002900026002428E00027002008E081
:104B90001DF800103F4A125D914201D1012702E049
:104BA000401C0928F4DB00BFBFB93A49085DFCF797
:104BB000F5FA002009E03449095C364A125D914259
:104BC00002D1FF21304A1154401C0928F3DB31483F
:104BD000005D0DF80600701CC6B2641C2C480078FD
:104BE0008442D2DB0223284A09211520FBF7A6FFC5
:104BF000112003F0E3FA042033490880012006491C
:104C0000087007E0232D05D104202F4908800120DA
:104C100001490870FEBD0000A10000200D0ACAB6BF
:104C2000B1F0C9BEB3FDD6B8CEC6BDE7C3E60D0A26
:104C300000000000CAB6B1F0D6B8CEC60D0A00001A
:104C4000A1BE2AA1BFC8B7C8CF0D0A00A1BE23A12B
:104C5000BFC8A1CFFB0D0A00A4BE0008CAB6B1F0C0
:104C6000C9BEB3FDD6B8CEC6000000005A00000091
:104C7000A1BE23A1BFB7B5BBD8000000C8B7C8CF3D
:104C8000A1BE2AA1BF000000E8010020A200002070
:104C9000A40000203E060020D6B8CEC6CAB6B1F0A9
:104CA000B8F6CAFDB4EFB5BDC9CFCFDE2CC7EBCF88
:104CB000C8C9BEB3FDD2D1BEADCAB6B1F0D6B8CE6A
:104CC000C649440D0A00000012000020FEB504464B
:104CD0001E264F480078002865D0072003F06EFAA2
:104CE0004CA0FBF70BFB51A0FBF708FB53A0FBF715
:104CF00005FB58A0FBF702FB5B4A00210846FCF7C6
:104D000023FF2020FF21002247F67C53CDE900211C
:104D1000029056A230211820FCF721FD1020FF211F
:104D2000002247F67C53CDE90021029053A2DC21FA
:104D30000020FCF714FD1020FF21002247F67C53D1
:104D4000CDE90021029050A2DC219620FCF707FD5E
:104D5000504A09211520FBF79EFE00BF00251DE0EB
:104D60004C48405DFF2817D04A48415D4AA0FBF7F8
:104D7000C5FA2020FF210022CDE9002102904548FC
:104D8000405D3030C2B247F67C5350213046FCF7CC
:104D900029FD06F1140086B2681CC5B2092DDFDBBF
:104DA00000201B490870FF2C1DD0232C1BD02A2C5F
:104DB00019D0A4F13001C8B2FCF7F0F93849086005
:104DC0000846006878B9FF21A4F13100314A115436
:104DD000022309211520FBF7B1FE112003F0EEF9A3
:104DE00001200B490870232C02D02A2C0DD106E09B
:104DF00004202C49088001200549087005E00120A5
:104E0000284908800249087000BF00BFFEBD0000AD
:104E10009B0000200D0AC9BEB3FDD6B8B6A8D6B80F
:104E2000CEC6BDE7C3E63A0D0A000000C7EBD1A12C
:104E3000D4F1D6B8CEC649440D0A0000A1BE23A1C4
:104E4000BFBBD8B5BDC9CFD2BBBCB6B2CBB5A50D23
:104E50000A000000A1BE2AA1BFBBD8B5BDD6F7BDD0
:104E6000E7C3E60D0A000000A4BE0008C9BEB3FDFA
:104E7000D6B8B6A8D6B8CEC600000000A1BE2AA1FA
:104E8000BFD6F7BDE7C3E600C9CFD2BBBCB6A1BE53
:104E900023A1BF00E80100202575202000000000AC
:104EA0009C00002012000020FEB5044663480078F4
:104EB000002876D062A0FBF721FA67A0FBF71EFA64
:104EC00069A0FBF71BFA6EA0FBF718FA714A0021E4
:104ED0000846FCF739FE2020FF21002247F67C53CC
:104EE000CDE9002102906CA230211820FCF737FC9C
:104EF0001020FF21002247F67C53CDE900210290CB
:104F000069A2DC210020FCF72AFC1020FF210022EE
:104F100047F67C53CDE90021029066A2DC21962061
:104F2000FCF71DFC0B2003F049F9654A24211F20E2
:104F3000FBF7B1FD1E20634908800020624908701C
:104F4000002529E0002622E05D4800EB8500805D19
:104F5000FF281AD02020FF210022CDE90021029055
:104F600005F13100C2B247F67C5350215548008804
:104F7000FCF738FC54480078401C534908705148ED
:104F8000008814304F49088003E0701CC6B2042E1C
:104F9000DADB00BF681CC5B2092DD3DB002027492E
:104FA000087049480078002823DDFF2C31D0232CDD
:104FB0002FD02A2C2DD0002007E0FF22A4F13101B0
:104FC0003F4B03EB81010A54401C0428F5DB02230C
:104FD0003B4A24211F20FBF7B1FD112003F0EEF81E
:104FE00039480078401E384908700120134908707C
:104FF0000FE036A0FBF782F92020FF2100224FF4BA
:105000007843CDE90021029038A2AA211E20FCF7A6
:10501000A6FB232C02D02A2C0DD106E0052037490F
:10502000088001200549087005E001203349088007
:105030000249087000BF00BFFEBD0000AB000020A9
:105040000D0AC9BEB3FDD6B8B6A8BFA8C6ACBDE7A9
:10505000C3E63A0D0A000000C7EBD1A1D4F1BFA806
:10506000C6AC0D0A00000000A1BE23A1BFBBD8B58D
:10507000BDC9CFD2BBBCB6B2CBB5A50D0A000000EE
:10508000A1BE2AA1BFBBD8B5BDD6F7BDE7C3E60D0B
:105090000A000000A4BE0008C9BEB3FDD6B8B6A879
:1050A000BFA8C6AC00000000A1BE2AA1BFD6F7BDB4
:1050B000E7C3E600C9CFD2BBBCB6A1BE23A1BF00E7
:1050C000F1010020AC000020AE000020C3BBD3D013
:1050D000D3C3BBA7D7A2B2E1BCC7C2BC2CC7EBCF1E
:1050E000C8D7A2B2E1BFA8C6AC0D0A00C7EBCFC8B3
:1050F000D7A2B2E1BFA8C6AC000000001200002099
:105100003EB504463448007800284FD033A0FBF762
:10511000F5F838A0FBF7F2F839A0FBF7EFF83B4AB7
:1051200000210846FCF710FD2020FF21002247F651
:105130007C53CDE90021029035A230211820FCF7E4
:105140000EFB1020FF21002247F67C53CDE9002101
:10515000029033A255213820FCF701FB2B48012196
:105160004FF4784331A2CDE900107E216020FCF796
:105170001BFC1020FF21002247F67C53CDE90021C3
:1051800002902BA2D2210020FCF7E9FA1020FF2187
:10519000002247F67C53CDE90021029026A2D221BD
:1051A000B420FCF7DCFA00200B4908702A2C09D146
:1051B0000020234908600120224908800649087020
:1051C00002F0A8F8232C05D102201E4908800120F6
:1051D000014908703EBD0000B40000200D0ABBD696
:1051E000B8B4B3F6B3A7C9E8D6C3BDE7C3E63A0D72
:1051F0000A000000A1BE2AA1BFC8B7C8CF0D0A008F
:10520000A1BE23A1BFC8A1CFFB0D0A00A4BE000808
:10521000BBD6B8B4B3F6B3A7C9E8D6C30000000044
:10522000C8B7C8CFBBD6B8B4A3BF000048000000C1
:10523000C8B7C8CF282A2900C8A1CFFB2823290036
:10524000400400401200002000BF054A128802F00E
:105250004002002AF9D0C2B2014B9A807047000088
:10526000001001401E48006840F001001C49086021
:105270000846006840F0040008601A48006820F4FE
:105280004030184908600846006840F480300860E3
:105290001548006820F4402013490860084600685B
:1052A00040F4802008600F48406820F480700D4969
:1052B00048600D48001D006840F400700A49091D4F
:1052C00008600848406940F4807006494861064813
:1052D0001430006840F400700349143108607047CE
:1052E00030380240000002400008024010B5174864
:1052F000406920F48070154948611548006840F401
:105300000070134908601148406920F480700F490B
:105310004861052002F0EEFD0C48406940F48070C1
:105320000A494861052002F0E5FD0948001F0068B0
:1053300000F4007008B1012400E000240348406933
:1053400020F4807001494861204610BD00000240F1
:105350001408024070B51B48406920F48070194958
:1053600048611948006840F400701749086000253A
:105370001DE01448406920F48070124948610520FE
:1053800002F0B8FD0F48406940F480700D49486153
:10539000052002F0AFFD6006040E0B48001F0068F8
:1053A00000F4007008B144F00104681CC5B2082D77
:1053B000DFDB0448406920F48070024948612046E0
:1053C00070BD0000000002401408024010B5044601
:1053D0001448406920F4807012494861032002F0AB
:1053E00089FD34B11048006840F400700E4908602F
:1053F00005E00D48006820F400700B4908600220A9
:1054000002F078FD0748406940F480700549486122
:10541000052002F06FFD0348406920F480700149C7
:10542000486110BD000002401408024070B50446F7
:10543000002528E01848406920F48070164948612A
:10544000032002F057FD04F0800030B113480068DB
:1054500040F400701149086005E01048006820F42D
:1054600000700E490860022002F044FD0A484069BD
:1054700040F4807008494861052002F03BFD600659
:10548000040E681CC5B2082DD4DB0348406920F423
:1054900080700149486170BD00000240140802405C
:1054A00010B51248406920F48070104948611048D6
:1054B000006840F400700E4908600C48406940F4F0
:1054C00080700A494861052002F014FD0848006810
:1054D00020F4007006490860052002F00BFD034827
:1054E000406920F480700149486110BD000002400D
:1054F0001408024010B50F48406920F480700D492F
:1055000048610D48006820F400700B4908600948A4
:10551000406940F4807007494861052002F0EAFCC8
:105520000548006840F4007003490860052002F057
:10553000E1FC10BD00000240140802404AF6AA2017
:105540000149086070470000003000400E480068C4
:1055500040F001000C49086000BF0B48006800F0F3
:1055600002000028F9D045F255500849086005208E
:10557000486040F6C41088604AF6AA2008604CF6DD
:10558000CC40086070470000743802400030004092
:105590001CB501210846FDF743FA01210420FDF75F
:1055A0003FFA0020009001908DF804000120009047
:1055B00000208DF8070069460548FBF7E1FF4FF42E
:1055C0000050009069460348FBF7DAFF1CBD00005D
:1055D000000002400008024010B5002401212048CC
:1055E000FCF739F878B11F48007860B1142002F058
:1055F00045FC01211A48FCF72EF8D0B10124002007
:105600001849087015E04FF400511748FCF723F8CB
:1056100078B91448007860B1142002F02FFC4FF4E0
:1056200000511148FCF717F818B9022400200D4961
:10563000087001210A48FCF70EF878B94FF40051C0
:105640000948FCF708F808B9012000E0002028B953
:10565000142002F013FC012002490870204610BDFE
:10566000000002404F000020000802401CB501214C
:105670000220FDF7D5F900200090019001208DF85F
:10568000040000208DF806004FF4407000900020C8
:105690008DF807008DF8050069460448FBF770FF98
:1056A0004FF440710148FBF7E1FF1CBD00040240CC
:1056B0004FF4A060FCF7EAFFFFF7D8FFFFF768FFA1
:1056C0004FF4E13002F092FC03F008F8FEF762FCC0
:1056D00002F07AFBFCF76DFA02F0B4FDFBF792FBE7
:1056E000FFF734FFFEF73AFE02F01CF800F0AAFACA
:1056F000FCF780FC012002F037FC03F0F5F8FBF723
:10570000BFFD55A157A0FBF7B3FE594908700846E5
:10571000007860B902F004F900F00EFF012803D10F
:1057200054A0FAF7EBFD02E05CA0FAF7E7FD02F007
:105730004FF98FE0FFF702FF4D48007880B96148CC
:10574000007868B901205F49087000F0F5FE012873
:1057500003D148A0FAF7D2FD02E050A0FAF7CEFD3F
:1057600059480078012808D100205749087040F6B0
:10577000B83256A156A0FBF73DFEFBF749FA59494E
:10578000087059480088292828D007DC08285CD2EE
:10579000DFE800F05B10151A1F3851562A380D2823
:1057A00053D2DFE800F020252A525252525252348E
:1057B000393E43004B48007800F098F845E04948EE
:1057C0000078FEF78DFA40E04648007801F07EFA56
:1057D0003BE04448007800F05DFA36E0414800784C
:1057E000FBF7BCFB31E03F480078FFF76FFA2CE095
:1057F0003C480078FFF76EF827E03A480078FFF75A
:1058000027F922E03748007801F0C2FD1DE0354855
:10581000007801F0B3FB18E032480078FFF744FB52
:1058200013E030480078FEF70FFE0EE02D480078B8
:10583000FEF7BAFE09E02B48007802F02FFD04E0E5
:1058400028480078FFF75CFC00BF00BF02F054F965
:10585000FDF7D4F86EE70000383838383838383873
:105860000000000033313933333438353400000060
:10587000490000204D515454B7FECEF1C6F7C1ACDB
:10588000BDD3B3C9B9A621D4B6B3CCBFAACBF8B99E
:10589000A6C4DCBFAAC6F4A3A10D0A004D515454FE
:1058A000B7FECEF1C6F7C1ACBDD3CAA7B0DC21D4D8
:1058B000B6B3CCBFAACBF8B9A6C4DCB9D8B1D5A3CE
:1058C000A10D0A004A0000204D0000204F4B0000AF
:1058D00041542B434950534E545054494D453F0D6C
:1058E0000A00000011000020120000207CB50446D0
:1058F0001F49204601F056F80546012D0CD1022023
:105900001C490880C1011C48FBF7AEFE00201B4962
:10591000086101201A49087015480078FF2803D152
:1059200000F052FF00F0B8FE144880684EF6602187
:1059300088421BD30020114988601249FDF722FAE2
:1059400011490020FDF7C4F90E48437802780FA1F1
:105950001148FAF7DFFC114801214CF218630E4A96
:10596000CDE900103A210020FCF71EF87CBD0000B4
:10597000600000201200002000040240C00100204E
:105980004800002014000020180000202530326458
:105990003A253032640000002A060020A4BE000828
:1059A0007CB504462146512000F01EFD6A4601A93F
:1059B000512000F0CDFA0546002D4ED19DF8000093
:1059C000B5282DD00BDCB2281ED003DCA0B1B12845
:1059D0003ED115E0B3281BD0B42839D11CE0B8283B
:1059E0002AD004DCB6281FD0B72831D120E0C02847
:1059F00026D0C2282CD127E01CA0FAF77FFC2BE090
:105A000022A0FAF77BFC27E027A0FAF777FC23E037
:105A10002BA0FAF773FC1FE037A0FAF76FFC1BE02E
:105A200043A0FAF76BFC17E04EA0FAF767FC13E00F
:105A30005AA0FAF763FC0FE065A0FAF75FFC0BE0F1
:105A400069A0FAF75BFC07E06BA0FAF757FC03E0EC
:105A500070A0FAF753FC00BF04E076A0FAF74EFC02
:105A6000FF207CBD9DF80000FBE70000D7A5C8A182
:105A7000D6B8CEC6CDBCCFF1BCB0CCD8D5F7C1BF5F
:105A8000CCE1C8A1B3C9B9A60D0A0000D6B8CEC6EC
:105A9000B9FDD0A128736D616C6C2066696E676575
:105AA00072290D0A00000000CEDED6B8CEC620282E
:105AB0006E6F2066696E676572290D0A000000002E
:105AC000D6B8CEC6CEBBD6C3B9FDD3DABFBFD7F3E7
:105AD000A3ACD0E8D2AABDABCAD6D6B8BFBFD3D28A
