:020000040800F2
:1000000018080020490200085102000853020008A5
:1000100055020008570200085902000800000000BD
:100020000000000000000000000000005B0200086B
:100030005D020008000000005F0200086102000885
:1000400063020008630200086302000889260008B2
:1000500063020008630200086302000863020008EC
:1000600063020008630200086302000863020008DC
:1000700063020008630200086302000863020008CC
:100080006302000863020008630200080000000029
:1000900000000000000000000000000063020008F3
:1000A000A92900086302000863020008630200082F
:1000B000630200086302000863020008630200088C
:1000C000630200086302000863020008630200087C
:1000D00063020008513000086302000800000000BD
:1000E00063020008B5220008630200080000000057
:1000F0000000000000000000000000006302000893
:1001000000000000630200086302000863020008A8
:1001100000000000000000000000000000000000DF
:10012000630200086302000863020008630200081B
:100130006302000800000000000000000000000052
:100140000000000000000000000000006302000842
:1001500063020008630200086302000869310008B6
:1001600063020008630200080000000000000000B5
:10017000000000000000000000000000000000007F
:100180000000000063020008000000000000000002
:100190006302000800F002F800F047F80AA090E8B7
:1001A000000C82448344AAF10107DA4501D100F032
:1001B0003CF8AFF2090EBAE80F0013F0010F18BFB8
:1001C000FB1A43F00103184798660200B866020064
:1001D000103A24BF78C878C1FAD8520724BF30C873
:1001E00030C144BF04680C60704700000023002445
:1001F00000250026103A28BF78C1FBD8520728BF37
:1002000030C148BF0B607047642900F099807529A0
:1002100000F09680782900F0CF80002070471FB54D
:1002200006F060FF1FBD10B510BD00F0E3FA1146E7
:10023000FFF7F5FF04F0ECFB00F001FB03B4FFF760
:10024000F2FF03BC03F0EFF8094880470948004774
:10025000FEE7FEE7FEE7FEE7FEE7FEE7FEE7FEE776
:10026000FEE7FEE704480549054A064B70470000D3
:1002700041290008950100081802002018080020F4
:1002800018040020180400207047B2F120030AD59A
:10029000C2F1200301FA02F120FA03F300FA02F09E
:1002A00041EA0301704700FA03F14FF00000704784
:1002B0000FB4044910B503AA029800F063FA10BC09
:1002C0005DF814FB280000200FB41CB5074B06AAEC
:1002D0007B4469460090059800F03BFA002069468F
:1002E00000F04AFA1CBC5DF814FB0000A5040000F5
:1002F00070B5044685690068C10601D5302600E066
:100300002026C00707D070BDD4E9012130469047B0
:10031000206A401C20626D1EF6D570BD70B5044683
:1003200085690078C00707D170BDD4E9012120207C
:100330009047206A401C20626D1EF6D570BD0000FB
:100340002DE9F0410646002410687529314616A5AE
:1003500010D0AFF30080002802DA404213A507E076
:1003600031688A0701D512A502E0490704D511A515
:10037000012401E0AFF3008000210A2206F12407E6
:1003800009E0B0FBF2FCB0FBF2F302FB1C003030E2
:1003900078541846491C0028F3D123462A46304693
:1003A000BDE8F04100F076B9000000002D0000002B
:1003B0002B0000002000000070B504460D462146C9
:1003C0001068AFF300802188090502D50F4A7A44EE
:1003D00002E00E4A7A440E32002104F1240305E0C3
:1003E00000F00F060009965D5E54491C0028F7D105
:1003F00020780023000704D5702D02D009B1022314
:1004000011322046BDE8704000F044B95264020049
:100410002DE9F05F894604464FF0000ADFF824B169
:10042000FB44C0F820A02046E168884700287DD022
:10043000252806D0D4E901219047206A401C20627B
:10044000F1E700255F462046E168884720280646F8
:1004500007DB312E05D2B81910F8200C08B105437E
:10046000F1E7A80701D525F00405C4F81CA0002772
:10047000C4F818A02A2E09D0304602F0CDFF38B3B8
:1004800004EB8708303EC8F8186019E059F8041BDF
:10049000204604EB87029161E1688847012F0646F8
:1004A00018D1E069002820DA25F020051DE0D8F8F1
:1004B000180000EB800006EB40003038C8F8180048
:1004C0002046E1688847064602F0A6FF0028EED1E4
:1004D000012F0AD02E2E08D12046E16888477F1CC4
:1004E0000646022F45F02005C4DBA069002803DA88
:1004F000404245F00105A061E80701D025F0100554
:10050000A6B1A6F14100192802D8203645F40065AD
:100510004A463146204625604D46FFF775FE60B1DC
:10052000012807D0ED1D25F0070000E007E000F1ED
:10053000080978E705F1040975E730467AE7206A8B
:10054000BDE8F09F2864020010B5203AC0F00B808F
:10055000B1E81850203AA0E81850B1E81850A0E8C7
:100560001850BFF4F5AF5FEA027C24BFB1E8185021
:10057000A0E8185044BF18C918C0BDE810405FEA91
:10058000827C24BF51F8043B40F8043B08BF70470D
:10059000D20728BF31F8023B48BF11F8012B28BF12
:1005A00020F8023B48BF00F8012B704702F0FF0320
:1005B00043EA032242EA024200F0F8B84FF0000298
:1005C00000B5134694469646203922BFA0E80C5049
:1005D000A0E80C50B1F12001BFF4F7AF090728BF24
:1005E000A0E80C5048BF0CC05DF804EB890028BFA0
:1005F00040F8042B08BF704748BF20F8022B11F0C9
:10060000804F18BF00F8012B704700004FF0013CED
:1006100050F8042B51F8043B9A4221D1A2EB0C0371
:10062000934313EACC1317D150F8042B51F8043B31
:100630009A4215D1A2EB0C03934313EACC130BD1CE
:1006400050F8042B51F8043B9A4209D1A2EB0C0359
:10065000934313EACC13DBD04FF00000704700BF88
:10066000D01A01BAB1FA81F101F0180122FA01F0B1
:10067000CB40C1F12001DBB2C0B2C01A2CFA01F3A9
:10068000D11A914311EAC311E6D170477047704700
:10069000704770472DE9F0470D469946924604464B
:1006A00000F124080168880604D5E06921F01001F2
:1006B000216000E00120A84201DD471B00E0002787
:1006C000A1697A1902EB0900081AA0612078C00616
:1006D00002D42046FFF70CFE002608E0D4E90121F1
:1006E0001AF806009047206A401C761C20624E458E
:1006F000F4DB2078C0060AD52046FFF7F9FD06E0B6
:10070000D4E9012130209047206A401C2062381E25
:10071000A7F10107F4DC07E0D4E9012118F805008E
:100720009047206A401C2062281EA5F10105F3DCD9
:100730002046FFF7F3FD2078000602D50220BDE831
:10074000F0870120FBE7000001694A1C026108787C
:10075000704700B58FB0CDE9013100210591054901
:100760007944CDE9031011466846FFF751FE0FB0FA
:1007700000BD0000E5FFFFFF0A6802F8010B0A60F8
:1007800070470000074B70B50D467B44FFF7E1FF53
:100790000446284600F02AF810B14FF0FF3070BD33
:1007A000204670BD1B3E00004FF000020429C0F03F
:1007B000128010F0030C3FF403AFCCF1040CBCF139
:1007C000020F18BF00F8012BA8BF20F8022BA1EBE5
:1007D0000C01FFF7F5BE5FEAC17C24BF00F8012BD6
:1007E00000F8012B48BF00F8012B7047007B00F098
:1007F00080007047754600F02BF8AE46050069464C
:10080000534620F00700854618B020B5FFF72AFDB3
:10081000BDE820404FF000064FF000074FF0000801
:100820004FF0000B21F00701AC46ACE8C009ACE882
:10083000C009ACE8C009ACE8C0098D46704710B5E6
:100840000446AFF300802046BDE81040FFF7F6BC39
:1008500000487047B40100202DE9F04104460D46E0
:10086000164603F0CDFFA046E11704EB1161091213
:10087000A02202EB4101C8B203F088FF03F0E6FEBC
:100880000746012F04D103F0E5FF0120BDE8F08108
:10089000E0B203F07BFF03F0D9FE0746012F03D13E
:1008A00003F0D8FF0220F1E703F0AAFFA046E1170A
:1008B00004EB11610912A12202EB4101C8B203F05D
:1008C00065FF03F0C3FE0746012F03D103F0C2FF0B
:1008D0000120DBE70DE003F0EDFE3070681E85B20D
:1008E0001DB9012003F022FF04E0002003F01EFFE9
:1008F000761CF0E700BF03F0ADFF0020C6E72DE94E
:10090000F04106460D4690461F4619E0F80096FB5A
:10091000F0F100FB1160C0EBC700C4B2AC4205DBD4
:10092000E9B24246304600F010F80AE0424621465D
:10093000304600F00AF8301986B2281B85B2A04470
:10094000E4E700BF0020BDE8F0812DE9F041044656
:100950000D46164603F054FFA046E11704EB116163
:100960000912A02202EB4101C8B203F00FFF03F00D
:100970006DFE0746012F04D103F06CFF0120BDE896
:10098000F081E0B203F002FF03F060FE0746012FA2
:1009900003D103F05FFF0220F1E710E0307803F0AD
:1009A000F5FE03F053FE0746012F03D103F052FF7B
:1009B0000320E4E7681EC5B205B901E0761CEDE747
:1009C00000BF03F047FF052005F07EFF0020D6E7BB
:1009D00010B5FF240E48006900F0020068B90D4808
:1009E000007850B100F018F80446FF2C05D0002024
:1009F000084908701D2006F085F80548006900F0D8
:100A0000020010B1012003490870204610BD00000B
:100A1000000002407800002010B502F0B7FFA020CF
:100A200002F07CFF02F0E8FE18B102F0D9FF0120CD
:100A300010BD00BF3B48006800F040000028F9D01E
:100A4000082002F06BFF02F0D7FE18B102F0C8FFD9
:100A50000220EDE700BF3348006800F040000028A6
:100A6000F9D002F093FFA12002F058FF02F0C4FE7B
:100A700018B102F0B5FF0320DAE700BF294800688B
:100A800000F040000028F9D002F0E0FE044600200B
:100A900002F014FF02F0DAFE44EA0024012002F022
:100AA0000DFF02F09DFF402C2AD00EDC082C29D02F
:100AB00006DC012C1AD0022C1ED0042C2ED127E0EB
:100AC000102C29D0202C29D120E0B4F5007F21D092
:100AD00005DC802C0ED0B4F5807F1FD114E0B4F576
:100AE000806F05D0B4F5006F18D107E031209FE783
:100AF00032209DE733209BE7342099E7352097E7A4
:100B0000362095E7372093E7382091E739208FE7A3
:100B10002A208DE730208BE7232089E700BFFF20C4
:100B200086E700001004024070B50446002602F07B
:100B30002DFFA02002F0F2FE02F05EFE18B102F0DE
:100B40004FFF012070BD00BF1D48006800F040004D
:100B50000028F9D0B02002F0E1FE02F04DFE18B1FD
:100B600002F03EFF0220EDE700BF1548006800F0EC
:100B700040000028F9D001251BE0162D03D1F0B26A
:100B800002F0CCFE05E0207802F0C8FE2078064492
:100B9000641C02F031FE18B102F022FF0320D1E7FD
:100BA00000BF0748006800F040000028F9D0681C2A
:100BB000C5B2162DE1DD02F013FF0020C2E70000F0
:100BC0001004024000B58DB0182107A8FFF7F6FC0D
:100BD00018220BA101A8FFF7B7FC02F0EDFD0E48AB
:100BE000006840F001000C4908600C48006820F0E3
:100BF0000C000A49086001A8FFF796FF0DB000BD80
:100C0000000083F3983F3F3F3F3F3F3F3F3F3F3F21
:100C10003F3F3F3F7F00000030380240000002406D
:100C20002DE9F0410746884615460421052000F0CD
:100C30002DF80021012002F0D3FB80210A2001F0D1
:100C4000FDFD002405E0395D092002F0C9FB601CB0
:100C5000C4B24445F7DB0321012002F0C1FBFF24AD
:100C600000BF052001F05AFD0646601EC4B21CB14B
:100C700006F004000028F4D0222001F04FFD287077
:100C8000212001F04BFD6870BDE8F08170B505468C
:100C90000C460026284601F041FD064626EA0401DE
:100CA000284602F09DFB70BD0149086070470000B6
:100CB000143C01403EB505465F48007800286ED0E0
:100CC0005EA0FFF7F5FA63A0FFF7F2FA67A0FFF75F
:100CD000EFFA6B4A0021084600F062FC2020FF2159
:100CE000002247F67C53CDE90021029065A2302115
:100CF000182000F060FA1020FF21002247F67C53F4
:100D0000CDE90021029063A2DC21002000F053FA1B
:100D10001020FF21002247F67C53CDE900210290EC
:100D20005FA2DC21962000F046FA554801214CF2E2
:100D300018635EA2CDE900107821602000F060FB0E
:100D40005B4A09211520FFF787FD1E2059490880BD
:100D5000002420E05648005DFF281AD05448015D69
:100D600055A0FFF7A5FA2020FF210022CDE90021A0
:100D700002904F48005D3030C2B247F67C5350219C
:100D80004C48008800F05AFA4A4800881430494913
:100D90000880601CC4B2092CDCDB002407E016E0EC
:100DA0004348005DFF2800D103E0601CC4B2092C59
:100DB000F6DB00BF601C42490870084600780A282C
:100DC00002D140A0FFF774FA00201B4908703C488C
:100DD00000780A281BDA3A48007804F00FFA3F49F5
:100DE00008600846006890B9354801780078401ED0
:100DF0002F4A1154022309211520FFF780FD3048A6
:100E0000017837A0FFF754FA01200B490870232D11
:100E100002D02A2D0DD106E004203549088001209A
:100E20000549087005E00120314908800249087031
:100E300000BF00BF3EBD00005A0000200D0AD7A22F
:100E4000B2E1D3C3BBA7D6B8CEC6BDE7C3E63A0D61
:100E50000A000000A1BE23A1BFBBD8B5BDC9CFD237
:100E6000BBBCB6B2CBB5A50D0A000000A1BE2AA13D
:100E7000BFBBD8B5BDD6F7BDE7C3E60D0A0000007D
:100E80001CA60008D7A2B2E1D3C3BBA7D6B8CEC672
:100E900000000000A1BE2AA1BFD6F7BDE7C3E6004F
:100EA000C9CFD2BBBCB6A1BE23A1BF005A0000006F
:100EB000580100206000002025752020000000005F
:100EC00062000020D7A2B2E1D6B8CEC6CAFDC1BF2B
:100ED000D2D4B4EFC9CFCFDE0D0A00005C000020F1
:100EE000D2D1D7A2B2E12564BAC549440D0A0000A7
:100EF000020000201CB50446FE20009002211E487E
:100F000000F0E0F81E2005F0DFFC2146732004F01D
:100F100083FB6A4601A9732004F032F940B117A09F
:100F2000FFF7C6F90221144800F0CAF8FF201CBDE3
:100F30009DF8000030B1832809D090280BD0FF28FD
:100F400011D10CE0214614A0FFF7B2F90BE017A075
:100F5000FFF7AEF907E018A0FFF7AAF903E01AA01F
:100F6000FFF7A6F900BF00BF0221034800F0A8F870
:100F70009DF80000DBE7000000080240CDA8D0C5C6
:100F8000CAA7B0DC2CBDD3CAD5CAFDBEDDB0FCB447
:100F9000EDCEF30D0A000000D6B8CEC62564C9BE5A
:100FA000B3FDB3C9B9A60D0A00000000B2CECAFD58
:100FB000B4EDCEF30D0A0000CEB4D7A2B2E1B5C4B1
:100FC000D3C3BBA70D0A0000D0B4C8EB524F4DB439
:100FD000EDCEF30D0A000000F0B50A460021002313
:100FE000002400BF3DE0012505FA01F3156805EA7C
:100FF00003049C4234D105684F000326BE40B5432C
:10100000056015794E00B5400668354305601579D1
:10101000012D02D01579022D16D185684F000326C7
:10102000BE40B543856055794E00B540866835436E
:101030008560456801268E40B543456045689679D0
:101040008E40B6B235434560C5684F000326BE40AA
:10105000B543C560D5794E00B540C6683543C56017
:10106000491C1029BFD3F0BDF0B5002300244D0763
:10107000ED0E02FA05F3CE1000F1200555F82650CA
:101080004E07F70E0F26BE40B543CF1000F12006E5
:1010900046F82750CE1000F1200555F8265045EAB5
:1010A0000304CE1000F1200545F82640F0BD0246AD
:1010B000002013690B400BB1012000E000207047B5
:1010C00041837047018370471CB50121022001F064
:1010D00003F845F20240009001208DF80400002042
:1010E0008DF806008DF8070069460648FFF774FF83
:1010F00002210448FFF7E4FF4FF480510148FFF755
:10110000E1FF1CBD0004024070B506460C461546C2
:101110002A2005F083FA304605F0B0FA304605F093
:10112000ADFA2B2005F07AFA204605F0A7FA204602
:1011300005F0A4FA2C2005F071FA284605F09EFA75
:1011400070BD2DE9F04707460C4615469946781BB9
:10115000801E1FFA80F828E0601B801E86B21CE00B
:10116000A8EB07004043311B321B01FB020105FBCA
:1011700005F081420FDBA8EB07004043311B321B17
:1011800001FB0201A81C4043814204DC4A4631466F
:101190004046FFF7B9FF701C86B26019801CB04250
:1011A000DEDA08F101001FFA80F87819801C40454A
:1011B000D2DABDE8F0872DE9FE4F06460F46154608
:1011C0009A46DDE90C890E9C33E0287820281DDB47
:1011D00028787F281ADC04EBD4714910C1F1F001A2
:1011E000B14202DA0026381987B2CDE900890294AB
:1011F0002A7853463946304600F020F86D1C2046C8
:1012000004EBD07106EB61018EB212E0C4F1F00084
:10121000B04202DA0026381987B253462A463946C8
:101220003046CDE90089029400F06AF8AD1C30190F
:1012300086B228780028C8D1BDE8FE8F2DE9F04F8E
:1012400095B08046894692469B46209C5046C7B240
:10125000102C07D1610301EB071010AA102105F033
:101260006BFE08E0202C06D1244901EB87106A466A
:10127000402105F061FE00253BE0102C03D110A8B1
:10128000405D14900AE0202C08D16800401C1DF835
:1012900000001DF8151040EA01201490002621E0FE
:1012A00004EBD4714910491E8A1B01219140149A04
:1012B000114049B109EB050291B208EB060290B268
:1012C0005A46FFF721FF0BE01E98012808D109EBD1
:1012D000050291B208EB060290B21F9AFFF714FFC5
:1012E000701CC6B204EBD471B6EB610FD8DB681C7E
:1012F000C5B2A542C1DB15B0BDE8F08F06080200FB
:101300002DE9F04FA9B08046894692469B46349D10
:1013100000BF9AF80100A1389AF80010A139C1EB7A
:10132000011202EB411100EB410087B2102D07D1F1
:10133000314901EB471020AA202105F0FDFD08E00E
:10134000202D06D12D4901EBC7106A46802105F0FA
:10135000F3FD00244AE0102D09D1012000EB4400E8
:1013600020A9085C11F8141040EA01202890202DD3
:1013700017D11DF824000006012101EB84011DF89E
:10138000011040EA0140022101EB84011DF8011027
:1013900040EA0120032101EB84011DF801100843FC
:1013A000289000261EE0681E811B01208840289995
:1013B000084048B109EB040291B208EB060290B272
:1013C0005A46FFF7A1FE0BE03298012808D109EB3D
:1013D000040291B208EB060290B2339AFFF794FE32
:1013E000701CC6B2AE42DEDB601CC4B2AC42B2DBE3
:1013F00029B0BDE8F08F00000C280200522606003C
:101400002DE9FF4F83B081468A469346BDE0002513
:1014100008E09BF800006049495D884200D105E082
:10142000681C85B25C48405D0028F2D100BF5A4874
:10143000405D10B907B0BDE8F08F00249CE004EBDC
:101440004400400005EBC50100EB41105349085C26
:101450000102002204EB4400400005EBC50300EB51
:101460004310401C4D4B185C1243014304EB4400F5
:10147000400005EBC50300EB4310801C474B1B5C91
:101480000020000640EA132042EA0362084304EB0E
:101490004401490005EBC50301EB4311C91C3F4B57
:1014A0005B5C0021090441EA13414FEA034C034607
:1014B00042EA0C0043EA010204EB4401490005EB57
:1014C000C50301EB4311091D344B5B5C002109028C
:1014D00041EA13614FEA032C134640EA0C0243EA47
:1014E000010004EB4401490005EBC50301EB431186
:1014F000491D2A4B595C42EA01078046002637E025
:10150000C6F12F0201210020CDE901010846019911
:10151000FEF7BBFE384001EA08010023584059405D
:10152000084309D00AEB040291B209EB060290B21B
:10153000069AFFF7E9FD19E01098012816D109EB8A
:1015400006000AEB0401C1EB011100EB0111119837
:10155000083000EB41030093009B1A880AEB040358
:1015600099B209EB060398B2FFF7CEFD701C86B264
:10157000302EC5DB601C84B2302CFFF660AF0BF15F
:10158000010B09F130001FFA80F99BF800000028D8
:101590007FF43DAF00BF4DE7EE7000080171000819
:1015A0002DE9F04707460E461446254604F1080883
:1015B0002A2005F033F8384605F060F86988394488
:1015C000491E88B205F05AF82B2005F027F830465E
:1015D00005F054F8A9883144491E88B205F04EF848
:1015E0002C2005F01BF84FF0000907E0B8F80000C8
:1015F00005F044F808F1020809F101096888A98892
:1016000048434845F2D8BDE8F087000010B500F027
:10161000EBF8FFF759FD04F0EFFF362004F0FEFF72
:10162000002005F013F83A2004F0F8FF052005F03B
:101630000DF8B22004F0F2FF0C2005F007F80C20A2
:1016400005F004F8002005F001F8332004F0FEFF57
:10165000332004F0FBFFB72004F0E0FF352004F056
:10166000F5FFBB2004F0DAFF192004F0EFFFC020E3
:1016700004F0D4FF2C2004F0E9FFC22004F0CEFFD8
:10168000012004F0E3FFC32004F0C8FF122004F09F
:10169000DDFFC42004F0C2FF202004F0D7FFC620E5
:1016A00004F0BCFF0F2004F0D1FFD02004F0B6FFFF
:1016B000A42004F0CBFFA12004F0C8FFE02004F038
:1016C000ADFFD02004F0C2FF042004F0BFFF0D20C6
:1016D00004F0BCFF112004F0B9FF132004F0B6FFA2
:1016E0002B2004F0B3FF3F2004F0B0FF542004F09F
:1016F000ADFF4C2004F0AAFF182004F0A7FF0D2036
:1017000004F0A4FF0B2004F0A1FF1F2004F09EFFB3
:10171000232004F09BFFE12004F080FFD02004F0A0
:1017200095FF042004F092FF0C2004F08FFF11209D
:1017300004F08CFF132004F089FF2C2004F086FFB6
:101740003F2004F083FF442004F080FF512004F088
:101750007DFF2F2004F07AFF1F2004F077FF1F2069
:1017600004F074FF202004F071FF232004F06EFFCA
:10177000212004F053FF112004F050FF292004F031
:101780004DFF02210148FFF79DFC10BD00040240FF
:101790002DE9F04707460D4614469946381B1FFAB7
:1017A00080F81BE0281B86B211E0A8EB070040433D
:1017B000711B721B01FB020104FB04F0814204DC7B
:1017C0004A4631464046FFF79FFC701C86B22819F6
:1017D000B042EADA08F101001FFA80F838194045F2
:1017E000E0DABDE8F08700001CB50121022000F01E
:1017F00073FC4FF42040009001208DF8040000207D
:101800008DF806008DF8070002208DF80500694666
:101810000448FFF7E1FB4FF400510248FFF750FC8A
:101820001CBD00000004024070B5044600251BE00A
:101830004FF400510E48FFF743FC04F0800028B13C
:101840004FF400410A48FFF73DFC04E04FF400412B
:101850000748FFF735FC4FF400510548FFF732FC0D
:101860006006040E681CC5B2082DE1DB70BD0000E7
:10187000000402402DE9F05F06460D4614461F465F
:10188000DDF82C904FF0000AC5EB051006EB0011B7
:101890000C98083000EB41082A2004F0BFFE3046C7
:1018A00004F0ECFE3119491E88B204F0E7FE2B204B
:1018B00004F0B4FE284604F0E1FEE919491E88B29E
:1018C00004F0DCFE2C2004F0A9FED3461DE0B9F1A3
:1018D000000F03D10A9804F0D1FE14E0B9F1010F12
:1018E00011D1B8F8000004F0C9FE08F102080AF1AD
:1018F00001001FFA80FAA24505D1C4F1F00008EBFF
:1019000040084FF0000A0BF1010B04FB07F05845AB
:10191000DDD8BDE8F09F10B503211420FFF7B6F91C
:1019200010BD10B5142000F0F9FE044604F00300C9
:1019300018B90321142000F081FF10BDF0B587B065
:101940000546002708210846FFF7A0F900210D20D1
:1019500001F046FD80210E20FFF798F993208DF8C5
:10196000040020208DF8050006A801AB022201A981
:1019700000900C2000F07DF90646262E10D10024A0
:1019800007E001A8005D285501A8005D4740601CE4
:10199000C4B2042CF5DB01A8005DB84200D0BB2620
:1019A00080210E2000F04AFF304607B0F0BD2DE93F
:1019B000F04387B006460F469046994600200690B1
:1019C0008DF804608DF80570002406E018F8041006
:1019D00001AAA01C1154601CC4B2062CF6DB002422
:1019E00007E019F8041001AA04F108001154601C62
:1019F000C4B2042CF5DB06A801AB0C2201A90090AF
:101A00000E2000F036F90546262D05D1082000F0FD
:101A100085FE00F0080000B9BB25284607B0BDE8E8
:101A2000F08310B588B050208DF8080000208DF8A4
:101A300009000DF10A02022102A8FFF7F1F807A838
:101A400002AB042202A900900C2000F012F9044617
:101A5000262008B010BD00001CB501210D2000F0AB
:101A60003BFB4FF4A050009001208DF804000020B3
:101A70008DF806008DF8070069461248FFF7ACFAAA
:101A80004FF40040009069460F48FFF7A5FA042084
:101A9000009069460D48FFF79FFA00208DF804007A
:101AA0004FF40060009069460648FFF795FA04215C
:101AB0000648FFF707FB4FF400410348FFF702FB1E
:101AC0001CBD00000008024000000240000C024063
:101AD000F0B587B005460E4630208DF804008DF82D
:101AE00005500DF10602022101A8FFF799F806A89A
:101AF00001AB042201A900900C2000F0BAF80746BF
:101B0000262F0CD10698902809D1002404E001A8C2
:101B1000005D3055601CC4B2102CF8DB00E0BB2720
:101B2000384607B0F0BD70B588B005460C460821B0
:101B30000846FFF7ABF807210D2001F051FC032107
:101B4000142000F07BFE8DF8085007A802AB01229C
:101B500002A900900C2000F08CF80646262E09D130
:101B60000798102806D19DF8080020709DF80900FC
:101B7000607000E0BB26304608B070BD10B504218F
:101B80001E48FFF79FFA022004F0DAFE04211B48EA
:101B9000FFF796FA022004F0D3FE04211748FFF75E
:101BA00091FA022004F0CCFE0F21012001F018FC74
:101BB00000BF012000F0B2FD00F010000028F8D1B5
:101BC000022004F0BDFE3D21112001F009FC1E2180
:101BD0002D2001F005FC00212C2001F001FC8D21BD
:101BE0002A2001F0FDFB3E212B2001F0F9FB4021D2
:101BF000152001F0F5FB262010BD0000000C02406E
:101C000070B588B0054693208DF8080070208DF8D7
:101C1000090000208DF80E0000240BE0295D02AAC7
:101C2000A01C11549DF80E00295D48408DF80E004F
:101C3000601CC4B2042CF1DB0DF10F02072102A8D5
:101C4000FEF7EEFF08210846FFF720F807A802ABD1
:101C5000092202A900900C2000F00BF80646262E5F
:101C600003D10798182800D100E0BB26304608B001
:101C700070BD2DE9FE4F0646884691469A46DDF82E
:101C800030B0BB2002900020019000900C2E06D0B6
:101C90000E2E09D1122001901020009005E077202F
:101CA00001903020009000E000BF00BF019840F09C
:101CB0008001022001F094FB80210420FEF7E6FF62
:101CC0000021012001F08CFB80210A2000F0B6FDEC
:101CD000002505E018F80510092001F081FB6D1CB6
:101CE0004D45F7D33146012001F07AFB0C2E03D18C
:101CF00080210D2000F0A2FD042000F00FFD04461D
:101D000040F2DC5500BF042000F008FD04466D1EC3
:101D100035B104F0010018B9009820400028F2D035
:101D200080210D20FEF7B2FF95B3062000F0F6FCEF
:101D300000F01B0068BB262002900198204000F0B4
:101D4000010008B1CC2002900C2E24D10A2000F012
:101D5000E5FC04460C2000F0E1FC00F007072FB181
:101D6000601E07EBC000CBF8000002E0E000CBF8FB
:101D7000000004B90124122C00DD1224002505E026
:101D8000092000F0CBFC0AF805006D1CA542F7D332
:101D900001E0BB20029080210C2000F04FFD0021CB
:101DA000012001F01DFB0298BDE8FE8FF0B587B061
:101DB00006460F46A0208DF804008DF805600DF151
:101DC0000602022101A8FEF72BFF06A801AB0422A0
:101DD00001A900900C20FFF74CFF0546262D08D1E5
:101DE0000698042805D19DF8040000F00F000A2889
:101DF00000D0BB25262D22D1002404E0385D01A9A6
:101E00000855601CC4B2102CF8DB05AA102101A8EB
:101E1000FEF706FF06A801AB122201A900900C20D4
:101E2000FFF727FF0546262D08D10698042805D17F
:101E30009DF8040000F00F000A2800D0BB252846BA
:101E400007B0F0BD1FB50446FE2002904F48007851
:101E500098B9162004F056FE4DA0FEF729FA554811
:101E600001214CF2186354A2CDE9001078216020C2
:101E7000FFF7C6FA01204549087001214F48FFF7D6
:101E800016F900283DD041480078012839D10221B7
:101E90004A48FFF717F91E2004F016FD00204849B4
:101EA000C880444801214FF6E07343A2CDE90010F9
:101EB00078216020FFF7A4FA00BF002002F088FE1E
:101EC00002903F48C08841F2883188420CDB3DA037
:101ED000FEF7EEF900202D49087002213748FFF780
:101EE000EFF8FC2004B010BD9DF808000028E4D1F4
:101EF000FF20264908703CA0FEF7DAF9162004F00E
:101F000001FE01212D48FFF7D2F800283CD11F48DF
:101F10000078FF2838D1274801214CF2186326A207
:101F2000CDE9001078216020FFF76AFA00217120C6
:101F300003F072FB02AA03A9712003F021F940B15A
:101F40002FA0FEF7B5F902211C48FFF7B9F8FF20D2
:101F5000C8E79DF8080028B99DF80C102FA0FEF7DF
:101F6000A7F903E032A0FEF7A3F900BF00BF9DF878
:101F70000C00207001200549087002210F48FFF76E
:101F80009FF89DF80800ADE7FE20ABE7C6000020F3
:101F9000C7EBBDABCAD6D6B8B7C5B5BDD6B8CEC6E9
:101FA000C4A3BFE9BFAACABCCAB6B1F0D6B8CEC6F0
:101FB0000D0A00001CA600085A000000000802409C
:101FC00044010020B4ABB8D0C6F7D2ECB3A3A3ACA5
:101FD000B2C9BCAFCAA7B0DCA3ACC7EBD6D8D0C2DD
:101FE000D7A2B2E10D0A0000D6B8CEC6B2C9BCAFC6
:101FF000B3C9B9A62CC7EBB7C5CAD6D6B80D0A0067
:10200000CDA8D0C5CAA7B0DC2CBDD3CAD5CAFDBEE9
:10201000DDB0FCB4EDCEF30D0A000000D6B8CEC69C
:10202000B6D4B1C8B3C9B9A63A25640D0A000000F8
:10203000B8C3D6B8CEC6B2BBB4E6D4DA0D0A000037
:1020400070B5002100230F22C4781CB3174C2468FC
:1020500004F4E064C4F5E064C4F30721C1F10404AE
:10206000E3B20A4144789C40E1B2847814402143B1
:102070000C07210E0E4C05786155047804F01F05FD
:102080000124AC4005786D11AD0005F1E025C5F8DF
:10209000004109E0047804F01F050124AC40054D1F
:1020A0000678761145F8264070BD00000CED00E082
:1020B00000E400E080E100E002490143024A1160CF
:1020C000704700000000FA050CED00E001490862CD
:1020D0007047000000000E4229B1064A1268024310
:1020E000044B1A6004E0034A12688243014B1A60F1
:1020F000704700003038024029B1064A1268024396
:10210000044B1A6004E0034A12688243014B1A60D0
:10211000704700004038024029B1064A1268024365
:10212000044B1A6004E0034A12688243014B1A60B0
:102130007047000044380240F0B50021002200241E
:10214000022500260223324F3F6807F00C0121B11F
:10215000042905D0082937D105E02E4F076036E065
:102160002D4F076033E02A4F3F1F3F68C7F380566B
:10217000274F3F1F3F6807F03F036EB1264FB7FB65
:10218000F3F7DFF88CC0ACF1040CDCF800C0CCF342
:10219000881C07FB0CF40CE01E4FB7FBF3F7DFF8CD
:1021A00070C0ACF1040CDCF800C0CCF3881C07FB59
:1021B0000CF4174F3F1F3F68C7F301477F1C7D009A
:1021C000B4FBF5F7076002E0124F076000BF00BFE5
:1021D0000F4F3F6807F0F0010909104F7A5C07685C
:1021E000D74047600A4F3F6807F4E051890A0B4F18
:1021F0007A5C4768D7408760054F3F6807F46041C5
:10220000490B064F7A5C4768D740C760F0BD0000B5
:10221000083802400024F40040787D01C800002006
:1022200010B501460022002300204A11012A02D1E4
:102230000A4C236808E0022A03D1084C7034236852
:1022400002E0064C7434236801F01F02012494401C
:102250001C400CB1012000E0002010BD00380240FD
:102260000149086070470000800E4742014908603C
:10227000704700003C0E4742002100F44072B2F566
:10228000407F08D1094A116821F4F811084A024038
:102290001143064A1160054A68321268C0F30B0305
:1022A0001A43024B68331A60704700000838024036
:1022B000FFFCFF0F10B54FF4805000F09FF818B1ED
:1022C0004FF4805000F01EF84FF40030FEF7ECFCA5
:1022D00010BD014600BF080900EB8000420001F07C
:1022E0000F001044C0B270470146002204E0501CA9
:1022F000C2B2A1F10A00C1B20A29F8DA100741EA14
:1023000010607047002101098AB242F08002044B3C
:102310001B6803F0800363EA0202014B1A607047F6
:102320000C28004008B50022009200200021104A2D
:10233000126802F04002CAB9421E0D4B1A6000BF7B
:102340000B4A126802F04001009A521C0092009A57
:10235000B2F5803F01D00029F2D0054A126802F0A0
:1023600040020AB1012002E0002000E0012008BD87
:102370000C2800400348006820F0800001490860F4
:10238000704700000C28004070B506460C4600253A
:102390000E4800680E4900EA0105280CE070C5F3FC
:1023A0000420607005F03F00A070C5F3423020703B
:1023B0005EB9E078FFF78DFFE0706078FFF789FF86
:1023C0006070A078FFF785FFA07070BD0428004002
:1023D0003FFFFF0010B5014600200022054B1B689F
:1023E000054C03EA040202EA01030BB1012000E0FC
:1023F000002010BD0C2800407F3F010030B5014691
:102400000020002200230C4C246804F004020A4C33
:10241000383C24680C4002EAD13544EA0503064CF6
:10242000343C246804EA11121BB194B20CB10120AF
:1024300000E0002030BD00004028004070B5064696
:102440000C4600250F4800680F4900EA0105C5F356
:1024500005402070C5F30620607005F07F00A07075
:1024600005F48000000CE0705EB92078FFF731FFC2
:1024700020706078FFF72DFF6070A078FFF729FFCC
:10248000A07070BD002800407F7F7F0030B50446FB
:102490000025CA201549086053200860FFF742FF55
:1024A00000B91DE011481C38006820F040000F49B9
:1024B0001C39086008460068216808430B491C392C
:1024C00008600A491439A068086008460068A188B5
:1024D00040EA0140054914390860FFF74BFF012528
:1024E000FF2002490860284630BD00002428004033
:1024F0002DE9F04105460C46002600274DB96078CD
:1025000000F01000102804D1607820F010000A308C
:10251000607005B908E06078FFF7DBFE0646A0783A
:10252000FFF7D7FE064600BF55B1E078000461789A
:1025300040EA0120A1780843217840EA413611E0C1
:10254000E078FFF7D1FE4FEA00486078FFF7CCFE55
:1025500048EA0028A078FFF7C7FE48EA000820787C
:1025600048EA4036CA201249086053200860FFF745
:10257000D9FE08B9002714E00E4830400C49203934
:102580000860FFF7F7FE0A481C38006800F02000DA
:1025900030B900F085F808B9002702E0012700E013
:1025A0000127FF20024908603846BDE8F08100009D
:1025B000242800403FFFFF002DE9F04105460C466E
:1025C000002600274DB92E48006800F0400000B1F9
:1025D00002E00020E07000BF0DE02948006800F034
:1025E000400020B12078FFF774FE064602E000208C
:1025F000E07000BF00BF55B120780004617840EA68
:102600000120A1780843E17840EA014611E02078F2
:10261000FFF76AFE4FEA00486078FFF765FE48EA78
:102620000028A078FFF760FE48EA0008E07848EA52
:102630000046CA2012491C31086053200860FFF789
:1026400071FE08B9002713E00E4830400C490839E4
:102650000860FFF78FFE0A48006800F0200030B9DC
:1026600000F01EF808B9002702E0012700E001276A
:10267000FF2003491C3108603846BDE8F0810000A6
:10268000082800407F7F7F0010B54FF48040FFF79F
:10269000B5FE18B14FF48040FFF734FE10BD0000C6
:1026A00008B50022009200200021CA22134B1A60B4
:1026B00053221A60114A183A126822F0A0020F4BF6
:1026C000183B1A6000BF0D4A183A126802F0200148
:1026D000009A521C0092009AB2F5003F01D00029E6
:1026E000F1D0064A183A126802F020020AB101201D
:1026F00000E00020FF22014B1A6008BD24280040A2
:1027000018B1FF21044A116004E0CA21024A116095
:1027100053211160704700002428004070B5044622
:1027200000264FF400410E48FEF7CAFC022004F0D8
:1027300007F97E2000EA440040F08005284600F0BA
:1027400011F8FF2000F00EF806464FF4004104484F
:10275000FEF7B8FC022004F0F3F8304670BD00002C
:102760000000024070B504464FF480611648FEF741
:10277000A9FC002523E04FF480611348FEF7A0FC7C
:1027800004F0800028B14FF480510F48FEF79AFC06
:1027900004E04FF480510C48FEF792FC6006040EF2
:1027A0004FF480610848FEF78DFC4FF40061064845
:1027B000FEF77DFC08B144F00104681CC5B2082D89
:1027C000D9DB204670BD00000008024021B102881C
:1027D00042F04002028004E002884FF6BF731A40C4
:1027E000028070470246002013890B400BB1012084
:1027F00000E000207047014688897047818170475A
:1028000010B50022028802F441520B884C88234301
:102810008C882343CC8823430C8923434C8923434E
:102820008C892343CC8923431A430280838B4FF244
:10283000FF74234083830B8A038210BD70B5054665
:102840000C4600262846FFF769FF064646EA0401C3
:10285000284600F0C5FD70BD0CB500200190009029
:102860003348006840F480303149086000BF304888
:10287000006800F4003000900198401C019000981E
:1028800018B90198B0F5A04FF1D12948006800F4BB
:10289000003010B10120009001E00020009000986D
:1028A000012844D122484030006840F0805020493F
:1028B000403108601F48006840F440401D490860EE
:1028C0001B48083000681A4908310860084600684B
:1028D00008600846006840F4805008601648091FE8
:1028E0000860081F006840F08070091F086000BF82
:1028F0000F48006800F000700028F9D040F2027024
:102900000E4908600A480830006820F003000849B2
:10291000083108600846006840F00200086000BF07
:1029200003480830006800F00C000828F8D10CBDFE
:10293000003802400070004019544107003C02403A
:1029400010B51548006840F470001349086013483A
:10295000006840F001001149086000200F4908316B
:1029600008600E4800680E4908400C4908600D4890
:10297000091D0860081F006820F48020091F0860F6
:10298000002006490C310860FFF766FF4FF0006039
:1029900001498039086010BD88ED00E00038024030
:1029A000FFFFF6FE1030002410B50121224800F090
:1029B00066F801283ED101211F4800F048F81F4861
:1029C0000088401E1D49088008464088401C4880F9
:1029D00008468088401C88800846C088401CC88003
:1029E00008460089401C088108464088022821DBEF
:1029F000002048801248007801280DD11148006855
:102A0000401C1049086008460068B0F57A7F11D371
:102A100000200B4908700DE00948007850B90948BA
:102A20000068401E074908600846006810B9012088
:102A30000349087010BD000000400140440100201F
:102A40002400002040080040CA4302827047CA4365
:102A50000282704721B1028842F00102028004E044
:102A600002884FF6FE731A4002807047024600202B
:102A7000138A0B400BB1012000E00020704730B5F5
:102A80000246002000230024158A05EA01039589E7
:102A900005EA010413B10CB1012000E0002030BDB3
:102AA0001AB183890B43838102E083898B4383813D
:102AB0007047000070B5002400220023058C4FF6FB
:102AC000FE7635400584028C8388048B4FF68F7523
:102AD0002C40B51E2C400D882C43751E2A408D8934
:102AE0002A434D882A43104DA84202D00F4DA842D8
:102AF00013D14FF6F7752A40CD892A434FF6FB755F
:102B00002A408D882A434FF6FF652B404FF6FF552C
:102B10002B400D8A2B434D8A2B43838004838D6881
:102B20004563028470BD00000000014000040140C4
:102B300070B5002400220023058C4FF6EF76354057
:102B40000584028C8388048B48F6FF752C404FF671
:102B5000FF452C400D884FF6FF7606EA05252C43ED
:102B60004FF6DF752A408D8906EA05152A434D8800
:102B700006EA05152A43154DA84202D0144DA84275
:102B80001DD14FF67F752A40CD894FF6FF7606EAB4
:102B900005152A434FF6BF752A408D8806EA0515AC
:102BA0002A434FF6FF352B404FF2FF752B400D8A1D
:102BB00006EA85052B434D8A06EA85052B4383806B
:102BC00004838D688563028470BD000000000140AD
:102BD0000004014070B5002200230024058C4EF64D
:102BE000FF7635400584038C8488828B48F6FF7518
:102BF0002A404FF6FF452A400D884FF6FF7606EA39
:102C000005252A434DF6FF752B408D8906EA0535CB
:102C10002B434D8806EA05352B430A4DA84202D0C6
:102C2000094DA84208D14BF6FF752C400D8A4FF68E
:102C3000FF7606EA85152C43848082838D680564BF
:102C4000038470BD0000014000040140002202889E
:102C5000184B98420ED0184B98420BD0B0F1804FD1
:102C600008D0164B984205D0154B984202D0154B10
:102C7000984204D14FF68F731A404B881A43124B77
:102C8000984207D0114B984204D04FF6FF431A40A8
:102C90000B891A4302804B68C3620B880385054B7E
:102CA000984202D0044B984201D18B7A03860123CB
:102CB000838270470000014000040140000400408E
:102CC00000080040000C00400010004000140040CC
:102CD0004FF0FF314160002101800181418081720C
:102CE0007047000030B599B061A103C9CDE9110169
:102CF00061A103C9CDE90F0161A090E80E00C06891
:102D00000BAC0EC40E9062A3D3E90020D3E90213EA
:102D100008AC0BC407926248007801287AD161A000
:102D2000FDF7C6FA06A95220FEF7FDFE0446262C42
:102D30000AD064A0FDF7BCFAFEF720FFFEF7EBFD1A
:102D4000FEF7EFFD19B030BD9DF819209DF8181061
:102D500060A0FDF7ADFA17A8FEF7F0FD0446262C9B
:102D600003D061A0FDF7A4FAECE79DF85F000090A6
:102D70009DF85E309DF85D209DF85C105FA0FDF72A
:102D800097FA17A8FEF73CFF0446262C03D063A051
:102D9000FDF78EFAD6E765A0FDF78AFA17AB11AA00
:102DA0003F216020FEF703FE0446262C03D063A0DB
:102DB000FDF77EFAC6E766A0FDF77AFA13A93F2071
:102DC000FEF786FE0446262C03D066A0FDF770FAB7
:102DD000B8E76BA0FDF76CFA002505E013A8415D8C
:102DE0006CA0FDF765FA6D1C102DF7DB42A0FDF716
:102DF0005FFA07A80FC8CDE91523CDE9130113A980
:102E00003F20FEF7D3FF0446262C04D063A0FDF735
:102E10004FFA97E726E066A0FDF74AFA16A103C924
:102E2000CDE9040112A103C9CDE9020117AB02AA41
:102E30003F216020FEF7BBFD0446262C03D061A095
:102E4000FDF736FA7EE764A0FDF732FAFEF7E9FDFA
:102E50006BA0FDF72DFA6FA0FDF72AFA00201049AC
:102E6000087002E074A0FDF723FA00BF6AE70000D3
:102E7000FFFFFFFFFFFF00001212121212120000EC
:102E8000121212121212FF07806913131313131375
:102E9000FFFFFFFFFFFFFF078069FFFFFFFFFFFF4F
:102EA000C70000203D3D3D20BFAACABCB8FCB8C445
:102EB000C9C8C7F83135C3DCC2EB203D3D3D0D0A22
:102EC00000000000D1B0BFA8CAA7B0DCA3A10D0AC2
:102ED00000000000BFA8C6ACC0E0D0CDA3BA25302A
:102EE0003258253032580A00BBF1C8A1BFA8C6AC81
:102EF000554944CAA7B0DC210D0A0000BFA8C6ACE2
:102F00005549443A25303258202530325820253052
:102F1000325820253032580D0A000000D1A1BFA838
:102F2000CAA7B0DCA3A10D0A00000000BFA8C6AC70
:102F3000D2D1D1A1D6D0A1A30D0A0000C3DCC2EB2F
:102F400041C8CFD6A4CAA7B0DC210D0A00000000FA
:102F5000C3DCC2EB41C8CFD6A4B3C9B9A6A1A30DA7
:102F60000A000000B6C1C8A1C9C8C7F83135CEB241
:102F7000BFE9CAFDBEDDCAA7B0DC210D0A00000012
:102F8000B5B1C7B0C9C8C7F83135CEB2BFE9CAFDBF
:102F9000BEDD3A002530325820000000D0B4C8EB26
:102FA000D0C2C3DCC2EBCAA7B0DCA3A10D0A0000EB
:102FB000D0C2C3DCC2EBD0B4C8EBB3C9B9A6A1A3DD
:102FC0000D0A0000D0C2C3DCC2EBC8CFD6A4CAA78A
:102FD000B0DCA3A10D0A0000D0C2C3DCC2EBC8CF95
:102FE000D6A4B3C9B9A62CC9C8C7F83135C3DCC249
:102FF000EBD0DEB8C4CDEAB3C9210D0A0000000051
:10300000BFA8C6ACB2D9D7F7D2D1CDA3D6B9A1A3A8
:103010000D0A00003D3D3D20C9C8C7F83135C3DC6D
:10302000C2EBD0DEB8C4C1F7B3CCCDEAB3C9203D02
:103030003D3D0D0A00000000C3DCC2EBD2D1BEADA5
:10304000D0DEB8C4B9FDD2BBB4CEA3A10D0A000036
:1030500008B540F22551354800F0FEF8002850D060
:1030600040F22551314800F0CFF83148007801286E
:103070003BD12E4800F0AAF9C0B200906A46012167
:103080002C48006803F01EFF4FF480712A48FEF7B9
:1030900017F828480068401C26490860274800683F
:1030A000401E2649086008460068002829D124A04F
:1030B000FDF7FEF84FF480711F48FEF703F800207B
:1030C0001B49087045F255502549086000BF244847
:1030D000C06800F002000028F9D1FA202049886079
:1030E0004AF6AA20086000BFFEE7104800F06EF91B
:1030F000C1B21C48426E406E401C1A4B58661846BE
:10310000815440F22441094800F0A6F868B107480C
:1031100000880648808800201249496E114A5054A0
:1031200011464866012081F8680008BD0010014082
:10313000000000201C0000200004024020000020AD
:10314000D7D6BFE2C9D5C2BCCDEAB3C92C3173BA58
:10315000F3D7D4B6AFB8B4CEBBC9E8B1B80D0A0046
:1031600000300040D800002010B540F2255113482F
:1031700000F072F880B140F22551104800F044F898
:103180000E4800F023F9C1B20D4802780078401CC7
:103190000B4B18700B48815440F22441074800F053
:1031A0005BF850B1054800880448001D00880020E5
:1031B0000349087001200449087010BD0014014043
:1031C000250000200C0000201400002070B50546EA
:1031D0000E46002404E0285D00F006F8601CC4B22E
:1031E000B442F8DB70BD000010B5044600BF80217A
:1031F000044800F024F80028F9D02146014800F0E6
:10320000EAF810BD0014014010B50022002340F67A
:103210006A14A14200D100BF0A1201249440A3B253
:10322000DC43048010BD21B1828942F400528281C6
:1032300004E082894DF6FF731A408281704702468E
:103240000020B1F5007F00D100BF13880B400BB107
:10325000012000E00020704770B5024600240023E2
:103260000025002040F66A16B14200D100BFC1F32C
:10327000421501F01F03012606FA03F3012D02D1C6
:103280009689334006E0022D02D1168A334001E0D0
:10329000968A33400C12012606FA04F4168834404C
:1032A00013B10CB1012000E0002070BDF0B5034661
:1032B000002400260025002040F66A17B94200D1FC
:1032C00000BF1846C1F3421401F01F06012707FA98
:1032D00006F5012C01D10C3004E0022C01D1103094
:1032E00000E014301AB107682F43076002E0076856
:1032F000AF430760F0BD00002DE9FF4705460E46CD
:103300000024A14600BFA046B08900B100BF2C8AAE
:1033100024F44054F08804432C82AC8941F20C60C0
:103320008443B08831890843718908430443AC81E0
:10333000AC8A24F44074B0890443AC826846FEF73A
:10334000FBFE2048854202D01F48854202D1DDF8AD
:103350000C9001E0DDF80890A88900F4004040B12D
:1033600009EBC90000EB091031684900B0FBF1F727
:1033700007E009EBC90000EB091031688900B0FBD8
:10338000F1F76420B7FBF0F004012009642101FB90
:103390001078A88900F4004040B1322000EBC8004A
:1033A000B0FBF1F000F00700044308E0322000EB2E
:1033B00008106421B0FBF1F000F00F0004432C81F1
:1033C000BDE8FF87001001400014014001468888D5
:1033D000C0F308007047C1F3080282807047000004
:1033E00070B504460D464FF400410A48FDF768FEEB
:1033F0007E2000EA44063046FFF7B4F92846FFF77E
:10340000B1F94FF400410348FDF75CFE022003F0E0
:1034100097FA70BD0000024030380A2801D201201E
:1034200070470020704700BF704700003EB504465B
:103430005A480078012877D159A0FCF739FF5CA0E1
:10344000FCF736FF5EA0FCF733FF61A0FCF730FF0E
:1034500064A0FCF72DFF68A0FCF72AFF6BA0FCF727
:1034600027FF6F4A00210846FEF79AF82020FF2127
:10347000002247F67C53CDE90021029069A2302159
:103480002820FDF798FE1020FF21002247F67C53EC
:10349000CDE90021029066A253210520FDF78BFEA5
:1034A0001020FF21002247F67C53CDE90021029035
:1034B00063A26C210520FDF77EFE1020FF21002273
:1034C00047F67C53CDE90021029061A285210520B9
:1034D000FDF771FE1020FF21002247F67C53CDE955
:1034E000002102905EA29E210520FDF764FE1020BF
:1034F000FF21002247F67C53CDE9002102905DA216
:10350000B7210520FDF757FE1020FF21002247F6C6
:103510007C53CDE9002102905BA2D0210520FDF76C
:103520004AFE00201D490870332C1AD006DC232CDB
:103530002CD0312C07D0322C2ED10BE0342C17D0CC
:10354000352C29D11BE00320544908800120134960
:10355000087021E004205149088001200F490870BB
:103560001AE005204D49088001200C49087013E03D
:1035700006204A4908800120084908700CE007200D
:103580004649088001200549087005E001204349AB
:1035900008800249087000BF00BF3EBD4600002001
:1035A0000D0AB9DCC0EDD4B1BDE7C3E63A0D0A009F
:1035B000A1BE31A1BFC3DCC2EBB9DCC0ED0D0A0076
:1035C000A1BE32A1BFD6B8CEC6B9DCC0ED0D0A008F
:1035D000A1BE33A1BFC9E4C6B5BFA8B9DCC0ED0D1B
:1035E0000A000000A1BE34A1BFC9F9D2F4C1C1B61E
:1035F000C8B5F7BDDA0D0A00A1BE35A1BFBBD6B86C
:10360000B4B3F6B3A7C9E8D6C30D0A00A1BE23A17F
:10361000BFCDCBB3F6B9DCC0EDBDE7C3E60D0A0004
:103620001CA60008B9DCC0EDD4B1BDE7C3E60000BC
:10363000A1BE31A1BFC3DCC2EBB9DCC0ED0000000C
:10364000A1BE32A1BFD6B8CEC6B9DCC0ED00000025
:10365000A1BE33A1BFC9E4C6B5BFA8B9DCC0ED00A7
:10366000A1BE34A1BFC9F9D2F4C1C1B6C8B5F7BD76
:10367000DA000000A1BE35A1BFBBD6B8B4B3F6B323
:10368000A7C9E8D6C3000000A1BE23A1BFCDCBB31C
:10369000F6B9DCC0EDD4B1BDE7C3E60002000020FE
:1036A00000B500F08FFF00BD2DE9F04104460E4645
:1036B00001F0A6F82746E11704EB11610912A022D8
:1036C00002EB4101C8B201F061F800F0BFFF05460E
:1036D000012D04D101F0BEF80120BDE8F081E0B277
:1036E00001F054F800F0B2FF0546012D03D101F0BE
:1036F000B1F80220F1E701F083F82746E11704EB67
:1037000011610912A12202EB4101C8B201F03EF899
:1037100000F09CFF0546012D03D101F09BF801202C
:10372000DBE700F0C7FF3070012000F0FFFF01F081
:1037300091F80020D1E72DE9F04104460F4601F051
:103740005FF82646E11704EB11610912A02202EB93
:103750004101C8B201F01AF800F078FF0546012DCA
:1037600004D101F077F80120BDE8F0812646E11789
:1037700004EB11610912A4EB0121C8B201F006F8B3
:1037800000F064FF0546012D03D101F063F802202B
:10379000EAE7384600F0FAFF00F058FF0546012D31
:1037A00003D101F057F80320DEE701F053F80520BC
:1037B00003F08AF80020D7E71CB501210220FEF7AC
:1037C0008BFC01208DF804008DF80600C0200090CD
:1037D00000208DF807008DF8050069460548FDF7C3
:1037E000FBFB40210348FDF76DFC80210148FDF7FC
:1037F00069FC1CBD0004024010B50024124800689A
:1038000020F04000104908600846006840F0800041
:1038100008600846006820F040000860052003F0BA
:103820008FF80948006840F040000749086005200B
:1038300003F086F80448001F006800F0800000B91B
:1038400000E00124204610BD1404024070B51A485F
:10385000006820F04000184908600846006840F001
:103860008000086000251DE01348006820F040003B
:1038700011490860052003F063F80F48006840F024
:1038800040000D490860052003F05AF86006040E58
:103890000948001F006800F0800008B144F00104EE
:1038A000681CC5B2082DDFDB0348006820F040002B
:1038B00001490860204670BD1404024010B504465A
:1038C0001548006820F0400013490860032003F009
:1038D00037F834B91048006820F080000E490860BD
:1038E00007E0012C05D10C48006840F080000A492F
:1038F0000860022003F024F80748006840F0400008
:1039000005490860052003F01BF80348006820F013
:1039100040000149086010BD1404024070B504461F
:10392000002528E01848006820F04000164908608B
:10393000032003F005F804F0800030B1124800685D
:1039400040F080001049086005E00F48006820F052
:1039500080000D490860022002F0F2FF0A4800686A
:1039600040F0400008490860052002F0E9FF6006C9
:10397000040E681CC5B2082DD4DB0348006820F093
:1039800040000149086070BD1404024010B513489E
:10399000006820F0400011490860052002F0D0FFC7
:1039A0000E48006840F080000C4908600846006836
:1039B00040F040000860052002F0C2FF07480068A0
:1039C00020F0800005490860052002F0B9FF034897
:1039D000006820F040000149086010BD1404024056
:1039E00010B50E48006820F040000C4908600846F9
:1039F000006820F0800008600846006840F0400041
:103A00000860052002F09CFF0448006840F0800038
:103A100002490860052002F093FF10BD1404024023
:103A200010B5054801F082FE4FF4967002F04CFF8D
:103A3000002001F07BFE10BD18FCFFFF10B502F066
:103A400037FE02F08FFEFFF7EBFF10BD10B54FF40D
:103A50007A7001F06BFE4FF4967002F035FF002093
:103A600001F064FE10BD00001CB5FE200090022194
:103A70001948FDF727FB1E2002F026FF00215420E5
:103A800001F0CAFD6A4601A9542001F079FB40B15A
:103A900012A0FCF70DFC02210F48FDF711FBFF20DF
:103AA0001CBD9DF8000010B1902808D103E012A0C1
:103AB000FCF7FEFB07E015A0FCF7FAFB03E017A0FC
:103AC000FCF7F6FB00BF00BF02210348FDF7F8FA40
:103AD0009DF80000E4E7000000080240CDA8D0C532
:103AE000CAA7B0DC2CBDD3CAD5CAFDBEDDB0FCB4BC
:103AF000EDCEF30D0A000000CBF9D3D0D6B8CEC678
:103B0000C9BEB3FDB3C9B9A60D0A0000CEB4D7A291
:103B1000B2E1B5C4D3C3BBA70D0A0000C9BEB3FD53
:103B2000CAA7B0DC0D0A00003EB504463248007852
:103B300000284FD031A0FCF7BBFB35A0FCF7B8FB49
:103B400036A0FCF7B5FB384A00210846FDF728FDF2
:103B50002020FF21002247F67C53CDE9002102906E
:103B600032A230211820FDF726FB1020FF21002271
:103B700047F67C53CDE90021029030A25521382030
:103B8000FDF719FB284801214FF478432EA2CDE917
:103B900000107E216020FDF733FC1020FF21002261
:103BA00047F67C53CDE90021029028A2DC210020B9
:103BB000FDF701FB1020FF21002247F67C53CDE9E1
:103BC0000021029023A2DC21B420FDF7F4FA0020AA
:103BD000094908702A2C06D10520204908800120B7
:103BE0000549087007E0232C05D105201B490880F2
:103BF0000120014908703EBD740000200D0AC9BEB5
:103C0000B3FDCBF9D3D0BFA8C6AC3F3A0D0A000034
:103C1000A1BE2AA1BFC8B7C8CF0D0A00A1BE23A16B
:103C2000BFC8A1CFFB0D0A001CA60008C9BEB3FD8A
:103C3000CBF9D3D0BFA8C6AC00000000C8B7C8CF2E
:103C4000C9BEB3FD000000003F000000C8B7C8CFE8
:103C5000282A2900C8A1CFFB282329000200002020
:103C60003EB5044627480078002841D026A0FCF73E
:103C70001FFB2BA0FCF71CFB2CA0FCF719FB2E4A0A
:103C800000210846FDF78CFC2020FF21002247F68A
:103C90007C53CDE90021029028A230211920FDF7A4
:103CA0008AFA254801214CF2186328A2CDE90010B8
:103CB00078213220FDF7A4FB1F4801214CF2186344
:103CC00023A2CDE9001078218220FDF799FB102076
:103CD000FF21002247F67C53CDE9002102901DA26E
:103CE000DC21A020FDF767FA00200649087007E0F4
:103CF000232C05D105201A490880012001490870AC
:103D00003EBD0000750000200D0ACAB6B1F0C9BE64
:103D1000B3FDBFA8C6ACBDE7C3E60D0A00000000B6
:103D2000CAB6B1F0BFA8C6AC0D0A0000A1BE23A15F
:103D3000BFC8A1CFFB0D0A001CA60008CAB6B1F08F
:103D4000C9BEB3FDBFA8C6AC000000005000000013
:103D500051000000A1BE23A1BFB7B5BBD800000031
:103D6000020000203EB504463D480078002852D0AD
:103D7000062002F0C7FE3BA0FCF79AFA3EA0FCF733
:103D800097FA40A0FCF794FA414A00210846FDF753
:103D900007FC2020FF21002247F67C53CDE90021BB
:103DA00002903CA230211820FDF705FA2020FF21C7
:103DB000002247F67C53CDE90021029039A255211B
:103DC0003820FDF7F8F9324801214FF4784338A242
:103DD000CDE900107E216020FDF712FB1020FF21AD
:103DE000002247F67C53CDE90021029031A2DC216C
:103DF0000020FDF7E0F91020FF21002247F67C5358
:103E0000CDE9002102902DA2DC21B420FDF7D3F9E9
:103E10000020134908702A2C19D1FFF725FEFF2234
:103E200009212848FCF7C2FB0223264A0921152054
:103E3000FCF765FD24A0FCF73BFA112002F062FEBE
:103E400004202649088001200549087007E0232C3A
:103E500005D10420214908800120014908703EBD98
:103E6000680000200D0AC9BEB3FDCBF9D3D0D6B887
:103E7000CEC63F3A0D0A0000A1BE2AA1BFC8B7C8EE
:103E8000CF0D0A0023A1BFC8A1CFFB0D0A0000007F
:103E90001CA60008C9BEB3FDCBF9D3D0D6B8CEC698
:103EA00000000000C8B7C8CFC9BEB3FD00000000C5
:103EB0003F000000C8B7C8CF282A2900C8A1CFFBFF
:103EC0002823290058010020D2D1C9BEB3FDCBF967
:103ED000D3D0D6B8CEC60D0A0000000002000020E4
:103EE000FEB5054670480078012858D16FA0FCF750
:103EF000DFF974A0FCF7DCF975A0FCF7D9F977A01D
:103F0000FCF7D6F9784A00210846FDF749FB202046
:103F1000FF21002247F67C53CDE90021029073A2D5
:103F200030211920FDF747F96F4801214CF2186341
:103F300072A2CDE9001078216020FDF761FA10200F
:103F4000FF21002247F67C53CDE9002102906CA2AC
:103F5000DC21A020FDF72FF91020FF21002247F6D9
:103F60007C53CDE90021029068A2DC210020FDF7FE
:103F700022F9694A09211520FCF76EFC1E206749C9
:103F8000088000206649087000BF03E00021654AF0
:103F90001154401C0928F9DB00204349087061498D
:103FA0005F4A12788818FDF74DFF08BB5C4800781F
:103FB00009281DDA5A480078401C59490870202009
:103FC000FF210022CDE90021029055480078401ED3
:103FD0005449085C3030C2B247F67C5350214F48F8
:103FE0000088FDF72BF94D48008814304B490880B4
:103FF0004B480078092807D149480078401C4849B7
:10400000087049A0FCF754F92A2D43D100200090F4
:10401000019002900026002428E00027002008E0FC
:104020001DF800103F4A125D914201D1012702E0C4
:10403000401C0928F4DB00BFBFB93A49085DFCF712
:1040400059FF002009E03449095C364A125D91426B
:1040500002D1FF21304A1154401C0928F3DB3148BA
:10406000005D0DF80600701CC6B2641C2C48007878
:104070008442D2DB0223284A09211520FCF73FFCA9
:10408000112002F03FFD0420334908800120064939
:10409000087007E0232D05D104202F490880012056
:1040A00001490870FEBD0000690000200D0ACAB673
:1040B000B1F0C9BEB3FDD6B8CEC6BDE7C3E60D0AA2
:1040C00000000000CAB6B1F0D6B8CEC60D0A000096
:1040D000A1BE2AA1BFC8B7C8CF0D0A00A1BE23A1A7
:1040E000BFC8A1CFFB0D0A001CA60008CAB6B1F0DC
:1040F000C9BEB3FDD6B8CEC6000000005A0000000D
:10410000A1BE23A1BFB7B5BBD8000000C8B7C8CFB8
:10411000A1BE2AA1BF000000580100206A000020B3
:104120006C000020A9010020D6B8CEC6CAB6B1F0F6
:10413000B8F6CAFDB4EFB5BDC9CFCFDE2CC7EBCF03
:10414000C8C9BEB3FDD2D1BEADCAB6B1F0D6B8CEE5
:10415000C649440D0A00000002000020FEB50446D6
:104160001E264F480078002865D0072002F0CAFCC0
:104170004CA0FCF79DF851A0FCF79AF853A0FCF76F
:1041800097F858A0FCF794F85B4A00210846FDF721
:1041900007FA2020FF21002247F67C53CDE90021B9
:1041A000029056A230211820FDF705F81020FF21BB
:1041B000002247F67C53CDE90021029053A2DC2176
:1041C0000020FCF7F8FF1020FF21002247F67C5367
:1041D000CDE90021029050A2DC219620FCF7EBFFF4
:1041E000504A09211520FCF737FB00BF00251DE0D0
:1041F0004C48405DFF2817D04A48415D4AA0FCF773
:1042000057F82020FF210022CDE9002102904548E7
:10421000405D3030C2B247F67C5350213046FDF746
:104220000DF806F1140086B2681CC5B2092DDFDB5B
:1042300000201B490870FF2C1DD0232C1BD02A2CDA
:1042400019D0A4F13001C8B2FCF754FE3849086017
:104250000846006878B9FF21A4F13100314A1154B1
:10426000022309211520FCF74AFB112002F04AFC29
:1042700001200B490870232C02D02A2C0DD106E016
:1042800004202C49088001200549087005E0012020
:10429000284908800249087000BF00BFFEBD000029
:1042A000630000200D0AC9BEB3FDD6B8B6A8D6B8C3
:1042B000CEC6BDE7C3E63A0D0A000000C7EBD1A1A8
:1042C000D4F1D6B8CEC649440D0A0000A1BE23A140
:1042D000BFBBD8B5BDC9CFD2BBBCB6B2CBB5A50D9F
:1042E0000A000000A1BE2AA1BFBBD8B5BDD6F7BD4C
:1042F000E7C3E60D0A0000001CA60008C9BEB3FD16
:10430000D6B8B6A8D6B8CEC600000000A1BE2AA175
:10431000BFD6F7BDE7C3E600C9CFD2BBBCB6A1BECE
:1043200023A1BF00580100202575202000000000B7
:1043300064000020020000203EB5044629480078B1
:1043400000283AD028A0FBF7B3FF2DA0FBF7B0FF61
:104350002FA0FBF7ADFF34A0FBF7AAFF374A0021DF
:104360000846FDF71DF92020FF21002247F67C5367
:10437000CDE90021029032A230211820FCF71BFF6A
:104380001020FF21002247F67C53CDE90021029046
:104390002FA2DC210020FCF70EFF1020FF210022BD
:1043A00047F67C53CDE9002102902CA2DC21962017
:1043B000FCF701FF00200B490870232C02D02A2CA7
:1043C0000DD106E005202849088001200549087024
:1043D00005E00120244908800249087000BF00BFA1
:1043E0003EBD0000730000200D0AC9BEB3FDD6B863
:1043F000B6A8BFA8C6ACBDE7C3E63A0D0A000000E8
:10440000C7EBD1A1D4F1BFA8C6AC0D0A00000000D3
:10441000A1BE23A1BFBBD8B5BDC9CFD2BBBCB6B26C
:10442000CBB5A50D0A000000A1BE2AA1BFBBD8B51F
:10443000BDD6F7BDE7C3E60D0A0000001CA60008C4
:10444000C9BEB3FDD6B8B6A8BFA8C6AC0000000070
:10445000A1BE2AA1BFD6F7BDE7C3E600C9CFD2BB34
:10446000BCB6A1BE23A1BF00020000203EB5044699
:104470003248007800284FD031A0FBF719FF36A052
:10448000FBF716FF37A0FBF713FF394A0021084658
:10449000FDF786F82020FF21002247F67C53CDE966
:1044A0000021029033A230211820FCF784FE102056
:1044B000FF21002247F67C53CDE90021029031A272
:1044C00055213820FCF777FE294801214FF4784325
:1044D0002FA2CDE900107E216020FCF791FF102073
:1044E000FF21002247F67C53CDE90021029029A24A
:1044F000D2210020FCF75FFE1020FF21002247F6AA
:104500007C53CDE90021029024A2D221B420FCF7F3
:1045100052FE0020094908702A2C05D101202149AA
:1045200008800649087007E0232C05D102201D49A8
:1045300008800120014908703EBD0000770000207E
:104540000D0ABBD6B8B4B3F6B3A7C9E8D6C3BDE766
:10455000C3E63A0D0A000000A1BE2AA1BFC8B7C831
:10456000CF0D0A00A1BE23A1BFC8A1CFFB0D0A0039
:104570001CA60008BBD6B8B4B3F6B3A7C9E8D6C327
:1045800000000000C8B7C8CFBBD6B8B4A3BF0000B6
:1045900048000000C8B7C8CF282A2900C8A1CFFB0F
:1045A000282329000200002000BF054A128802F0DB
:1045B0004002002AF9D0C2B2014B9A807047000035
:1045C000001001401E48006840F001001C490860CE
:1045D0000846006840F0040008601A48006820F4AB
:1045E0004030184908600846006840F48030086090
:1045F0001548006820F44020134908600846006808
:1046000040F4802008600F48406820F480700D4915
:1046100048600D48001D006840F400700A49091DFB
:1046200008600848406940F48070064948610648BF
:104630001430006840F4007003491431086070477A
:1046400030380240000002400008024010B5174810
:10465000406920F48070154948611548006840F4AD
:104660000070134908601148406920F480700F49B8
:104670004861052002F064F90C48406940F48070FC
:104680000A494861052002F05BF90948001F0068EB
:1046900000F4007008B1012400E0002403484069E0
:1046A00020F4807001494861204610BD000002409E
:1046B0001408024070B51B48406920F48070194905
:1046C00048611948006840F40070174908600025E7
:1046D0001DE01448406920F48070124948610520AB
:1046E00002F02EF90F48406940F480700D4948618E
:1046F000052002F025F96006040E0B48001F006833
:1047000000F4007008B144F00104681CC5B2082D23
:10471000DFDB0448406920F480700249486120468C
:1047200070BD0000000002401408024010B50446AD
:104730001448406920F4807012494861032002F057
:10474000FFF834B11048006840F400700E4908606A
:1047500005E00D48006820F400700B490860022055
:1047600002F0EEF80748406940F48070054948615E
:10477000052002F0E5F80348406920F48070014903
:10478000486110BD000002401408024070B50446A4
:10479000002528E01848406920F4807016494861D7
:1047A000032002F0CDF804F0800030B11348006817
:1047B00040F400701149086005E01048006820F4DA
:1047C00000700E490860022002F0BAF80A484069F9
:1047D00040F4807008494861052002F0B1F8600695
:1047E000040E681CC5B2082DD4DB0348406920F4D0
:1047F00080700149486170BD000002401408024009
:1048000010B51248406920F4807010494861104882
:10481000006840F400700E4908600C48406940F49C
:1048200080700A494861052002F08AF8084800684B
:1048300020F4007006490860052002F081F8034862
:10484000406920F480700149486110BD00000240B9
:104850001408024010B50F48406920F480700D49DB
:1048600048610D48006820F400700B490860094851
:10487000406940F4807007494861052002F060F803
:104880000548006840F4007003490860052002F004
:1048900057F810BD00000240140802404AF6AA2052
:1048A0000149086070470000003000400E48006871
:1048B00040F001000C49086000BF0B48006800F0A0
:1048C00002000028F9D045F255500849086005203B
:1048D000486040F6C41088604AF6AA2008604CF68A
:1048E000CC4008607047000074380240003000403F
:1048F0001CB501210846FDF7EFFB01210420FDF75F
:10490000EBFB0020009001908DF804000120009046
:1049100000208DF8070069460548FCF75DFB4FF461
:104920000050009069460348FCF756FB1CBD000090
:10493000000002400008024010B500240121204878
:10494000FCF7B5FB78B11F48007860B1142001F086
:10495000BBFF01211A48FCF7AAFBD0B101240020BB
:104960001849087015E04FF400511748FCF79FFBF9
:1049700078B91448007860B1142001F0A5FF4FF415
:1049800000511148FCF793FB18B9022400200D498F
:10499000087001210A48FCF78AFB78B94FF40051EE
:1049A0000948FCF784FB08B9012000E0002028B981
:1049B000142001F089FF012002490870204610BD33
:1049C000000002401B000020000802401CB501212D
:1049D0000220FDF781FB00200090019001208DF85E
:1049E000040000208DF806004FF440700090002075
:1049F0008DF807008DF8050069460448FCF7ECFACD
:104A00004FF440710148FCF75DFB1CBD00040240FF
:104A10004FF4A060FDF750FBFFF7D8FFFFF768FFEA
:104A20004FF4E13002F008F802F02AFAFEF738FEFF
:104A300001F0F0FEFCF7EAFD02F0A8F8FCF7C2F87E
:104A4000FFF734FFFEF7FAFF01F0E6FC00F012FA80
:104A5000FDF702F8012001F0ADFF02F017FB70E056
:104A6000FFF71CFFFBF7B4FF36490870FEF73AF971
:104A700035480088292828D007DC08285CD2DFE8E0
:104A800000F05B10151A1F3851562A380D2853D2E2
:104A9000DFE800F020252A52525252525234393E59
:104AA00043002848007800F051F845E02548007898
:104AB000FEF7BCFC40E02348007801F0EBF83BE057
:104AC0002048007800F0FEF936E01E480078FCF738
:104AD000F1F831E01B480078FFF740FB2CE0194863
:104AE0000078FFF73FF927E016480078FFF7F8F95C
:104AF00022E01448007801F0E1FA1DE01148007846
:104B000001F020FA18E00F480078FFF715FC13E0D9
:104B10000C480078FFF708F80EE00A480078FFF725
:104B20009FF809E00748007802F05CF804E00548C7
:104B30000078FFF79BFC00BF00BF4FF4FA7001F054
:104B4000C3FE8DE701000020020000207CB5044672
:104B5000204600F00FFF0546012D02D10220134927
:104B6000088000F001FE124880884EF660218842DD
:104B70001BDB00200E4988800E49FDF75FFC0E49C3
:104B80000020FDF701FC0B48437802780BA10E488A
:104B9000FBF79AFB0D4801214CF218630A4ACDE954
:104BA00000103A210020FCF72BFC7CBD0200002005
:104BB0004401002004000020080000202530326459
:104BC0003A25303264000000950100201CA6000840
:104BD0007CB504462146512000F01EFD6A4601A91D
:104BE000512000F0CDFA0546002D4ED19DF8000071
:104BF000B5282DD00BDCB2281ED003DCA0B1B12823
:104C00003ED115E0B3281BD0B42839D11CE0B82818
:104C10002AD004DCB6281FD0B72831D120E0C02824
:104C200026D0C2282CD127E01CA0FBF741FB2BE0AB
:104C300022A0FBF73DFB27E027A0FBF739FB23E091
:104C40002BA0FBF735FB1FE037A0FBF731FB1BE088
:104C500043A0FBF72DFB17E04EA0FBF729FB13E069
:104C60005AA0FBF725FB0FE065A0FBF721FB0BE04B
:104C700069A0FBF71DFB07E06BA0FBF719FB03E046
:104C800070A0FBF715FB00BF04E076A0FBF710FB5C
:104C9000FF207CBD9DF80000FBE70000D7A5C8A160
:104CA000D6B8CEC6CDBCCFF1BCB0CCD8D5F7C1BF3D
:104CB000CCE1C8A1B3C9B9A60D0A0000D6B8CEC6CA
:104CC000B9FDD0A128736D616C6C2066696E676553
:104CD00072290D0A00000000CEDED6B8CEC620280C
:104CE0006E6F2066696E676572290D0A000000000C
:104CF000D6B8CEC6CEBBD6C3B9FDD3DABFBFD7F3C5
:104D0000A3ACD0E8D2AABDABCAD6D6B8BFBFD3D267
:104D1000B1DFDEF4B0B4286C6566742066696E6736
:104D20006572290D0A000000D6B8CEC6CEBBD6C328
:104D3000B9FDD3DABFBFD3D2A3ACD0E8D2AABDAB02
:104D4000CAD6D6B8BFBFD7F3B1DFDEF4B0B428728D
:104D5000696768742066696E676572290D0A0000CC
:104D6000D6B8CEC6CEBBD6C3B9FDD3DABFBFC9CF86
:104D7000A3ACD0E8D2AABDABCAD6D6B8BFBFCFC20B
:104D8000B1DFDEF4B0B42875702066696E676572B5
:104D9000290D0A00D6B8CEC6CEBBD6C3B9FDD3DA2C
:104DA000BFBFCFC2A3ACD0E8D2AABDABCAD6D6B8DB
:104DB000BFBFC9CFB1DFDEF4B0B428646F776E2017
:104DC00066696E676572290D0A000000CAAACAD614
:104DD000D6B820A3A8D6B8CEC6B1EDC3E6B3F6BA0E
:104DE000B9BBF2D5DFCBAED7D5B9FDB6E0A3A920CC
:104DF000287765742066696E676572290D0A000060
:104E0000B8C9D4EFCAD6D6B8286472792066696E5C
:104E1000676572290D0A0000CCD8D5F7CCE1C8A18E
:104E2000B4EDCEF30D0A0000CCD8D5F7CCE1C8A183
:104E3000B4EDCEF32028CDBCCFF1D6CAC1BFB2EEBF
:104E4000290D0A00D7A5C8A1D6B8CEC6CDBCCFF1D2
:104E5000BCB0CCD8D5F7C1BFCCE1C8A1B4EDCEF37E
:104E60000D0A0000CDA8D0C5CAA7B0DCA3A10D0AC9
:104E7000000000001CB54FF4E13000F0EDFB012113
:104E80000420FDF729F90020009001908DF804001E
:104E90000120009069460A48FCF79EF801208DF831
:104EA00004000220009069460548FCF795F80221AD
:104EB0000348FCF705F902210148FCF701F91CBD84
:104EC000000802401FB504466848007800287DD0DD
:104ED00067A0FBF7EDF96BA0FBF7EAF96DA0FBF714
:104EE000E7F972A0FBF7E4F975A0FBF7E1F979A007
:104EF000FBF7DEF97DA0FBF7DBF9814A00210846CC
:104F0000FCF74EFB2020FF21002247F67C53CDE921
:104F1000002102907BA230211A20FCF74CF91020CE
:104F2000FF21002247F67C53CDE90021029079A2AF
:104F300053210520FCF73FF91020FF21002247F6FE
:104F40007C53CDE90021029076A26C210520FCF76C
:104F500032F91020FF21002247F67C53CDE90021D1
:104F6000029075A285210520FCF725F91020FF216C
:104F7000002247F67C53CDE90021029073A29E21C6
:104F80000520FCF718F91020FF21002247F67C537A
:104F9000CDE90021029072A2DC210520FCF70BF97B
:104FA0001020FF21002247F67C53CDE9002102901A
:104FB0006EA2DC219120FCF7FEF803A91420FEF775
:104FC00073FB9DF80C00FF2812D000E013E0FEF701
:104FD0004BFDFF2209216848FBF7E8FA0223664AE5
:104FE00009211520FBF78BFCFF211420FEF7A3FB02
:104FF00000201E490870322C13D006DC232C25D04B
:105000002A2C2AD0312C2ED104E0332C10D0342C71
:1050100029D114E02920594908800120134908703A
:1050200021E02A20554908800120104908701AE023
:105030002B205249088001200C49087013E02C20D5
:105040004E4908800120094908700CE002204B49B4
:10505000088001200549087005E0012047490880C3
:105060000249087000BF00BF1FBD000059000020AA
:105070000D0AD6B8CEC6B9DCC0EDBDE7C3E63A0D21
:105080000A000000A1BE31A1BFD7A2B2E1D6B8CEBE
:10509000C60D0A00A1BE32A1BFC9BEB3FDD6B8B6C7
:1050A000A84944D6B8CEC60D0A000000A1BE33A15F
:1050B000BFC9BEB3FDCBF9D3D0D6B8CEC60D0A005A
:1050C000A1BE34A1BFCAB6B1F0C9BEB3FDD6B8CE39
:1050D000C60D0A00A1BE23A1BFBBD8B5BDC9CFD2A2
:1050E000BBBCB6B2CBB5A50D0A000000A1BE2AA17B
:1050F000BFBBD8B5BDD6F7BDE7C3E60D0A000000BB
:105100001CA60008D6B8CEC6B9DCC0EDBDE7C3E624
:1051100000000000A1BE31A1BFD7A2B2E1D6B8CE37
:10512000C6000000A1BE32A1BFC9BEB3FDD6B8B64D
:10513000A84944D6B8CEC600A1BE33A1BFC9BEB3EC
:10514000FDCBF9D3D0D6B8CEC6000000A1BE34A1A5
:10515000BFCAB6B1F0C9BEB3FDD6B8CEC600000016
:10516000D6F7BDE7C3E6A1BE2AA1BF00A1BE23A119
:10517000BFC9CFD2BBBCB60058010020020000203E
:1051800030B5034600BF1B4800780028FBD0002044
:10519000184D2870184800786C2801D0012030BDC7
:1051A00015484078622801D00220F8E7124880783C
:1051B000632801D00320F2E70F48C078984201D05D
:1051C0000420ECE70C48007910700B484079087017
:1051D00003F1C500157828440D782844064DAD79B3
:1051E0002844C4B20448C079A04201D00620D6E7C2
:1051F0000020D4E7140000200C0000207FB50546F5
:10520000A048007858B9162001F07CFC9EA0FBF75E
:105210004FF801209B490870A4A0FBF749F8012131
:10522000A748FBF744FF00283BD0964800780128A8
:1052300037D10221A248FBF745FF1E2001F044FBB5
:105240000020A049C880A04801214FF6E0739FA22A
:10525000CDE9001078216020FCF7D2F800BF0020D3
:10526000FFF7B6FC04469748C08841F2883188426F
:105270000CDB97A0FBF71CF8002082490870022184
:105280008F48FBF71DFFFC2004B070BD002CE6D159
:10529000FF207C49087097A0FBF70AF8162001F060
:1052A00031FC01218648FBF702FF012814D0754824
:1052B0000078FF2810D1844801214CF2186383A2A2
:1052C000CDE9001078216020FCF79AF802206D49A2
:1052D000087091A0FAF7ECFF01217948FBF7E7FE8F
:1052E000002833D06748007802282FD10020754964
:1052F000C880754801214FF6E07374A2CDE9001013
:1053000078216020FCF77CF800BF0120FFF760FCEB
:1053100004466C48C08841F2883188420BDB6CA09F
:10532000FAF7C6FF00205749087002216448FBF7CE
:10533000C7FEFC20A8E7002CE7D1FE2051490870E9
:105340006CA0FAF7B5FF162001F0DCFB01215C48E8
:10535000FBF7ADFE012814D04A480078FE2810D192
:10536000594801214CF2186358A2CDE90010782168
:105370006020FCF745F80320424908706BA0FAF75B
:1053800097FF01214E48FBF792FE002833D03D489D
:10539000007803282FD100204A49C8804A480121BB
:1053A0004FF6E07349A2CDE9001078216020FCF7A8
:1053B00027F800BF0220FFF70BFC04464148C088D5
:1053C00041F2883188420BDB41A0FAF771FF0020DF
:1053D0002C49087002213A48FBF772FEFC2053E783
:1053E000002CE7D1042027490870162001F08AFB21
:1053F00053A0FAF75DFF2348007804283FD100202E
:105400002049087029467F2000F006F902AA03A966
:105410007F20FFF7B5FE40B150A0FAF749FF022107
:105420002748FBF74DFEFF202EE79DF80800912846
:1054300011D003DC38B1832819D108E093280ED0AD
:10544000942814D10FE054A0FAF732FF0FE055A0D2
:10545000FAF72EFF0BE060A0FAF72AFF07E065A03D
:10546000FAF726FF03E067A0FAF722FF00BF00BFAC
:1054700002211348FBF724FE9DF8080004E7FB20F7
:1054800002E70000C5000020C7EBBDABCAD6D6B806
:10549000B7C5B5BDD6B8CEC6C4A3BFE9BFAACABCFE
:1054A000D7A2B2E1D6B8CEC60D0A0000B5DAD2BB9B
:1054B000B4CED6B8CEC6B2C9BCAF0D0A000000004B
:1054C00000080240440100201CA600085A00000009
:1054D000B4ABB8D0C6F7D2ECB3A3A3ACB2C9BCAFDF
:1054E000CAA7B0DCA3ACC7EBD6D8D0C2D7A2B2E172
:1054F0000D0A0000C7EBCCA7C6F0CAD6D6B8A3AC3D
:10550000D4D9B4CEB2C9BCAFCFC2D2BBB4CED6B858
:10551000CEC60D0A00000000B5DAB6FEB4CED6B88D
:10552000CEC6B2C9BCAF0D0A00000000B5DAC8FD96
:10553000B4CED6B8CEC6B2C9BCAF0D0A00000000CA
:10554000B2C9BCAFD6B8CEC6B3C9B9A6A3ACD5FD57
:10555000D4DAD7A2B2E10D0A00000000CDA8D0C570
:10556000CAA7B0DCB5BCD6C2D7A2B2E1CAA7B0DC2C
:10557000A3A1C8E7D0E8D6D8D0C2D7A2B2E1A3ACE5
:10558000C7EBD4D9B4CEBDF8C8EBD7A2B2E1B9A667
:10559000C4DCA3A10D0A0000D7A2B2E1B3C9B9A629
:1055A0000D0A0000494420B4EDCEF3284944203CC4
:1055B000203020BBF2D5DF204944203E20D7EEB476
:1055C000F3D3C3BBA7CAFD29BBF2D5DFCDA8D0C595
:1055D000B4EDCEF30D0A0000D7A2B2E1CAA7B0DC49
:1055E00028D3C3BBA7C7F8D3F2D2D1C2FA290D0A78
:1055F00000000000D2D1BEADD7A2B2E1B5C42049AF
:10560000440D0A00D6B8CEC6CCE1C8A1B4CECAFDBE
:10561000203C20330D0A00007CB504460D460BA14A
:1056200003C9CDE900018DF803408DF8045004F161
:10563000C5002844C6B28DF8066007216846FDF70C
:10564000C5FD0020034908707CBD00006C6362004A
:10565000000000001400002010B588B004460121AD
:105660000420FCF739FD082206212E48FBF7FCFC3C
:10567000082207212B48FBF7F7FC00200690079033
:1056800002208DF81C0000208DF81E008DF81F00F0
:1056900002208DF81D004020069006A92148FBF746
:1056A0009BFC8020069006A91E48FBF795FC012173
:1056B0002020FCF731FD002002900390049005901B
:1056C0000294ADF81000ADF80E00ADF80C000C20FF
:1056D000ADF812000020ADF8140002A91248FDF741
:1056E0000BFE0020019047208DF8040001208DF86A
:1056F00005008DF806008DF8070001A8FCF7A0FC56
:10570000012240F225510848FDF7D0FD012240F268
:1057100024410548FDF7CAFD01210348FDF783FD3B
:1057200008B010BD000802400014014030B900214B
:105730004FF0804291630B4A116011E0002806DDB2
:105740004FF0804188630021064A116008E000287C
:1057500006DA00214FF0804291634142014A116014
:1057600070470000340400401FB5FE200290012164
:105770005F48FBF79CFC00286FD05E48007800284B
:105780006BD101205B49087002215948FBF79AFC54
:105790001E2001F099F800205749C8805748012180
:1057A0004FF6E07356A2CDE9001078216020FBF798
:1057B00027FE00BF0020FFF70BFA02904E48C0887A
:1057C00041F28831884218DB4EA0FAF771FD0221C0
:1057D0004748FBF775FC494801214CF2186348A281
:1057E000CDE9001078216020FBF70AFE192001F0B6
:1057F00089F900203F4908701FBD9DF80800002866
:10580000D8D100217120FFF707FF02AA03A9712058
:10581000FFF7B6FCC0B143A0FAF74AFD02213448B5
:10582000FBF74EFC354801214CF2186334A2CDE958
:10583000001078216020FBF7E3FD192001F062F9E8
:1058400000202C490870D7E79DF8080030B99DF872
:105850000C103BA0FAF72CFD04E019E03DA0FAF78C
:1058600027FD00BF00BF9DF8080058B9FEF7EEF80D
:1058700001203C490870182001F044F900201E491D
:10588000088105E0192001F03DF900201949087050
:1058900001211748FBF70BFCA8B91648007801282E
:1058A00011D1164801214CF2186315A2CDE9001060
:1058B00078216020FBF7A4FD00200E49087002212A
:1058C0000B48FBF7FDFB2748007801280DD10A485B
:1058D000008941F28831884207DB23A0FAF7E8FC0F
:1058E000FEF79EF800201F49087000BF84E7000003
:1058F0000008024045000020440100201CA60008CA
:105900005A000000B4ABB8D0C6F7D2ECB3A3A3AC36
:10591000B2C9BCAFCAA7B0DCA3ACC7EBD6D8CAD457
:105920000D0A0000CDA8D0C5CAA7B0DC2CBDD3CAD3
:10593000D5CAFDBEDDB0FCB4EDCEF30D0A0000000B
:10594000D6B8CEC6B6D4B1C8B3C9B9A63A25640D87
:105950000A000000B8C3D6B8CEC6B2BBB4E6D4DAEB
:105960000D0A000044000020636C6F73655F646F74
:105970006F720000FEB50446FF26B248007800288A
:1059800038D0B1490A20FDF78FFEB04A0021084601
:10599000FBF706FE2D20AE49087000250FE04CF203
:1059A00018630822AB480178A9480078FBF7C9FBC7
:1059B000A74800781E30A6490870681CC5B2062D9D
:1059C000EDDB00209F4908702D20A14908704EF69C
:1059D0006020A14988809C480078FF280AD19B4814
:1059E00001214CF218639DA2CDE9001078216020BE
:1059F000FBF706FD94480078FF2875D0984800789A
:105A0000012812D11020FF21002247F67C53CDE956
:105A10000021029093A282214620FBF7CCFB0D20AF
:105A200001F070F800208E4908702A2C68D0232CD1
:105A3000FCD0FF2CFAD08F480078062861DA8E4817
:105A40008C49097844548B480078401C8949087077
:105A50004CF2186308227F4801787D480078FBF7F4
:105A600097FE7B4800781E3079490870814800789D
:105A7000062845D1754801214FF6FF721023CDE964
:105A800000210290A622C0212520FBF7F3FE2D2045
:105A90006F49087000250FE04CF2186308226D482A
:105AA00001786B480078FBF74CFB694800781E30A2
:105AB00067490870681CC5B2062DEDDB63480121FB
:105AC0004FF6FF721023CDE900210290642282215B
:105AD0004620FBF7CFFE1020FF21002247F67C5323
