:020000040800F2
:1000000038080020450200084D0200084F02000891
:1000100051020008530200085502000800000000C9
:10002000000000000000000000000000570200086F
:1000300059020008000000005B0200085D02000891
:100040005F0200085F0200085F02000865260008E2
:100050005F0200085F0200085F0200085F020008FC
:100060005F0200085F0200085F0200085F020008EC
:100070005F0200085F0200085F0200085F020008DC
:100080005F0200085F0200085F0200080000000035
:100090000000000000000000000000005F020008F7
:1000A0005D2A00085F0200085F0200085F02000886
:1000B0005F0200085F0200085F0200085F0200089C
:1000C0005F0200085F0200085F0200085F0200088C
:1000D0005F020008992D00085F0200080000000080
:1000E0005F020008912200085F0200080000000083
:1000F0000000000000000000000000005F02000897
:10010000000000005F0200085F0200085F020008B4
:1001100000000000000000000000000000000000DF
:100120005F0200085F0200085F0200085F0200082B
:100130005F02000800000000000000000000000056
:100140000000000000000000000000005F02000846
:100150005F0200085F0200085F020008B12E00087D
:100160005F0200085F0200080000000000000000BD
:10017000000000000000000000000000000000007F
:10018000000000005F020008000000000000000006
:100190005F02000800F002F800F044F80AA090E8BE
:1001A000000C82448344AAF10107DA4501D100F032
:1001B00039F8AFF2090EBAE80F0013F0010F18BFBB
:1001C000FB1A43F001031847186B0200386B02005A
:1001D000103A24BF78C878C1FAD8520724BF30C873
:1001E00030C144BF04680C60704700000023002445
:1001F00000250026103A28BF78C1FBD8520728BF37
:1002000030C148BF0B607047642900F097807529A2
:1002100000F09480002070471FB507F0B7F91FBDAC
:1002200010B510BD00F0B8FA1146FFF7F5FF04F065
:10023000B9FC00F0D6FA03B4FFF7F2FF03BC03F0F9
:1002400002F800000948804709480047FEE7FEE73A
:10025000FEE7FEE7FEE7FEE7FEE7FEE7FEE7FEE776
:1002600004480549054A064B70470000F529000877
:1002700095010008380200203808002038040020CA
:10028000380400207047B2F120030AD5C2F12003E0
:1002900001FA02F120FA03F300FA02F041EA030145
:1002A000704700FA03F14FF0000070470FB40449A3
:1002B00010B503AA029800F037FA10BC5DF814FBE1
:1002C0003C0000200FB41CB5074B06AA7B446946CE
:1002D0000090059800F00FFA0020694600F01EFA21
:1002E0001CBC5DF814FB00004D04000070B5044612
:1002F00085690068C10601D5302600E02026C007C8
:1003000007D070BDD4E9012130469047206A401CD7
:1003100020626D1EF6D570BD70B504468569007803
:10032000C00707D170BDD4E9012120209047206A81
:10033000401C20626D1EF6D570BD00002DE9F04115
:100340000646002410687529314616A510D0AFF373
:100350000080002802DA404213A507E031688A07CE
:1003600001D512A502E0490704D511A5012401E039
:10037000AFF3008000210A2206F1240709E0B0FB58
:10038000F2FCB0FBF2F302FB1C003030785418464C
:10039000491C0028F3D123462A463046BDE8F041E7
:1003A00000F04AB9000000002D0000002B00000002
:1003B000200000002DE9F05F894604464FF0000A56
:1003C000DFF824B1FB44C0F820A02046E16888474C
:1003D00000287DD0252806D0D4E901219047206A45
:1003E000401C2062F1E700255F462046E16888470F
:1003F0002028064607DB312E05D2B81910F8200C4C
:1004000008B10543F1E7A80701D525F00405C4F8B4
:100410001CA00027C4F818A02A2E09D0304602F0EC
:100420000BFF38B304EB8708303EC8F8186019E0BA
:1004300059F8041B204604EB87029161E168884764
:10044000012F064618D1E069002820DA25F02005A2
:100450001DE0D8F8180000EB800006EB40003038B3
:10046000C8F818002046E1688847064602F0E4FE16
:100470000028EED1012F0AD02E2E08D12046E168A7
:1004800088477F1C0646022F45F02005C4DBA06983
:10049000002803DA404245F00105A061E80701D0D9
:1004A00025F01005A6B1A6F14100192802D8203682
:1004B00045F400654A463146204625604D46FFF723
:1004C000A3FE60B1012807D0ED1D25F0070000E074
:1004D00007E000F1080978E705F1040975E73046FF
:1004E0007AE7206ABDE8F09F0469020010B5203A5F
:1004F000C0F00B80B1E81850203AA0E81850B1E8DD
:100500001850A0E81850BFF4F5AF5FEA027C24BF92
:10051000B1E81850A0E8185044BF18C918C0BDE889
:1005200010405FEA827C24BF51F8043B40F8043B52
:1005300008BF7047D20728BF31F8023B48BF11F807
:10054000012B28BF20F8023B48BF00F8012B704761
:1005500002F0FF0343EA032242EA024200F0F8B845
:100560004FF0000200B5134694469646203922BF4C
:10057000A0E80C50A0E80C50B1F12001BFF4F7AF97
:10058000090728BFA0E80C5048BF0CC05DF804EB79
:10059000890028BF40F8042B08BF704748BF20F8E7
:1005A000022B11F0804F18BF00F8012B704700009C
:1005B0004FF0013C50F8042B51F8043B9A4221D1F2
:1005C000A2EB0C03934313EACC1317D150F8042B7E
:1005D00051F8043B9A4215D1A2EB0C03934313EA62
:1005E000CC130BD150F8042B51F8043B9A4209D19B
:1005F000A2EB0C03934313EACC13DBD04FF00000C3
:10060000704700BFD01A01BAB1FA81F101F01801A8
:1006100022FA01F0CB40C1F12001DBB2C0B2C01A16
:100620002CFA01F3D11A914311EAC311E6D17047B4
:1006300070477047704770472DE9F0470D4699465F
:100640009246044600F124080168880604D5E06952
:1006500021F01001216000E00120A84201DD471BCC
:1006600000E00027A1697A1902EB0900081AA061CD
:100670002078C00602D42046FFF738FE002608E0A6
:10068000D4E901211AF806009047206A401C761C24
:1006900020624E45F4DB2078C0060AD52046FFF7DD
:1006A00025FE06E0D4E9012130209047206A401C55
:1006B0002062381EA7F10107F4DC07E0D4E901212C
:1006C00018F805009047206A401C2062281EA5F1FA
:1006D0000105F3DC2046FFF71FFE2078000602D557
:1006E0000220BDE8F0870120FBE7000001694A1CF9
:1006F00002610878704700B58FB0CDE90131002163
:10070000059105497944CDE9031011466846FFF784
:1007100051FE0FB000BD0000E5FFFFFF0A6802F8C0
:10072000010B0A6070470000074B70B50D467B4413
:10073000FFF7E1FF0446284600F02AF810B14FF019
:10074000FF3070BD204670BD0B4000004FF000022E
:100750000429C0F0128010F0030C3FF403AFCCF179
:10076000040CBCF1020F18BF00F8012BA8BF20F841
:10077000022BA1EB0C01FFF7F5BE5FEAC17C24BFA1
:1007800000F8012B00F8012B48BF00F8012B70473F
:10079000007B00F080007047754600F02BF8AE46F5
:1007A00005006946534620F00700854618B020B57D
:1007B000FFF756FDBDE820404FF000064FF0000760
:1007C0004FF000084FF0000B21F00701AC46ACE8F9
:1007D000C009ACE8C009ACE8C009ACE8C0098D4666
:1007E000704710B50446AFF300802046BDE81040C6
:1007F000FFF721BD00487047D40100202DE9F041EA
:1008000004460D46164604F0C5F8A046E11704EB71
:1008100011610912A02202EB4101C8B204F080F874
:1008200003F0DEFF0746012F04D104F0DDF80120BC
:10083000BDE8F081E0B204F073F803F0D1FF0746A1
:10084000012F03D104F0D0F80220F1E704F0A2F860
:10085000A046E11704EB11610912A12202EB41014C
:10086000C8B204F05DF803F0BBFF0746012F03D1C7
:1008700004F0BAF80120DBE70DE003F0E5FF30708B
:10088000681E85B21DB9012004F01AF804E00020AA
:1008900004F016F8761CF0E700BF04F0A5F800207D
:1008A000C6E72DE9F04106460D4690461F4619E081
:1008B000F80096FBF0F100FB1160C0EBC700C4B27A
:1008C000AC4205DBE9B24246304600F010F80AE0DF
:1008D00042462146304600F00AF8301986B2281BFD
:1008E00085B2A044E4E700BF0020BDE8F0812DE917
:1008F000F04104460D46164604F04CF8A046E117B8
:1009000004EB11610912A02202EB4101C8B204F00C
:1009100007F803F065FF0746012F04D104F064F8DF
:100920000120BDE8F081E0B203F0FAFF03F058FFC8
:100930000746012F03D104F057F80220F1E710E039
:10094000307803F0EDFF03F04BFF0746012F03D192
:1009500004F04AF80320E4E7681EC5B205B901E0D7
:10096000761CEDE700BF04F03FF8052006F000FA22
:100970000020D6E710B5FF240E48006900F0020001
:1009800068B90D48007850B100F018F80446FF2C03
:1009900005D00020084908701D2006F007FB054817
:1009A000006900F0020010B10120034908702046E0
:1009B00010BD0000000002409100002010B502F0C0
:1009C000F5FEA02002F0BAFE02F026FE18B102F0F9
:1009D00017FF012010BD00BF3B48006800F0400039
:1009E0000028F9D0082002F0A9FE02F015FE18B187
:1009F00002F006FF0220EDE700BF3348006800F078
:100A000040000028F9D002F0D1FEA12002F096FEAD
:100A100002F002FE18B102F0F3FE0320DAE700BF95
:100A20002948006800F040000028F9D002F01EFEBE
:100A30000446002002F052FE02F018FE44EA0024B0
:100A4000012002F04BFE02F0DBFE402C2AD00EDC2F
:100A5000082C29D006DC012C1AD0022C1ED0042C24
:100A60002ED127E0102C29D0202C29D120E0B4F55C
:100A7000007F21D005DC802C0ED0B4F5807F1FD103
:100A800014E0B4F5806F05D0B4F5006F18D107E01D
:100A900031209FE732209DE733209BE7342099E700
:100AA000352097E7362095E7372093E7382091E700
:100AB00039208FE72A208DE730208BE7232089E734
:100AC00000BFFF2086E700001004024070B5044616
:100AD000002602F06BFEA02002F030FE02F09CFD2A
:100AE00018B102F08DFE012070BD00BF1D480068E6
:100AF00000F040000028F9D0B02002F01FFE02F004
:100B00008BFD18B102F07CFE0220EDE700BF154816
:100B1000006800F040000028F9D001251BE0162DE8
:100B200003D1F0B202F00AFE05E0207802F006FEE2
:100B300020780644641C02F06FFD18B102F060FEDC
:100B40000320D1E700BF0748006800F040000028FC
:100B5000F9D0681CC5B2162DE1DD02F051FE00206F
:100B6000C2E700001004024000B58DB0182107A8AC
:100B7000FFF7F6FC18220BA101A8FFF7B7FC02F063
:100B80002BFD0E48006840F001000C4908600C483D
:100B9000006820F00C000A49086001A8FFF796FFE2
:100BA0000DB000BD000083F3983F3F3F3F3F3F3F04
:100BB0003F3F3F3F3F3F3F3F7F0000003038024014
:100BC000000002402DE9F041074688461546042101
:100BD000052000F02DF80021012002F011FB8021FA
:100BE0000A2001F085FE002405E0395D092002F0AD
:100BF00007FB601CC4B24445F7DB0321012002F06F
:100C0000FFFAFF2400BF052001F0E2FD0646601E4A
:100C1000C4B21CB106F004000028F4D0222001F078
:100C2000D7FD2870212001F0D3FD6870BDE8F08168
:100C300070B505460C460026284601F0C9FD06465B
:100C400026EA0401284602F0DBFA70BD014908607B
:100C500070470000143C01403EB505465F480078EF
:100C600000286ED05EA0FFF721FB63A0FFF71EFBFC
:100C700067A0FFF71BFB6B4A0021084600F062FCEF
:100C80002020FF21002247F67C53CDE9002102906D
:100C900065A23021182000F060FA1020FF21002208
:100CA00047F67C53CDE90021029063A2DC210020AD
:100CB00000F053FA1020FF21002247F67C53CDE9C3
:100CC000002102905FA2DC21962000F046FA5548F0
:100CD00001214CF218635EA2CDE90010782160205A
:100CE00000F060FB5B4A09211520FFF787FD1E20FD
:100CF00059490880002420E05648005DFF281AD09A
:100D00005448015D55A0FFF7D1FA2020FF210022B1
:100D1000CDE9002102904F48005D3030C2B247F665
:100D20007C5350214C48008800F05AFA4A48008809
:100D3000143049490880601CC4B2092CDCDB002453
:100D400007E016E04348005DFF2800D103E0601C87
:100D5000C4B2092CF6DB00BF601C4249087008468B
:100D600000780A2802D140A0FFF7A0FA00201B4912
:100D700008703C4800780A281BDA3A48007804F0EA
:100D800003FB3F4908600846006890B93548017880
:100D90000078401E2F4A1154022309211520FFF725
:100DA00080FD3048017837A0FFF780FA01200B4919
:100DB0000870232D02D02A2D0DD106E004203549DC
:100DC000088001200549087005E0012031490880AC
:100DD0000249087000BF00BF3EBD00006F00002048
:100DE0000D0AD7A2B2E1D3C3BBA7D6B8CEC6BDE722
:100DF000C3E63A0D0A000000A1BE23A1BFBBD8B5CF
:100E0000BDC9CFD2BBBCB6B2CBB5A50D0A000000A0
:100E1000A1BE2AA1BFBBD8B5BDD6F7BDE7C3E60DBD
:100E20000A000000C4AA0008D7A2B2E1D3C3BBA73E
:100E3000D6B8CEC600000000A1BE2AA1BFD6F7BD1D
:100E4000E7C3E600C9CFD2BBBCB6A1BE23A1BF0099
:100E50005A00000070010020740000202575202039
:100E60000000000076000020D7A2B2E1D6B8CEC6BE
:100E7000CAFDC1BFD2D4B4EFC9CFCFDE0D0A000086
:100E800070000020D2D1D7A2B2E12564BAC549448E
:100E90000D0A0000020000201CB50446FE20009050
:100EA00002211E4800F0E0F81E2005F061FF2146F7
:100EB000732004F077FC6A4601A9732004F026FA37
:100EC00040B117A0FFF7F2F90221144800F0CAF868
:100ED000FF201CBD9DF8000030B1832809D0902868
:100EE0000BD0FF2811D10CE0214614A0FFF7DEF94A
:100EF0000BE017A0FFF7DAF907E018A0FFF7D6F923
:100F000003E01AA0FFF7D2F900BF00BF0221034897
:100F100000F0A8F89DF80000DBE7000000080240A0
:100F2000CDA8D0C5CAA7B0DC2CBDD3CAD5CAFDBEDA
:100F3000DDB0FCB4EDCEF30D0A000000D6B8CEC68D
:100F40002564C9BEB3FDB3C9B9A60D0A00000000EF
:100F5000B2CECAFDB4EDCEF30D0A0000CEB4D7A2D6
:100F6000B2E1B5C4D3C3BBA70D0A0000D0B4C8EB2F
:100F7000524F4DB4EDCEF30D0A000000F0B50A4615
:100F800000210023002400BF3DE0012505FA01F304
:100F9000156805EA03049C4234D105684F00032616
:100FA000BE40B543056015794E00B540066835432F
:100FB00005601579012D02D01579022D16D18568AD
:100FC0004F000326BE40B543856055794E00B540BD
:100FD000866835438560456801268E40B543456087
:100FE000456896798E40B6B235434560C5684F0076
:100FF0000326BE40B543C560D5794E00B540C668EE
:101000003543C560491C1029BFD3F0BDF0B500239E
:1010100000244D07ED0E02FA05F3CE1000F1200575
:1010200055F826504E07F70E0F26BE40B543CF1099
:1010300000F1200646F82750CE1000F1200555F8A3
:10104000265045EA0304CE1000F1200545F826405D
:10105000F0BD0246002013690B400BB1012000E0F7
:101060000020704741837047018370471CB5012100
:10107000022001F01FF845F20240009001208DF897
:10108000040000208DF806008DF807006946064828
:10109000FFF774FF02210448FFF7E4FF4FF480518B
:1010A0000148FFF7E1FF1CBD0004024070B5064691
:1010B0000C4615462A2005F005FD304605F032FDA8
:1010C000304605F02FFD2B2005F0FCFC204605F0F6
:1010D00029FD204605F026FD2C2005F0F3FC2846CE
:1010E00005F020FD70BD2DE9F04707460C4615467A
:1010F0009946781B801E1FFA80F828E0601B801E2E
:1011000086B21CE0A8EB07004043311B321B01FBF9
:10111000020105FB05F081420FDBA8EB070040430D
:10112000311B321B01FB0201A81C4043814204DC3D
:101130004A4631464046FFF7B9FF701C86B2601937
:10114000801CB042DEDA08F101001FFA80F878193D
:10115000801C4045D2DABDE8F0872DE9FE4F0646F7
:101160000F4615469A46DDE90C890E9C33E0287837
:1011700020281DDB28787F281ADC04EBD471491065
:10118000C1F1F001B14202DA0026381987B2CDE987
:10119000008902942A7853463946304600F020F8F8
:1011A0006D1C204604EBD07106EB61018EB212E09B
:1011B000C4F1F000B04202DA0026381987B2534673
:1011C0002A4639463046CDE90089029400F06AF893
:1011D000AD1C301986B228780028C8D1BDE8FE8F32
:1011E0002DE9F04F95B08046894692469B46209C5B
:1011F0005046C7B2102C07D1610301EB071010AAAB
:10120000102106F0EDF808E0202C06D1244901EB6E
:1012100087106A46402106F0E3F800253BE0102CD9
:1012200003D110A8405D14900AE0202C08D168007A
:10123000401C1DF800001DF8151040EA0120149014
:10124000002621E004EBD4714910491E8A1B0121BC
:101250009140149A114049B109EB050291B208EB93
:10126000060290B25A46FFF721FF0BE01E980128B4
:1012700008D109EB050291B208EB060290B21F9A61
:10128000FFF714FF701CC6B204EBD471B6EB610F0C
:10129000D8DB681CC5B2A542C1DB15B0BDE8F08F34
:1012A000060802002DE9F04FA9B080468946924613
:1012B0009B46349D00BF9AF80100A1389AF80010AF
:1012C000A139C1EB011202EB411100EB410087B2E1
:1012D000102D07D1314901EB471020AA202106F03B
:1012E0007FF808E0202D06D12D4901EBC7106A4692
:1012F000802106F075F800244AE0102D09D1012064
:1013000000EB440020A9085C11F8141040EA012009
:101310002890202D17D11DF824000006012101EB93
:1013200084011DF8011040EA0140022101EB840113
:101330001DF8011040EA0120032101EB84011DF892
:1013400001100843289000261EE0681E811B012022
:1013500088402899084048B109EB040291B208EB93
:10136000060290B25A46FFF7A1FE0BE03298012820
:1013700008D109EB040291B208EB060290B2339A4D
:10138000FFF794FE701CC6B2AE42DEDB601CC4B236
:10139000AC42B2DB29B0BDE8F08F00000C2802009F
:1013A000522606002DE9FF4F83B081468A469346B8
:1013B000BDE0002508E09BF800006049495D8842D7
:1013C00000D105E0681C85B25C48405D0028F2D180
:1013D00000BF5A48405D10B907B0BDE8F08F002447
:1013E0009CE004EB4400400005EBC50100EB41101C
:1013F0005349085C0102002204EB4400400005EB65
:10140000C50300EB4310401C4D4B185C12430143D5
:1014100004EB4400400005EBC50300EB4310801CC7
:10142000474B1B5C0020000640EA132042EA03629F
:10143000084304EB4401490005EBC50301EB4311EC
:10144000C91C3F4B5B5C0021090441EA13414FEA90
:10145000034C034642EA0C0043EA010204EB440158
:10146000490005EBC50301EB4311091D344B5B5CDF
:101470000021090241EA13614FEA032C134640EAB6
:101480000C0243EA010004EB4401490005EBC503EB
:1014900001EB4311491D2A4B595C42EA0107804682
:1014A000002637E0C6F12F0201210020CDE901011D
:1014B00008460199FEF7E7FE384001EA08010023DB
:1014C00058405940084309D00AEB040291B209EB95
:1014D000060290B2069AFFF7E9FD19E0109801287C
:1014E00016D109EB06000AEB0401C1EB011100EB78
:1014F00001111198083000EB41030093009B1A88FA
:101500000AEB040399B209EB060398B2FFF7CEFD8C
:10151000701C86B2302EC5DB601C84B2302CFFF606
:1015200060AF0BF1010B09F130001FFA80F99BF855
:10153000000000287FF43DAF00BF4DE7967500081E
:10154000A97500082DE9F04707460E4614462546C2
:1015500004F108082A2005F0B5FA384605F0E2FA49
:1015600069883944491E88B205F0DCFA2B2005F061
:10157000A9FA304605F0D6FAA9883144491E88B246
:1015800005F0D0FA2C2005F09DFA4FF0000907E095
:10159000B8F8000005F0C6FA08F1020809F10109DF
:1015A0006888A98848434845F2D8BDE8F08700001C
:1015B00010B500F0EBF8FFF759FD05F071FA362091
:1015C00005F080FA002005F095FA3A2005F07AFA45
:1015D000052005F08FFAB22005F074FA0C2005F012
:1015E00089FA0C2005F086FA002005F083FA3320F2
:1015F00005F080FA332005F07DFAB72005F062FA95
:10160000352005F077FABB2005F05CFA192005F0CB
:1016100071FAC02005F056FA2C2005F06BFAC220B2
:1016200005F050FA012005F065FAC32005F04AFAEA
:10163000122005F05FFAC42005F044FA202005F0DE
:1016400059FAC62005F03EFA0F2005F053FAD020D3
:1016500005F038FAA42005F04DFAA12005F04AFA69
:10166000E02005F02FFAD02005F044FA042005F020
:1016700041FA0D2005F03EFA112005F03BFA132047
:1016800005F038FA2B2005F035FA3F2005F032FA44
:10169000542005F02FFA4C2005F02CFA182005F004
:1016A00029FA0D2005F026FA0B2005F023FA1F2059
:1016B00005F020FA232005F01DFAE12005F002FADA
:1016C000D02005F017FA042005F014FA0C2005F0DC
:1016D00011FA112005F00EFA132005F00BFA2C2058
:1016E00005F008FA3F2005F005FA442005F002FA5B
:1016F000512005F0FFF92F2005F0FCF91F2005F01F
:10170000F9F91F2005F0F6F9202005F0F3F9232060
:1017100005F0F0F9212005F0D5F9112005F0D2F9F6
:10172000292005F0CFF902210148FFF79DFC10BDEB
:10173000000402402DE9F04707460D46144699463D
:10174000381B1FFA80F81BE0281B86B211E0A8EBBB
:1017500007004043711B721B01FB020104FB04F0F4
:10176000814204DC4A4631464046FFF79FFC701C2C
:1017700086B22819B042EADA08F101001FFA80F8AF
:1017800038194045E0DABDE8F08700001CB50121BA
:10179000022000F08FFC4FF42040009001208DF8D3
:1017A000040000208DF806008DF8070002208DF857
:1017B000050069460448FFF7E1FB4FF40051024879
:1017C000FFF750FC1CBD00000004024070B5044649
:1017D00000251BE04FF400510E48FFF743FC04F0D6
:1017E000800028B14FF400410A48FFF73DFC04E0B7
:1017F0004FF400410748FFF735FC4FF4005105480E
:10180000FFF732FC6006040E681CC5B2082DE1DB50
:1018100070BD0000000402402DE9F05F06460D4651
:1018200014461F46DDF82C904FF0000AC5EB05105A
:1018300006EB00110C98083000EB41082A2005F057
:1018400041F9304605F06EF93119491E88B205F0AC
:1018500069F92B2005F036F9284605F063F9E919F6
:10186000491E88B205F05EF92C2005F02BF9D3460D
:101870001DE0B9F1000F03D10A9805F053F914E007
:10188000B9F1010F11D1B8F8000005F04BF908F1DA
:1018900002080AF101001FFA80FAA24505D1C4F13D
:1018A000F00008EB40084FF0000A0BF1010B04FBBD
:1018B00007F05845DDD8BDE8F09F10B5032114208E
:1018C000FFF7B6F910BD10B5142000F081FF0446F3
:1018D00004F0030018B90321142001F009F810BD29
:1018E000F0B587B00546002708210846FFF7A0F9A4
:1018F00000210D2001F084FC80210E20FFF798F9D3
:1019000093208DF8040020208DF8050006A801AB77
:10191000022201A900900C2000F07DF90646262E37
:1019200010D1002407E001A8005D285501A8005D42
:101930004740601CC4B2042CF5DB01A8005DB8422E
:1019400000D0BB2680210E2000F0D2FF304607B029
:10195000F0BD2DE9F04387B006460F469046994604
:10196000002006908DF804608DF80570002406E0D4
:1019700018F8041001AAA01C1154601CC4B2062C53
:10198000F6DB002407E019F8041001AA04F10800AE
:101990001154601CC4B2042CF5DB06A801AB0C2268
:1019A00001A900900E2000F036F90546262D05D13C
:1019B000082000F00DFF00F0080000B9BB25284604
:1019C00007B0BDE8F08310B588B050208DF808004E
:1019D00000208DF809000DF10A02022102A8FFF78C
:1019E000F1F807A802AB042202A900900C2000F035
:1019F00012F90446262008B010BD00001CB50121D4
:101A00000D2000F057FB4FF4A050009001208DF8FE
:101A1000040000208DF806008DF807006946124882
:101A2000FFF7ACFA4FF40040009069460F48FFF70B
:101A3000A5FA0420009069460D48FFF79FFA0020A0
:101A40008DF804004FF40060009069460648FFF7E7
:101A500095FA04210648FFF707FB4FF400410348BD
:101A6000FFF702FB1CBD000000080240000002401E
:101A7000000C0240F0B587B005460E4630208DF8C8
:101A800004008DF805500DF10602022101A8FFF7B0
:101A900099F806A801AB042201A900900C2000F0DF
:101AA000BAF80746262F0CD10698902809D10024B1
:101AB00004E001A8005D3055601CC4B2102CF8DBB6
:101AC00000E0BB27384607B0F0BD70B588B00546CA
:101AD0000C4608210846FFF7ABF807210D2001F05E
:101AE0008FFB0321142000F003FF8DF8085007A896
:101AF00002AB012202A900900C2000F08CF80646EF
:101B0000262E09D10798102806D19DF808002070CC
:101B10009DF80900607000E0BB26304608B070BD3B
:101B200010B504211E48FFF79FFA022005F05CF96A
:101B300004211B48FFF796FA022005F055F904210D
:101B40001748FFF791FA022005F04EF90F21012006
:101B500001F056FB00BF012000F03AFE00F010003B
:101B60000028F8D1022005F03FF93D21112001F0B5
:101B700047FB1E212D2001F043FB00212C2001F00A
:101B80003FFB8D212A2001F03BFB3E212B2001F061
:101B900037FB4021152001F033FB262010BD00004B
:101BA000000C024070B588B0054693208DF80800FF
:101BB00070208DF8090000208DF80E0000240BE045
:101BC000295D02AAA01C11549DF80E00295D484011
:101BD0008DF80E00601CC4B2042CF1DB0DF10F0275
:101BE000072102A8FEF7EEFF08210846FFF720F8BC
:101BF00007A802AB092202A900900C2000F00BF804
:101C00000646262E03D10798182800D100E0BB26EF
:101C1000304608B070BD2DE9FE4F06468846914615
:101C20009A46DDF830B0BB20029000200190009071
:101C30000C2E06D00E2E09D11220019010200090FB
:101C400005E0772001903020009000E000BF00BF49
:101C5000019840F08001022001F0D2FA8021042096
:101C6000FEF7E6FF0021012001F0CAFA80210A20D8
:101C700000F03EFE002505E018F80510092001F0EF
:101C8000BFFA6D1C4D45F7D33146012001F0B8FA7B
:101C90000C2E03D180210D2000F02AFE042000F03C
:101CA00097FD044640F2DC5500BF042000F090FD93
:101CB00004466D1E35B104F0010018B900982040AB
:101CC0000028F2D080210D20FEF7B2FF95B3062048
:101CD00000F07EFD00F01B0068BB262002900198FA
:101CE000204000F0010008B1CC2002900C2E24D13D
:101CF0000A2000F06DFD04460C2000F069FD00F0A4
:101D000007072FB1601E07EBC000CBF8000002E010
:101D1000E000CBF8000004B90124122C00DD1224ED
:101D2000002505E0092000F053FD0AF805006D1CB0
:101D3000A542F7D301E0BB20029080210C2000F0E7
:101D4000D7FD0021012001F05BFA0298BDE8FE8F6B
:101D5000F0B587B006460F46A0208DF804008DF838
:101D600005600DF10602022101A8FEF72BFF06A86F
:101D700001AB042201A900900C20FFF74CFF05469F
:101D8000262D08D10698042805D19DF8040000F0FE
:101D90000F000A2800D0BB25262D22D1002404E004
:101DA000385D01A90855601CC4B2102CF8DB05AAE7
:101DB000102101A8FEF706FF06A801AB122201A917
:101DC00000900C20FFF727FF0546262D08D1069826
:101DD000042805D19DF8040000F00F000A2800D067
:101DE000BB25284607B0F0BD38B50446002000905A
:101DF00069465220FFF769FE262807D0FFF790FEBC
:101E0000FFF75BFDFFF75FFD012038BD2046FFF7C0
:101E100067FD262801D00220F7E72620F5E700001D
:101E20001FB50446FE2002904F48007898B916204E
:101E300005F0BCF84DA0FEF739FA554801214CF2E7
:101E4000186354A2CDE9001078216020FFF7AAFAA8
:101E500001204549087001214F48FFF7FAF8002892
:101E60003DD041480078012839D102214A48FFF786
:101E7000FBF81E2004F07CFF00204849C88044483D
:101E800001214FF6E07343A2CDE9001078216020D4
:101E9000FFF788FA00BF002002F060FF02903F4881
:101EA000C08841F2883188420CDB3DA0FEF7FEF984
:101EB00000202D49087002213748FFF7D3F8FC2095
:101EC00004B010BD9DF808000028E4D1FF20264989
:101ED00008703CA0FEF7EAF9162005F067F801212A
:101EE0002D48FFF7B6F800283CD11F480078FF289E
:101EF00038D1274801214CF2186326A2CDE9001001
:101F000078216020FFF74EFA0021712003F04AFC8F
:101F100002AA03A9712003F0F9F940B12FA0FEF73E
:101F2000C5F902211C48FFF79DF8FF20C8E79DF87E
:101F3000080028B99DF80C102FA0FEF7B7F903E0B0
:101F400032A0FEF7B3F900BF00BF9DF80C0020706F
:101F500001200549087002210F48FFF783F89DF81A
:101F60000800ADE7FE20ABE7DF000020C7EBBDAB0C
:101F7000CAD6D6B8B7C5B5BDD6B8CEC6C4A3BFE914
:101F8000BFAACABCCAB6B1F0D6B8CEC60D0A000008
:101F9000C4AA00085A000000000802405C010020AA
:101FA000B4ABB8D0C6F7D2ECB3A3A3ACB2C9BCAF44
:101FB000CAA7B0DCA3ACC7EBD6D8D0C2D7A2B2E1D7
:101FC0000D0A0000D6B8CEC6B2C9BCAFB3C9B9A617
:101FD0002CC7EBB7C5CAD6D6B80D0A00CDA8D0C558
:101FE000CAA7B0DC2CBDD3CAD5CAFDBEDDB0FCB4D7
:101FF000EDCEF30D0A000000D6B8CEC6B6D4B1C8F7
:10200000B3C9B9A63A25640D0A000000B8C3D6B812
:10201000CEC6B2BBB4E6D4DA0D0A000070B500211A
:1020200000230F22C4781CB3174C246804F4E06426
:10203000C4F5E064C4F30721C1F10404E3B20A412A
:1020400044789C40E1B28478144021430C07210E6F
:102050000E4C05786155047804F01F050124AC404E
:1020600005786D11AD0005F1E025C5F8004109E0E6
:10207000047804F01F050124AC40054D0678761164
:1020800045F8264070BD00000CED00E000E400E0E3
:1020900080E100E002490143024A116070470000FC
:1020A0000000FA050CED00E00149086270470000ED
:1020B00000000E4229B1064A12680243044B1A601E
:1020C00004E0034A12688243014B1A607047000023
:1020D0003038024029B1064A12680243044B1A60A4
:1020E00004E0034A12688243014B1A607047000003
:1020F0004038024029B1064A12680243044B1A6074
:1021000004E0034A12688243014B1A6070470000E2
:1021100044380240F0B500210022002402250026A8
:102120000223324F3F6807F00C0121B1042905D08A
:10213000082937D105E02E4F076036E02D4F0760A4
:1021400033E02A4F3F1F3F68C7F38056274F3F1F9A
:102150003F6807F03F036EB1264FB7FBF3F7DFF898
:102160008CC0ACF1040CDCF800C0CCF3881C07FB7D
:102170000CF40CE01E4FB7FBF3F7DFF870C0ACF1C6
:10218000040CDCF800C0CCF3881C07FB0CF4174FE0
:102190003F1F3F68C7F301477F1C7D00B4FBF5F785
:1021A000076002E0124F076000BF00BF0F4F3F689B
:1021B00007F0F0010909104F7A5C0768D7404760C3
:1021C0000A4F3F6807F4E051890A0B4F7A5C476871
:1021D000D7408760054F3F6807F46041490B064FC1
:1021E0007A5C4768D740C760F0BD000008380240FD
:1021F0000024F40040787D01E000002010B5014685
:102200000022002300204A11012A02D10A4C23682F
:1022100008E0022A03D1084C7034236802E0064C1F
:102220007434236801F01F02012494401C400CB157
:10223000012000E0002010BD003802400149086084
:1022400070470000800E4742014908607047000057
:102250003C0E4742002100F44072B2F5407F08D1A5
:10226000094A116821F4F811084A02401143064A4C
:102270001160054A68321268C0F30B031A43024B1F
:1022800068331A607047000008380240FFFCFF0FF7
:1022900010B54FF4805000F09FF818B14FF4805003
:1022A00000F01EF84FF40030FEF7D0FC10BD0146E0
:1022B00000BF080900EB8000420001F00F0010444D
:1022C000C0B270470146002204E0501CC2B2A1F126
:1022D0000A00C1B20A29F8DA100741EA1060704713
:1022E000002101098AB242F08002044B1B6803F00E
:1022F000800363EA0202014B1A6070470C28004019
:1023000008B50022009200200021104A126802F055
:102310004002CAB9421E0D4B1A6000BF0B4A126838
:1023200002F04001009A521C0092009AB2F5803FE0
:1023300001D00029F2D0054A126802F040020AB129
:10234000012002E0002000E0012008BD0C28004030
:102350000348006820F080000149086070470000D1
:102360000C28004070B506460C4600250E48006853
:102370000E4900EA0105280CE070C5F304206070E6
:1023800005F03F00A070C5F3423020705EB9E078E0
:10239000FFF78DFFE0706078FFF789FF6070A0782D
:1023A000FFF785FFA07070BD042800403FFFFF00CD
:1023B00010B5014600200022054B1B68054C03EABE
:1023C000040202EA01030BB1012000E0002010BD6D
:1023D0000C2800407F3F010030B50146002000225C
:1023E00000230C4C246804F004020A4C383C246896
:1023F0000C4002EAD13544EA0503064C343C24681B
:1024000004EA11121BB194B20CB1012000E00020CB
:1024100030BD00004028004070B506460C4600253F
:102420000F4800680F4900EA0105C5F30540207018
:10243000C5F30620607005F07F00A07005F48000F1
:10244000000CE0705EB92078FFF731FF20706078F3
:10245000FFF72DFF6070A078FFF729FFA07070BD17
:10246000002800407F7F7F0030B504460025CA2049
:102470001549086053200860FFF742FF00B91DE0CE
:1024800011481C38006820F040000F491C390860D2
:1024900008460068216808430B491C3908600A494E
:1024A0001439A068086008460068A18840EA014025
:1024B000054914390860FFF74BFF0125FF20024949
:1024C0000860284630BD0000242800402DE9F04176
:1024D00005460C46002600274DB9607800F0100034
:1024E000102804D1607820F010000A30607005B91F
:1024F00008E06078FFF7DBFE0646A078FFF7D7FE1E
:10250000064600BF55B1E0780004617840EA01203A
:10251000A1780843217840EA413611E0E078FFF7DE
:10252000D1FE4FEA00486078FFF7CCFE48EA002869
:10253000A078FFF7C7FE48EA0008207848EA40364E
:10254000CA201249086053200860FFF7D9FE08B975
:10255000002714E00E4830400C4920390860FFF78E
:10256000F7FE0A481C38006800F0200030B900F07F
:1025700085F808B9002702E0012700E00127FF20C5
:10258000024908603846BDE8F08100002428004078
:102590003FFFFF002DE9F04105460C4600260027CD
:1025A0004DB92E48006800F0400000B102E0002064
:1025B000E07000BF0DE02948006800F0400020B145
:1025C0002078FFF774FE064602E00020E07000BFAE
:1025D00000BF55B120780004617840EA0120A1785D
:1025E0000843E17840EA014611E02078FFF76AFEEF
:1025F0004FEA00486078FFF765FE48EA0028A078B7
:10260000FFF760FE48EA0008E07848EA0046CA2082
:1026100012491C31086053200860FFF771FE08B9A9
:10262000002713E00E4830400C4908390860FFF7D6
:102630008FFE0A48006800F0200030B900F01EF854
:1026400008B9002702E0012700E00127FF20034925
:102650001C3108603846BDE8F081000008280040C1
:102660007F7F7F0010B54FF48040FFF7B5FE18B1B3
:102670004FF48040FFF734FE10BD000008B5002283
:10268000009200200021CA22134B1A6053221A60C4
:10269000114A183A126822F0A0020F4B183B1A6038
:1026A00000BF0D4A183A126802F02001009A521C2D
:1026B0000092009AB2F5003F01D00029F1D0064AFD
:1026C000183A126802F020020AB1012000E000204E
:1026D000FF22014B1A6008BD2428004018B1FF21D9
:1026E000044A116004E0CA21024A116053211160BA
:1026F0007047000024280040F8B504460F461546F0
:102700000020009069465220FFF7DFF9262807D005
:10271000FFF706FAFFF7D1F8FFF7D5F80120F8BD6B
:102720002846FFF7DDF8262801D00220F7E72846E3
:10273000FFF738FA262801D00320F0E71D2004F027
:1027400035FCE01704EB90708010032202EB800050
:10275000C1B22B46104A6020FFF7FBF8262806D0AE
:102760000EA0FDF7A3FDFFF72EF90420D7E73946A9
:102770002046FFF77FF9262806D00DA0FDF796FD2D
:10278000FFF721F90520CAE7FFF71DF90CA0FDF7B7
:102790008DFD2620C3E7000015000020C3DCC2EB3E
:1027A00041B6D4B1C8CAA7B0DC210D0A00000000B0
:1027B000CAFDBEDDB6C1C8A1CAA7B0DC210D0A00A2
:1027C000CAFDBEDDB6C1C8A1B3C9B9A60D0A0000D5
:1027D00070B5044600264FF400410E48FEF742FC57
:1027E000022004F001FB7E2000EA440040F0800556
:1027F000284600F011F8FF2000F00EF806464FF4CE
:1028000000410448FEF730FC022004F0EDFA3046A7
:1028100070BD00000000024070B504464FF48061B6
:102820001648FEF721FC002523E04FF48061134891
:10283000FEF718FC04F0800028B14FF480510F48D7
:10284000FEF712FC04E04FF480510C48FEF70AFC3E
:102850006006040E4FF480610848FEF705FC4FF453
:1028600000610648FEF7F5FB08B144F00104681C5E
:10287000C5B2082DD9DB204670BD0000000802401B
:1028800021B1028842F04002028004E002884FF643
:10289000BF731A40028070470246002013890B4024
:1028A0000BB1012000E00020704701468889704785
:1028B0008181704710B50022028802F441520B88D2
:1028C0004C8823438C882343CC8823430C8923439F
:1028D0004C8923438C892343CC8923431A430280A8
:1028E000838B4FF2FF74234083830B8A038210BDD6
:1028F00070B505460C4600262846FFF769FF0646D8
:1029000046EA0401284600F07BFC70BD0CB50020AF
:10291000019000903348006840F4803031490860ED
:1029200000BF3048006800F4003000900198401C5F
:102930000190009818B90198B0F5A04FF1D129483D
:10294000006800F4003010B10120009001E0002088
:1029500000900098012844D122484030006840F09F
:1029600080502049403108601F48006840F44040D2
:102970001D4908601B48083000681A490831086082
:102980000846006808600846006840F48050086007
:102990001648091F0860081F006840F08070091F72
:1029A000086000BF0F48006800F000700028F9D0F0
:1029B00040F202700E4908600A480830006820F0B2
:1029C00003000849083108600846006840F002002A
:1029D000086000BF03480830006800F00C000828B9
:1029E000F8D10CBD00380240007000401954410776
:1029F000003C024010B51548006840F470001349CF
:102A000008601348006840F0010011490860002088
:102A10000F49083108600E4800680E4908400C490B
:102A200008600D48091D0860081F006820F4802018
:102A3000091F0860002006490C310860FFF766FF97
:102A40004FF0006001498039086010BD88ED00E05A
:102A500000380240FFFFF6FE1030002410B50121BF
:102A6000224800F066F801283ED101211F4800F0FD
:102A700048F81F480088401E1D49088008464088C5
:102A8000401C488008468088401C88800846C088D2
:102A9000401CC88008460089401C088108464088C0
:102AA000022821DB002048801248007801280DD13F
:102AB00011480068401C1049086008460068B0F5DD
:102AC0007A7F11D300200B4908700DE00948007887
:102AD00050B909480068401E074908600846006868
:102AE00010B901200349087010BD000000400140EA
:102AF0005C0100203800002040080040CA430282E8
:102B00007047CA430282704721B1028842F0010235
:102B1000028004E002884FF6FE731A40028070477C
:102B200002460020138A0B400BB1012000E0002078
:102B3000704730B50246002000230024158A05EABC
:102B40000103958905EA010413B10CB1012000E0ED
:102B5000002030BD1AB183890B43838102E0838951
:102B60008B4383817047000070B50024002200234E
:102B7000058C4FF6FE7635400584028C8388048BE5
:102B80004FF68F752C40B51E2C400D882C43751EBA
:102B90002A408D892A434D882A43104DA84202D0ED
:102BA0000F4DA84213D14FF6F7752A40CD892A431D
:102BB0004FF6FB752A408D882A434FF6FF652B4060
:102BC0004FF6FF552B400D8A2B434D8A2B438380B4
:102BD00004838D684563028470BD000000000140DD
:102BE0000004014070B5002400220023058C4FF63C
:102BF000EF7635400584028C8388048B48F6FF7598
:102C00002C404FF6FF452C400D884FF6FF7606EA24
:102C100005252C434FF6DF752A408D8906EA0515F8
:102C20002A434D8806EA05152A43154DA84202D0CD
:102C3000144DA8421DD14FF67F752A40CD894FF61D
:102C4000FF7606EA05152A434FF6BF752A408D88A0
:102C500006EA05152A434FF6FF352B404FF2FF7564
:102C60002B400D8A06EA85052B434D8A06EA850529
:102C70002B43838004838D688563028470BD0000CC
:102C8000000001400004014070B500220023002430
:102C9000058C4EF6FF7635400584038C8488828B44
:102CA00048F6FF752A404FF6FF452A400D884FF63B
:102CB000FF7606EA05252A434DF6FF752B408D89E0
:102CC00006EA05352B434D8806EA05352B430A4DA8
:102CD000A84202D0094DA84208D14BF6FF752C40FE
:102CE0000D8A4FF6FF7606EA85152C438480828391
:102CF0008D680564038470BD00000140000401403C
:102D000000220288184B98420ED0184B98420BD0E4
:102D1000B0F1804F08D0164B984205D0154B984221
:102D200002D0154B984204D14FF68F731A404B884E
:102D30001A43124B984207D0114B984204D04FF6D9
:102D4000FF431A400B891A4302804B68C3620B8809
:102D50000385054B984202D0044B984201D18B7AEF
:102D60000386012383827047000001400004014074
:102D70000004004000080040000C0040001000402B
:102D8000001400404FF0FF314160002101800181BB
:102D9000418081727047000008B540F225513548E6
:102DA00000F0FEF8002850D040F22551314800F0E4
:102DB000CFF83148007801283BD12E4800F0AAF91D
:102DC000C0B200906A4601212C48006804F0CEFA97
:102DD0004FF480712A48FEF745F928480068401CE6
:102DE0002649086027480068401E264908600846B2
:102DF0000068002829D124A0FDF758FA4FF480710B
:102E00001F48FEF731F900201B49087045F2555064
:102E10002549086000BF2448C06800F0020000286F
:102E2000F9D1FA20204988604AF6AA20086000BF3C
:102E3000FEE7104800F06EF9C1B21C48426E406EC9
:102E4000401C1A4B58661846815440F224410948E8
:102E500000F0A6F868B1074800880648808800207E
:102E60001249496E114A505411464866012081F8B2
:102E7000680008BD00100140000000203000002064
:102E80000004024034000020D7D6BFE2C9D5C2BC3E
:102E9000CDEAB3C92C3173BAF3D7D4B6AFB8B4CE38
:102EA000BBC9E8B1B80D0A0000300040F0000020B6
:102EB00010B540F22551134800F072F880B140F28D
:102EC0002551104800F044F80E4800F023F9C1B233
:102ED0000D4802780078401C0B4B18700B48815449
:102EE00040F22441074800F05BF850B105480088E3
:102EF0000448001D0088002003490870012004498F
:102F0000087010BD00140140390000200C000020A2
:102F10001400002070B505460E46002404E0285D2C
:102F200000F006F8601CC4B2B442F8DB70BD0000CB
:102F300010B5044600BF8021044800F024F80028A2
:102F4000F9D02146014800F0EAF810BD0014014014
:102F500010B50022002340F66A14A14200D100BF40
:102F60000A1201249440A3B2DC43048010BD21B1B5
:102F7000828942F40052828104E082894DF6FF7317
:102F80001A408281704702460020B1F5007F00D1CF
:102F900000BF13880B400BB1012000E000207047F8
:102FA00070B50246002400230025002040F66A1672
:102FB000B14200D100BFC1F3421501F01F03012649
:102FC00006FA03F3012D02D19689334006E0022D63
:102FD00002D1168A334001E0968A33400C12012652
:102FE00006FA04F41688344013B10CB1012000E055
:102FF000002070BDF0B50346002400260025002007
:1030000040F66A17B94200D100BF1846C1F3421416
:1030100001F01F06012707FA06F5012C01D10C303B
:1030200004E0022C01D1103000E014301AB107681E
:103030002F43076002E00768AF430760F0BD000060
:103040002DE9FF4705460E460024A14600BFA046D5
:10305000B08900B100BF2C8A24F44054F0880443A6
:103060002C82AC8941F20C608443B08831890843DA
:10307000718908430443AC81AC8A24F44074B0895C
:103080000443AC826846FFF745F82048854202D0E9
:103090001F48854202D1DDF80C9001E0DDF8089070
:1030A000A88900F4004040B109EBC90000EB091009
:1030B00031684900B0FBF1F707E009EBC90000EB0C
:1030C000091031688900B0FBF1F76420B7FBF0F01C
:1030D00004012009642101FB1078A88900F4004054
:1030E00040B1322000EBC800B0FBF1F000F0070067
:1030F000044308E0322000EB08106421B0FBF1F03B
:1031000000F00F0004432C81BDE8FF870010014050
:103110000014014001468888C0F308007047C1F3DD
:103120000802828070470000F8B504460F46154635
:103130000020009069465220FEF7C7FC262807D0E1
:10314000FEF7EEFCFEF7B9FBFEF7BDFB0120F8BD74
:103150002846FEF7C5FB262801D00220F7E72846BF
:10316000FEF720FD262801D00320F0E71D2003F004
:103170001DFFE01704EB90708010032202EB80002B
:10318000C1B22B46104A6020FEF7E3FB262806D08A
:103190000EA0FDF78BF8FEF716FC0420D7E73946A2
:1031A0002046FEF7D5FD262806D00DA0FDF77EF8B7
:1031B000FEF709FC0520CAE7FEF705FC0CA0FDF7A9
:1031C00075F82620C3E7000015000020C3DCC2EB21
:1031D00041B6D4B1C8CAA7B0DC210D0A0000000076
:1031E000CAFDBEDDD0B4C8EBCAA7B0DC210D0A0011
:1031F000CAFDBEDDD0B4C8EBB3C9B9A60D0A000044
:1032000070B504460D464FF400410A48FDF72AFF09
:103210007E2000EA44063046FFF7FEFA2846FFF714
:10322000FBFA4FF400410348FDF71EFF022003F0B4
:10323000DBFD70BD0000024030380A2801D20120B9
:1032400070470020704700BF704700003EB504463D
:103250005A480078012877D159A0FDF727F85CA0DB
:10326000FDF724F85EA0FDF721F861A0FDF71EF838
:1032700064A0FDF71BF868A0FDF718F86BA0FDF738
:1032800015F86F4A00210846FEF75CF92020FF215F
:10329000002247F67C53CDE90021029069A230213B
:1032A0002820FDF75AFF1020FF21002247F67C530B
:1032B000CDE90021029066A253210520FDF74DFFC4
:1032C0001020FF21002247F67C53CDE90021029017
:1032D00063A26C210520FDF740FF1020FF21002292
:1032E00047F67C53CDE90021029061A2852105209B
:1032F000FDF733FF1020FF21002247F67C53CDE974
:10330000002102905EA29E210520FDF726FF1020DD
:10331000FF21002247F67C53CDE9002102905DA2F7
:10332000B7210520FDF719FF1020FF21002247F6E5
:103330007C53CDE9002102905BA2D0210520FDF74E
:103340000CFF00201D490870332C1AD006DC232CFA
:103350002CD0312C07D0322C2ED10BE0342C17D0AE
:10336000352C29D11BE00320544908800120134942
:10337000087021E004205149088001200F4908709D
:103380001AE005204D49088001200C49087013E01F
:1033900006204A4908800120084908700CE00720EF
:1033A0004649088001200549087005E0012043498D
:1033B00008800249087000BF00BF3EBD5B000020CE
:1033C0000D0AB9DCC0EDD4B1BDE7C3E63A0D0A0081
:1033D000A1BE31A1BFC3DCC2EBB9DCC0ED0D0A0058
:1033E000A1BE32A1BFD6B8CEC6B9DCC0ED0D0A0071
:1033F000A1BE33A1BFC9E4C6B5BFA8B9DCC0ED0DFD
:103400000A000000A1BE34A1BFC9F9D2F4C1C1B6FF
:10341000C8B5F7BDDA0D0A00A1BE35A1BFBBD6B84D
:10342000B4B3F6B3A7C9E8D6C30D0A00A1BE23A161
:10343000BFCDCBB3F6B9DCC0EDBDE7C3E60D0A00E6
:10344000C4AA0008B9DCC0EDD4B1BDE7C3E60000F2
:10345000A1BE31A1BFC3DCC2EBB9DCC0ED000000EE
:10346000A1BE32A1BFD6B8CEC6B9DCC0ED00000007
:10347000A1BE33A1BFC9E4C6B5BFA8B9DCC0ED0089
:10348000A1BE34A1BFC9F9D2F4C1C1B6C8B5F7BD58
:10349000DA000000A1BE35A1BFBBD6B8B4B3F6B305
:1034A000A7C9E8D6C3000000A1BE23A1BFCDCBB3FE
:1034B000F6B9DCC0EDD4B1BDE7C3E60002000020E0
:1034C00000B501F049F900BD2DE9F04104460E4672
:1034D00001F060FA2746E11704EB11610912A022FE
:1034E00002EB4101C8B201F01BFA01F079F905467F
:1034F000012D04D101F078FA0120BDE8F081E0B29D
:1035000001F00EFA01F06CF90546012D03D101F02E
:103510006BFA0220F1E701F03DFA2746E11704EBD0
:1035200011610912A12202EB4101C8B201F0F8F9C0
:1035300001F056F90546012D03D101F055FA01209D
:10354000DBE701F081F93070012001F0B9F901F0F9
:103550004BFA0020D1E72DE9F04104460F4601F077
:1035600019FA2646E11704EB11610912A02202EBB9
:103570004101C8B201F0D4F901F032F90546012D3C
:1035800004D101F031FA0120BDE8F0812646E117AF
:1035900004EB11610912A4EB0121C8B201F0C0F9DA
:1035A00001F01EF90546012D03D101F01DFA02209C
:1035B000EAE7384601F0B4F901F012F90546012DA9
:1035C00003D101F011FA0320DEE701F00DFA052026
:1035D00003F0CEFB0020D7E71CB501210220FEF747
:1035E00069FD01208DF804008DF80600C0200090D0
:1035F00000208DF807008DF8050069460548FDF7A5
:10360000BDFC40210348FDF72FFD80210148FDF757
:103610002BFD1CBD0004024010B5002412480068B8
:1036200020F04000104908600846006840F0800023
:1036300008600846006820F040000860052003F09C
:10364000D3FB0948006840F04000074908600520A6
:1036500003F0CAFB0448001F006800F0800000B9B6
:1036600000E00124204610BD1404024070B51A4841
:10367000006820F04000184908600846006840F0E3
:103680008000086000251DE01348006820F040001D
:1036900011490860052003F0A7FB0F48006840F0BF
:1036A00040000D490860052003F09EFB6006040EF3
:1036B0000948001F006800F0800008B144F00104D0
:1036C000681CC5B2082DDFDB0348006820F040000D
:1036D00001490860204670BD1404024010B504463C
:1036E0001548006820F0400013490860032003F0EB
:1036F0007BFB34B91048006820F080000E49086058
:1037000007E0012C05D10C48006840F080000A4910
:103710000860022003F068FB0748006840F04000A2
:1037200005490860052003F05FFB0348006820F0AE
:1037300040000149086010BD1404024070B5044601
:10374000002528E01848006820F04000164908606D
:10375000032003F049FB04F0800030B112480068F8
:1037600040F080001049086005E00F48006820F034
:1037700080000D490860022003F036FB0A4800680B
:1037800040F0400008490860052003F02DFB60066A
:10379000040E681CC5B2082DD4DB0348006820F075
:1037A00040000149086070BD1404024010B5134880
:1037B000006820F0400011490860052003F014FB68
:1037C0000E48006840F080000C4908600846006818
:1037D00040F040000860052003F006FB0748006841
:1037E00020F0800005490860052003F0FDFA034839
:1037F000006820F040000149086010BD1404024038
:1038000010B50E48006820F040000C4908600846DA
:10381000006820F0800008600846006840F0400022
:103820000860052003F0E0FA0448006840F08000DA
:1038300002490860052003F0D7FA10BD14040240C5
:1038400010B5054802F038F84FF4967003F090FA7E
:10385000002002F031F810BD18FCFFFF10B503F096
:103860007BF903F0D3F9FFF7EBFF10BD10B54FF470
:103870007A7002F021F84FF4967003F079FA002084
:1038800002F01AF810BD00001CB5FE2000900221C5
:103890001948FDF7E9FB1E2003F06AFA00215420C5
:1038A00001F080FF6A4601A9542001F02FFD40B1CC
:1038B00012A0FCF7FBFC02210F48FDF7D3FBFF2011
:1038C0001CBD9DF8000010B1902808D103E012A0A3
:1038D000FCF7ECFC07E015A0FCF7E8FC03E017A000
:1038E000FCF7E4FC00BF00BF02210348FDF7BAFB70
:1038F0009DF80000E4E7000000080240CDA8D0C514
:10390000CAA7B0DC2CBDD3CAD5CAFDBEDDB0FCB49D
:10391000EDCEF30D0A000000CBF9D3D0D6B8CEC659
:10392000C9BEB3FDB3C9B9A60D0A0000CEB4D7A273
:10393000B2E1B5C4D3C3BBA70D0A0000C9BEB3FD35
:10394000CAA7B0DC0D0A00003EB504463B4800782B
:10395000002852D03AA0FCF7A9FC3EA0FCF7A6FC38
:103960003FA0FCF7A3FC414A00210846FDF7EAFD11
:103970002020FF21002247F67C53CDE90021029050
:103980003BA230211820FDF7E8FB2020FF21002278
:103990004FF47843CDE90021029039A25A21382012
:1039A000FDF7DBFB314801214FF4784337A2CDE925
:1039B00000107E216020FDF7F5FC1020FF21002281
:1039C00047F67C53CDE90021029031A2DC21002092
:1039D000FDF7C3FB1020FF21002247F67C53CDE901
:1039E000002102902CA2DC21B420FDF7B6FB0A20B6
:1039F00003F0DCFA0020114908702A2C14D1FF22B0
:103A000024212748FCF7A4FD0223254A24211F2056
:103A1000FCF747FF112003F0C9FA0520214908806F
:103A200001200649087007E0232C05D105201D4917
:103A300008800120014908703EBD00008B00002075
:103A40000D0AC9BEB3FDCBF9D3D0BFA8C6AC3F3A6F
:103A50000D0A0000A1BE2AA1BFC8B7C8CF0D0A0039
:103A6000A1BE23A1BFC8A1CFFB0D0A00C4AA0008B4
:103A7000C9BEB3FDCBF9D3D0BFA8C6AC00000000CF
:103A8000C8B7C8CFC9BEB3FD000000003F000000AA
:103A9000C8B7C8CF282A2900C8A1CFFB28232900EE
:103AA00079010020020000202DE9FE4F06464FF06C
:103AB000010AD3464FF0000893480078002866D0EA
:103AC00092A0FCF7F3FB97A0FCF7F0FB98A0FCF7A3
:103AD000EDFB9AA0FCF7EAFB9B4A00210846FDF7A4
:103AE00031FD2020FF21002247F67C53CDE9002143
:103AF000029096A230211920FDF72FFB9248012158
:103B00004CF2186395A2CDE9001078213220FDF720
:103B100049FC8D4801214CF2186391A2CDE90010B7
:103B200078218220FDF73EFC1020FF21002247F67D
:103B30007C53CDE9002102908AA2DC210020FDF710
:103B40000CFB1020FF21002247F67C53CDE9002119
:103B5000029086A2DC21B420FDF7FFFA132003F0C7
:103B600025FA844A24211F20FCF748FE1E208249A2
:103B7000087000208149087000BF03E00021804ADE
:103B80001154401C0928F9DB00205F4908707B486C
:103B90000078092804D17BA0FCF788FB4FF0000ACD
:103BA000BAF1010F60D17D48FEF71EF90746262FB6
:103BB0005AD100241DE04FF0000800250DE06D48AB
:103BC00000EB8400405D7549495D884203D108F1EE
:103BD000010000F0FF08681CC5B2042DEFDBB8F14E
:103BE000040F04D1611C6EA0FCF760FB03E0601CB5
:103BF000C4B2092CDFDB00BFB8F1040F31D10020C3
:103C000007E05F490A5C611C8A4201D14FF0000B5A
:103C1000401C0928F5D3BBF1010F25D12020FF213D
:103C20000022CDE90021029004F13100C2B247F632
:103C30007C53502150480078FDF7D2FA601C50495F
:103C40004E4A127888544D480078401C4B49087001
:103C5000494800781430484908701D2003F0A6F93F
:103C600002E055A0FCF722FB2A2E43D10020009051
:103C700001900290814600BF2AE0002200210AE064
:103C80001DF80130DFF8F8C01CF800C0634501D111
:103C9000012202E0491C0929F2DB00BFBAB9002168
:103CA0000BE04FF0FF0C364B1B5C5B1EDFF8C4E0F3
:103CB0000EEB830303F801C0491C0429F1DB3049F2
:103CC000095C0DF8091009F1010101F0FF09401C20
:103CD0000928D2DB0223274A24211F20FCF7E1FD1B
:103CE000112003F063F905203949088001200649B5
:103CF000087007E0232E05D10520354908800120F2
:103D000001490870BDE8FE8F8C0000200D0ACAB67C
:103D1000B1F0C9BEB3FDBFA8C6ACBDE7C3E60D0A8E
:103D200000000000CAB6B1F0BFA8C6AC0D0A000082
:103D3000C8B7C8CF282A290D0A000000B7B5BBD8DC
:103D40002823290D0A000000C4AA0008CAB6B1F051
:103D5000C9BEB3FDBFA8C6AC000000005000000003
:103D600051000000C8B7C8CF282A2900B7B5BBD872
:103D700028232900790100208D0000208E000020DA
:103D8000CA010020CAB6B1F0D2D1B4EFC9CFCFDE9C
:103D90002CC7EBCFC8C9BEB3FD0D0A002B00002015
:103DA000B4CBBFA8C6ACB5C4D7A2B2E14944CEAA31
:103DB00025640D0A00000000B4CBBFA8C6ACCEB489
:103DC000D7A2B2E12CC7EBCFC8D7A2B2E10D0A004F
:103DD000020000203EB504463D480078002852D03D
:103DE000062003F0E3F83BA0FCF760FA3EA0FCF7E6
:103DF0005DFA40A0FCF75AFA414A00210846FDF757
:103E0000A1FB2020FF21002247F67C53CDE90021B1
:103E100002903CA230211820FDF79FF92020FF21BD
:103E2000002247F67C53CDE90021029039A25521AA
:103E30003820FDF792F9324801214FF4784338A237
:103E4000CDE900107E216020FDF7ACFA1020FF21A3
:103E5000002247F67C53CDE90021029031A2DC21FB
:103E60000020FDF77AF91020FF21002247F67C534D
:103E7000CDE9002102902DA2DC21B420FDF76DF9DF
:103E80000020134908702A2C19D1FFF7FDFCFF22EE
:103E900009212848FCF75CFB0223264A092115204A
:103EA000FCF7FFFC24A0FCF701FA112003F07EF8D8
:103EB00004202649088001200549087007E0232CCA
:103EC00005D10420214908800120014908703EBD28
:103ED0007C0000200D0AC9BEB3FDCBF9D3D0D6B803
:103EE000CEC63F3A0D0A0000A1BE2AA1BFC8B7C87E
:103EF000CF0D0A0023A1BFC8A1CFFB0D0A0000000F
:103F0000C4AA0008C9BEB3FDCBF9D3D0D6B8CEC67B
:103F100000000000C8B7C8CFC9BEB3FD0000000054
:103F20003F000000C8B7C8CF282A2900C8A1CFFB8E
:103F30002823290070010020D2D1C9BEB3FDCBF9DE
:103F4000D3D0D6B8CEC60D0A000000000200002073
:103F5000FEB5054670480078012858D16FA0FCF7DF
:103F6000A5F974A0FCF7A2F975A0FCF79FF977A05A
:103F7000FCF79CF9784A00210846FDF7E3FA202077
:103F8000FF21002247F67C53CDE90021029073A265
:103F900030211920FDF7E1F86F4801214CF2186338
:103FA00072A2CDE9001078216020FDF7FBF9102006
:103FB000FF21002247F67C53CDE9002102906CA23C
:103FC000DC21A020FDF7C9F81020FF21002247F6D0
:103FD0007C53CDE90021029068A2DC210020FDF78E
:103FE000BCF8694A09211520FCF708FC1E20674926
:103FF000088000206649087000BF03E00021654A80
:104000001154401C0928F9DB00204349087061491C
:104010005F4A12788818FDF703FF08BB5C480078F8
:1040200009281DDA5A480078401C59490870202098
:10403000FF210022CDE90021029055480078401E62
:104040005449085C3030C2B247F67C5350214F4887
:104050000088FDF7C5F84D48008814304B490880AA
:104060004B480078092807D149480078401C484946
:10407000087049A0FCF71AF92A2D43D100200090BE
:10408000019002900026002428E00027002008E08C
:104090001DF800103F4A125D914201D1012702E054
:1040A000401C0928F4DB00BFBFB93A49085DFCF7A2
:1040B000F3FE002009E03449095C364A125D914262
:1040C00002D1FF21304A1154401C0928F3DB31484A
:1040D000005D0DF80600701CC6B2641C2C48007808
:1040E0008442D2DB0223284A09211520FCF7D9FBA0
:1040F000112002F05BFF04203349088001200649AB
:10410000087007E0232D05D104202F4908800120E5
:1041100001490870FEBD00007D0000200D0ACAB6EE
:10412000B1F0C9BEB3FDD6B8CEC6BDE7C3E60D0A31
:1041300000000000CAB6B1F0D6B8CEC60D0A000025
:10414000A1BE2AA1BFC8B7C8CF0D0A00A1BE23A136
:10415000BFC8A1CFFB0D0A00C4AA0008CAB6B1F0BF
:10416000C9BEB3FDD6B8CEC6000000005A0000009C
:10417000A1BE23A1BFB7B5BBD8000000C8B7C8CF48
:10418000A1BE2AA1BF000000700100207E00002017
:1041900080000020C1010020D6B8CEC6CAB6B1F05A
:1041A000B8F6CAFDB4EFB5BDC9CFCFDE2CC7EBCF93
:1041B000C8C9BEB3FDD2D1BEADCAB6B1F0D6B8CE75
:1041C000C649440D0A00000002000020FEB5044666
:1041D0001E264F480078002865D0072002F0E6FE32
:1041E0004CA0FCF763F851A0FCF760F853A0FCF773
:1041F0005DF858A0FCF75AF85B4A00210846FDF725
:10420000A1F92020FF21002247F67C53CDE90021AF
:10421000029056A230211820FCF79FFF1020FF21AA
:10422000002247F67C53CDE90021029053A2DC2105
:104230000020FCF792FF1020FF21002247F67C535C
:10424000CDE90021029050A2DC219620FCF785FFE9
:10425000504A09211520FCF7D1FA00BF00251DE0C6
:104260004C48405DFF2817D04A48415D4AA0FCF702
:104270001DF82020FF210022CDE9002102904548B1
:10428000405D3030C2B247F67C5350213046FCF7D7
:10429000A7FF06F1140086B2681CC5B2092DDFDB4A
:1042A00000201B490870FF2C1DD0232C1BD02A2C6A
:1042B00019D0A4F13001C8B2FCF7EEFD384908600E
:1042C0000846006878B9FF21A4F13100314A115441
:1042D000022309211520FCF7E4FA112002F066FE02
:1042E00001200B490870232C02D02A2C0DD106E0A6
:1042F00004202C49088001200549087005E00120B0
:10430000284908800249087000BF00BFFEBD0000B8
:10431000770000200D0AC9BEB3FDD6B8B6A8D6B83E
:10432000CEC6BDE7C3E63A0D0A000000C7EBD1A137
:10433000D4F1D6B8CEC649440D0A0000A1BE23A1CF
:10434000BFBBD8B5BDC9CFD2BBBCB6B2CBB5A50D2E
:104350000A000000A1BE2AA1BFBBD8B5BDD6F7BDDB
:10436000E7C3E60D0A000000C4AA0008C9BEB3FDF9
:10437000D6B8B6A8D6B8CEC600000000A1BE2AA105
:10438000BFD6F7BDE7C3E600C9CFD2BBBCB6A1BE5E
:1043900023A1BF007001002025752020000000002F
:1043A0007800002002000020FEB504466348007833
:1043B000002876D062A0FBF779FF67A0FBF776FFB5
:1043C00069A0FBF773FF6EA0FBF770FF714A002135
:1043D0000846FDF7B7F82020FF21002247F67C535E
:1043E000CDE9002102906CA230211820FCF7B5FE27
:1043F0001020FF21002247F67C53CDE900210290D6
:1044000069A2DC210020FCF7A8FE1020FF21002279
:1044100047F67C53CDE90021029066A2DC2196206C
:10442000FCF79BFE0B2002F0C1FD654A24211F20F2
:10443000FCF7E4F91E2063490880002062490870F7
:10444000002529E0002622E05D4800EB8500805D24
:10445000FF281AD02020FF210022CDE90021029060
:1044600005F13100C2B247F67C535021554800880F
:10447000FCF7B6FE54480078401C53490870514878
:10448000008814304F49088003E0701CC6B2042E27
:10449000DADB00BF681CC5B2092DD3DB0020274939
:1044A000087049480078002823DDFF2C31D0232CE8
:1044B0002FD02A2C2DD0002007E0FF22A4F13101BB
:1044C0003F4B03EB81010A54401C0428F5DB022317
:1044D0003B4A24211F20FCF7E4F9112002F066FD7D
:1044E00039480078401E3849087001201349087087
:1044F0000FE036A0FBF7DAFE2020FF2100224FF468
:104500007843CDE90021029038A2AA211E20FCF7B1
:1045100024FE232C02D02A2C0DD106E00520374999
:10452000088001200549087005E001203349088012
:104530000249087000BF00BFFEBD000087000020D8
:104540000D0AC9BEB3FDD6B8B6A8BFA8C6ACBDE7B4
:10455000C3E63A0D0A000000C7EBD1A1D4F1BFA811
:10456000C6AC0D0A00000000A1BE23A1BFBBD8B598
:10457000BDC9CFD2BBBCB6B2CBB5A50D0A000000F9
:10458000A1BE2AA1BFBBD8B5BDD6F7BDE7C3E60D16
:104590000A000000C4AA0008C9BEB3FDD6B8B6A878
:1045A000BFA8C6AC00000000A1BE2AA1BFD6F7BDBF
:1045B000E7C3E600C9CFD2BBBCB6A1BE23A1BF00F2
:1045C00079010020880000208A000020C3BBD3D0DE
:1045D000D3C3BBA7D7A2B2E1BCC7C2BC2CC7EBCF29
:1045E000C8D7A2B2E1BFA8C6AC0D0A00C7EBCFC8BE
:1045F000D7A2B2E1BFA8C6AC0000000002000020B4
:104600003EB504463248007800284FD031A0FBF771
:104610004DFE36A0FBF74AFE37A0FBF747FE394AAE
:1046200000210846FCF78EFF2020FF21002247F6DC
:104630007C53CDE90021029033A230211820FCF7F1
:104640008CFD1020FF21002247F67C53CDE900218C
:10465000029031A255213820FCF77FFD2948012125
:104660004FF478432FA2CDE900107E216020FCF7A3
:1046700099FE1020FF21002247F67C53CDE900214E
:10468000029029A2D2210020FCF767FD1020FF2113
:10469000002247F67C53CDE90021029024A2D221CA
:1046A000B420FCF75AFD0020094908702A2C05D1D6
:1046B0000120214908800649087007E0232C05D114
:1046C00002201D4908800120014908703EBD0000FC
:1046D000900000200D0ABBD6B8B4B3F6B3A7C9E862
:1046E000D6C3BDE7C3E63A0D0A000000A1BE2AA169
:1046F000BFC8B7C8CF0D0A00A1BE23A1BFC8A1CFB4
:10470000FB0D0A00C4AA0008BBD6B8B4B3F6B3A721
:10471000C9E8D6C300000000C8B7C8CFBBD6B8B43C
:10472000A3BF000048000000C8B7C8CF282A29004E
:10473000C8A1CFFB282329000200002000BF054AA2
:10474000128802F04002002AF9D0C2B2014B9A80CE
:1047500070470000001001401E48006840F0010052
:104760001C4908600846006840F0040008601A48C8
:10477000006820F44030184908600846006840F49A
:10478000803008601548006820F440201349086014
:104790000846006840F4802008600F48406820F414
:1047A00080700D4948600D48001D006840F400709D
:1047B0000A49091D08600848406940F480700649AC
:1047C000486106481430006840F400700349143111
:1047D0000860704730380240000002400008024084
:1047E00010B51748406920F4807015494861154894
:1047F000006840F40070134908601148406920F4D3
:1048000080700F494861052002F0EEFA0C484069BB
:1048100040F480700A494861052002F0E5FA094831
:10482000001F006800F4007008B1012400E00024BB
:104830000348406920F4807001494861204610BD5A
:10484000000002401408024070B51B48406920F483
:104850008070194948611948006840F40070174990
:10486000086000251DE01448406920F4807012495A
:104870004861052002F0B8FA0F48406940F48070A2
:104880000D494861052002F0AFFA6006040E0B489E
:10489000001F006800F4007008B144F00104681CB7
:1048A000C5B2082DDFDB0448406920F4807002495E
:1048B0004861204670BD000000000240140802401C
:1048C00010B504461448406920F4807012494861CC
:1048D000032002F089FA34B11048006840F40070F7
:1048E0000E49086005E00D48006820F400700B498F
:1048F0000860022002F078FA0748406940F48070AE
:1049000005494861052002F06FFA0348406920F428
:1049100080700149486110BD000002401408024047
:1049200070B50446002528E01848406920F48070DE
:1049300016494861032002F057FA04F0800030B1B4
:104940001348006840F400701149086005E0104801
:10495000006820F400700E490860022002F044FA5A
:104960000A48406940F4807008494861052002F017
:104970003BFA6006040E681CC5B2082DD4DB034860
:10498000406920F480700149486170BD0000024018
:104990001408024010B51248406920F48070104994
:1049A00048611048006840F400700E4908600C48E7
:1049B000406940F480700A494861052002F014FA09
:1049C0000848006820F4007006490860052002F0DD
:1049D0000BFA0348406920F480700149486110BD1A
:1049E000000002401408024010B50F48406920F44E
:1049F00080700D4948610D48006820F400700B4933
:104A000008600948406940F4807007494861052002
:104A100002F0EAF90548006840F4007003490860B4
:104A2000052002F0E1F910BD000002401408024028
:104A30004AF6AA2001490860704700000030004093
:104A40000E48006840F001000C49086000BF0B48A8
:104A5000006800F002000028F9D045F255500849DE
:104A600008600520486040F6C41088604AF6AA2015
:104A700008604CF6CC400860704700007438024073
:104A8000003000401CB501210846FDF713FB012151
:104A90000420FDF70FFB0020009001908DF804002A
:104AA0000120009000208DF8070069460548FCF7BA
:104AB00065FA4FF40050009069460348FCF75EFA2F
:104AC0001CBD0000000002400008024010B5002498
:104AD00001212048FCF7BDFA78B11F48007860B189
:104AE000142002F045F901211A48FCF7B2FAD0B1BE
:104AF000012400201849087015E04FF400511748B0
:104B0000FCF7A7FA78B91448007860B1142002F0D5
:104B10002FF94FF400511148FCF79BFA18B9022401
:104B200000200D49087001210A48FCF792FA78B973
:104B30004FF400510948FCF78CFA08B9012000E055
:104B4000002028B9142002F013F90120024908704E
:104B5000204610BD000002402F0000200008024047
:104B60001CB501210220FDF7A5FA0020009001905C
:104B700001208DF8040000208DF806004FF44070ED
:104B8000009000208DF807008DF805006946044864
:104B9000FCF7F4F94FF440710148FCF765FA1CBDCD
:104BA000000402404FF4A060FDF774FAFFF7D8FF4D
:104BB000FFF768FF4FF4E13002F092F902F0B4FB26
:104BC000FEF77EFC02F07AF8FCF7F2FC02F032FA13
:104BD000FBF7CAFFFFF734FFFEF740FE01F070FE5F
:104BE00000F00EFAFCF70AFF012002F037F902F09C
:104BF000A1FC6AE0FFF71CFFFBF7BCFE334908701D
:104C000033480088292828D007DC08285CD2DFE850
:104C100000F05B10151A1F3851562A380D2853D250
:104C2000DFE800F020252A52525252525234393EC7
:104C300043002648007800F04DF845E0234800780E
:104C4000FEF704FB40E02148007801F071F93BE0F9
:104C50001E48007800F0FCF936E01C480078FBF7AD
:104C6000FBFF31E019480078FFF7B0FA2CE0174855
:104C70000078FFF7AFF827E014480078FFF768F9ED
:104C800022E01248007801F051FC1DE00F48007846
:104C900001F0A6FA18E00D480078FFF785FB13E055
:104CA0000A480078FEF750FE0EE008480078FEF74C
:104CB000FBFE09E00548007802F0E8F904E003484B
:104CC0000078FFF79DFC00BF00BF93E701000020C4
:104CD000020000207CB50446204600F099FF0546FE
:104CE000012D02D102201449088000F08BFE00F053
:104CF00001FE124880884EF6602188421BDB0020AE
:104D00000E4988800E49FDF787FB0E490020FDF70C
:104D100029FB0B48437802780BA10E48FBF7D2FA27
:104D20000D4801214CF218630A4ACDE900103A21DE
:104D30000020FCF737FB7CBD020000205C01002056
:104D40000400002008000020253032643A2530326B
:104D500064000000AD010020C4AA00087CB5044630
:104D60002146512000F01EFD6A4601A9512000F0A5
:104D7000CDFA0546002D4ED19DF80000B5282DD066
:104D80000BDCB2281ED003DCA0B1B1283ED115E067
:104D9000B3281BD0B42839D11CE0B8282AD004DCB1
:104DA000B6281FD0B72831D120E0C02826D0C2288D
:104DB0002CD127E01CA0FBF779FA2BE022A0FBF70F
:104DC00075FA27E027A0FBF771FA23E02BA0FBF789
:104DD0006DFA1FE037A0FBF769FA1BE043A0FBF771
:104DE00065FA17E04EA0FBF761FA13E05AA0FBF753
:104DF0005DFA0FE065A0FBF759FA0BE069A0FBF73D
:104E000055FA07E06BA0FBF751FA03E070A0FBF73F
:104E10004DFA00BF04E076A0FBF748FAFF207CBD06
:104E20009DF80000FBE70000D7A5C8A1D6B8CEC604
:104E3000CDBCCFF1BCB0CCD8D5F7C1BFCCE1C8A1B7
:104E4000B3C9B9A60D0A0000D6B8CEC6B9FDD0A127
:104E500028736D616C6C2066696E676572290D0A36
:104E600000000000CEDED6B8CEC620286E6F2066C9
:104E7000696E676572290D0A00000000D6B8CEC6BB
:104E8000CEBBD6C3B9FDD3DABFBFD7F3A3ACD0E84E
:104E9000D2AABDABCAD6D6B8BFBFD3D2B1DFDEF47B
:104EA000B0B4286C6566742066696E676572290DFA
:104EB0000A000000D6B8CEC6CEBBD6C3B9FDD3DA41
:104EC000BFBFD3D2A3ACD0E8D2AABDABCAD6D6B8A6
:104ED000BFBFD7F3B1DFDEF4B0B42872696768747E
:104EE0002066696E676572290D0A0000D6B8CEC6C5
:104EF000CEBBD6C3B9FDD3DABFBFC9CFA3ACD0E810
:104F0000D2AABDABCAD6D6B8BFBFCFC2B1DFDEF41E
:104F1000B0B42875702066696E676572290D0A0045
:104F2000D6B8CEC6CEBBD6C3B9FDD3DABFBFCFC2CB
:104F3000A3ACD0E8D2AABDABCAD6D6B8BFBFC9CF42
:104F4000B1DFDEF4B0B428646F776E2066696E67F7
:104F50006572290D0A000000CAAACAD6D6B820A3D5
:104F6000A8D6B8CEC6B1EDC3E6B3F6BAB9BBF2D592
:104F7000DFCBAED7D5B9FDB6E0A3A92028776574FD
:104F80002066696E676572290D0A0000B8C9D4EF02
:104F9000CAD6D6B8286472792066696E67657229A8
:104FA0000D0A0000CCD8D5F7CCE1C8A1B4EDCEF302
:104FB0000D0A0000CCD8D5F7CCE1C8A1B4EDCEF3F2
:104FC0002028CDBCCFF1D6CAC1BFB2EE290D0A0050
:104FD000D7A5C8A1D6B8CEC6CDBCCFF1BCB0CCD871
:104FE000D5F7C1BFCCE1C8A1B4EDCEF30D0A0000E6
:104FF000CDA8D0C5CAA7B0DCA3A10D0A000000004F
:105000001CB54FF4E13000F0EDFB01210420FDF769
:1050100051F80020009001908DF8040001200090CC
:1050200069460A48FBF7AAFF01208DF80400022018
:10503000009069460548FBF7A1FF02210348FCF7F1
:1050400011F802210148FCF70DF81CBD00080240D0
:105050001FB504466848007800287DD067A0FBF79C
:1050600025F96BA0FBF722F96DA0FBF71FF972A0E1
:10507000FBF71CF975A0FBF719F979A0FBF716F9F6
:105080007DA0FBF713F9814A00210846FCF75AFA84
:105090002020FF21002247F67C53CDE90021029019
:1050A0007BA230211A20FCF758F81020FF210022A3
:1050B00047F67C53CDE90021029079A253210520C7
:1050C000FCF74BF81020FF21002247F67C53CDE976
:1050D0000021029076A26C210520FCF73EF81020FA
:1050E000FF21002247F67C53CDE90021029075A2F2
:1050F00085210520FCF731F81020FF21002247F61A
:105100007C53CDE90021029073A29E210520FCF77B
:1051100024F81020FF21002247F67C53CDE900211E
:10512000029072A2DC210520FCF717F81020FF2165
:10513000002247F67C53CDE9002102906EA2DC21CB
:105140009120FCF70AF803A91420FEF7BDF99DF899
:105150000C00FF2812D000E013E0FEF795FBFF22C1
:1051600009216848FBF7F4F90223664A0921152052
:10517000FBF797FBFF211420FEF7EDF900201E49F5
:105180000870322C13D006DC232C25D02A2C2AD0F0
:10519000312C2ED104E0332C10D0342C29D114E042
:1051A00029205949088001201349087021E02A204C
:1051B000554908800120104908701AE02B205249F7
:1051C000088001200C49087013E02C204E4908800B
:1051D0000120094908700CE002204B490880012099
:1051E0000549087005E00120474908800249087018
:1051F00000BF00BF1FBD00006E0000200D0AD6B822
:10520000CEC6B9DCC0EDBDE7C3E63A0D0A0000002A
:10521000A1BE31A1BFD7A2B2E1D6B8CEC60D0A0059
:10522000A1BE32A1BFC9BEB3FDD6B8B6A84944D607
:10523000B8CEC60D0A000000A1BE33A1BFC9BEB3DF
:10524000FDCBF9D3D0D6B8CEC60D0A00A1BE34A18D
:10525000BFCAB6B1F0C9BEB3FDD6B8CEC60D0A00FE
:10526000A1BE23A1BFBBD8B5BDC9CFD2BBBCB6B20E
:10527000CBB5A50D0A000000A1BE2AA1BFBBD8B5C1
:10528000BDD6F7BDE7C3E60D0A000000C4AA0008BA
:10529000D6B8CEC6B9DCC0EDBDE7C3E6000000005D
:1052A000A1BE31A1BFD7A2B2E1D6B8CEC6000000E0
:1052B000A1BE32A1BFC9BEB3FDD6B8B6A84944D677
:1052C000B8CEC600A1BE33A1BFC9BEB3FDCBF9D3D2
:1052D000D0D6B8CEC6000000A1BE34A1BFCAB6B1B8
:1052E000F0C9BEB3FDD6B8CEC6000000D6F7BDE704
:1052F000C3E6A1BE2AA1BF00A1BE23A1BFC9CFD2D0
:10530000BBBCB600700100200200002030B503468F
:1053100000BF1B4800780028FBD00020184D2870E3
:10532000184800786C2801D0012030BD154840781D
:10533000622801D00220F8E712488078632801D063
:105340000320F2E70F48C078984201D00420ECE730
:105350000C48007910700B484079087003F1C500C3
:10536000157828440D782844064DAD792844C4B2F8
:105370000448C079A04201D00620D6E70020D4E737
:10538000140000200C0000207FB50546A0480078DE
:1053900058B9162001F00AFE9EA0FAF787FF0120F7
:1053A0009B490870A4A0FAF781FF0121A748FBF7E9
:1053B00050FE00283BD096480078012837D10221C2
:1053C000A248FBF751FE1E2001F0D2FC0020A049AC
:1053D000C880A04801214FF6E0739FA2CDE90010DC
:1053E00078216020FBF7DEFF00BF0020FFF7B6FC4E
:1053F00004469748C08841F2883188420CDB97A068
:10540000FAF754FF00208249087002218F48FBF709
:1054100029FEFC2004B070BD002CE6D1FF207C49A1
:10542000087097A0FAF742FF162001F0BFFD012196
:105430008648FBF70EFE012814D075480078FF2837
:1054400010D1844801214CF2186383A2CDE90010E9
:1054500078216020FBF7A6FF02206D49087091A01B
:10546000FAF724FF01217948FBF7F3FD002833D038
:105470006748007802282FD100207549C8807548F8
:1054800001214FF6E07374A2CDE90010782160206D
:10549000FBF788FF00BF0120FFF760FC04466C4863
:1054A000C08841F2883188420BDB6CA0FAF7FEFE1F
:1054B00000205749087002216448FBF7D3FDFC2007
:1054C000A8E7002CE7D1FE20514908706CA0FAF73C
:1054D000EDFE162001F06AFD01215C48FBF7B9FDE5
:1054E000012814D04A480078FE2810D159480121DB
:1054F0004CF2186358A2CDE9001078216020FBF728
:1055000051FF0320424908706BA0FAF7CFFE01213A
:105510004E48FBF79EFD002833D03D480078032815
:105520002FD100204A49C8804A4801214FF6E07334
:1055300049A2CDE9001078216020FBF733FF00BFBE
:105540000220FFF70BFC04464148C08841F2883135
:1055500088420BDB41A0FAF7A9FE00202C49087015
:1055600002213A48FBF77EFDFC2053E7002CE7D1EF
:10557000042027490870162001F018FD53A0FAF7FF
:1055800095FE2348007804283FD100202049087068
:1055900029467F2000F006F902AA03A97F20FFF721
:1055A000B5FE40B150A0FAF781FE02212748FBF773
:1055B00059FDFF202EE79DF80800912811D003DC4B
:1055C00038B1832819D108E093280ED0942814D13B
:1055D0000FE054A0FAF76AFE0FE055A0FAF766FE56
:1055E0000BE060A0FAF762FE07E065A0FAF75EFE46
:1055F00003E067A0FAF75AFE00BF00BF022113487C
:10560000FBF730FD9DF8080004E7FB2002E70000EF
:10561000DE000020C7EBBDABCAD6D6B8B7C5B5BD56
:10562000D6B8CEC6C4A3BFE9BFAACABCD7A2B2E14E
:10563000D6B8CEC60D0A0000B5DAD2BBB4CED6B805
:10564000CEC6B2C9BCAF0D0A00000000000802407F
:105650005C010020C4AA00085A000000B4ABB8D016
:10566000C6F7D2ECB3A3A3ACB2C9BCAFCAA7B0DC37
:10567000A3ACC7EBD6D8D0C2D7A2B2E10D0A0000C6
:10568000C7EBCCA7C6F0CAD6D6B8A3ACD4D9B4CE93
:10569000B2C9BCAFCFC2D2BBB4CED6B8CEC60D0A4B
:1056A00000000000B5DAB6FEB4CED6B8CEC6B2C998
:1056B000BCAF0D0A00000000B5DAC8FDB4CED6B804
:1056C000CEC6B2C9BCAF0D0A00000000B2C9BCAF63
:1056D000D6B8CEC6B3C9B9A6A3ACD5FDD4DAD7A285
:1056E000B2E10D0A00000000CDA8D0C5CAA7B0DC09
:1056F000B5BCD6C2D7A2B2E1CAA7B0DCA3A1C8E7A5
:10570000D0E8D6D8D0C2D7A2B2E1A3ACC7EBD4D9E7
:10571000B4CEBDF8C8EBD7A2B2E1B9A6C4DCA3A150
:105720000D0A0000D7A2B2E1B3C9B9A60D0A000064
:10573000494420B4EDCEF3284944203C203020BB1E
:10574000F2D5DF204944203E20D7EEB4F3D3C3BBCB
:10575000A7CAFD29BBF2D5DFCDA8D0C5B4EDCEF3E5
:105760000D0A0000D7A2B2E1CAA7B0DC28D3C3BBA0
:10577000A7C7F8D3F2D2D1C2FA290D0A000000005F
:10578000D2D1BEADD7A2B2E1B5C42049440D0A00C2
:10579000D6B8CEC6CCE1C8A1B4CECAFD203C2033D9
:1057A0000D0A00007CB504460D460BA103C9CDE9E6
:1057B00000018DF803408DF8045004F1C500284421
:1057C000C6B28DF8066007216846FDF7A3FB0020EE
:1057D000034908707CBD00006C636200000000009B
:1057E0001400002010B588B0044601210420FCF705
:1057F00061FC082206212E48FBF708FC082207213D
:105800002B48FBF703FC00200690079002208DF840
:105810001C0000208DF81E008DF81F0002208DF85E
:105820001D004020069006A92148FBF7A7FB802019
:10583000069006A91E48FBF7A1FB01212020FCF7DA
:1058400059FC002002900390049005900294ADF85A
:105850001000ADF80E00ADF80C000C20ADF81200F1
:105860000020ADF8140002A91248FDF7E9FB002062
:10587000019047208DF8040001208DF805008DF877
:1058800006008DF8070001A8FCF7C8FB012240F2D2
:1058900025510848FDF7AEFB012240F2244105489E
:1058A000FDF7A8FB01210348FDF761FB08B010BD1F
:1058B000000802400014014030B900214FF080423E
:1058C00091630B4A116011E0002806DD4FF0804122
:1058D00088630021064A116008E0002806DA0021EA
:1058E0004FF0804291634142014A116070470000CD
:1058F000340400402DE9F0414FF000082D480078B5
:1059000038B12D4A24211F20FAF778FF00202949B9
:1059100008702A4A2A493E20FCF7EEFE0746262F49
:1059200045D100241BE0002600250BE0224800EBB7
:105930008400405D2149495D884201D1701CC6B296
:10594000681CC5B2042DF1DB042E06D14FF001080E
:10595000611C1CA0FAF7AAFC03E0601CC4B2092C6D
:10596000E1DB00BFB8F1010F1BD100260EE01448A7
:10597000805D1B49895D884207D01AA0FAF796FC22
:10598000192001F013FBBDE8F081761C102EEEDB30
:10599000FDF76CFF182001F009FB01200549087094
:1059A00005E014A0FAF782FC192001F0FFFA00BF0D
:1059B000E9E700005A000020790100202B000020B8
:1059C0009D010020B4CBBFA8C6ACD2D1BEADD7A23A
:1059D000B2E121204944CEAA3A25640D0A00000014
:1059E0001B000020B4CBBFA8C6ACC3BBD3D0C8A893
:1059F000CFDE2100B4CBBFA8C6ACC3BBD3D0D7A2E7
:105A0000B2E121001FB5FE20029001215F48FBF7A3
:105A100020FB00286FD05E48007800286BD1012061
:105A20005B49087002215948FBF71EFB1E2001F05C
:105A30009FF900205749C880574801214FF6E0736D
:105A400056A2CDE9001078216020FBF7ABFC00BF27
:105A50000020FFF783F902904E48C08841F2883158
:105A6000884218DB4EA0FAF721FC02214748FBF7D9
:105A7000F9FA494801214CF2186348A2CDE9001017
:105A800078216020FBF78EFC192001F08FFA0020AE
:105A90003F4908701FBD9DF808000028D8D100219B
:105AA0007120FFF77FFE02AA03A97120FFF72EFCE9
:105AB000C0B143A0FAF7FAFB02213448FBF7D2FA4F
:105AC000354801214CF2186334A2CDE90010782149
:105AD0006020FBF767FC192001F068FA00202C49D0
