:020000040800F2
:1000000060060020190200082102000823020008EF
:10001000250200082702000829020008000000004D
:100020000000000000000000000000002B0200089B
:100030002D020008000000002F0200083102000815
:1000400033020008330200083302000833020008BC
:1000500033020008330200083302000833020008AC
:10006000330200083302000833020008330200089C
:10007000330200083302000833020008330200088C
:1000800033020008330200083302000800000000B9
:100090000000000000000000000000003302000823
:1000A000330200083302000833020008330200085C
:1000B000330200083302000833020008330200084C
:1000C000330200083302000833020008330200083C
:1000D0003302000833020008330200080000000069
:1000E0003302000833020008330200080000000059
:1000F00000000000000000000000000033020008C3
:100100000000000033020008330200083302000838
:1001100000000000000000000000000000000000DF
:1001200033020008330200083302000833020008DB
:100130003302000800000000000000000000000082
:100140000000000000000000000000003302000872
:1001500033020008330200083302000833020008AB
:100160003302000833020008000000000000000015
:10017000000000000000000000000000000000007F
:100180000000000033020008000000000000000032
:100190003302000800F002F800F02EF80AA090E800
:1001A000000C82448344AAF10107DA4501D100F032
:1001B00023F8AFF2090EBAE80F0013F0010F18BFD1
:1001C000FB1A43F001031847A4030000B403000026
:1001D0000023002400250026103A28BF78C1FBD850
:1001E000520728BF30C148BF0B6070471FB500F0F1
:1001F000B7F91FBD10B510BD00F031F81146FFF77B
:10020000F5FF00F099F900F04FF803B4FFF7F2FFA3
:1002100003BC00F057F80000094880470948004730
:10022000FEE7FEE7FEE7FEE7FEE7FEE7FEE7FEE7A6
:10023000FEE7FEE704480549054A064B7047000003
:100240007904000895010008600000206006002085
:1002500060020020600200207047704770477546BA
:1002600000F02CF8AE4605006946534620F0070022
:10027000854618B020B5FFF7DDFFBDE820404FF000
:1002800000064FF000074FF000084FF0000B21F080
:100290000701AC46ACE8C009ACE8C009ACE8C0094D
:1002A000ACE8C0098D46704710B50446AFF3008036
:1002B0002046BDE81040FFF7A8BF00000048704787
:1002C0000000002001491820ABBEFEE72600020016
:1002D0007047F0B50A4600210023002400BF3DE02E
:1002E000012505FA01F3156805EA03049C4234D19F
:1002F00005684F000326BE40B543056015794E00E2
:10030000B5400668354305601579012D02D0157991
:10031000022D16D185684F000326BE40B543856087
:1003200055794E00B540866835438560456801269D
:100330008E40B5434560456896798E40B6B23543E8
:100340004560C5684F000326BE40B543C560D579FA
:100350004E00B540C6683543C560491C1029BFD35F
:10036000F0BD0183704742694A4042617047000016
:1003700029B1064A12680243044B1A6004E0034A9A
:1003800012688243014B1A60704700003038024007
:100390000CB50020019000903348006840F4803094
:1003A0003149086000BF3048006800F40030009018
:1003B0000198401C0190009818B90198B0F5A04F21
:1003C000F1D12948006800F4003010B101200090FC
:1003D00001E0002000900098012844D122484030DC
:1003E000006840F080502049403108601F48006894
:1003F00040F440401D4908601B48083000681A4915
:10040000083108600846006808600846006840F443
:10041000805008601648091F0860081F006840F0F7
:100420008070091F086000BF0F48006800F000706E
:100430000028F9D040F202700E4908600A480830DE
:10044000006820F003000849083108600846006889
:1004500040F00200086000BF03480830006800F068
:100460000C000828F8D10CBD003802400070004094
:1004700019544107003C024010B51548006840F48B
:100480007000134908601348006840F001001149EA
:10049000086000200F49083108600E4800680E49C6
:1004A00008400C4908600D48091D0860081F0068D5
:1004B00020F48020091F0860002006490C310860E4
:1004C000FFF766FF4FF0006001498039086010BDFA
:1004D00088ED00E000380240FFFFF6FE10300024F7
:1004E000014645F2082201FB02F000E0401E002810
:1004F000FCD170471CB501210220FFF739FF002015
:100500000090019001208DF8040000208DF8060075
:100510004FF44070009000208DF807008DF8050022
:1005200069460448FFF7D5FE4FF440710148FFF7D4
:1005300018FF1CBD00040240FFF7DCFF0DE04FF484
:1005400000710648FFF70FFF4FF480710348FFF773
:100550000AFF4FF4FA70FFF7C3FFF0E70004024010
:100560004FF04070E1EE100A704700007C05000873
:0C0570000000002060060000D001000820
:040000050800019559
:00000001FF
