:020000040800F2
:10000000C00700203D020008450200084702000822
:10001000490200084B0200084D02000800000000E1
:100020000000000000000000000000004F02000877
:1000300051020008000000005302000855020008A9
:10004000570200085702000857020008591C000810
:10005000570200085702000857020008570200081C
:10006000570200085702000857020008570200080C
:1000700057020008570200085702000857020008FC
:10008000570200085702000857020008000000004D
:1000900000000000000000000000000057020008FF
:1000A000AD1E00085702000857020008570200085A
:1000B00057020008570200085702000857020008BC
:1000C00057020008570200085702000857020008AC
:1000D00057020008E1210008570200080000000054
:1000E00057020008851800085702000800000000A9
:1000F000000000000000000000000000570200089F
:1001000000000000570200085702000857020008CC
:1001100000000000000000000000000000000000DF
:10012000570200085702000857020008570200084B
:10013000570200080000000000000000000000005E
:10014000000000000000000000000000570200084E
:10015000570200085702000857020008F922000859
:1001600057020008570200080000000000000000CD
:10017000000000000000000000000000000000007F
:10018000000000005702000800000000000000000E
:100190005702000800F002F800F041F80AA090E8C9
:1001A000000C82448344AAF10107DA4501D100F032
:1001B00036F8AFF2090EBAE80F0013F0010F18BFBE
:1001C000FB1A43F0010318475C5202007C52020004
:1001D000103A24BF78C878C1FAD8520724BF30C873
:1001E00030C144BF04680C60704700000023002445
:1001F00000250026103A28BF78C1FBD8520728BF37
:1002000030C148BF0B607047642900F09380002024
:1002100070471FB505F05CFD1FBD10B510BD00F0A7
:100220008DFA1146FFF7F5FF03F020FB00F0ABFA63
:1002300003B4FFF7F2FF03BC02F0A0F909488047BE
:1002400009480047FEE7FEE7FEE7FEE7FEE7FEE7B8
:10025000FEE7FEE7FEE7FEE704480549054A064BD0
:1002600070470000451E000895010008C0010020ED
:10027000C0070020C0030020C00300207047B2F177
:1002800020030AD5C2F1200301FA02F120FA03F398
:1002900000FA02F041EA0301704700FA03F14FF05F
:1002A000000070470FB4044910B503AA029800F08B
:1002B0002FFA10BC5DF814FB240000200FB41CB50D
:1002C000074B06AA7B4469460090059800F007FAA0
:1002D0000020694600F016FA1CBC5DF814FB000013
:1002E0003D04000070B5044685690068C10601D56B
:1002F000302600E02026C00707D070BDD4E90121D8
:1003000030469047206A401C20626D1EF6D570BDB5
:1003100070B5044685690078C00707D170BDD4E97F
:10032000012120209047206A401C20626D1EF6D5D6
:1003300070BD00002DE9F0410646002410687529C3
:10034000314616A510D0AFF30080002802DA4042F3
:1003500013A507E031688A0701D512A502E0490715
:1003600004D511A5012401E0AFF3008000210A2289
:1003700006F1240709E0B0FBF2FCB0FBF2F302FB4C
:100380001C00303078541846491C0028F3D123460D
:100390002A463046BDE8F04100F042B900000000B6
:1003A0002D0000002B000000200000002DE9F05F70
:1003B000894604464FF0000ADFF824B1FB44C0F838
:1003C00020A02046E168884700287DD0252806D057
:1003D000D4E901219047206A401C2062F1E7002502
:1003E0005F462046E16888472028064607DB312E15
:1003F00005D2B81910F8200C08B10543F1E7A80799
:1004000001D525F00405C4F81CA00027C4F818A0E5
:100410002A2E09D0304602F0AAF838B304EB870838
:10042000303EC8F8186019E059F8041B204604EB68
:1004300087029161E1688847012F064618D1E0697B
:10044000002820DA25F020051DE0D8F8180000EB80
:10045000800006EB40003038C8F818002046E168FC
:100460008847064602F083F80028EED1012F0AD013
:100470002E2E08D12046E16888477F1C0646022FB1
:1004800045F02005C4DBA069002803DA404245F0AE
:100490000105A061E80701D025F01005A6B1A6F17D
:1004A0004100192802D8203645F400654A463146F5
:1004B000204625604D46FFF7A7FE60B1012807D012
:1004C000ED1D25F0070000E007E000F1080978E7DE
:1004D00005F1040975E730467AE7206ABDE8F09F28
:1004E0005050020010B5203AC0F00B80B1E818500F
:1004F000203AA0E81850B1E81850A0E81850BFF40E
:10050000F5AF5FEA027C24BFB1E81850A0E81850AC
:1005100044BF18C918C0BDE810405FEA827C24BF00
:1005200051F8043B40F8043B08BF7047D20728BF8E
:1005300031F8023B48BF11F8012B28BF20F8023BDD
:1005400048BF00F8012B70474FF0000200B513467A
:1005500094469646203922BFA0E80C50A0E80C50E3
:10056000B1F12001BFF4F7AF090728BFA0E80C5094
:1005700048BF0CC05DF804EB890028BF40F8042B8D
:1005800008BF704748BF20F8022B11F0804F18BFFA
:1005900000F8012B704700004FF0013C50F8042B8D
:1005A00051F8043B9A4221D1A2EB0C03934313EA86
:1005B000CC1317D150F8042B51F8043B9A4215D1B3
:1005C000A2EB0C03934313EACC130BD150F8042B8A
:1005D00051F8043B9A4209D1A2EB0C03934313EA6E
:1005E000CC13DBD04FF00000704700BFD01A01BA27
:1005F000B1FA81F101F0180122FA01F0CB40C1F10A
:100600002001DBB2C0B2C01A2CFA01F3D11A914317
:1006100011EAC311E6D170477047704770477047C1
:100620002DE9F0470D4699469246044600F124080C
:100630000168880604D5E06921F01001216000E01E
:100640000120A84201DD471B00E00027A1697A19BB
:1006500002EB0900081AA0612078C00602D42046E7
:10066000FFF740FE002608E0D4E901211AF8060051
:100670009047206A401C761C20624E45F4DB2078AF
:10068000C0060AD52046FFF72DFE06E0D4E9012179
:1006900030209047206A401C2062381EA7F10107D5
:1006A000F4DC07E0D4E9012118F805009047206A3E
:1006B000401C2062281EA5F10105F3DC2046FFF74F
:1006C00027FE2078000602D50220BDE8F087012031
:1006D000FBE7000001694A1C02610878704700B519
:1006E0008FB0CDE901310021059105497944CDE96B
:1006F000031011466846FFF759FE0FB000BD000019
:10070000E5FFFFFF0A6802F8010B0A60704700006E
:10071000074B70B50D467B44FFF7E1FF04462846C2
:1007200000F008F810B14FF0FF3070BD204670BDEA
:10073000EB2C0000007B00F080007047754600F055
:100740002BF8AE4605006946534620F00700854663
:1007500018B020B5FFF780FDBDE820404FF000063F
:100760004FF000074FF000084FF0000B21F0070199
:10077000AC46ACE8C009ACE8C009ACE8C009ACE8DC
:10078000C0098D46704710B50446AFF3008020467F
:10079000BDE81040FFF74CBD0048704760010020E5
:1007A0002DE9F04104460D46164602F057FFA046DB
:1007B000E11704EB11610912A02202EB4101C8B25A
:1007C00002F012FF02F070FE0746012F04D102F082
:1007D0006FFF0120BDE8F081E0B202F005FF02F0FA
:1007E00063FE0746012F03D102F062FF0220F1E70A
:1007F00002F034FFA046E11704EB11610912A122B7
:1008000002EB4101C8B202F0EFFE02F04DFE0746D6
:10081000012F03D102F04CFF0120DBE70DE002F0D5
:1008200077FE3070681E85B21DB9012002F0ACFE63
:1008300004E0002002F0A8FE761CF0E700BF02F002
:1008400037FF0020C6E72DE9F04106460D469046E9
:100850001F4619E0F80096FBF0F100FB1160C0EBB9
:10086000C700C4B2AC4205DBE9B24246304600F0F4
:1008700010F80AE042462146304600F00AF83019E6
:1008800086B2281B85B2A044E4E700BF0020BDE883
:10089000F0812DE9F04104460D46164602F0DEFED9
:1008A000A046E11704EB11610912A02202EB4101FD
:1008B000C8B202F099FE02F0F7FD0746012F04D1FD
:1008C00002F0F6FE0120BDE8F081E0B202F08CFEFD
:1008D00002F0EAFD0746012F03D102F0E9FE0220F3
:1008E000F1E710E0307802F07FFE02F0DDFD074610
:1008F000012F03D102F0DCFE0320E4E7681EC5B23D
:1009000005B901E0761CEDE700BF02F0D1FE05203D
:1009100004F0D0FD0020D6E710B5FF240E48006992
:1009200000F0020068B90D48007850B100F018F8E6
:100930000446FF2C05D00020084908701D2004F053
:10094000D7FE0548006900F0020010B101200349FC
:100950000870204610BD0000000002405F0000202B
:1009600010B502F0BDF8A02002F082F801F0EEFF11
:1009700018B102F0DFF8012010BD00BF3B4800684D
:1009800000F040000028F9D0082002F071F801F0D2
:10099000DDFF18B102F0CEF80220EDE700BF3348CA
:1009A000006800F040000028F9D002F099F8A1207A
:1009B00002F05EF801F0CAFF18B102F0BBF80320A4
:1009C000DAE700BF2948006800F040000028F9D0AD
:1009D00001F0E6FF0446002002F01AF801F0E0FF03
:1009E00044EA0024012002F013F802F0A3F8402C9E
:1009F0002AD00EDC082C29D006DC012C1AD0022CBF
:100A00001ED0042C2ED127E0102C29D0202C29D147
:100A100020E0B4F5007F21D005DC802C0ED0B4F5A9
:100A2000807F1FD114E0B4F5806F05D0B4F5006F5E
:100A300018D107E031209FE732209DE733209BE764
:100A4000342099E7352097E7362095E7372093E75C
:100A5000382091E739208FE72A208DE730208BE777
:100A6000232089E700BFFF2086E700001004024032
:100A700070B50446002602F033F8A02001F0F8FF1C
:100A800001F064FF18B102F055F8012070BD00BFFD
:100A90001D48006800F040000028F9D0B02001F0A7
:100AA000E7FF01F053FF18B102F044F80220EDE730
:100AB00000BF1548006800F040000028F9D001256B
:100AC0001BE0162D03D1F0B201F0D2FF05E0207833
:100AD00001F0CEFF20780644641C01F037FF18B106
:100AE00002F028F80320D1E700BF0748006800F0B3
:100AF00040000028F9D0681CC5B2162DE1DD02F0D7
:100B000019F80020C2E700001004024000B58DB0C3
:100B1000182107A8FFF718FD18220BA101A8FFF75D
:100B2000E1FC01F0F3FE0E48006840F001000C49C2
:100B300008600C48006820F00C000A49086001A811
:100B4000FFF796FF0DB000BD000083F3983F3F3FD5
:100B50003F3F3F3F3F3F3F3F3F3F3F3F7F00000022
:100B60003038024000000240014908607047000030
:100B7000143C01403EB50446012536480078002863
:100B800045D0032004F0B4FD33A0FFF78BFB38A061
:100B9000FFF788FB3CA0FFF785FB404A0021084691
:100BA00000F07AFB2020FF21002247F67C53CDE99C
:100BB000002102903AA23021182000F078F910208C
:100BC000FF21002247F67C53CDE90021029038A294
:100BD000DC21002000F06BF91020FF21002247F6F5
:100BE0007C53CDE90021029034A2DC21962000F054
:100BF0005EF92A4801214CF2186333A2CDE90010B6
:100C00007821602000F078FA0020124908706320F3
:100C100003F0FAF9054645B9112004F069FD0420F6
:100C20002A49088001200B490870232C02D02A2C65
:100C30000DD106E0042025490880012005490870EF
:100C400005E00120214908800249087000BF00BF6B
:100C50003EBD0000540000200D0AD7A2B2E1D3C36C
:100C6000BBA7D6B8CEC6BDE7C3E63A0D0A00000062
:100C7000A1BE23A1BFBBD8B5BDC9CFD2BBBCB6B244
:100C8000CBB5A50D0A000000A1BE2AA1BFBBD8B5F7
:100C9000BDD6F7BDE7C3E60D0A00000008920008C4
:100CA000D7A2B2E1D3C3BBA7D6B8CEC6000000001E
:100CB000A1BE2AA1BFD6F7BDE7C3E600C9CFD2BB0C
:100CC000BCB6A1BE23A1BF005A0000000200002054
:100CD000F0B50A4600210023002400BF3DE00125B5
:100CE00005FA01F3156805EA03049C4234D105684E
:100CF0004F000326BE40B543056015794E00B54050
:100D00000668354305601579012D02D01579022D4D
:100D100016D185684F000326BE40B54385605579DE
:100D20004E00B540866835438560456801268E4093
:100D3000B5434560456896798E40B6B23543456007
:100D4000C5684F000326BE40B543C560D5794E0047
:100D5000B540C6683543C560491C1029BFD3F0BDF6
:100D6000F0B5002300244D07ED0E02FA05F3CE1076
:100D700000F1200555F826504E07F70E0F26BE400D
:100D8000B543CF1000F1200646F82750CE1000F1F1
:100D9000200555F8265045EA0304CE1000F1200541
:100DA00045F82640F0BD0246002013690B400BB108
:100DB000012000E0002070474183704701837047A5
:100DC0001CB50121022000F06FFC45F202400090AA
:100DD00001208DF8040000208DF806008DF8070032
:100DE00069460648FFF774FF02210448FFF7E4FF55
:100DF0004FF480510148FFF7E1FF1CBD00040240A1
:100E000070B506460C4615462A2004F0FDF930461A
:100E100004F02AFA304604F027FA2B2004F0F4F903
:100E2000204604F021FA204604F01EFA2C2004F09B
:100E3000EBF9284604F018FA70BD2DE9F047074693
:100E40000C4615469946781B801E1FFA80F828E04C
:100E5000601B801E86B21CE0A8EB07004043311BDC
:100E6000321B01FB020105FB05F081420FDBA8EB01
:100E700007004043311B321B01FB0201A81C404309
:100E8000814204DC4A4631464046FFF7B9FF701CF8
:100E900086B26019801CB042DEDA08F101001FFA48
:100EA00080F87819801C4045D2DABDE8F0872DE93A
:100EB000FE4F06460F4615469A46DDE90C890E9C04
:100EC00033E0287820281DDB28787F281ADC04EB03
:100ED000D4714910C1F1F001B14202DA002638198B
:100EE00087B2CDE9008902942A78534639463046C4
:100EF00000F020F86D1C204604EBD07106EB610178
:100F00008EB212E0C4F1F000B04202DA00263819C5
:100F100087B253462A4639463046CDE900890294C5
:100F200000F06AF8AD1C301986B228780028C8D1C4
:100F3000BDE8FE8F2DE9F04F95B080468946924678
:100F40009B46209C5046C7B2102C07D1610301EB91
:100F5000071010AA102104F0E5FD08E0202C06D1AE
:100F6000244901EB87106A46402104F0DBFD00258F
:100F70003BE0102C03D110A8405D14900AE0202C17
:100F800008D16800401C1DF800001DF8151040EA4B
:100F900001201490002621E004EBD4714910491E71
:100FA0008A1B01219140149A114049B109EB0502B5
:100FB00091B208EB060290B25A46FFF721FF0BE010
:100FC0001E98012808D109EB050291B208EB060230
:100FD00090B21F9AFFF714FF701CC6B204EBD471D5
:100FE000B6EB610FD8DB681CC5B2A542C1DB15B0FA
:100FF000BDE8F08F060802002DE9F04FA9B0804649
:10100000894692469B46349D00BF9AF80100A1385C
:101010009AF80010A139C1EB011202EB411100EB6B
:10102000410087B2102D07D1314901EB471020AAAA
:10103000202104F077FD08E0202D06D12D4901EB99
:10104000C7106A46802104F06DFD00244AE0102D8F
:1010500009D1012000EB440020A9085C11F814100C
:1010600040EA01202890202D17D11DF82400000609
:10107000012101EB84011DF8011040EA0140022129
:1010800001EB84011DF8011040EA0120032101EB6E
:1010900084011DF801100843289000261EE0681EF8
:1010A000811B012088402899084048B109EB0402BF
:1010B00091B208EB060290B25A46FFF7A1FE0BE090
:1010C0003298012808D109EB040291B208EB06021C
:1010D00090B2339AFFF794FE701CC6B2AE42DEDBCC
:1010E000601CC4B2AC42B2DB29B0BDE8F08F000096
:1010F0000C280200522606002DE9FF4F83B08146DE
:101100008A469346BDE0002508E09BF80000604950
:10111000495D884200D105E0681C85B25C48405DAD
:101120000028F2D100BF5A48405D10B907B0BDE8B1
:10113000F08F00249CE004EB4400400005EBC50167
:1011400000EB41105349085C0102002204EB44000B
:10115000400005EBC50300EB4310401C4D4B185CF1
:101160001243014304EB4400400005EBC50300EBD0
:101170004310801C474B1B5C0020000640EA1320F4
:1011800042EA0362084304EB4401490005EBC5034E
:1011900001EB4311C91C3F4B5B5C0021090441EA90
:1011A00013414FEA034C034642EA0C0043EA0102B2
:1011B00004EB4401490005EBC50301EB4311091D94
:1011C000344B5B5C0021090241EA13614FEA032CB6
:1011D000134640EA0C0243EA010004EB44014900D3
:1011E00005EBC50301EB4311491D2A4B595C42EA4B
:1011F00001078046002637E0C6F12F0201210020BA
:10120000CDE9010108460199FFF739F8384001EAB4
:101210000801002358405940084309D00AEB040252
:1012200091B209EB060290B2069AFFF7E9FD19E0C8
:101230001098012816D109EB06000AEB0401C1EB56
:10124000011100EB01111198083000EB41030093EC
:10125000009B1A880AEB040399B209EB060398B2C3
:10126000FFF7CEFD701C86B2302EC5DB601C84B249
:10127000302CFFF660AF0BF1010B09F130001FFAC3
:1012800080F99BF8000000287FF43DAF00BF4DE7D8
:10129000DA5C0008ED5C00082DE9F04707460E46D1
:1012A0001446254604F108082A2003F0ADFF38460D
:1012B00003F0DAFF69883944491E88B203F0D4FF8D
:1012C0002B2003F0A1FF304603F0CEFFA988314464
:1012D000491E88B203F0C8FF2C2003F095FF4FF0A1
:1012E000000907E0B8F8000003F0BEFF08F10208AB
:1012F00009F101096888A98848434845F2D8BDE842
:10130000F087000010B500F0EBF8FFF759FD03F08F
:1013100069FF362003F078FF002003F08DFF3A20AC
:1013200003F072FF052003F087FFB22003F06CFF8B
:101330000C2003F081FF0C2003F07EFF002003F05F
:101340007BFF332003F078FF332003F075FFB720D5
:1013500003F05AFF352003F06FFFBB2003F054FF6A
:10136000192003F069FFC02003F04EFF2C2003F08A
:1013700063FFC22003F048FF012003F05DFFC3209C
:1013800003F042FF122003F057FFC42003F03CFF9C
:10139000202003F051FFC62003F036FF0F2003F09A
:1013A0004BFFD02003F030FFA42003F045FFA12025
:1013B00003F042FFE02003F027FFD02003F03CFFC2
:1013C000042003F039FF0D2003F036FF112003F055
:1013D00033FF132003F030FF2B2003F02DFF3F20BD
:1013E00003F02AFF542003F027FF4C2003F024FFD2
:1013F000182003F021FF0D2003F01EFF0B2003F047
:101400001BFF1F2003F018FF232003F015FFE1202E
:1014100003F0FAFED02003F00FFF042003F00CFFCE
:101420000C2003F009FF112003F006FF132003F046
:1014300003FF2C2003F000FF3F2003F0FDFE4420BB
:1014400003F0FAFE512003F0F7FE2F2003F0F4FE24
:101450001F2003F0F1FE1F2003F0EEFE202003F01A
:10146000EBFE232003F0E8FE212003F0CDFE112047
:1014700003F0CAFE292003F0C7FE02210148FFF74E
:101480009DFC10BD000402402DE9F04707460D46C3
:1014900014469946381B1FFA80F81BE0281B86B2B9
:1014A00011E0A8EB07004043711B721B01FB020116
:1014B00004FB04F0814204DC4A4631464046FFF713
:1014C0009FFC701C86B22819B042EADA08F10100CC
:1014D0001FFA80F838194045E0DABDE8F0870000CF
:1014E0001CB50121022000F0DFF84FF420400090ED
:1014F00001208DF8040000208DF806008DF807000B
:1015000002208DF8050069460448FFF7E1FB4FF41F
:1015100000510248FFF750FC1CBD000000040240CF
:1015200070B5044600251BE04FF400510E48FFF74C
:1015300043FC04F0800028B14FF400410A48FFF753
:101540003DFC04E04FF400410748FFF735FC4FF441
:1015500000510548FFF732FC6006040E681CC5B256
:10156000082DE1DB70BD0000000402402DE9F05FB2
:1015700006460D4614461F46DDF82C904FF0000A33
:10158000C5EB051006EB00110C98083000EB410884
:101590002A2003F039FE304603F066FE3119491E59
:1015A00088B203F061FE2B2003F02EFE284603F0E4
:1015B0005BFEE919491E88B203F056FE2C2003F0A9
:1015C00023FED3461DE0B9F1000F03D10A9803F0C2
:1015D0004BFE14E0B9F1010F11D1B8F8000003F08F
:1015E00043FE08F102080AF101001FFA80FAA24541
:1015F00005D1C4F1F00008EB40084FF0000A0BF1F0
:10160000010B04FB07F05845DDD8BDE8F09F000052
:1016100070B5002100230F22C4781CB3174C246836
:1016200004F4E064C4F5E064C4F30721C1F10404E8
:10163000E3B20A4144789C40E1B2847814402143EB
:101640000C07210E0E4C05786155047804F01F0537
:101650000124AC4005786D11AD0005F1E025C5F819
:10166000004109E0047804F01F050124AC40054D59
:101670000678761145F8264070BD00000CED00E0BC
:1016800000E400E080E100E002490143024A116009
:10169000704700000000FA050CED00E00149086207
:1016A0007047000000000E4229B1064A126802434A
:1016B000044B1A6004E0034A12688243014B1A602B
:1016C000704700003038024029B1064A12680243D0
:1016D000044B1A6004E0034A12688243014B1A600B
:1016E000704700004038024029B1064A12680243A0
:1016F000044B1A6004E0034A12688243014B1A60EB
:101700007047000044380240F0B500210022002458
:10171000022500260223324F3F6807F00C0121B159
:10172000042905D0082937D105E02E4F076036E09F
:101730002D4F076033E02A4F3F1F3F68C7F38056A5
:10174000274F3F1F3F6807F03F036EB1264FB7FB9F
:10175000F3F7DFF88CC0ACF1040CDCF800C0CCF37C
:10176000881C07FB0CF40CE01E4FB7FBF3F7DFF807
:1017700070C0ACF1040CDCF800C0CCF3881C07FB93
:101780000CF4174F3F1F3F68C7F301477F1C7D00D4
:10179000B4FBF5F7076002E0124F076000BF00BF1F
:1017A0000F4F3F6807F0F0010909104F7A5C076896
:1017B000D74047600A4F3F6807F4E051890A0B4F52
:1017C0007A5C4768D7408760054F3F6807F46041FF
:1017D000490B064F7A5C4768D740C760F0BD0000F0
:1017E000083802400024F40040787D01AD0000205C
:1017F00010B501460022002300204A11012A02D11F
:101800000A4C236808E0022A03D1084C703423688C
:1018100002E0064C7434236801F01F020124944056
:101820001C400CB1012000E0002010BD0038024037
:101830000149086070470000800E47420149086076
:10184000704700003C0E4742002100F44072B2F5A0
:10185000407F08D1094A116821F4F811084A024072
:101860001143064A1160054A68321268C0F30B033F
:101870001A43024B68331A60704700000838024070
:10188000FFFCFF0F10B54FF4805000F09FF818B127
:101890004FF4805000F01EF84FF40030FFF764F969
:1018A00010BD014600BF080900EB8000420001F0B6
:1018B0000F001044C0B270470146002204E0501CE3
:1018C000C2B2A1F10A00C1B20A29F8DA100741EA4E
:1018D00010607047002101098AB242F08002044B77
:1018E0001B6803F0800363EA0202014B1A60704731
:1018F0000C28004008B50022009200200021104A68
:10190000126802F04002CAB9421E0D4B1A6000BFB5
:101910000B4A126802F04001009A521C0092009A91
:10192000B2F5803F01D00029F2D0054A126802F0DA
:1019300040020AB1012002E0002000E0012008BDC1
:101940000C2800400348006820F08000014908602E
:10195000704700000C28004070B506460C46002574
:101960000E4800680E4900EA0105280CE070C5F336
:101970000420607005F03F00A070C5F34230207075
:101980005EB9E078FFF78DFFE0706078FFF789FFC0
:101990006070A078FFF785FFA07070BD042800403C
:1019A0003FFFFF0010B5014600200022054B1B68D9
:1019B000054C03EA040202EA01030BB1012000E036
:1019C000002010BD0C2800407F3F010030B50146CB
:1019D0000020002200230C4C246804F004020A4C6E
:1019E000383C24680C4002EAD13544EA0503064C31
:1019F000343C246804EA11121BB194B20CB10120EA
:101A000000E0002030BD00004028004070B50646D0
:101A10000C4600250F4800680F4900EA0105C5F390
:101A200005402070C5F30620607005F07F00A070AF
:101A300005F48000000CE0705EB92078FFF731FFFC
:101A400020706078FFF72DFF6070A078FFF729FF06
:101A5000A07070BD002800407F7F7F0030B5044635
:101A60000025CA201549086053200860FFF742FF8F
:101A700000B91DE011481C38006820F040000F49F3
:101A80001C39086008460068216808430B491C3966
:101A900008600A491439A068086008460068A188EF
:101AA00040EA0140054914390860FFF74BFF012562
:101AB000FF2002490860284630BD0000242800406D
:101AC0002DE9F04105460C46002600274DB9607807
:101AD00000F01000102804D1607820F010000A30C7
:101AE000607005B908E06078FFF7DBFE0646A07875
:101AF000FFF7D7FE064600BF55B1E07800046178D5
:101B000040EA0120A1780843217840EA413611E0FB
:101B1000E078FFF7D1FE4FEA00486078FFF7CCFE8F
:101B200048EA0028A078FFF7C7FE48EA00082078B6
:101B300048EA4036CA201249086053200860FFF77F
:101B4000D9FE08B9002714E00E4830400C4920396E
:101B50000860FFF7F7FE0A481C38006800F0200014
:101B600030B900F085F808B9002702E0012700E04D
:101B70000127FF20024908603846BDE8F0810000D7
:101B8000242800403FFFFF002DE9F04105460C46A8
:101B9000002600274DB92E48006800F0400000B133
:101BA00002E00020E07000BF0DE02948006800F06E
:101BB000400020B12078FFF774FE064602E00020C6
:101BC000E07000BF00BF55B120780004617840EAA2
:101BD0000120A1780843E17840EA014611E020782D
:101BE000FFF76AFE4FEA00486078FFF765FE48EAB3
:101BF0000028A078FFF760FE48EA0008E07848EA8D
:101C00000046CA2012491C31086053200860FFF7C3
:101C100071FE08B9002713E00E4830400C4908391E
:101C20000860FFF78FFE0A48006800F0200030B916
:101C300000F01EF808B9002702E0012700E00127A4
:101C4000FF2003491C3108603846BDE8F0810000E0
:101C5000082800407F7F7F0010B54FF48040FFF7D9
:101C6000B5FE18B14FF48040FFF734FE10BD000000
:101C700008B50022009200200021CA22134B1A60EE
:101C800053221A60114A183A126822F0A0020F4B30
:101C9000183B1A6000BF0D4A183A126802F0200182
:101CA000009A521C0092009AB2F5003F01D0002920
:101CB000F1D0064A183A126802F020020AB1012057
:101CC00000E00020FF22014B1A6008BD24280040DC
:101CD00018B1FF21044A116004E0CA21024A1160D0
:101CE00053211160704700002428004021B1028870
:101CF00042F04002028004E002884FF6BF731A40AF
:101D0000028070470246002013890B400BB101206E
:101D100000E0002070470146888970478181704744
:101D200010B50022028802F441520B884C882343EC
:101D30008C882343CC8823430C8923434C89234339
:101D40008C892343CC8923431A430280838B4FF22F
:101D5000FF74234083830B8A038210BD0CB50020DF
:101D6000019000903348006840F4803031490860A9
:101D700000BF3048006800F4003000900198401C1B
:101D80000190009818B90198B0F5A04FF1D12948F9
:101D9000006800F4003010B10120009001E0002044
:101DA00000900098012844D122484030006840F05B
:101DB00080502049403108601F48006840F440408E
:101DC0001D4908601B48083000681A49083108603E
:101DD0000846006808600846006840F480500860C3
:101DE0001648091F0860081F006840F08070091F2E
:101DF000086000BF0F48006800F000700028F9D0AC
:101E000040F202700E4908600A480830006820F06D
:101E100003000849083108600846006840F00200E5
:101E2000086000BF03480830006800F00C00082874
:101E3000F8D10CBD00380240007000401954410731
:101E4000003C024010B51548006840F4700013498A
:101E500008601348006840F0010011490860002044
:101E60000F49083108600E4800680E4908400C49C7
:101E700008600D48091D0860081F006820F48020D4
:101E8000091F0860002006490C310860FFF766FF53
:101E90004FF0006001498039086010BD88ED00E016
:101EA00000380240FFFFF6FE1030002410B501217B
:101EB000204800F062F801283AD101211D4800F0C5
:101EC00044F81D480088401E1B4908800846408889
:101ED000401C488008468088401C88800846C0888E
:101EE000401CC88008464088022821DB002048802A
:101EF0001248007801280DD111480068401C104993
:101F0000086008460068B0F57A7F11D300200B49BD
:101F100008700DE00948007850B909480068401E73
:101F2000074908600846006810B901200349087095
:101F300010BD0000004001402C01002020000020C6
:101F400040080040CA4302827047CA430282704779
:101F500021B1028842F00102028004E002884FF6BB
:101F6000FE731A400280704702460020138A0B401D
:101F70000BB1012000E00020704730B50246002080
:101F800000230024158A05EA0103958905EA010466
:101F900013B10CB1012000E0002030BD1AB18389DB
:101FA0000B43838102E083898B4383817047000068
:101FB00070B5002400220023058C4FF6FE763540D4
:101FC0000584028C8388048B4FF68F752C40B51ED8
:101FD0002C400D882C43751E2A408D892A434D883C
:101FE0002A43104DA84202D00F4DA84213D14FF6FC
:101FF000F7752A40CD892A434FF6FB752A408D8814
:102000002A434FF6FF652B404FF6FF552B400D8AB4
:102010002B434D8A2B43838004838D684563028460
:1020200070BD0000000001400004014070B50024B4
:1020300000220023058C4FF6EF7635400584028C94
:102040008388048B48F6FF752C404FF6FF452C40E3
:102050000D884FF6FF7606EA05252C434FF6DF750F
:102060002A408D8906EA05152A434D8806EA05159A
:102070002A43154DA84202D0144DA8421DD14FF657
:102080007F752A40CD894FF6FF7606EA05152A436B
:102090004FF6BF752A408D8806EA05152A434FF68C
:1020A000FF352B404FF2FF752B400D8A06EA850560
:1020B0002B434D8A06EA85052B43838004838D6874
:1020C0008563028470BD00000000014000040140EF
:1020D00070B5002200230024058C4EF6FF763540B3
:1020E0000584038C8488828B48F6FF752A404FF65E
:1020F000FF452A400D884FF6FF7606EA05252A435C
:102100004DF6FF752B408D8906EA05352B434D882A
:1021100006EA05352B430A4DA84202D0094DA842D4
:1021200008D14BF6FF752C400D8A4FF6FF7606EA74
:1021300085152C43848082838D680564038470BD7B
:10214000000001400004014000220288184B984220
:102150000ED0184B98420BD0B0F1804F08D0164BE0
:10216000984205D0154B984202D0154B984204D1A5
:102170004FF68F731A404B881A43124B984207D080
:10218000114B984204D04FF6FF431A400B891A4373
:1021900002804B68C3620B880385054B984202D0CE
:1021A000044B984201D18B7A0386012383827047C6
:1021B000000001400004014000040040000800400D
:1021C000000C004000100040001400404FF0FF31B0
:1021D00041600021018001814180817270470000CF
:1021E00008B540F22551354800F0FEF8002850D0DF
:1021F00040F22551314800F0CFF8314800780128ED
:102200003BD12E4800F0AAF9C0B200906A460121E5
:102210002C48006803F04CFC4FF480712A48FEF70C
:10222000CBFD28480068401C264908602748006804
:10223000401E2649086008460068002829D124A0CD
:10224000FEF730F84FF480711F48FEF7B7FD00200D
:102250001B49087045F255502549086000BF2448C5
:10226000C06800F002000028F9D1FA2020498860F7
:102270004AF6AA20086000BFFEE7104800F06EF999
:10228000C1B21C48426E406E401C1A4B586618463C
:10229000815440F22441094800F0A6F868B107488B
:1022A00000880648808800201249496E114A50541F
:1022B00011464866012081F8680008BD0010014001
:1022C0000000002018000020000402401C00002034
:1022D000D7D6BFE2C9D5C2BCCDEAB3C92C3173BAD7
:1022E000F3D7D4B6AFB8B4CEBBC9E8B1B80D0A00C5
:1022F00000300040C000002010B540F225511348C6
:1023000000F072F880B140F22551104800F044F816
:102310000E4800F023F9C1B20D4802780078401C45
:102320000B4B18700B48815440F22441074800F0D1
:102330005BF850B1054800880448001D0088002063
:102340000349087001200449087010BD00140140C1
:10235000210000200C0000201400002070B505466C
:102360000E46002404E0285D00F006F8601CC4B2AC
:10237000B442F8DB70BD000010B5044600BF8021F8
:10238000044800F024F80028F9D02146014800F064
:10239000EAF810BD0014014010B50022002340F6F9
:1023A0006A14A14200D100BF0A1201249440A3B2D2
:1023B000DC43048010BD21B1828942F40052828145
:1023C00004E082894DF6FF731A408281704702460D
:1023D0000020B1F5007F00D100BF13880B400BB186
:1023E000012000E00020704770B502460024002361
:1023F0000025002040F66A16B14200D100BFC1F3AB
:10240000421501F01F03012606FA03F3012D02D144
:102410009689334006E0022D02D1168A334001E04E
:10242000968A33400C12012606FA04F416883440CA
:1024300013B10CB1012000E0002070BDF0B50346DF
:10244000002400260025002040F66A17B94200D17A
:1024500000BF1846C1F3421401F01F06012707FA16
:1024600006F5012C01D10C3004E0022C01D1103012
:1024700000E014301AB107682F43076002E00768D4
:10248000AF430760F0BD00002DE9FF4705460E464B
:102490000024A14600BFA046B08900B100BF2C8A2D
:1024A00024F44054F08804432C82AC8941F20C603F
:1024B0008443B08831890843718908430443AC815F
:1024C000AC8A24F44074B0890443AC826846FFF7B8
:1024D0001BF92048854202D01F48854202D1DDF811
:1024E0000C9001E0DDF80890A88900F4004040B1AC
:1024F00009EBC90000EB091031684900B0FBF1F7A6
:1025000007E009EBC90000EB091031688900B0FB56
:10251000F1F76420B7FBF0F004012009642101FB0E
:102520001078A88900F4004040B1322000EBC800C8
:10253000B0FBF1F000F00700044308E0322000EBAC
:1025400008106421B0FBF1F000F00F0004432C816F
:10255000BDE8FF8700100140001401400146888853
:10256000C0F308007047C1F308028280704730381A
:102570000A2801D2012070470020704700BF704731
:102580003EB504465A480078012877D159A0FDF796
:1025900089FE5CA0FDF786FE5EA0FDF783FE61A0CC
:1025A000FDF780FE64A0FDF77DFE68A0FDF77AFED2
:1025B0006BA0FDF777FE6F4A00210846FEF76CFE20
:1025C0002020FF21002247F67C53CDE90021029014
:1025D00069A230212820FEF76AFC1020FF2100228A
:1025E00047F67C53CDE90021029066A253210520D5
:1025F000FEF75DFC1020FF21002247F67C53CDE959
:102600000021029063A26C210520FEF750FC1020EF
:10261000FF21002247F67C53CDE90021029061A200
:1026200085210520FEF743FC1020FF21002247F6FC
:102630007C53CDE9002102905EA29E210520FEF789
:1026400036FC1020FF21002247F67C53CDE9002103
:1026500002905DA2B7210520FEF729FC1020FF2182
:10266000002247F67C53CDE9002102905BA2D021E5
:102670000520FEF71CFC00201D490870332C1AD0E1
:1026800006DC232C2CD0312C07D0322C2ED10BE0A1
:10269000342C17D0352C29D11BE003205449088055
:1026A00001201349087021E00420514908800120CD
:1026B0000F4908701AE005204D49088001200C4997
:1026C000087013E006204A49088001200849087074
:1026D0000CE007204649088001200549087005E004
:1026E0000120434908800249087000BF00BF3EBD79
:1026F000400000200D0AB9DCC0EDD4B1BDE7C3E64F
:102700003A0D0A00A1BE31A1BFC3DCC2EBB9DCC0E7
:10271000ED0D0A00A1BE32A1BFD6B8CEC6B9DCC04D
:10272000ED0D0A00A1BE33A1BFC9E4C6B5BFA8B96B
:10273000DCC0ED0D0A000000A1BE34A1BFC9F9D272
:10274000F4C1C1B6C8B5F7BDDA0D0A00A1BE35A106
:10275000BFBBD6B8B4B3F6B3A7C9E8D6C30D0A0059
:10276000A1BE23A1BFCDCBB3F6B9DCC0EDBDE7C39D
:10277000E60D0A0008920008B9DCC0EDD4B1BDE74F
:10278000C3E60000A1BE31A1BFC3DCC2EBB9DCC00F
:10279000ED000000A1BE32A1BFD6B8CEC6B9DCC0E4
:1027A000ED000000A1BE33A1BFC9E4C6B5BFA8B902
:1027B000DCC0ED00A1BE34A1BFC9F9D2F4C1C1B6DD
:1027C000C8B5F7BDDA000000A1BE35A1BFBBD6B8C1
:1027D000B4B3F6B3A7C9E8D6C3000000A1BE23A1D5
:1027E000BFCDCBB3F6B9DCC0EDD4B1BDE7C3E600D5
:1027F0000200002000B500F013FE00BD2DE9F041FD
:1028000004460E4600F02AFF2746E11704EB11614B
:102810000912A02202EB4101C8B200F0E5FE00F06F
:1028200043FE0546012D04D100F042FF0120BDE822
:10283000F081E0B200F0D8FE00F036FE0546012D32
:1028400003D100F035FF0220F1E700F007FF274633
:10285000E11704EB11610912A12202EB4101C8B298
:1028600000F0C2FE00F020FE0546012D03D100F06D
:102870001FFF0120DBE700F04BFE3070012000F06D
:1028800083FE00F015FF0020D1E72DE9F04104465A
:102890000F4600F0E3FE2646E11704EB1161091232
:1028A000A02202EB4101C8B200F09EFE00F0FCFD48
:1028B0000546012D04D100F0FBFE0120BDE8F081AA
:1028C0002646E11704EB11610912A4EB0121C8B2FD
:1028D00000F08AFE00F0E8FD0546012D03D100F06E
:1028E000E7FE0220EAE7384600F07EFE00F0DCFD5D
:1028F0000546012D03D100F0DBFE0320DEE700F0EA
:10290000D7FE052002F0D6FD0020D7E71CB5012137
:102910000220FEF7C9FE01208DF804008DF80600A4
:10292000C020009000208DF807008DF80500694652
:102930000548FEF7CDF940210348FEF73FFA802114
:102940000148FEF73BFA1CBD0004024010B500240C
:102950001248006820F040001049086008460068EE
:1029600040F0800008600846006820F040000860E1
:10297000052002F0DBFD0948006840F040000749EF
:102980000860052002F0D2FD0448001F006800F036
:10299000800000B900E00124204610BD140402406C
:1029A00070B51A48006820F04000184908600846D1
:1029B000006840F08000086000251DE013480068B2
:1029C00020F0400011490860052002F0AFFD0F48DB
:1029D000006840F040000D490860052002F0A6FDA7
:1029E0006006040E0948001F006800F0800008B16E
:1029F00044F00104681CC5B2082DDFDB0348006801
:102A000020F0400001490860204670BD14040240D7
:102A100010B504461548006820F0400013490860CE
:102A2000032002F083FD34B91048006820F08000D4
:102A30000E49086007E0012C05D10C48006840F001
:102A400080000A490860022002F070FD0748006813
:102A500040F0400005490860052002F067FD03488A
:102A6000006820F040000149086010BD14040240D5
:102A700070B50446002528E01848006820F04000A2
:102A800016490860032002F051FD04F0800030B1C7
:102A90001248006840F080001049086005E00F48C7
:102AA000006820F080000D490860022002F03EFD21
:102AB0000A48006840F0400008490860052002F01C
:102AC00035FD6006040E681CC5B2082DD4DB034832
:102AD000006820F040000149086070BD1404024005
:102AE00010B51348006820F0400011490860052027
:102AF00002F01CFD0E48006840F080000C490860A0
:102B00000846006840F040000860052002F00EFD15
:102B10000748006820F0800005490860052002F0A1
:102B200005FD0348006820F040000149086010BD21
:102B30001404024010B50E48006820F040000C4913
:102B400008600846006820F08000086008460068B9
:102B500040F040000860052002F0E8FC04480068EE
:102B600040F0800002490860052002F0DFFC10BD43
:102B70001404024010B5054801F0D8FC4FF49670DB
:102B800002F098FC002001F0D1FC10BD18FCFFFF02
:102B900010B502F083FB02F0DBFBFFF7EBFF10BD8B
:102BA00010B54FF47A7001F0C1FC4FF4967002F04A
:102BB00081FC002001F0BAFC10BD00003EB50446C7
:102BC0003248007800284FD031A0FDF76BFB35A0CC
:102BD000FDF768FB36A0FDF765FB384A0021084683
:102BE000FEF75AFB2020FF21002247F67C53CDE957
:102BF0000021029032A230211820FEF758F910204F
:102C0000FF21002247F67C53CDE90021029030A23B
:102C100055213820FEF74BF9284801214FF478431D
:102C20002EA2CDE900107E216020FEF765FA10206B
:102C3000FF21002247F67C53CDE90021029028A213
:102C4000DC210020FEF733F91020FF21002247F697
:102C50007C53CDE90021029023A2DC21B420FEF7B1
:102C600026F90020094908702A2C06D105202049A0
:102C7000088001200549087007E0232C05D10520B4
:102C80001B4908800120014908703EBD5B000020FF
:102C90000D0AC9BEB3FDCBF9D3D0BFA8C6AC3F3A2D
:102CA0000D0A0000A1BE2AA1BFC8B7C8CF0D0A00F7
:102CB000A1BE23A1BFC8A1CFFB0D0A000892000846
:102CC000C9BEB3FDCBF9D3D0BFA8C6AC000000008D
:102CD000C8B7C8CFC9BEB3FD000000003F00000068
:102CE000C8B7C8CF282A2900C8A1CFFB28232900AC
:102CF000020000203EB5044627480078002841D055
:102D000026A0FDF7CFFA2BA0FDF7CCFA2CA0FDF7FB
:102D1000C9FA2E4A00210846FEF7BEFA2020FF21FC
:102D2000002247F67C53CDE90021029028A23021F1
:102D30001920FEF7BCF8254801214CF2186328A29F
:102D4000CDE9001078213220FEF7D6F91F48012185
:102D50004CF2186323A2CDE9001078218220FEF7FF
:102D6000CBF91020FF21002247F67C53CDE900214A
:102D700002901DA2DC21A020FEF799F80020064950
:102D8000087007E0232C05D105201A49088001208E
:102D9000014908703EBD00005C0000200D0ACAB663
:102DA000B1F0C9BEB3FDBFA8C6ACBDE7C3E60D0A0E
:102DB00000000000CAB6B1F0BFA8C6AC0D0A000002
:102DC000A1BE23A1BFC8A1CFFB0D0A000892000835
:102DD000CAB6B1F0C9BEB3FDBFA8C6AC00000000C2
:102DE0005000000051000000A1BE23A1BFB7B5BB39
:102DF000D8000000020000203EB5044632480078AA
:102E000000284FD031A0FDF74DFA35A0FDF74AFA62
:102E100036A0FDF747FA384A00210846FEF73CFA8B
:102E20002020FF21002247F67C53CDE900210290AB
:102E300032A230211820FEF73AF82020FF2100228C
:102E400047F67C53CDE90021029030A2552138206D
:102E5000FEF72DF8284801214FF478432EA2CDE942
:102E600000107E216020FEF747F91020FF2100228C
:102E700047F67C53CDE90021029028A2DC210020F6
:102E8000FEF715F81020FF21002247F67C53CDE90C
:102E90000021029023A2DC21B420FEF708F80020D4
:102EA000094908702A2C06D10420204908800120F5
:102EB0000549087007E0232C05D104201B49088030
:102EC0000120014908703EBD560000200D0AC9BE10
:102ED000B3FDCBF9D3D0D6B8CEC6A3BF3A0D0A0006
:102EE000A1BE2AA1BFC8B7C8CF0D0A0023A1BFC881
:102EF000A1CFFB0D0A00000008920008C9BEB3FD77
:102F0000CBF9D3D0D6B8CEC600000000C8B7C8CF22
:102F1000C9BEB3FD000000003F000000C8B7C8CF25
:102F2000282A2900C8A1CFFB28232900020000205D
:102F30003EB504462D480078012845D12CA0FDF768
:102F4000B1F931A0FDF7AEF932A0FDF7ABF934A02D
:102F5000FDF7A8F9354A00210846FEF79DF9202023
:102F6000FF21002247F67C53CDE90021029030A2D8
:102F700030211920FDF79BFF2C4801214CF21863EA
:102F80002FA2CDE900108C216020FEF7B5F81020AB
:102F9000FF21002247F67C53CDE90021029029A2AF
:102FA000DC21A020FDF783FF1020FF21002247F63F
:102FB0007C53CDE90021029025A2DC210020FDF701
:102FC00076FF0020094908702A2C06D104202349E5
:102FD000088001200549087007E0232C05D1042052
:102FE0001E4908800120014908703EBD570000209D
:102FF0000D0ACAB6B1F0C9BEB3FDD6B8CEC6BDE79C
:10300000C3E60D0A00000000CAB6B1F0D6B8CEC6BD
:103010000D0A0000A1BE2AA1BFC8B7C8CF0D0A0083
:10302000A1BE23A1BFC8A1CFFB0D0A0008920008D2
:10303000CAB6B1F0C9BEB3FDD6B8CEC60000000016
:103040005A000000A1BE23A1BFB7B5BBD800000045
:10305000C8B7C8CFA1BE2AA1BF000000020000204F
:103060003EB504462948007800283AD028A0FDF74C
:1030700019F92DA0FDF716F92FA0FDF713F934A0CB
:10308000FDF710F9374A00210846FEF705F9202020
:10309000FF21002247F67C53CDE90021029032A2A5
:1030A00030211820FDF703FF1020FF21002247F6F2
:1030B0007C53CDE9002102902FA2DC210020FDF7F6
:1030C000F6FE1020FF21002247F67C53CDE90021B7
:1030D00002902CA2DC219620FDF7E9FE00200B498E
:1030E0000870232C02D02A2C0DD106E00420284998
:1030F000088001200549087005E001202449088066
:103100000249087000BF00BF3EBD0000550000200E
:103110000D0AC9BEB3FDD6B8B6A8D6B8CEC6BDE7AF
:10312000C3E63A0D0A000000C7EBD1A1D4F1D6B82E
:10313000CEC649440D0A0000A1BE23A1BFBBD8B52D
:10314000BDC9CFD2BBBCB6B2CBB5A50D0A0000003D
:10315000A1BE2AA1BFBBD8B5BDD6F7BDE7C3E60D5A
:103160000A00000008920008C9BEB3FDD6B8B6A890
:10317000D6B8CEC600000000A1BE2AA1BFD6F7BDBA
:10318000E7C3E600C9CFD2BBBCB6A1BE23A1BF0036
:10319000020000203EB504462948007800283AD0B5
:1031A00028A0FDF77FF82DA0FDF77CF82FA0FDF7F4
:1031B00079F834A0FDF776F8374A00210846FEF783
:1031C0006BF82020FF21002247F67C53CDE9002137
:1031D000029032A230211820FDF769FE1020FF2155
:1031E000002247F67C53CDE9002102902FA2DC217A
:1031F0000020FDF75CFE1020FF21002247F67C53E3
:10320000CDE9002102902CA2DC219620FDF74FFE93
:1032100000200B490870232C02D02A2C0DD106E087
:1032200005202849088001200549087005E0012093
:10323000244908800249087000BF00BF3EBD00005D
:103240005A0000200D0AC9BEB3FDD6B8B6A8BFA863
:10325000C6ACBDE7C3E63A0D0A000000C7EBD1A13A
:10326000D4F1BFA8C6AC0D0A00000000A1BE23A186
:10327000BFBBD8B5BDC9CFD2BBBCB6B2CBB5A50D0F
:103280000A000000A1BE2AA1BFBBD8B5BDD6F7BDBC
:10329000E7C3E60D0A00000008920008C9BEB3FDAE
:1032A000D6B8B6A8BFA8C6AC00000000A1BE2AA12F
:1032B000BFD6F7BDE7C3E600C9CFD2BBBCB6A1BE3F
:1032C00023A1BF00020000203EB50446324800782A
:1032D00000284FD031A0FCF7E5FF36A0FCF7E2FF55
:1032E00037A0FCF7DFFF394A00210846FDF7D4FF7D
:1032F0002020FF21002247F67C53CDE900210290D7
:1033000033A230211820FDF7D2FD1020FF2100222A
:1033100047F67C53CDE90021029031A25521382097
:10332000FDF7C5FD294801214FF478432FA2CDE9CF
:1033300000107E216020FDF7DFFE1020FF2100221B
:1033400047F67C53CDE90021029029A2D22100202A
:10335000FDF7ADFD1020FF21002247F67C53CDE99B
:103360000021029024A2D221B420FDF7A0FD00206C
:10337000094908702A2C05D10120214908800649F5
:10338000087007E0232C05D102201D490880012088
:10339000014908703EBD00005E0000200D0ABBD64A
:1033A000B8B4B3F6B3A7C9E8D6C3BDE7C3E63A0DD0
:1033B0000A000000A1BE2AA1BFC8B7C8CF0D0A00ED
:1033C000A1BE23A1BFC8A1CFFB0D0A00089200082F
:1033D000BBD6B8B4B3F6B3A7C9E8D6C300000000A3
:1033E000C8B7C8CFBBD6B8B4A3BF00004800000020
:1033F000C8B7C8CF282A2900C8A1CFFB2823290095
:103400000200002000BF054A128802F04002002A94
:10341000F9D0C2B2014B9A80704700000010014001
:103420001E48006840F001001C490860084600681A
:1034300040F0040008601A48006820F44030184941
:1034400008600846006840F480300860154800684D
:1034500020F44020134908600846006840F48020AA
:1034600008600F48406820F480700D4948600D489E
:10347000001D006840F400700A49091D08600848F2
:10348000406940F48070064948610648143000687D
:1034900040F400700349143108607047303802402E
:1034A000000002400008024010B51748406920F4AF
:1034B0008070154948611548006840F40070134950
:1034C00008601148406920F480700F494861052068
:1034D00002F02CF80C48406940F480700A494861B9
:1034E000052002F023F80948001F006800F400706E
:1034F00008B1012400E000240348406920F48070F2
:1035000001494861204610BD0000024014080240F5
:1035100070B51B48406920F480701949486119480A
:10352000006840F400701749086000251DE0144849
:10353000406920F4807012494861052001F0F6FFCF
:103540000F48406940F480700D494861052001F042
:10355000EDFF6006040E0B48001F006800F40070C9
:1035600008B144F00104681CC5B2082DDFDB044833
:10357000406920F4807002494861204670BD000017
:10358000000002401408024010B504461448406987
:1035900020F4807012494861032001F0C7FF34B164
:1035A0001048006840F400700E49086005E00D48BE
:1035B000006820F400700B490860022001F0B6FF9B
:1035C0000748406940F4807005494861052001F0D2
:1035D000ADFF0348406920F480700149486110BD87
:1035E000000002401408024070B50446002528E09F
:1035F0001848406920F4807016494861032001F0A2
:1036000095FF04F0800030B11348006840F400706A
:103610001149086005E01048006820F400700E4968
:103620000860022001F082FF0A48406940F480707F
:1036300008494861052001F079FF6006040E681C06
:10364000C5B2082DD4DB0348406920F480700149DD
:10365000486170BD000002401408024010B51248D5
:10366000406920F48070104948611048006840F4B7
:1036700000700E4908600C48406940F480700A49A7
:103680004861052001F052FF0848006820F40070EE
:1036900006490860052001F049FF0348406920F40D
:1036A00080700149486110BD0000024014080240CA
:1036B00010B50F48406920F480700D4948610D48ED
:1036C000006820F400700B4908600948406940F424
:1036D000807007494861052001F028FF054800680F
:1036E00040F4007003490860052001F01FFF10BD81
:1036F00000000240140802404AF6AA20014908606E
:1037000070470000003000400E48006840F00100A3
:103710000C49086000BF0B48006800F00200002858
:10372000F9D045F25550084908600520486040F638
:10373000C41088604AF6AA2008604CF6CC400860A5
:103740007047000074380240003000401CB5012171
:103750000846FDF7A9FF01210420FDF7A5FF002081
:10376000009001908DF804000120009000208DF859
:10377000070069460548FDF7ABFA4FF4005000908A
:1037800069460348FDF7A4FA1CBD00000000024092
:103790000008024010B5002401212048FDF703FB7A
:1037A00078B11F48007860B1142001F083FE012138
:1037B0001A48FDF7F8FAD0B1012400201849087022
:1037C00015E04FF400511748FDF7EDFA78B91448A9
:1037D000007860B1142001F06DFE4FF400511148E3
:1037E000FDF7E1FA18B9022400200D490870012103
:1037F0000A48FDF7D8FA78B94FF400510948FDF7A7
:10380000D2FA08B9012000E0002028B9142001F004
:1038100051FE012002490870204610BD0000024000
:1038200015000020000802401CB501210220FDF710
:103830003BFF00200090019001208DF80400002043
:103840008DF806004FF44070009000208DF80700BE
:103850008DF8050069460448FDF73AFA4FF44071C7
:103860000148FDF7ABFA1CBD000402404FF4A06014
:10387000FDF70AFFFFF7D8FFFFF768FF4FF4E130CD
:1038800001F0D0FE02F0F2F8FEF7B4FF01F0B8FD4F
:10389000FDF738FD01F070FFFDF738F9FFF734FF51
:1038A000FFF776F901F0AEFB00F008FA012001F015
:1038B00077FE02F0E1F96AE0FFF71EFFFDF72CF852
:1038C0003349087033480088292828D007DC0828A5
:1038D0005CD2DFE800F05B10151A1F3851562A3809
:1038E0000D2853D2DFE800F020252A5252525252BE
:1038F0005234393E43002648007800F04DF845E048
:1039000023480078FEF73CFE40E02148007800F0B4
:10391000B7FF3BE01E48007800F0F8F936E01C489D
:103920000078FDF727F931E019480078FFF798FB98
:103930002CE017480078FFF75FFA27E0144800787A
:10394000FFF7F6FA22E01248007801F0ADF91DE029
:103950000F48007801F0ECF818E00D480078FFF708
:1039600019FC13E00A480078FFF728F90EE0084830
:103970000078FFF7BFF909E00548007801F028FF5B
:1039800004E003480078FFF79FFC00BF00BF93E707
:1039900001000020020000207CB50446204600F013
:1039A000E3FD0546012D02D102201249088012488C
:1039B00080884EF6602188421BDB00200E498880FB
:1039C0000E49FEF723F80E490020FDF7C5FF0B480E
:1039D000437802780BA10E48FCF770FC0D480121DA
:1039E0004CF218630A4ACDE900103A210020FDF795
:1039F00083FB7CBD020000202C010020040000207D
:103A000008000020253032643A253032640000007E
:103A100049010020089200087CB504462146512047
:103A200000F0FAFC6A4601A9512000F0AFFA054601
:103A3000002D4ED19DF80000B5282DD00BDCB2280A
:103A40001ED003DCA0B1B1283ED115E0B3281BD0B5
:103A5000B42839D11CE0B8282AD004DCB6281FD0FD
:103A6000B72831D120E0C02826D0C2282CD127E0A9
:103A70001CA0FCF717FC2BE022A0FCF713FC27E0AE
:103A800027A0FCF70FFC23E02BA0FCF70BFC1FE0AA
:103A900037A0FCF707FC1BE043A0FCF703FC17E092
:103AA0004EA0FCF7FFFB13E05AA0FCF7FBFB0FE076
:103AB00065A0FCF7F7FB0BE069A0FCF7F3FB07E060
:103AC0006BA0FCF7EFFB03E070A0FCF7EBFB00BF83
:103AD00004E076A0FCF7E6FBFF207CBD9DF800002B
:103AE000FBE70000D7A5C8A1D6B8CEC6CDBCCFF1A4
:103AF000BCB0CCD8D5F7C1BFCCE1C8A1B3C9B9A679
:103B00000D0A0000D6B8CEC6B9FDD0A128736D61EC
:103B10006C6C2066696E676572290D0A00000000F2
:103B2000CEDED6B8CEC620286E6F2066696E676579
:103B300072290D0A00000000D6B8CEC6CEBBD6C38F
:103B4000B9FDD3DABFBFD7F3A3ACD0E8D2AABDABDF
:103B5000CAD6D6B8BFBFD3D2B1DFDEF4B0B4286CBA
:103B60006566742066696E676572290D0A0000003B
:103B7000D6B8CEC6CEBBD6C3B9FDD3DABFBFD3D27B
:103B8000A3ACD0E8D2AABDABCAD6D6B8BFBFD7F3D4
:103B9000B1DFDEF4B0B42872696768742066696EBC
:103BA000676572290D0A0000D6B8CEC6CEBBD6C353
:103BB000B9FDD3DABFBFC9CFA3ACD0E8D2AABDABA1
:103BC000CAD6D6B8BFBFCFC2B1DFDEF4B0B4287555
:103BD000702066696E676572290D0A00D6B8CEC678
:103BE000CEBBD6C3B9FDD3DABFBFCFC2A3ACD0E83A
:103BF000D2AABDABCAD6D6B8BFBFC9CFB1DFDEF43B
:103C0000B0B428646F776E2066696E676572290D9F
:103C10000A000000CAAACAD6D6B820A3A8D6B8CE31
:103C2000C6B1EDC3E6B3F6BAB9BBF2D5DFCBAED7BA
:103C3000D5B9FDB6E0A3A920287765742066696E22
:103C4000676572290D0A0000B8C9D4EFCAD6D6B884
:103C5000286472792066696E676572290D0A000012
:103C6000CCD8D5F7CCE1C8A1B4EDCEF30D0A000055
:103C7000CCD8D5F7CCE1C8A1B4EDCEF32028CDBC8B
:103C8000CFF1D6CAC1BFB2EE290D0A00D7A5C8A18F
:103C9000D6B8CEC6CDBCCFF1BCB0CCD8D5F7C1BF5D
:103CA000CCE1C8A1B4EDCEF30D0A0000CDA8D0C57B
:103CB000CAA7B0DCA3A10D0A000000001CB54FF498
:103CC000E13000F0C9FB01210420FDF7EDFC0020EC
:103CD000009001908DF804000120009069460A4888
:103CE000FCF7F6FF01208DF80400022000906946E1
:103CF0000548FCF7EDFF02210348FDF75DF80221BE
:103D00000148FDF759F81CBD000802403EB50446C5
:103D10005A480078002877D059A0FCF7C3FA5DA074
:103D2000FCF7C0FA5FA0FCF7BDFA64A0FCF7BAFA92
:103D300067A0FCF7B7FA6BA0FCF7B4FA6FA0FCF72A
:103D4000B1FA734A00210846FDF7A6FA2020FF21A8
:103D5000002247F67C53CDE9002102906DA230216C
:103D60001A20FDF7A4F81020FF21002247F67C530B
:103D7000CDE9002102906BA253210520FDF797F8B1
:103D80001020FF21002247F67C53CDE9002102904C
:103D900068A26C210520FDF78AF81020FF2100227F
:103DA00047F67C53CDE90021029067A285210520CA
:103DB000FDF77DF81020FF21002247F67C53CDE966
:103DC0000021029065A29E210520FDF770F81020C9
:103DD000FF21002247F67C53CDE90021029064A226
:103DE000DC210520FDF763F81020FF21002247F6B3
:103DF0007C53CDE90021029060A2DC219120FDF7E7
:103E000056F800201D490870322C13D006DC232CF4
:103E100025D02A2C2AD0312C2ED104E0332C10D0DE
:103E2000342C29D114E02920574908800120134956
:103E3000087021E02A205449088001200F490870A9
:103E40001AE02B205049088001200C49087013E02B
:103E50002C204D4908800120084908700CE0022000
:103E60004949088001200549087005E001204649BC
:103E700008800249087000BF00BF3EBD530000200B
:103E80000D0AD6B8CEC6B9DCC0EDBDE7C3E63A0D23
:103E90000A000000A1BE31A1BFD7A2B2E1D6B8CEC0
:103EA000C60D0A00A1BE32A1BFC9BEB3FDD6B8B6C9
:103EB000A84944D6B8CEC60D0A000000A1BE33A161
:103EC000BFC9BEB3FDCBF9D3D0D6B8CEC60D0A005C
:103ED000A1BE34A1BFCAB6B1F0C9BEB3FDD6B8CE3B
:103EE000C60D0A00A1BE23A1BFBBD8B5BDC9CFD2A4
:103EF000BBBCB6B2CBB5A50D0A000000A1BE2AA17D
:103F0000BFBBD8B5BDD6F7BDE7C3E60D0A000000BC
:103F100008920008D6B8CEC6B9DCC0EDBDE7C3E64E
:103F200000000000A1BE31A1BFD7A2B2E1D6B8CE39
:103F3000C6000000A1BE32A1BFC9BEB3FDD6B8B64F
:103F4000A84944D6B8CEC600A1BE33A1BFC9BEB3EE
:103F5000FDCBF9D3D0D6B8CEC6000000A1BE34A1A7
:103F6000BFCAB6B1F0C9BEB3FDD6B8CEC600000018
:103F7000D6F7BDE7C3E6A1BE2AA1BF00A1BE23A11B
:103F8000BFC9CFD2BBBCB6000200002030B503468B
:103F900000BF1B4800780028FBD00020184D287077
:103FA000184800786C2801D0012030BD15484078B1
:103FB000622801D00220F8E712488078632801D0F7
:103FC0000320F2E70F48C078984201D00420ECE7C4
:103FD0000C48007910700B484079087003F1C50057
:103FE000157828440D782844064DAD792844C4B28C
:103FF0000448C079A04201D00620D6E70020D4E7CB
:10400000140000200C0000207FB505469D48007874
:1040100040B99DA0FCF746F901209A490870A3A079
:10402000FCF740F90121A648FCF7BDFE00283BD073
:1040300094480078012837D10221A148FCF7BEFE40
:104040001E2001F037FA00209E49C8809E480121B9
:104050004FF6E0739DA2CDE9001078216020FDF7B6
:104060004BF800BF0020FFF7D7FC04469548C088F6
:1040700041F2883188420CDB95A0FCF713F900204F
:104080008049087002218E48FCF796FEFC2004B09F
:1040900070BD002CE6D1FF207A49087095A0FCF78E
:1040A00001F9162001F024FB01218548FCF77BFE75
:1040B000012814D073480078FF2810D182480121CC
:1040C0004CF2186381A2CDE9001078216020FDF741
:1040D00013F802206B4908708FA0FCF7E3F8012168
:1040E0007748FCF760FE002833D066480078022845
:1040F0002FD100207349C880734801214FF6E07327
:1041000072A2CDE9001078216020FCF7F5FF00BF16
:104110000120FFF781FC04466A48C08841F28831DB
:1041200088420BDB6AA0FCF7BDF8002055490870F7
:1041300002216348FCF740FEFC20A8E7002CE7D1F1
:10414000FE20504908706BA0FCF7ACF8162001F077
:10415000CFFA01215A48FCF726FE012814D049481D
:104160000078FE2810D1584801214CF2186357A25C
:10417000CDE9001078216020FCF7BEFF0320414903
:1041800008706AA0FCF78EF801214D48FCF70BFE81
:10419000002833D03B48007803282FD1002049491C
:1041A000C880494801214FF6E07348A2CDE90010CC
:1041B00078216020FCF7A0FF00BF0220FFF72CFC55
:1041C00004464048C08841F2883188420BDB40A059
:1041D000FCF768F800202B49087002213848FCF7EA
:1041E000EBFDFC2053E7002CE7D1042025490870A3
:1041F000162001F07DFA52A0FCF754F8214800780F
:1042000004283CD100201F49087029467F2000F077
:1042100003F902AA03A97F20FFF7B8FE40B14FA01F
:10422000FCF740F802212648FCF7C6FDFF202EE7E8
:104230009DF80800912811D003DC38B1832819D1EA
:1042400008E093280ED0942814D10FE052A0FCF778
:1042500029F80FE053A0FCF725F80BE05EA0FCF76F
:1042600021F807E063A0FCF71DF803E065A0FCF768
:1042700019F800BF00BF02211148FCF79DFD9DF811
:10428000080004E7AC000020C7EBBDABCAD6D6B827
:10429000B7C5B5BDD6B8CEC6C4A3BFE9BFAACABC10
:1042A000D7A2B2E1D6B8CEC60D0A0000B5DAD2BBAD
:1042B000B4CED6B8CEC6B2C9BCAF0D0A000000005D
:1042C000000802402C010020089200085A0000005B
:1042D000B4ABB8D0C6F7D2ECB3A3A3ACB2C9BCAFF1
:1042E000CAA7B0DCA3ACC7EBD6D8D0C2D7A2B2E184
:1042F0000D0A0000C7EBCCA7C6F0CAD6D6B8A3AC4F
:10430000D4D9B4CEB2C9BCAFCFC2D2BBB4CED6B86A
:10431000CEC60D0A00000000B5DAB6FEB4CED6B89F
:10432000CEC6B2C9BCAF0D0A00000000B5DAC8FDA8
:10433000B4CED6B8CEC6B2C9BCAF0D0A00000000DC
:10434000B2C9BCAFD6B8CEC6B3C9B9A6A3ACD5FD69
:10435000D4DAD7A2B2E10D0A00000000CDA8D0C582
:10436000CAA7B0DCB5BCD6C2D7A2B2E1CAA7B0DC3E
:10437000A3A1C8E7D0E8D6D8D0C2D7A2B2E1A3ACF7
:10438000C7EBD4D9B4CEBDF8C8EBD7A2B2E1B9A679
:10439000C4DCA3A10D0A0000D7A2B2E1B3C9B9A63B
:1043A0000D0A0000494420B4EDCEF3284944203CD6
:1043B000203020BBF2D5DF204944203E20D7EEB488
:1043C000F3D3C3BBA7CAFD29BBF2D5DFCDA8D0C5A7
:1043D000B4EDCEF30D0A0000D7A2B2E1CAA7B0DC5B
:1043E00028D3C3BBA7C7F8D3F2D2D1C2FA290D0A8A
:1043F00000000000D2D1BEADD7A2B2E1B5C42049C1
:10440000440D0A00D6B8CEC6CCE1C8A1B4CECAFDD0
:10441000203C20330D0A00007CB504460D460BA15C
:1044200003C9CDE900018DF803408DF8045004F173
:10443000C5002844C6B28DF8066007216846FDF71E
:104440008DFF0020034908707CBD00006C63620092
:10445000000000001400002010B588B004460121BF
:104460000420FDF721F9082206212E48FCF778FCEC
:10447000082207212B48FCF773FC002006900790C8
:1044800002208DF81C0000208DF81E008DF81F0002
:1044900002208DF81D004020069006A92148FCF757
:1044A00017FC8020069006A91E48FCF711FC01218C
:1044B0002020FDF719F90020029003900490059048
:1044C0000294ADF81000ADF80E00ADF80C000C2011
:1044D000ADF812000020ADF8140002A91248FDF753
:1044E000D3FF0020019047208DF8040001208DF8B3
:1044F00005008DF806008DF8070001A8FDF788F883
:10450000012240F225510848FDF798FF012240F2B0
:1045100024410548FDF792FF01210348FDF74BFFB9
:1045200008B010BD000802400014014030B900215D
:104530004FF0804291630B4A116011E0002806DDC4
:104540004FF0804188630021064A116008E000288E
:1045500006DA00214FF0804291634142014A116026
:104560007047000034040040FEB50446FF26B04802
:104570000078002834D0AF490A20FEF73FF9AE4A50
:1045800000210846FCF788FE2D20AC490870002564
:104590000FE04CF218630822A9480178A748007878
:1045A000FCF74BFCA54800781E30A4490870681C35
:1045B000C5B2062DEDDB00209D4908702D209F49D6
:1045C00008704EF660209F4988809B4801214CF27C
:1045D00018639DA2CDE9001078216020FCF78CFDC6
:1045E00094480078FF2875D098480078012812D1A7
:1045F00010204FF4784100220B46CDE900210290B3
:1046000093A282214620FCF752FC0D2001F070F8A5
:1046100000208E4908702A2C68D0232CFCD0FF2C57
:10462000FAD08F480078062861DA8E488C490978DC
:1046300044548B480078401C894908704CF2186338
:1046400008227F4801787D480078FCF71DFF7B48F1
:1046500000781E307949087081480078062845D1D5
:10466000754801214FF6FF721023CDE90021029019
:10467000A622C0212520FCF779FF2D206F49087064
:1046800000250FE04CF2186308226D4801786B4852
:104690000078FCF7D2FB694800781E306749087043
:1046A000681CC5B2062DEDDB634801214FF6FF7291
:1046B0001023CDE900210290642282214620FCF7DC
:1046C00055FF10204FF4784100220B46CDE9002120
:1046D000029000E054E064A282214620FCF7E7FB50
:1046E0000E2001F005F82D20544908709EE05C482A
:1046F00000780628FADB5A480078801F5F490C547E
:1047000057480078401C564908704CF2186308223C
:104710004B48017849480078FCF7B6FE47480078D6
:104720001E30464908704E4800780C287ED1534907
:104730004C48FBF731FFB0B90223504A07210B2048
:10474000FCF781F8FF210A20FEF79FF80120384985
:10475000087000204249087001203C49087011206F
:1047600000F0C6FF62E001203849087000203C4993
:10477000087001202E490870102000F0B9FF55E0A4
:1047800032480078012805D10C2000F0B1FF00204C
:104790002E4908702A2C49D0232C47D0FF2C45D015
:1047A0002F480078062841DA2E482D4909784454CC
:1047B0002B480078401C2A4908704CF218630822E4
:1047C0001F4801781D480078FCF75EFE1B48007802
:1047D0001E301A49087022480078062826D1274A38
:1047E00007210B20FBF7DCFF24491E48FBF7D4FE12
:1047F00078B9182000F07CFFFEF7D2F901200C49AF
:104800000870002016490870012010490870012620
:104810000CE0012006490870002011490870192099
:1048200000F066FF01200949087000263046FEBDF1
:104830002900002028000020089200082A000020FB
:104840002B0000202C0100205A0000002C0000202A
:10485000C7EBC9E8D6C3D0C2C3DCC2EB000000007E
:104860003B0000202D000020C7EBD4D9B4CECAE411
:10487000C8EBD0C2C3DCC2EB000000003400002053
:104880003EB504468148007800287CD0002080494D
:10489000087080A0FBF706FD83A0FBF703FD88A04E
:1048A000FBF700FD8B4A00210846FCF7F5FC2020B1
:1048B000FF21002247F67C53CDE90021029086A219
:1048C00030210920FCF7F3FA1020FF21002247F6DF
:1048D0007C53CDE90021029083A25A213C20FCF7B1
:1048E000E6FA2D208449087000250EE04CF218638A
:1048F0000622782180480078FCF79FFA7E480078ED
:104900001E307D490870681CC5B2062DEEDB1020F4
:10491000FF21002247F67C53CDE90021029077A2C7
:104920008C213C20FCF7C3FA2D2073490870002528
:104930000EE04CF218630622AA216F480078FCF7BB
:104940007CFA6D4800781E306B490870681CC5B24F
:10495000062DEEDB2D20684908701020FF21002273
:1049600047F67C53CDE90021029068A2DC210520A6
:10497000FCF79DFA1020FF21002247F67C53CDE979
:104980000021029000E007E063A2DC219120FCF707
:104990008EFA00203D4908702A2C63D0232C61D068
:1049A000FF2C5FD03A48007806281FDA5D48384966
:1049B0000978445436480078401C354908704CF258
:1049C0001863082278214C480078FCF75DFD4A48BE
:1049D00000781E30484908702D480078062841D1DB
:1049E0002D2008700E2000F083FE3BE02848007860
:1049F000062837DB26480078801F4B490C54244892
:104A00000078401C224908704CF218630822AA2141
:104A100039480078FCF738FD374800781E303649B1
:104A200008701B4800780C281CD13F493D48FBF713
:104A3000B3FD70B902233B4A07210B20FBF703FFAC
:104A40000020134908700120384908800F49087078
:104A500008E0102000F04CFE00200D4908700120F5
:104A60000A490870232C02D02A2C0DD106E002201E
:104A70002E49088001200549087005E001202B49D6
:104A800008800249087000BF00BF3EBD4100002001
:104A9000440000200D0AD0DEB8C4B9DCC0EDD4B1AA
:104AA000C3DCC2EB0D0A0000A1BE23A1BFB7B5BB9A
:104AB000D8C9CFD2BBBCB6B2CBB5A50D0A00000099
:104AC000A1BE2AA1BFB7B5BBD8D6F7BDE7C3E60DD7
:104AD0000A00000008920008D0DEB8C4B9DCC0EDBE
:104AE000D4B1C3DCC2EB0000B5DAD2BBB4CECAE4A9
:104AF000C8EBC3DCC2EB000042000020B5DAB6FE12
:104B0000B4CECAE4C8EBC3DCC2EB0000D6F7BDE705
:104B1000C3E6A1BE2AA1BF00A1BE23A1BFC9CFD2B7
:104B2000BBBCB600450000204C0000200200002065
:104B30003EB504463248007800284DD031A0FBF73E
:104B4000B1FB36A0FBF7AEFB3AA0FBF7ABFB3E4A4E
:104B500000210846FCF7A0FB2020FF21002247F699
:104B60007C53CDE90021029038A230211820FCF7B7
:104B70009EF9354801214CF2186338A2CDE90010A6
:104B800078213220FCF7B8FA2F4801214CF2186343
:104B900033A2CDE9001078218220FCF7ADFA102075
:104BA000FF21002247F67C53CDE9002102902DA27F
:104BB000DC210020FCF77BF91020FF21002247F6C2
:104BC0007C53CDE90021029029A2DC219620FCF73C
:104BD0006EF900200A490870232C02D02A2C0DD12E
:104BE00006E005202549088001200549087005E0F8
:104BF0000120224908800249087000BF00BF3EBD65
:104C0000590000200D0AD7A2B2E1D3C3BBA7BFA8A9
:104C1000C6ACBDE7C3E6A3BA0D0A0000A1BE23A13E
:104C2000BFBBD8B5BDC9CFD2BBBCB6B2CBB5A50D45
:104C30000A000000A1BE2AA1BFBBD8B5BDD6F7BDF2
:104C4000E7C3E60D0A00000008920008D7A2B2E10F
:104C5000D3C3BBA7BFA8C6AC000000005000000033
:104C600051000000A1BE2AA1BFD6F7BDE7C3E600F0
:104C7000C9CFD2BBBCB6A1BE23A1BF000200002099
:104C800010B510210748FCF797F8052000F09EFEAC
:104C9000FF2000F09BFE044610210248FCF78EF82E
:104CA000204610BD000002403EB504465A48007838
:104CB000002877D059A0FBF7F5FA5DA0FBF7F2FAD0
:104CC0005FA0FBF7EFFA64A0FBF7ECFA67A0FBF735
:104CD000E9FA6BA0FBF7E6FA6FA0FBF7E3FA734A79
:104CE00000210846FCF7D8FA2020FF21002247F6D1
:104CF0007C53CDE9002102906DA230211A20FCF7EF
:104D0000D6F81020FF21002247F67C53CDE9002180
:104D100002906AA253210520FCF7C9F81020FF2158
:104D2000002247F67C53CDE90021029067A26C2156
:104D30000520FCF7BCF81020FF21002247F67C5329
:104D4000CDE90021029066A285210520FCF7AFF88D
:104D50001020FF21002247F67C53CDE9002102906C
:104D600064A29E210520FCF7A2F81020FF2100225A
:104D700047F67C53CDE90021029063A2DC21052097
:104D8000FCF795F81020FF21002247F67C53CDE96F
:104D9000002102905FA2DC219120FCF788F800201E
:104DA0001D490870322C13D006DC232C25D02A2C68
:104DB0002AD0312C2ED104E0332C10D0342C29D120
:104DC00014E033205649088001201349087021E07F
:104DD00034205349088001200F4908701AE035201B
:104DE0004F49088001200C49087013E036204C49D7
:104DF00008800120084908700CE00220484908801A
:104E000001200549087005E0012045490880024954
:104E1000087000BF00BF3EBD580000200D0ABFA8AB
:104E2000C6ACB9DCC0EDBDE7C3E6A3BA0D0A00000D
:104E3000A1BE31A1BFD7A2B2E1BFA8C6AC0D0A0086
:104E4000A1BE32A1BFC9BEB3FDD6B8B6A84944BF02
:104E5000A8C6AC0D0A000000A1BE33A1BFC9BEB3F5
:104E6000FDCBF9D3D0BFA8C6AC0D0A00A1BE34A1BA
:104E7000BFCAB6B1F0C9BEB3FDBFA8C6AC0D0A002B
:104E8000A1BE23A1BFBBD8B5BDC9CFD2BBBCB6B2F2
:104E9000CBB5A50D0A000000A1BE2AA1BFBBD8B5A5
:104EA000BDD6F7BDE7C3E60D0A0000000892000872
:104EB000C9E4C6B5BFA8B9DCC0ED0000A1BE31A1F0
:104EC000BFD7A2B2E1BFA8C6AC000000A1BE32A10C
:104ED000BFC9BEB3FDD6B8B6A8BFA8C6AC00000017
:104EE000A1BE33A1BFC9BEB3FDCBF9D3D0BFA8C605
:104EF000AC000000A1BE34A1BFCAB6B1F0C9BEB3B8
:104F0000FDBFA8C6AC000000D6F7BDE7C3E6A1BE52
:104F10002AA1BF00A1BE23A1BFC9CFD2BBBCB6008E
:104F20000200002038B533484078303831490978DC
:104F3000303901EB810100EB41002F4908712D4808
:104F4000007930382B49C978303901EB810100EB09
:104F50004100294948712748C07930382549897965
:104F6000303901EB810100EB41002349887123486E
:104F70000079302803DB21480079392802DD302010
:104F80001E4908711D48807A30381C49497A3039E9
:104F900001EB810100EB4100174908701748407987
:104FA000303816490979303901EB810100EB4100B5
:104FB00011498870002405E01048005D0DF80400D8
:104FC000601CC4B2032CF7DB00208DF80300002422
:104FD00009E00B4800EB84016846FBF7DDFA00B9F5
:104FE00003E0601CC4B20C2CF3DB00BF601C024960
:104FF000487038BD6700002060000020700000206D
:105000007C00002000B585B001210807FCF75CFB9F
:105010000120FCF743FB0120FCF70AFC00BF6120E4
:10502000FCF7E6FB0028FAD04FF40070FCF70CFC0C
:105030000120FCF703FC0020FCF74AFEFCF75AFCB9
:1050400000BF4020FCF7AEFC0028FAD00020029000
:105050000390049002907F200390F920049002A80E
:10506000FCF7FCFCFFF75EFF00F04CF80D48006811
:10507000FF280FD00C48016800918188ADF804101A
:1050800080798DF80600DDE9000100F00FF8FF20BF
:1050900004490860FCF756FC0120FCF719FE05B036
:1050A00000BD0000502800406000002003B583B020
:1050B000002002909DF810008DF808009DF8110066
:1050C0008DF809009DF812008DF80A0002A9002051
:1050D000FCF75AFD002001909DF80F008DF80400A8
:1050E0009DF80C008DF807009DF80D008DF8050067
:1050F0009DF80E008DF8060001A90020FCF7E0FCE9
:1051000005B000BD3FB532A53CCD8DE83C00002187
:105110004FF4FD6015E000F003022AB96422B0FBF1
:10512000F2F302FB130232B94FF4C872B0FBF2F390
:1051300002FB130212B901F5B77101E001F26D1122
:10514000401C274A127802F5FA628242E3D8244BC7
:105150001B7803F5FA62D31702EB93739B10A2EB53
:1051600083034BB91E4B1B7803F5FA63642493FB4E
:10517000F4F504FB153353B9194B1B7803F5FA63A7
:105180004FF4C87493FBF4F504FB15332BB99DF869
:105190000220521CD2B28DF80220002003E01DF83C
:1051A00000201144401C0E4A52788242F7D80C4A23
:1051B000927811440722B1FBF2F302FB1312084B61
:1051C000DA701A46D2780AB90722DA703FBD0000B9
:1051D000001F1C1F1E1F1E1F1F1E1F1E1F00000062
:1051E0006000002010B54FF480610648FBF7E4FD35
:1051F000642000F05FF94FF480610248FBF7DEFDA8
:1052000010BD00000004024010B504464FF4805168
:105210000848FBF7D1FD4FF480410648FBF7CCFD71
:105220002046FCF77DF94FF480510248FBF7C6FD9C
:1052300010BD00000004024010B504464FF4805138
:105240000848FBF7B9FD4FF480410648FBF7B6FD6F
:105250002046FCF765F94FF480510248FBF7AEFD9C
:1052600010BD00000004024010B504464FF4805108
:105270000948FBF7A1FD4FF480410748FBF79EFD6D
:105280002012FCF74DF9E0B2FCF74AF94FF48051D7
:105290000148FBF793FD10BD0004024000B58BB040
:1052A00001210220FCF700FA002009900A90022058
:1052B0008DF8280000208DF82A0008200990002091
:1052C0008DF82B008DF8290009A92048FBF700FD77
:1052D000012203211D48FBF743FD01210846FCF78D
:1052E000F3F900214FF08040FCF732FE00200690D9
:1052F0000790089006A8FCF769FF5320ADF8180046
:1053000040F2E73007900020ADF81A0006A94FF0F0
:105310008040FCF719FF142101A8FBF715F9602064
:10532000ADF804000020ADF810000120ADF8060033
:105330000020039001A94FF08040FCF777FE012187
:105340008807FCF705FE0BB000BD0000000402401A
:1053500000B58BB001210220FCF7A6F900200990CE
:105360000A9002208DF8280000208DF82A001020D5
:10537000099000208DF82B008DF8290009A91E48FE
:10538000FBF7A6FC022204211B48FBF7E9FC0121E4
:105390000220FCF799F900211848FCF7D9FD0020FC
:1053A00006900790089006A8FCF710FF5320ADF870
:1053B000180040F2E73007900020ADF81A0006A967
:1053C0000E48FCF7C1FE142101A8FBF7BDF86020D0
:1053D000ADF804000020ADF810000120ADF8060083
:1053E0000020039001A90548FCF7E2FD01210348D4
:1053F000FCF7AEFD0BB000BD00040240000400400D
:1054000000B58BB001210220FCF74EF90020099075
:105410000A9002208DF8280000208DF82A004FF411
:105420000070099000208DF82B008DF8290009A943
:105430001E48FBF74DFC022209211C48FBF790FC9B
:1054400001210420FCF740F900211948FCF780FDF8
:10545000002006900790089006A8FCF7B7FE53209E
:10546000ADF8180040F2E73007900020ADF81A00C0
:1054700006A90F48FCF768FE142101A8FBF764F8A1
:105480006020ADF804000020ADF810000120ADF858
:1054900006000020039001A90548FCF719FE012130
:1054A0000348FCF755FD0BB000BD000000040240AE
:1054B000000800403EB5044601210820FCF704F92D
:1054C00000211948FCF744FD002000900190029053
:1054D0006846FCF77BFE42F2CF00ADF8000004EB1B
:1054E00084000121C1EB400001900020ADF80200D2
:1054F00069460D48FCF728FE01210B48FCF722FD08
:1055000001210948FCF724FD00BF01210648FCF7F2
:105510002BFD0028F9D001210348FCF713FD0021E1
:105520000148FCF715FD3EBD000C00403EB50446A9
:1055300001210820FCF7C8F800211848FCF708FDF5
:1055400000200090019002906846FCF73FFE292061
:10555000ADF800000120C0EB440001900020ADF840
:10556000020069460D48FCF7EFFD01210B48FCF7EE
:10557000E9FC01210948FCF7EBFC00BF01210748C9
:10558000FCF7F2FC0028F9D001210448FCF7DAFC12
:1055900000210248FCF7DCFC3EBD0000000C00408E
:1055A0001FB5044601210804FCF79EF800211C48A1
:1055B000FCF7CEFC002001900290039001A8FCF7BC
:1055C00005FE42F2CF00ADF8040004EB8400012197
:1055D000C1EB400002900020ADF8060001A9104880
:1055E000FCF7B2FD01210E48FCF7AFFC0020009053
:1055F00018208DF8000000208DF801008DF80200C1
:1056000001208DF803006846FCF702F801221146DC
:105610000348FCF7C3FC01210148FCF799FC1FBDBE
:105620000040014010B588B0044601210846FCF74F
:105630003BF8072209212C48FBF792FB07220A219D
:105640002948FBF78DFB00200690079002208DF87B
:105650001C0000208DF81E008DF81F0002208DF820
:105660001D004FF4C060069006A91F48FBF730FBF1
:1056700001211020FCF738F80020029003900490DC
:1056800005900294ADF81000ADF80E00ADF80C00D6
:105690000C20ADF812000020ADF8140002A9134848
:1056A000FCF7F2FE0020019025208DF80400012077
:1056B0008DF805008DF806008DF8070001A8FBF7AE
:1056C000A7FF012240F225510848FCF7B7FE01224E
:1056D00040F224410548FCF7B1FE01210348FCF7E4
:1056E0006AFE08B010BD000000000240001001403A
:1056F00070B5044600BF10210B48FBF754FB00288F
:10570000F9D100F013F800250BE004F0800010B18F
:1057100000F01EF801E000F045F96006040E681C78
:10572000C5B2082DF1DB70BD0008024010B5202184
:105730000648FBF743FB0820FFF7BCFE2021034887
:10574000FBF73AFB0120FFF7B5FE10BD0008024051
:1057500010B520210748FBF731FB40F2DC50FFF782
:10576000E5FE20210348FBF727FB4FF4FA70FFF713
:10577000DDFE10BD000802401CB500200090019025
:1057800001210420FBF790FF01208DF80400002088
:105790008DF806002020009000208DF807008DF87D
:1057A000050069460948FBF793FA00208DF80400CC
:1057B0001020009069460548FBF78AFA202103482B
:1057C000FBF7FAFA6420FFF775FE1CBD00080240E3
:1057D0003EB504463D48007800285CD03CA0FAF76E
:1057E00061FD41A0FAF75EFD43A0FAF75BFD46A01C
:1057F000FAF758FD48A0FAF755FD4CA0FAF752FD0C
:105800004FA0FAF74FFD54A0FAF74CFD574A00217C
:105810000846FBF741FD2020FF21002247F67C537C
:10582000CDE90021029052A230211820FBF73FFB66
:105830004E4801214CF2186351A2CDE900105021CD
:105840000520FBF759FC494801214CF218634DA291
:10585000CDE900108C210520FBF74EFC1020FF2124
:10586000002247F67C53CDE90021029046A2DC21BC
:105870000020FBF71CFB1020FF21002247F67C5381
:10588000CDE90021029043A2DC219620FBF70FFB1B
:1058900000200E490870232C06D1022040490880C0
:1058A00001200A49087010E02A2C05D101203C494A
:1058B00008800649087008E0312C06D0322C04D04C
:1058C000332C02D0342C00D000BF3EBD5D00002040
:1058D0000D0AC9F9D2F4C1C1B6C8B5F7BDDABDE742
:1058E000C3E63A0D0A000000A1BE31A1BFD2F4C147
:1058F000BFBCD30D0A000000A1BE32A1BFD2F4C1CB
:10590000BFBCF50D0A000000A1BE33A1BFBEB2D2DC
:10591000F4C4A3CABD0D0A00A1BE34A1BFC6C1C450
:10592000BBC1C1B6C8BCD30D0A000000A1BE35A1E1
:10593000BFC6C1C4BBC1C1B6C8BCF50D0A000000DA
:10594000A1BE23A1BFBBD8B5BDC9CFD2BBBCB6B227
:10595000CBB5A50D0A000000A1BE2AA1BFBBD8B5DA
:10596000BDD6F7BDE7C3E60D0A00000008920008A7
:10597000C9F9D2F4C1C1B6C8B5F7BDDA000000005C
:10598000530000004C000000A1BE2AA1BFD6F7BD05
:10599000E7C3E600C9CFD2BBBCB6A1BE23A1BF00FE
:1059A0000200002010B520210748FBF707FA4FF44A
:1059B000FA70FFF7BBFD20210348FBF7FDF940F229
:1059C000DC50FFF7B3FD10BD0008024070B504467F
:1059D000002500BF02210B48FCF794F90028F9D0FC
:1059E00021460848FCF79AF900BF01210548FCF759
:1059F00089F90028F9D00348FCF78DF9C5B228468B
:105A000070BD00000030014010B5044600F008F9F8
:105A100010210E48FBF7D0F9D820FFF7D7FFC4F3C9
:105A20000740FFF7D3FFC4F30720FFF7CFFFE0B233
:105A3000FFF7CCFF10210548FBF7C0F900BFFFF7C7
:105A40001FF900F001000028F9D110BD000002404C
:105A500070B505460C4606E02846FFF7D5FF05F56C
:105A60008035601EC4B2002CF6D170BD1CB500F0AC
:105A700081F801210846FBF717FE01208DF804008C
:105A800000208DF806001020009000208DF80700FF
:105A900002208DF8050069460448FBF719F910212A
:105AA0000248FBF78BF900F0CBF81CBD0000024068
:105AB00070B504460D461646210A6019401EB1EB2A
:105AC000102F01D0002070BD00F0AAF8102114485A
:105AD000FBF772F90220FFF779FFC4F30740FFF7E5
