:020000040800F2
:10000000600C0020550200085D0200085F02000835
:100010006102000863020008650200080000000099
:10002000000000000000000000000000670200085F
:1000300069020008000000006B0200086D02000861
:100040006F0200086F0200086F020008992D000877
:100050006F0200086F0200086F0200086F020008BC
:100060006F0200086F0200086F0200086F020008AC
:100070006F0200086F0200086F0200086F0200089C
:100080006F0200086F0200086F0200080000000005
:100090000000000000000000000000006F020008E7
:1000A000913100086F0200086F0200086F0200081B
:1000B0006F0200086F0200086F0200086F0200085C
:1000C0006F0200086F0200086F0200086F0200084C
:1000D0006F02000879350008913600080000000022
:1000E0006F020008C52900086F0200080000000028
:1000F0000000000000000000000000006F02000887
:10010000000000006F0200086F0200086F02000884
:1001100000000000000000000000000000000000DF
:100120006F0200086F0200086F0200086F020008EB
:100130006F02000800000000000000000000000046
:100140000000000000000000000000006F02000836
:100150006F0200086F0200086F02000805370008F0
:100160006F0200086F02000800000000000000009D
:10017000000000000000000000000000000000007F
:10018000000000006F0200080000000000000000F6
:100190006F02000800F002F800F04DF80AA090E8A5
:1001A000000C82448344AAF10107DA4501D100F032
:1001B00042F8AFF2090EBAE80F0013F0010F18BFB2
:1001C000FB1A43F0010318476C7B02008C7B020092
:1001D000103A24BF78C878C1FAD8520724BF30C873
:1001E00030C144BF04680C60704700000023002445
:1001F00000250026103A28BF78C1FBD8520728BF37
:1002000030C148BF0B607047642900F09F8075299A
:1002100000F09C80002070471FB508F095F900F0B1
:10022000B3FB04000020002108F078F9401C606056
:100230001FBD10B510BD00F082FB1146FFF7ECFFAB
:1002400005F016F900F0B2FB03B4FFF7F2FF03BCB0
:1002500003F023FC0948804709480047FEE7FEE712
:10026000FEE7FEE7FEE7FEE7FEE7FEE7FEE7FEE766
:1002700004480549054A064B70470000293100082B
:100280009501000860060020600C00206008002036
:10029000600800207047B2F120030AD5C2F12003A4
:1002A00001FA02F120FA03F300FA02F041EA030135
:1002B000704700FA03F14FF0000070470FB4044993
:1002C00010B503AA029800F06FFA10BC5DF814FB99
:1002D0005C0000200FB41CB5074B06AA7B4469469E
:1002E0000090059800F047FA0020694600F056FAA1
:1002F0001CBC5DF814FB0000BD04000070B5044692
:1003000085690068C10601D5302600E02026C007B7
:1003100007D070BDD4E9012130469047206A401CC7
:1003200020626D1EF6D570BD70B5044685690078F3
:10033000C00707D170BDD4E9012120209047206A71
:10034000401C20626D1EF6D570BD00002DE9F04105
:100350000646002410687529314616A510D0AFF363
:100360000080002802DA404213A507E031688A07BE
:1003700001D512A502E0490704D511A5012401E029
:10038000AFF3008000210A2206F1240709E0B0FB48
:10039000F2FCB0FBF2F302FB1C003030785418463C
:1003A000491C0028F3D123462A463046BDE8F041D7
:1003B00000F082B9000000002D0000002B000000BA
:1003C000200000002DE9F05F894604464FF0000A46
:1003D000DFF824B1FB44C0F820A02046E16888473C
:1003E00000287DD0252806D0D4E901219047206A35
:1003F000401C2062F1E700255F462046E1688847FF
:100400002028064607DB312E05D2B81910F8200C3B
:1004100008B10543F1E7A80701D525F00405C4F8A4
:100420001CA00027C4F818A02A2E09D0304603F0DB
:100430002DFB38B304EB8708303EC8F8186019E08C
:1004400059F8041B204604EB87029161E168884754
:10045000012F064618D1E069002820DA25F0200592
:100460001DE0D8F8180000EB800006EB40003038A3
:10047000C8F818002046E1688847064603F006FBE6
:100480000028EED1012F0AD02E2E08D12046E16897
:1004900088477F1C0646022F45F02005C4DBA06973
:1004A000002803DA404245F00105A061E80701D0C9
:1004B00025F01005A6B1A6F14100192802D8203672
:1004C00045F400654A463146204625604D46FFF713
:1004D0009BFE60B1012807D0ED1D25F0070000E06C
:1004E00007E000F1080978E705F1040975E73046EF
:1004F0007AE7206ABDE8F09FEA78020070B5064608
:1005000000F0D6F80468054630460A22002100F0C3
:100510005DF92C6070BD401ECAB210F8011F8A42FE
:1005200002D00029F9D10020704730B505460B46AE
:100530002A4613F8014B12F8010B08B1A042F8D07B
:100540001CB1002802D06D1CF1E7284630BD421EC8
:1005500012F8013F002BFBD111F8013B002B02F8F0
:10056000013BF9D1704710B5203AC0F00B80B1E8DB
:100570001850203AA0E81850B1E81850A0E81850D8
:10058000BFF4F5AF5FEA027C24BFB1E81850A0E8E1
:10059000185044BF18C918C0BDE810405FEA827CFB
:1005A00024BF51F8043B40F8043B08BF7047D20712
:1005B00028BF31F8023B48BF11F8012B28BF20F8B3
:1005C000023B48BF00F8012B704702F0FF0343EAEB
:1005D000032242EA024200F033B94FF0000200B5B4
:1005E000134694469646203922BFA0E80C50A0E856
:1005F0000C50B1F12001BFF4F7AF090728BFA0E804
:100600000C5048BF0CC05DF804EB890028BF40F8CF
:10061000042B08BF704748BF20F8022B11F0804F11
:1006200018BF00F8012B70474FF0013C50F8042B25
:1006300051F8043B9A4221D1A2EB0C03934313EAF5
:10064000CC1317D150F8042B51F8043B9A4215D122
:10065000A2EB0C03934313EACC130BD150F8042BF9
:1006600051F8043B9A4209D1A2EB0C03934313EADD
:10067000CC13DBD04FF00000704700BFD01A01BA96
:10068000B1FA81F101F0180122FA01F0CB40C1F179
:100690002001DBB2C0B2C01A2CFA01F3D11A914387
:1006A00011EAC311E6D17047704770477047704731
:1006B00000487047000600202DE9F0470D46994696
:1006C0009246044600F124080168880604D5E069D2
:1006D00021F01001216000E00120A84201DD471B4C
:1006E00000E00027A1697A1902EB0900081AA0614D
:1006F0002078C00602D42046FFF700FE002608E05E
:10070000D4E901211AF806009047206A401C761CA3
:1007100020624E45F4DB2078C0060AD52046FFF75C
:10072000EDFD06E0D4E9012130209047206A401C0D
:100730002062381EA7F10107F4DC07E0D4E90121AB
:1007400018F805009047206A401C2062281EA5F179
:100750000105F3DC2046FFF7E7FD2078000602D50F
:100760000220BDE8F0870120FBE7000001694A1C78
:1007700002610878704700B58FB0CDE901310021E2
:10078000059105497944CDE9031011466846FFF704
:1007900019FE0FB000BD0000E5FFFFFF0A6802F878
:1007A000010B0A6070470000074B70B50D467B4493
:1007B000FFF7E1FF0446284600F0BDF810B14FF006
:1007C000FF3070BD204670BD574800002DE9F0474E
:1007D00091460F4680460446002614F8015B2DB171
:1007E00000F052F80068405DC007F6D12B2D02D012
:1007F0002D2D18D0641E4A463946204600F04CF88C
:1008000027B13968A14201D1C7F800804FF0020436
:1008100071050BD54042002803DDFFF749FF046056
:10082000A007BDE8F08746F48066E4E70028F8DA20
:10083000FFF73EFF04606FF00040F2E74FF0000268
:100840000429C0F0128010F0030C3FF4C8AECCF1C4
:10085000040CBCF1020F18BF00F8012BA8BF20F850
:10086000022BA1EB0C01FFF7BABE5FEAC17C24BFEB
:1008700000F8012B00F8012B48BF00F8012B70474E
:10088000004870470006002010B500F07DF8001DFC
:1008900010BD00BF897C00002DE9F05F824615463F
:1008A0008B4600270AF10104B9460078302801D0B0
:1008B0009DB113E014F8010B0127782803D05828C4
:1008C00001D045B10AE00DB1102D07D1002714F871
:1008D000010B102502E0082500E00A250026B0469D
:1008E0000EE005FB080005FB06F101271FFA80F862
:1008F00001EB1046B6F5803F00D3B94614F8010B62
:10090000294600F045F80028EBDABBF1000F05D0CE
:100910000FB1641E00E05446CBF80040B9F1000F5F
:1009200006D0FFF7C5FE02210160C81EBDE8F09F9A
:1009300048EA0640FAE7007B00F080007047754601
:10094000FFF79EFFAE4605006946534620F00700BC
:10095000854618B020B5FFF78BFCBDE820404FF06E
:1009600000064FF000074FF000084FF0000B21F099
:100970000701AC46ACE8C009ACE8C009ACE8C00966
:10098000ACE8C0098D46704700487047200600203B
:100990003A2800D2303820F02002412A01D3A2F1B7
:1009A0003700884201D34FF0FF30704710B504463E
:1009B000AFF300802046BDE81040FFF745BC2DE9AD
:1009C000F04104460D46164604F04AFCA046E117E5
:1009D00004EB11610912A02202EB4101C8B204F03C
:1009E00005FC04F063FB0746012F04D104F062FC10
:1009F0000120BDE8F081E0B204F0F8FB04F056FB02
:100A00000746012F03D104F055FC0220F1E704F062
:100A100027FCA046E11704EB11610912A12202EBA9
:100A20004101C8B204F0E2FB04F040FB0746012F8D
:100A300003D104F03FFC0120DBE70DE004F06AFB8A
:100A40003070681E85B21DB9012004F09FFB04E0E0
:100A5000002004F09BFB761CF0E700BF04F02AFCAA
:100A60000020C6E72DE9F04106460D4690461F4698
:100A700019E0F80096FBF0F100FB1160C0EBC70035
:100A8000C4B2AC4205DBE9B24246304600F010F891
:100A90000AE042462146304600F00AF8301986B294
:100AA000281B85B2A044E4E700BF0020BDE8F08128
:100AB0002DE9F04104460D46164604F0D1FBA04650
:100AC000E11704EB11610912A02202EB4101C8B247
:100AD00004F08CFB04F0EAFA0746012F04D104F07D
:100AE000E9FB0120BDE8F081E0B204F07FFB04F0F7
:100AF000DDFA0746012F03D104F0DCFB0220F1E709
:100B000010E0307804F072FB04F0D0FA0746012FB1
:100B100003D104F0CFFB0320E4E7681EC5B205B99A
:100B200001E0761CEDE700BF04F0C4FB052006F0F1
:100B300093FF0020D6E7000010B5FF240E4800699F
:100B400000F0020068B90D48007850B100F018F8C4
:100B50000446FF2C05D00020084908701D2007F02E
:100B60001BF90548006900F0020010B1012003499B
:100B70000870204610BD000000000240B5000020B3
:100B800010B503F05DFAA02003F022FA03F08EF90D
:100B900018B103F07FFA012010BD00BF3B48006888
:100BA00000F040000028F9D0082003F011FA03F00B
:100BB0007DF918B103F06EFA0220EDE700BF33486B
:100BC000006800F040000028F9D003F039FAA120B5
:100BD00003F0FEF903F06AF918B103F05BFA0320A1
:100BE000DAE700BF2948006800F040000028F9D08B
:100BF00003F086F90446002003F0BAF903F080F907
:100C000044EA0024012003F0B3F903F043FA402C36
:100C10002AD00EDC082C29D006DC012C1AD0022C9C
:100C20001ED0042C2ED127E0102C29D0202C29D125
:100C300020E0B4F5007F21D005DC802C0ED0B4F587
:100C4000807F1FD114E0B4F5806F05D0B4F5006F3C
:100C500018D107E031209FE732209DE733209BE742
:100C6000342099E7352097E7362095E7372093E73A
:100C7000382091E739208FE72A208DE730208BE755
:100C8000232089E700BFFF2086E700001004024010
:100C900070B50446002603F0D3F9A02003F098F9BC
:100CA00003F004F918B103F0F5F9012070BD00BF9D
:100CB0001D48006800F040000028F9D0B02003F083
:100CC00087F903F0F3F818B103F0E4F90220EDE737
:100CD00000BF1548006800F040000028F9D0012549
:100CE0001BE0162D03D1F0B203F072F905E0207875
:100CF00003F06EF920780644641C03F0D7F818B1AD
:100D000003F0C8F90320D1E700BF0748006800F0EE
:100D100040000028F9D0681CC5B2162DE1DD03F0B3
:100D2000B9F90020C2E700001004024000B58DB000
:100D3000182107A8FFF751FC18220BA101A8FFF703
:100D400012FC03F093F80E48006840F001000C49D3
:100D500008600C48006820F00C000A49086001A8EF
:100D6000FFF796FF0DB000BD000083F3983F3F3FB3
:100D70003F3F3F3F3F3F3F3F3F3F3F3F7F00000000
:100D800030380240000002402DE9F0410746884615
:100D900015460421052000F02DF80021012002F065
:100DA00059FE80210A2002F03DF9002405E0395D5A
:100DB000092002F04FFE601CC4B24445F7DB03215A
:100DC000012002F047FEFF2400BF052002F09AF840
:100DD0000646601EC4B21CB106F004000028F4D020
:100DE000222002F08FF82870212002F08BF8687022
:100DF000BDE8F08170B505460C460026284602F095
:100E000081F8064626EA0401284602F023FE70BD5A
:100E100010B540F6B83208A109A000F07FFA0446E8
:100E20001CB90BA0FFF74AFA02E00EA0FFF746FA42
:100E300003F050F9204610BD72656164790000002E
:100E400041542B524553544F52450D0A00000000A7
:100E5000BBD6B8B4B3F6B3A7C9E8D6C3B3C9B9A66D
:100E60000D0A0000BBD6B8B4B3F6B3A7C9E8D6C321
:100E7000CAA7B0DC0D0A00000149086070470000F5
:100E8000143C01403EB505465F48007800286ED00E
:100E90005EA0FFF713FA63A0FFF710FA67A0FFF751
:100EA0000DFA6B4A0021084600F0D4FD2020FF21F6
:100EB000002247F67C53CDE90021029065A2302143
:100EC000182000F0D2FB1020FF21002247F67C53AF
:100ED000CDE90021029063A2DC21002000F0C5FBD7
:100EE0001020FF21002247F67C53CDE9002102901B
:100EF0005FA2DC21962000F0B8FB554801214CF29E
:100F000018635EA2CDE900107821602000F0D2FCC9
:100F10005B4A09211520FFF752FD1E205949088020
:100F2000002420E05648005DFF281AD05448015D97
:100F300055A0FFF7C3F92020FF210022CDE90021B1
:100F400002904F48005D3030C2B247F67C535021CA
:100F50004C48008800F0CCFB4A48008814304949CE
:100F60000880601CC4B2092CDCDB002407E016E01A
:100F70004348005DFF2800D103E0601CC4B2092C87
:100F8000F6DB00BF601C42490870084600780A285A
:100F900002D140A0FFF792F900201B4908703C489D
:100FA00000780A281BDA3A48007804F0D5FE3F4959
:100FB00008600846006890B9354801780078401EFE
:100FC0002F4A1154022309211520FFF74BFD304809
:100FD000017837A0FFF772F901200B490870232D23
:100FE00002D02A2D0DD106E00420354908800120C9
:100FF0000549087005E00120314908800249087060
:1010000000BF00BF3EBD0000920000200D0AD7A225
:10101000B2E1D3C3BBA7D6B8CEC6BDE7C3E63A0D8F
:101020000A000000A1BE23A1BFBBD8B5BDC9CFD265
:10103000BBBCB6B2CBB5A50D0A000000A1BE2AA16B
:10104000BFBBD8B5BDD6F7BDE7C3E60D0A000000AB
:1010500080BA0008D7A2B2E1D3C3BBA7D6B8CEC628
:1010600000000000A1BE2AA1BFD6F7BDE7C3E6007D
:10107000C9CFD2BBBCB6A1BE23A1BF005A0000009D
:101080009801002098000020257520200000000015
:101090009A000020D7A2B2E1D6B8CEC6CAFDC1BF21
:1010A000D2D4B4EFC9CFCFDE0D0A000094000020E7
:1010B000D2D1D7A2B2E12564BAC549440D0A0000D5
:1010C000120000201CB50446FE20009002211E489C
:1010D00000F052FA1E2006F0BFFC2146732005F0F6
:1010E00049F86A4601A9732004F0F8FD40B117A041
:1010F000FFF7E4F80221144800F03CFAFF201CBD81
:101100009DF8000030B1832809D090280BD0FF282B
:1011100011D10CE0214614A0FFF7D0F80BE017A086
:10112000FFF7CCF807E018A0FFF7C8F803E01AA013
:10113000FFF7C4F800BF00BF0221034800F01AFA0D
:101140009DF80000DBE7000000080240CDA8D0C5F4
:10115000CAA7B0DC2CBDD3CAD5CAFDBEDDB0FCB475
:10116000EDCEF30D0A000000D6B8CEC62564C9BE88
:10117000B3FDB3C9B9A60D0A00000000B2CECAFD86
:10118000B4EDCEF30D0A0000CEB4D7A2B2E1B5C4DF
:10119000D3C3BBA70D0A0000D0B4C8EB524F4DB467
:1011A000EDCEF30D0A00000010B506F073FD0A2223
:1011B00021A122A000F0B2F802F08CFF0A221EA1A9
:1011C0001EA000F0ABF818B102F084FF00F040F967
:1011D00002F080FFFFF71CFE02F07CFF0A2216A13E
:1011E00018A000F09BF818B91AA0FFF767F802E002
:1011F0001FA0FFF763F802F06DFF0A220EA123A0E3
:1012000000F08CF818B925A0FFF758F802E028A0E4
:10121000FFF754F802F05EFF0A2207A129A000F0B0
:101220007DF818B92DA0FFF749F802E033A0FFF7C9
:1012300045F802F04FFF10BD4F4B000041540D0A1E
:101240000000000041542B43574D4F44453D310DA4
:101250000A000000BFCDBBA7B6CBC4A3CABDD6B899
:10126000C1EED6B4D0D0B3C9B9A60D0A00000000B3
:10127000BFCDBBA7B6CBC4A3CABDD6B8C1EED6B44A
:10128000D0D0CAA7B0DC0D0A0000000041542B43A7
:1012900049504D4F44453D310D0A0000CDB8B4AB27
:1012A000D6B8C1EED6B4D0D0B3C9B9A60D0A0000E5
:1012B000CDB8B4ABD6B8C1EED6B4D0D0CAA7B0DCE6
:1012C0000D0A000041542B43575245434F4E4E43A5
:1012D00046473D362C300D0A0000000057692D4668
:1012E0006920D6D8C1ACC5E4D6C3D6B8C1EED6B451
:1012F000D0D0B3C9B9A60D0A0000000057692D4629
:101300006920D6D8C1ACC5E4D6C3D6B8C1EED6B430
:10131000D0D0CAA7B0DC0D0A000000002DE9F041D2
:1013200006460F4615460024304606F019FD642097
:1013300006F092FB40F6B83822E00DE0641C012074
:1013400006F08AFBAC4207D102F0C4FE0DA0FEF706
:10135000B5FF0120BDE8F0810E4890F80204002896
:10136000ECD039460B48FFF7E0F808B10020F1E770
:10137000641C012006F070FB444501D10120E9E71F
:10138000DBE70000CFECD3A6CAFDBEDDB3ACCAB12B
:101390000D0A0000D601002030B58DB004460D4680
:1013A000342214496846FFF7DEF821466846FFF705
:1013B000CEF811A16846FFF7CAF829466846FFF73C
:1013C000C6F80EA16846FFF7C2F802F083FE41F2AC
:1013D00088320BA16846FFF7A1FF28B909A0FEF7E4
:1013E0006DFF00200DB030BD0FA0FEF767FF01209C
:1013F000F8E70000907C0208222C2200220D0A004F
:101400004F4B000057494649C1ACBDD3D6B8C1EED9
:10141000D6B4D0D0B3C9B9A62CBFAACABCC1ACBD82
:10142000D34D5154540D0A0057494649C1ACBDD360
:10143000D6B8C1EED6B4D0D0CAA7B0DC2CD4B6B3DF
:10144000CCBFAACBF8B9A6C4DCCAA7D0A70D0A00A6
:1014500010B505A006F084FC4FF4FA6006F0FCFA23
:1014600002A0FEF72BFF10BD2B2B2B00CDB8B4AB89
:10147000C4A3CABDD2D4CDCBB3F62CBDF8C8EBC93A
:10148000E8D6C3C4A3CABD0D0A000000F0B50A46E1
:1014900000210023002400BF3DE0012505FA01F3EF
:1014A000156805EA03049C4234D105684F00032601
:1014B000BE40B543056015794E00B540066835431A
:1014C00005601579012D02D01579022D16D1856898
:1014D0004F000326BE40B543856055794E00B540A8
:1014E000866835438560456801268E40B543456072
:1014F000456896798E40B6B235434560C5684F0061
:101500000326BE40B543C560D5794E00B540C668D8
:101510003543C560491C1029BFD3F0BDF0B5002389
:1015200000244D07ED0E02FA05F3CE1000F1200560
:1015300055F826504E07F70E0F26BE40B543CF1084
:1015400000F1200646F82750CE1000F1200555F88E
:10155000265045EA0304CE1000F1200545F8264048
:10156000F0BD0246002013690B400BB1012000E0E2
:101570000020704741837047018370471CB50121EB
:10158000022001F031F945F20240009001208DF86F
:10159000040000208DF806008DF807006946064813
:1015A000FFF774FF02210448FFF7E4FF4FF4805176
:1015B0000148FFF7E1FF1CBD0004024070B506467C
:1015C0000C4615462A2006F06FF8304606F09CF8C7
:1015D000304606F099F82B2006F066F8204606F013
:1015E00093F8204606F090F82C2006F05DF8284687
:1015F00006F08AF870BD2DE9F04707460C461546FF
:101600009946781B801E1FFA80F828E0601B801E18
:1016100086B21CE0A8EB07004043311B321B01FBE4
:10162000020105FB05F081420FDBA8EB07004043F8
:10163000311B321B01FB0201A81C4043814204DC28
:101640004A4631464046FFF7B9FF701C86B2601922
:10165000801CB042DEDA08F101001FFA80F8781928
:10166000801C4045D2DABDE8F0872DE9FE4F0646E2
:101670000F4615469A46DDE90C890E9C33E0287822
:1016800020281DDB28787F281ADC04EBD471491050
:10169000C1F1F001B14202DA0026381987B2CDE972
:1016A000008902942A7853463946304600F020F8E3
:1016B0006D1C204604EBD07106EB61018EB212E086
:1016C000C4F1F000B04202DA0026381987B253465E
:1016D0002A4639463046CDE90089029400F06AF87E
:1016E000AD1C301986B228780028C8D1BDE8FE8F1D
:1016F0002DE9F04F95B08046894692469B46209C46
:101700005046C7B2102C07D1610301EB071010AA95
:10171000102106F02DFE08E0202C06D1244901EB13
:1017200087106A46402106F023FE00253BE0102C7E
:1017300003D110A8405D14900AE0202C08D1680065
:10174000401C1DF800001DF8151040EA01201490FF
:10175000002621E004EBD4714910491E8A1B0121A7
:101760009140149A114049B109EB050291B208EB7E
:10177000060290B25A46FFF721FF0BE01E9801289F
:1017800008D109EB050291B208EB060290B21F9A4C
:10179000FFF714FF701CC6B204EBD471B6EB610FF7
:1017A000D8DB681CC5B2A542C1DB15B0BDE8F08F1F
:1017B000060802002DE9F04FA9B0804689469246FE
:1017C0009B46349D00BF9AF80100A1389AF800109A
:1017D000A139C1EB011202EB411100EB410087B2CC
:1017E000102D07D1314901EB471020AA202106F026
:1017F000BFFD08E0202D06D12D4901EBC7106A4638
:10180000802106F0B5FD00244AE0102D09D1012009
:1018100000EB440020A9085C11F8141040EA0120F4
:101820002890202D17D11DF824000006012101EB7E
:1018300084011DF8011040EA0140022101EB8401FE
:101840001DF8011040EA0120032101EB84011DF87D
:1018500001100843289000261EE0681E811B01200D
:1018600088402899084048B109EB040291B208EB7E
:10187000060290B25A46FFF7A1FE0BE0329801280B
:1018800008D109EB040291B208EB060290B2339A38
:10189000FFF794FE701CC6B2AE42DEDB601CC4B221
:1018A000AC42B2DB29B0BDE8F08F00000C2802008A
:1018B000522606002DE9FF4F83B081468A469346A3
:1018C000BDE0002508E09BF800006049495D8842C2
:1018D00000D105E0681C85B25C48405D0028F2D16B
:1018E00000BF5A48405D10B907B0BDE8F08F002432
:1018F0009CE004EB4400400005EBC50100EB411007
:101900005349085C0102002204EB4400400005EB4F
:10191000C50300EB4310401C4D4B185C12430143C0
:1019200004EB4400400005EBC50300EB4310801CB2
:10193000474B1B5C0020000640EA132042EA03628A
:10194000084304EB4401490005EBC50301EB4311D7
:10195000C91C3F4B5B5C0021090441EA13414FEA7B
:10196000034C034642EA0C0043EA010204EB440143
:10197000490005EBC50301EB4311091D344B5B5CCA
:101980000021090241EA13614FEA032C134640EAA1
:101990000C0243EA010004EB4401490005EBC503D6
:1019A00001EB4311491D2A4B595C42EA010780466D
:1019B000002637E0C6F12F0201210020CDE9010108
:1019C00008460199FEF767FC384001EA0801002348
:1019D00058405940084309D00AEB040291B209EB80
:1019E000060290B2069AFFF7E9FD19E01098012867
:1019F00016D109EB06000AEB0401C1EB011100EB63
:101A000001111198083000EB41030093009B1A88E4
:101A10000AEB040399B209EB060398B2FFF7CEFD77
:101A2000701C86B2302EC5DB601C84B2302CFFF6F1
:101A300060AF0BF1010B09F130001FFA80F99BF840
:101A4000000000287FF43DAF00BF4DE7528500083D
:101A5000658500082DE9F04707460E4614462546E1
:101A600004F108082A2005F01FFE384605F04CFE58
:101A700069883944491E88B205F046FE2B2005F0DE
:101A800013FE304605F040FEA9883144491E88B255
:101A900005F03AFE2C2005F007FE4FF0000907E0A4
:101AA000B8F8000005F030FE08F1020809F101095C
:101AB0006888A98848434845F2D8BDE8F08710B542
:101AC00000F0E6F8FFF75AFD05F0DCFD362005F0E2
:101AD000EBFD002005F000FE3A2005F0E5FD0520B5
:101AE00005F0FAFDB22005F0DFFD0C2005F0F4FD55
:101AF0000C2005F0F1FD002005F0EEFD332005F08F
:101B0000EBFD332005F0E8FDB72005F0CDFD3520D5
:101B100005F0E2FDBB2005F0C7FD192005F0DCFD56
:101B2000C02005F0C1FD2C2005F0D6FDC22005F037
:101B3000BBFD012005F0D0FDC32005F0B5FD12204E
:101B400005F0CAFDC42005F0AFFD202005F0C4FD5E
:101B5000C62005F0A9FD0F2005F0BEFDD02005F040
:101B6000A3FDA42005F0B8FDA12005F0B5FDE020FF
:101B700005F09AFDD02005F0AFFD042005F0ACFD86
:101B80000D2005F0A9FD112005F0A6FD132005F09C
:101B9000A3FD2B2005F0A0FD3F2005F09DFD542066
:101BA00005F09AFD4C2005F097FD182005F094FDF6
:101BB0000D2005F091FD0B2005F08EFD1F2005F096
:101BC0008BFD232005F088FDE12005F06DFDD02080
:101BD00005F082FD042005F07FFD0C2005F07CFD62
:101BE000112005F079FD132005F076FD2C2005F07D
:101BF00073FD3F2005F070FD442005F06DFD512080
:101C000005F06AFD2F2005F067FD1F2005F064FD3B
:101C10001F2005F061FD202005F05EFD232005F06A
:101C20005BFD212005F040FD112005F03DFD292040
:101C300005F03AFD01F004FB10BD2DE9F047074621
:101C40000D4614469946381B1FFA80F81BE0281BE6
:101C500086B211E0A8EB07004043711B721B01FB29
:101C6000020104FB04F0814204DC4A46314640464E
:101C7000FFF7A4FC701C86B22819B042EADA08F11A
:101C800001001FFA80F838194045E0DABDE8F08716
:101C90001CB50121022000F0A7FD4FF42040009068
:101CA00001208DF8040000208DF806008DF8070053
:101CB00002208DF8050069460448FFF7E7FB4FF462
:101CC00000510248FFF756FC1CBD00000004024012
:101CD00070B5044600251BE04FF400510E48FFF795
:101CE00049FC04F0800028B14FF400410A48FFF796
:101CF00043FC04E04FF400410748FFF73BFC4FF47E
:101D000000510548FFF738FC6006040E681CC5B298
:101D1000082DE1DB70BD0000000402402DE9F05FFA
:101D200006460D4614461F46DDF82C904FF0000A7B
:101D3000C5EB051006EB00110C98083000EB4108CC
:101D40002A2005F0B1FC304605F0DEFC3119491EB1
:101D500088B205F0D9FC2B2005F0A6FC284605F03A
:101D6000D3FCE919491E88B205F0CEFC2C2005F001
:101D70009BFCD3461DE0B9F1000F03D10A9805F092
:101D8000C3FC14E0B9F1010F11D1B8F8000005F05F
:101D9000BBFC08F102080AF101001FFA80FAA24513
:101DA00005D1C4F1F00008EB40084FF0000A0BF138
:101DB000010B04FB07F05845DDD8BDE8F09F10B5D6
:101DC00003211420FFF716F810BD10B5142001F000
:101DD00099F8044604F0030018B90321142001F017
:101DE00021F910BDF0B587B0054600270821084647
:101DF000FFF700F800210D2001F02CFE80210E20BD
:101E0000FEF7F8FF93208DF8040020208DF80500E0
:101E100006A801AB022201A900900C2000F07DF978
:101E20000646262E10D1002407E001A8005D2855A3
:101E300001A8005D4740601CC4B2042CF5DB01A87A
:101E4000005DB84200D0BB2680210E2001F0EAF8E8
:101E5000304607B0F0BD2DE9F04387B006460F4687
:101E600090469946002006908DF804608DF8057024
:101E7000002406E018F8041001AAA01C1154601CEC
:101E8000C4B2062CF6DB002407E019F8041001AAFE
:101E900004F108001154601CC4B2042CF5DB06A840
:101EA00001AB0C2201A900900E2000F036F9054686
:101EB000262D05D1082001F025F800F0080000B912
:101EC000BB25284607B0BDE8F08310B588B0502088
:101ED0008DF8080000208DF809000DF10A0202219A
:101EE00002A8FEF751FF07A802AB042202A9009046
:101EF0000C2000F012F90446262008B010BD0000A6
:101F00001CB501210D2000F06FFC4FF4A050009093
:101F100001208DF8040000208DF806008DF80700E0
:101F200069461248FFF7B2FA4FF400400090694644
:101F30000F48FFF7ABFA0420009069460D48FFF701
:101F4000A5FA00208DF804004FF400600090694667
:101F50000648FFF79BFA04210648FFF70DFB4FF4F4
:101F600000410348FFF708FB1CBD000000080240C9
:101F700000000240000C0240F0B587B005460E4656
:101F800030208DF804008DF805500DF10602022175
:101F900001A8FEF7F9FE06A801AB042201A90090F2
:101FA0000C2000F0BAF80746262F0CD1069890288E
:101FB00009D1002404E001A8005D3055601CC4B2C2
:101FC000102CF8DB00E0BB27384607B0F0BD70B539
:101FD00088B005460C4608210846FEF70BFF07218E
:101FE0000D2001F037FD0321142001F01BF88DF8BE
:101FF000085007A802AB012202A900900C2000F0B3
:102000008CF80646262E09D10798102806D19DF88F
:10201000080020709DF80900607000E0BB26304683
:1020200008B070BD10B504211E48FFF7A5FA0220C4
:1020300005F04EFD04211B48FFF79CFA022005F035
:1020400047FD04211748FFF797FA022005F040FDED
:102050000F21012001F0FEFC00BF012000F052FF23
:1020600000F010000028F8D1022005F031FD3D21DC
:10207000112001F0EFFC1E212D2001F0EBFC0021CE
:102080002C2001F0E7FC8D212A2001F0E3FC3E2109
:102090002B2001F0DFFC4021152001F0DBFC262085
:1020A00010BD0000000C024070B588B005469320BA
:1020B0008DF8080070208DF8090000208DF80E00C2
:1020C00000240BE0295D02AAA01C11549DF80E000B
:1020D000295D48408DF80E00601CC4B2042CF1DB71
:1020E0000DF10F02072102A8FEF74EFE0821084657
:1020F000FEF780FE07A802AB092202A900900C207F
:1021000000F00BF80646262E03D10798182800D1B8
:1021100000E0BB26304608B070BD2DE9FE4F0646F4
:10212000884691469A46DDF830B0BB2002900020E8
:10213000019000900C2E06D00E2E09D11220019095
:102140001020009005E0772001903020009000E002
:1021500000BF00BF019840F08001022001F07AFC2E
:1021600080210420FEF746FE0021012001F072FCD0
:1021700080210A2000F056FF002505E018F8051020
:10218000092001F067FC6D1C4D45F7D33146012055
:1021900001F060FC0C2E03D180210D2000F042FFE5
:1021A000042000F0AFFE044640F2DC5500BF0420DE
:1021B00000F0A8FE04466D1E35B104F0010018B908
:1021C000009820400028F2D080210D20FEF712FE5A
:1021D00095B3062000F096FE00F01B0068BB262099
:1021E00002900198204000F0010008B1CC2002903C
:1021F0000C2E24D10A2000F085FE04460C2000F0AD
:1022000081FE00F007072FB1601E07EBC000CBF87E
:10221000000002E0E000CBF8000004B90124122C19
:1022200000DD1224002505E0092000F06BFE0AF80D
:1022300005006D1CA542F7D301E0BB200290802170
:102240000C2000F0EFFE0021012001F003FC0298B9
:10225000BDE8FE8FF0B587B006460F46A0208DF88A
:1022600004008DF805600DF10602022101A8FEF7B9
:102270008BFD06A801AB042201A900900C20FFF7FA
:102280004CFF0546262D08D10698042805D19DF857
:10229000040000F00F000A2800D0BB25262D22D113
:1022A000002404E0385D01A90855601CC4B2102C5C
:1022B000F8DB05AA102101A8FEF766FD06A801AB10
:1022C000122201A900900C20FFF727FF0546262DBA
:1022D00008D10698042805D19DF8040000F00F00ED
:1022E0000A2800D0BB25284607B0F0BD38B5044603
:1022F0000020009069465220FFF769FE262807D08B
:10230000FFF790FEFFF75BFDFFF75FFD012038BD93
:102310002046FFF767FD262801D00220F7E7262098
:10232000F5E700001FB50446FE2002904F480078F4
:1023300098B9162005F030FD4DA0FDF7BFFF5548B8
:1023400001214CF2186354A2CDE9001078216020DD
:10235000FFF7B0FA01204549087001214F48FFF707
:1023600000F900283DD041480078012839D10221E8
:102370004A48FFF701F91E2005F06EFB002048498E
:10238000C860444801214FF6E07343A2CDE9001034
:1023900078216020FFF78EFA00BF002003F0C6F915
:1023A00002903F48C06841F2883188420CD33DA07A
:1023B000FDF784FF00202D49087002213748FFF700
:1023C000D9F8FC2004B010BD9DF808000028E4D125
:1023D000FF20264908703CA0FDF770FF162005F08D
:1023E000DBFC01212D48FFF7BCF800283CD11F4839
:1023F0000078FF2838D1274801214CF2186326A223
:10240000CDE9001078216020FFF754FA00217120F7
:1024100003F0B0FE02AA03A9712003F05FFC40B1F3
:102420002FA0FDF74BFF02211C48FFF7A3F8FF2068
:10243000C8E79DF8080028B99DF80C102FA0FDF7FB
:102440003DFF03E032A0FDF739FF00BF00BF9DF85C
:102450000C00207001200549087002210F48FFF789
:1024600089F89DF80800ADE7FE20ABE703010020E6
:10247000C7EBBDABCAD6D6B8B7C5B5BDD6B8CEC604
:10248000C4A3BFE9BFAACABCCAB6B1F0D6B8CEC60B
:102490000D0A000080BA00085A000000000802403F
:1024A00070010020B4ABB8D0C6F7D2ECB3A3A3AC94
:1024B000B2C9BCAFCAA7B0DCA3ACC7EBD6D8D0C2F8
:1024C000D7A2B2E10D0A0000D6B8CEC6B2C9BCAFE1
:1024D000B3C9B9A62CC7EBB7C5CAD6D6B80D0A0082
:1024E000CDA8D0C5CAA7B0DC2CBDD3CAD5CAFDBE05
:1024F000DDB0FCB4EDCEF30D0A000000D6B8CEC6B8
:10250000B6D4B1C8B3C9B9A63A25640D0A00000013
:10251000B8C3D6B8CEC6B2BBB4E6D4DA0D0A000052
:1025200070B5002100230F22C4781CB3174C246817
:1025300004F4E064C4F5E064C4F30721C1F10404C9
:10254000E3B20A4144789C40E1B2847814402143CC
:102550000C07210E0E4C05786155047804F01F0518
:102560000124AC4005786D11AD0005F1E025C5F8FA
:10257000004109E0047804F01F050124AC40054D3A
:102580000678761145F8264070BD00000CED00E09D
:1025900000E400E080E100E002490143024A1160EA
:1025A000704700000000FA050CED00E001490862E8
:1025B0007047000000000E422DE9F05F82468B4616
:1025C0004EA15046FDF7B1FF002831D04FA0FDF7D6
:1025D00075FE53A15046FDF7A8FF064646B33A21C3
:1025E0003046FDF798FF064616B3761C3046FDF7D9
:1025F00085FF8146B9F1000F07D14FF480714C4837
:10260000FEF7BAFF01F07CFD12E0B9F1010F0FD126
:102610004FF480714648FEF7ADFF182005F0BCFB73
:1026200001F084FD002043490861012042490870FF
:1026300042A15046FDF779FF0746002F33D03A21DB
:102640003846FDF768FF0746002F29D07F1C384623
:10265000FDF754FF05461DB1032D01D0042D08D10F
:1026600039A0FDF72BFE01203A4908703A4908705D
:1026700016E0012D01D0022D12D136480078012834
:1026800008D136A0FDF71AFE0020324908703B49F8
:10269000087005E03AA0FDF711FE00202E490870F1
:1026A00000203B4908703BA15046FDF73EFF044621
:1026B0000CB33A212046FDF72EFF0446DCB1641C22
:1026C000641C641C2046FDF719FF8046B8F1060F14
:1026D0000ED0B8F1050F0BD0B8F1040F08D030A020
:1026E000FDF7ECFD00201B4908702449087002E04A
:1026F00030A0FDF7E3FDBDE8F09F00006174747247
:102700006962757465732F7075736800CAD5B5BD3D
:10271000D4B6B3CCBFAACBF8D6B8C1EE0D0A000030
:10272000226C6F636B5F737461747573223A00007F
:102730000004024070010020480000202B43575342
:10274000544154453A00000077696669B6CFBFAA84
:102750000D0A0000490000204B00002077696669DF
:10276000C1ACBDD3BBD6B8B42CBFAAC6F4D4B6B3E3
:10277000CCBFAACBF8C4A3CABD0D0A004A000020F2
:1027800077696669D5FDB3A3C1ACBDD30D0A00005E
:102790004C0000202B4D515454434F4E4E3A0000F4
:1027A0004D515454B6CFBFAA2CB3A2CAD4D6D8C167
:1027B000AC0D0A004D515454C1ACBDD3D5FDB3A3EB
:1027C0000D0A000010B5074890F8020400B910BDCA
:1027D0000448B0F80014FFF7EFFE01F07BFC00BFE7
:1027E000F5E70000D601002029B1064A126802432D
:1027F000044B1A6004E0034A12688243014B1A60DA
:10280000704700003038024029B1064A126802437E
:10281000044B1A6004E0034A12688243014B1A60B9
:10282000704700004038024029B1064A126802434E
:10283000044B1A6004E0034A12688243014B1A6099
:102840007047000044380240F0B500210022002407
:10285000022500260223324F3F6807F00C0121B108
:10286000042905D0082937D105E02E4F076036E04E
:102870002D4F076033E02A4F3F1F3F68C7F3805654
:10288000274F3F1F3F6807F03F036EB1264FB7FB4E
:10289000F3F7DFF88CC0ACF1040CDCF800C0CCF32B
:1028A000881C07FB0CF40CE01E4FB7FBF3F7DFF8B6
:1028B00070C0ACF1040CDCF800C0CCF3881C07FB42
:1028C0000CF4174F3F1F3F68C7F301477F1C7D0083
:1028D000B4FBF5F7076002E0124F076000BF00BFCE
:1028E0000F4F3F6807F0F0010909104F7A5C076845
:1028F000D74047600A4F3F6807F4E051890A0B4F01
:102900007A5C4768D7408760054F3F6807F46041AD
:10291000490B064F7A5C4768D740C760F0BD00009E
:10292000083802400024F40040787D0100000020B7
:1029300010B501460022002300204A11012A02D1CD
:102940000A4C236808E0022A03D1084C703423683B
:1029500002E0064C7434236801F01F020124944005
:102960001C400CB1012000E0002010BD00380240E6
:102970000149086070470000800E47420149086025
:10298000704700003C0E4742002100F44072B2F54F
:10299000407F08D1094A116821F4F811084A024021
:1029A0001143064A1160054A68321268C0F30B03EE
:1029B0001A43024B68331A6070470000083802401F
:1029C000FFFCFF0F10B54FF4805000F09FF818B1D6
:1029D0004FF4805000F01EF84FF40030FEF74CFA30
:1029E00010BD014600BF080900EB8000420001F065
:1029F0000F001044C0B270470146002204E0501C92
:102A0000C2B2A1F10A00C1B20A29F8DA100741EAFC
:102A100010607047002101098AB242F08002044B25
:102A20001B6803F0800363EA0202014B1A607047DF
:102A30000C28004008B50022009200200021104A16
:102A4000126802F04002CAB9421E0D4B1A6000BF64
:102A50000B4A126802F04001009A521C0092009A40
:102A6000B2F5803F01D00029F2D0054A126802F089
:102A700040020AB1012002E0002000E0012008BD70
:102A80000C2800400348006820F0800001490860DD
:102A9000704700000C28004070B506460C46002523
:102AA0000E4800680E4900EA0105280CE070C5F3E5
:102AB0000420607005F03F00A070C5F34230207024
:102AC0005EB9E078FFF78DFFE0706078FFF789FF6F
:102AD0006070A078FFF785FFA07070BD04280040EB
:102AE0003FFFFF0010B5014600200022054B1B6888
:102AF000054C03EA040202EA01030BB1012000E0E5
:102B0000002010BD0C2800407F3F010030B5014679
:102B10000020002200230C4C246804F004020A4C1C
:102B2000383C24680C4002EAD13544EA0503064CDF
:102B3000343C246804EA11121BB194B20CB1012098
:102B400000E0002030BD00004028004070B506467F
:102B50000C4600250F4800680F4900EA0105C5F33F
:102B600005402070C5F30620607005F07F00A0705E
:102B700005F48000000CE0705EB92078FFF731FFAB
:102B800020706078FFF72DFF6070A078FFF729FFB5
:102B9000A07070BD002800407F7F7F0030B50446E4
:102BA0000025CA201549086053200860FFF742FF3E
:102BB00000B91DE011481C38006820F040000F49A2
:102BC0001C39086008460068216808430B491C3915
:102BD00008600A491439A068086008460068A1889E
:102BE00040EA0140054914390860FFF74BFF012511
:102BF000FF2002490860284630BD0000242800401C
:102C00002DE9F04105460C46002600274DB96078B5
:102C100000F01000102804D1607820F010000A3075
:102C2000607005B908E06078FFF7DBFE0646A07823
:102C3000FFF7D7FE064600BF55B1E0780004617883
:102C400040EA0120A1780843217840EA413611E0AA
:102C5000E078FFF7D1FE4FEA00486078FFF7CCFE3E
:102C600048EA0028A078FFF7C7FE48EA0008207865
:102C700048EA4036CA201249086053200860FFF72E
:102C8000D9FE08B9002714E00E4830400C4920391D
:102C90000860FFF7F7FE0A481C38006800F02000C3
:102CA00030B900F085F808B9002702E0012700E0FC
:102CB0000127FF20024908603846BDE8F081000086
:102CC000242800403FFFFF002DE9F04105460C4657
:102CD000002600274DB92E48006800F0400000B1E2
:102CE00002E00020E07000BF0DE02948006800F01D
:102CF000400020B12078FFF774FE064602E0002075
:102D0000E07000BF00BF55B120780004617840EA50
:102D10000120A1780843E17840EA014611E02078DB
:102D2000FFF76AFE4FEA00486078FFF765FE48EA61
:102D30000028A078FFF760FE48EA0008E07848EA3B
:102D40000046CA2012491C31086053200860FFF772
:102D500071FE08B9002713E00E4830400C490839CD
:102D60000860FFF78FFE0A48006800F0200030B9C5
:102D700000F01EF808B9002702E0012700E0012753
:102D8000FF2003491C3108603846BDE8F08100008F
:102D9000082800407F7F7F0010B54FF48040FFF788
:102DA000B5FE18B14FF48040FFF734FE10BD0000AF
:102DB00008B50022009200200021CA22134B1A609D
:102DC00053221A60114A183A126822F0A0020F4BDF
:102DD000183B1A6000BF0D4A183A126802F0200131
:102DE000009A521C0092009AB2F5003F01D00029CF
:102DF000F1D0064A183A126802F020020AB1012006
:102E000000E00020FF22014B1A6008BD242800408A
:102E100018B1FF21044A116004E0CA21024A11607E
:102E2000532111607047000024280040F8B5044683
:102E30000F4615460020009069465220FFF7C7F85C
:102E4000262807D0FFF7EEF8FEF7B9FFFEF7BDFF23
:102E50000120F8BD2846FEF7C5FF262801D0022034
:102E6000F7E72846FFF720F9262801D00320F0E7EE
:102E70001D2004F091FFE01704EB907080100322F6
:102E800002EB8000C1B22B46104A6020FEF7E3FF40
:102E9000262806D00EA0FDF711FAFFF716F8042039
:102EA000D7E739462046FFF767F8262806D00DA059
:102EB000FDF704FAFFF709F80520CAE7FFF705F860
:102EC0000CA0FDF7FBF92620C3E700002500002039
:102ED000C3DCC2EB41B6D4B1C8CAA7B0DC210D0A2D
:102EE00000000000CAFDBEDDB6C1C8A1CAA7B0DCA3
:102EF000210D0A00CAFDBEDDB6C1C8A1B3C9B9A67D
:102F00000D0A000070B5044600264FF400410E483B
:102F1000FEF730FB022004F0DBFD7E2000EA4400D7
:102F200040F08005284600F011F8FF2000F00EF870
:102F300006464FF400410448FEF71EFB022004F051
:102F4000C7FD304670BD00000000024070B5044669
:102F50004FF480611648FEF70FFB002523E04FF485
:102F600080611348FEF706FB04F0800028B14FF49F
:102F700080510F48FEF700FB04E04FF480510C48ED
:102F8000FEF7F8FA6006040E4FF480610848FEF779
:102F9000F3FA4FF400610648FEF7E3FA08B144F093
:102FA0000104681CC5B2082DD9DB204670BD0000A5
:102FB0000008024021B1028842F04002028004E091
:102FC00002884FF6BF731A40028070470246002005
:102FD00013890B400BB1012000E00020704701462F
:102FE000888970478181704710B50022028802F4F9
:102FF00041520B884C8823438C882343CC8823433D
:103000000C8923434C8923438C892343CC89234354
:103010001A430280838B4FF2FF74234083830B8A11
:10302000038210BD70B505460C4600262846FFF702
:1030300069FF064646EA0401284600F00BFD70BD14
:103040000CB50020019000903348006840F48030B7
:103050003149086000BF3048006800F4003000903B
:103060000198401C0190009818B90198B0F5A04F44
:10307000F1D12948006800F4003010B1012000901F
:1030800001E0002000900098012844D122484030FF
:10309000006840F080502049403108601F480068B7
:1030A00040F440401D4908601B48083000681A4938
:1030B000083108600846006808600846006840F467
:1030C000805008601648091F0860081F006840F01B
:1030D0008070091F086000BF0F48006800F0007092
:1030E0000028F9D040F202700E4908600A48083002
:1030F000006820F0030008490831086008460068AD
:1031000040F00200086000BF03480830006800F08B
:103110000C000828F8D10CBD0038024000700040B7
:1031200019544107003C024010B51548006840F4AE
:103130007000134908601348006840F0010011490D
:10314000086000200F49083108600E4800680E49E9
:1031500008400C4908600D48091D0860081F0068F8
:1031600020F48020091F0860002006490C31086007
:10317000FFF766FF4FF0006001498039086010BD1D
:1031800088ED00E000380240FFFFF6FE103000241A
:1031900010B50121264800F0BCF8012846D10121D4
:1031A000234800F09EF823480068401E214908602B
:1031B00008464068401C486008468068401C88609B
:1031C0000846C068401CC86008460069401C086189
:1031D00008464069401C486108468069401C886177
:1031E00008464068022821D3002048601248007831
:1031F00001280DD111480068401C1049086008469C
:103200000068B0F57A7F11D300200B4908700DE0FB
:103210000948007850B909480068401E074908600D
:103220000846006810B901200349087010BD00006D
:10323000004001407001002058000020400800407C
:1032400000B58BB001210220FFF7CEFA02208DF8E5
:10325000280000208DF82A000220099000208DF817
:103260002B008DF8290009A91A48FEF70FF9022250
:1032700001211848FEF752F901210220FFF7C4FA94
:103280000020069007900890ADF81A0040F2E73051
:1032900007905320ADF8180006A90F4800F020F958
:1032A000142101A8FDF799F96020ADF80400002071
:1032B000ADF810000120ADF806004FF47A700390CD
:1032C00001A9054800F0D0F80121034800F00CF8EE
:1032D0000BB000BD0004024000040040CA4302825B
:1032E0007047CA430282704721B1028842F001024E
:1032F000028004E002884FF6FE731A400280704795
:1033000002460020138A0B400BB1012000E0002090
:10331000704730B50246002000230024158A05EAD4
:103320000103958905EA010413B10CB1012000E005
:10333000002030BD1AB183890B43838102E0838969
:103340008B4383817047000070B500240022002366
:10335000058C4FF6FE7635400584028C8388048BFD
:103360004FF68F752C40B51E2C400D882C43751ED2
:103370002A408D892A434D882A43104DA84202D005
:103380000F4DA84213D14FF6F7752A40CD892A4335
:103390004FF6FB752A408D882A434FF6FF652B4078
:1033A0004FF6FF552B400D8A2B434D8A2B438380CC
:1033B00004838D684563028470BD000000000140F5
:1033C0000004014070B5002400220023058C4FF654
:1033D000EF7635400584028C8388048B48F6FF75B0
:1033E0002C404FF6FF452C400D884FF6FF7606EA3D
:1033F00005252C434FF6DF752A408D8906EA051511
:103400002A434D8806EA05152A43154DA84202D0E5
:10341000144DA8421DD14FF67F752A40CD894FF635
:10342000FF7606EA05152A434FF6BF752A408D88B8
:1034300006EA05152A434FF6FF352B404FF2FF757C
:103440002B400D8A06EA85052B434D8A06EA850541
:103450002B43838004838D688563028470BD0000E4
:10346000000001400004014070B500220023002448
:10347000058C4EF6FF7635400584038C8488828B5C
:1034800048F6FF752A404FF6FF452A400D884FF653
:10349000FF7606EA05252A434DF6FF752B408D89F8
:1034A00006EA05352B434D8806EA05352B430A4DC0
:1034B000A84202D0094DA84208D14BF6FF752C4016
:1034C0000D8A4FF6FF7606EA85152C4384808283A9
:1034D0008D680564038470BD000001400004014054
:1034E00000220288184B98420ED0184B98420BD0FD
:1034F000B0F1804F08D0164B984205D0154B98423A
:1035000002D0154B984204D14FF68F731A404B8866
:103510001A43124B984207D0114B984204D04FF6F1
:10352000FF431A400B891A4302804B68C3620B8821
:103530000385054B984202D0044B984201D18B7A07
:10354000038601238382704700000140000401408C
:103550000004004000080040000C00400010004043
:10356000001400404FF0FF314160002101800181D3
:10357000418081727047000008B540F225513548FE
:1035800000F038F9002850D040F22551314800F0C1
:1035900009F93148007801283BD12E4800F0E4F9C0
:1035A000C0B200906A4601212C48006804F0A6FED3
:1035B0004FF480712A48FDF7DDFF28480068401C61
:1035C0002649086027480068401E264908600846CA
:1035D0000068002829D124A0FCF770FE4FF4807108
:1035E0001F48FDF7C9FF00201B49087045F25550E0
:1035F0002549086000BF2448C06800F00200002888
:10360000F9D1FA20204988604AF6AA20086000BF54
:10361000FEE7104800F0A8F9C1B21C48426E406EA7
:10362000401C1A4B58661846815440F22441094800
:1036300000F0E0F868B1074800880648808800205C
:103640001249496E114A505411464866012081F8CA
:10365000680008BD0010014010000020500000204C
:103660000004024054000020D7D6BFE2C9D5C2BC36
:10367000CDEAB3C92C3173BAF3D7D4B6AFB8B4CE50
:10368000BBC9E8B1B80D0A000030004004010020B9
:1036900010B540F22551194800F0ACF8B8B1174800
:1036A00000F062F9C4B21648B0F80004B0F57F7FAC
:1036B00002D900F00FFD10BD1148B0F80014B0F8A9
:1036C0000004401C0E4AA2F800041046445440F284
:1036D00024410A4800F08EF870B108480088074875
:1036E000001D008800200649B1F80014044A505417
:1036F0000120114681F8020400BFDCE700440040CD
:10370000D601002010B540F22551134800F072F8A0
:1037100080B140F22551104800F044F80E4800F006
:1037200023F9C1B20D4802780078401C0B4B187089
:103730000B48815440F22441074800F05BF850B137
:10374000054800880448001D0088002003490870CF
:1037500001200449087010BD0014014059000020E8
:103760001C0000202400002070B505460E460024F1
:1037700004E0285D00F006F8601CC4B2B442F8DB37
:1037800070BD000010B5044600BF8021044800F061
:1037900024F80028F9D02146014800F0EAF810BDCD
:1037A0000014014010B50022002340F66A14A14223
:1037B00000D100BF0A1201249440A3B2DC4304806C
:1037C00010BD21B1828942F40052828104E08289D5
:1037D0004DF6FF731A408281704702460020B1F512
:1037E000007F00D100BF13880B400BB1012000E027
:1037F0000020704770B502460024002300250020F9
:1038000040F66A16B14200D100BFC1F3421501F083
:103810001F03012606FA03F3012D02D196893340D6
:1038200006E0022D02D1168A334001E0968A334029
:103830000C12012606FA04F41688344013B10CB1B8
:10384000012000E0002070BDF0B5034600240026F2
:103850000025002040F66A17B94200D100BF184683
:10386000C1F3421401F01F06012707FA06F5012CE7
:1038700001D10C3004E0022C01D1103000E01430F2
:103880001AB107682F43076002E00768AF4307607B
:10389000F0BD00002DE9FF4705460E460024A14675
:1038A00000BFA046B08900B100BF2C8A24F4405468
:1038B000F08804432C82AC8941F20C608443B088C8
:1038C00031890843718908430443AC81AC8A24F4EC
:1038D0004074B0890443AC826846FEF7B5FF2048C7
:1038E000854202D01F48854202D1DDF80C9001E0EC
:1038F000DDF80890A88900F4004040B109EBC90048
:1039000000EB091031684900B0FBF1F707E009EB63
:10391000C90000EB091031688900B0FBF1F76420A1
:10392000B7FBF0F004012009642101FB1078A8899D
:1039300000F4004040B1322000EBC800B0FBF1F0D1
:1039400000F00700044308E0322000EB0810642177
:10395000B0FBF1F000F00F0004432C81BDE8FF87BD
:10396000001001400014014001468888C0F308009F
:103970007047C1F30802828070470000F8B5044622
:103980000F4615460020009069465220FEF71FFBA7
:10399000262807D0FEF746FBFEF711FAFEF715FAC8
:1039A0000120F8BD2846FEF71DFA262801D0022086
:1039B000F7E72846FEF778FB262801D00320F0E73A
:1039C0001D2004F0E9F9E01704EB90708010032249
:1039D00002EB8000C1B22B46104A6020FEF73BFA92
:1039E000262806D00EA0FCF769FCFEF76EFA04202C
:1039F000D7E739462046FEF72DFC262806D00DA035
:103A0000FCF75CFCFEF761FA0520CAE7FEF75DFAF9
:103A10000CA0FCF753FC2620C3E700002500002083
:103A2000C3DCC2EB41B6D4B1C8CAA7B0DC210D0AD1
:103A300000000000CAFDBEDDD0B4C8EBCAA7B0DCF0
:103A4000210D0A00CAFDBEDDD0B4C8EBB3C9B9A6CA
:103A50000D0A000070B504460D464FF400410A48B7
:103A6000FDF788FD7E2000EA44063046FFF76EFA37
:103A70002846FFF76BFA4FF400410348FDF77CFD41
:103A8000022004F025F870BD0000024030380A28FA
:103A900001D2012070470020704700BF704700002E
:103AA0003EB5044663480078012879D162A0FCF74E
:103AB00005FC65A0FCF702FC67A0FCF7FFFB6AA011
:103AC000FCF7FCFB6DA0FCF7F9FB71A0FCF7F6FB23
:103AD00074A0FCF7F3FB784A00210846FDF7BAFF13
:103AE0002020FF21002247F67C53CDE900210290DF
:103AF00072A230212820FDF7B8FD1020FF210022FE
:103B000047F67C53CDE9002102906FA25321052096
:103B1000FDF7ABFD1020FF21002247F67C53CDE9D5
:103B2000002102906CA26C210520FDF79EFD102063
:103B3000FF21002247F67C53CDE9002102906AA2C2
:103B400085210520FDF791FD1020FF21002247F679
:103B50007C53CDE90021029067A29E210520FDF74C
:103B600084FD1020FF21002247F67C53CDE900217F
:103B7000029066A2B7210520FDF777FD1020FF21F6
:103B8000002247F67C53CDE90021029064A2D021A7
:103B90000520FDF76AFD0020664988612549087007
:103BA0006448806942F21071884208D362A0FCF731
:103BB00085FB0120664908801E4908703EBD332CF4
:103BC0001AD006DC232C2CD0312C07D0322C2ED14D
:103BD0000BE0342C17D0352C29D11BE003205C4995
:103BE000088001201349087021E00420584908800A
:103BF0000120104908701AE005205549088001206D
:103C00000C49087013E00620514908800120094939
:103C100008700CE007204E49088001200549087013
:103C200005E001204A4908800249087000BF00BF32
:103C300000BFC3E77E0000200D0AB9DCC0EDD4B19F
:103C4000BDE7C3E63A0D0A00A1BE31A1BFC3DCC285
:103C5000EBB9DCC0ED0D0A00A1BE32A1BFD6B8CED3
:103C6000C6B9DCC0ED0D0A00A1BE33A1BFC9E4C6D0
:103C7000B5BFA8B9DCC0ED0D0A000000A1BE34A19B
:103C8000BFC9F9D2F4C1C1B6C8B5F7BDDA0D0A0093
:103C9000A1BE35A1BFBBD6B8B4B3F6B3A7C9E8D6A9
:103CA000C30D0A00A1BE23A1BFCDCBB3F6B9DCC0C2
:103CB000EDBDE7C3E60D0A0080BA0008B9DCC0ED2F
:103CC000D4B1BDE7C3E60000A1BE31A1BFC3DCC2D1
:103CD000EBB9DCC0ED000000A1BE32A1BFD6B8CE6A
:103CE000C6B9DCC0ED000000A1BE33A1BFC9E4C667
:103CF000B5BFA8B9DCC0ED00A1BE34A1BFC9F9D2DF
:103D0000F4C1C1B6C8B5F7BDDA000000A1BE35A147
:103D1000BFBBD6B8B4B3F6B3A7C9E8D6C30000009A
:103D2000A1BE23A1BFCDCBB3F6B9DCC0EDD4B1BDEC
:103D3000E7C3E60070010020CEDEB2D9D7F73AB76C
:103D4000B5BBD8D6F7BDE7C3E6210D0A00000000D9
:103D50001200002000B501F065F900BD2DE9F04129
:103D600004460E4601F07CFA2746E11704EB116188
:103D70000912A02202EB4101C8B201F037FA01F0AA
:103D800095F90546012D04D101F094FA0120BDE812
:103D9000F081E0B201F02AFA01F088F90546012D20
:103DA00003D101F087FA0220F1E701F059FA274622
:103DB000E11704EB11610912A12202EB4101C8B223
:103DC00001F014FA01F072F90546012D03D101F05A
:103DD00071FA0120DBE701F09DF93070012001F05C
:103DE000D5F901F067FA0020D1E72DE9F04104464A
:103DF0000F4601F035FA2646E11704EB116109126E
:103E0000A02202EB4101C8B201F0F0F901F04EF935
:103E10000546012D04D101F04DFA0120BDE8F081E5
:103E20002646E11704EB11610912A4EB0121C8B287
:103E300001F0DCF901F03AF90546012D03D101F05A
:103E400039FA0220EAE7384601F0D0F901F02EF9FC
:103E50000546012D03D101F02DFA0320DEE701F024
:103E600029FA052003F0F8FD0020D7E71CB5012151
:103E70000220FEF7B9FC01208DF804008DF8060041
:103E8000C020009000208DF807008DF805006946DD
:103E90000548FDF7FBFA40210348FDF76DFB802143
:103EA0000148FDF769FB1CBD0004024010B5002469
:103EB0001248006820F04000104908600846006879
:103EC00040F0800008600846006820F0400008606C
:103ED000052003F0FDFD0948006840F04000074957
:103EE0000860052003F0F4FD0448001F006800F09E
:103EF000800000B900E00124204610BD14040240F7
:103F000070B51A48006820F040001849086008465B
:103F1000006840F08000086000251DE0134800683C
:103F200020F0400011490860052003F0D1FD0F4842
:103F3000006840F040000D490860052003F0C8FD0E
:103F40006006040E0948001F006800F0800008B1F8
:103F500044F00104681CC5B2082DDFDB034800688B
:103F600020F0400001490860204670BD1404024062
:103F700010B504461548006820F040001349086059
:103F8000032003F0A5FD34B91048006820F080003C
:103F90000E49086007E0012C05D10C48006840F08C
:103FA00080000A490860022003F092FD074800687B
:103FB00040F0400005490860052003F089FD0348F2
:103FC000006820F040000149086010BD1404024060
:103FD00070B50446002528E01848006820F040002D
:103FE00016490860032003F073FD04F0800030B12F
:103FF0001248006840F080001049086005E00F4852
:10400000006820F080000D490860022003F060FD88
:104010000A48006840F0400008490860052003F0A5
:1040200057FD6006040E681CC5B2082DD4DB03489A
:10403000006820F040000149086070BD140402408F
:1040400010B51348006820F04000114908600520B1
:1040500003F03EFD0E48006840F080000C49086007
:104060000846006840F040000860052003F030FD7D
:104070000748006820F0800005490860052003F02B
:1040800027FD0348006820F040000149086010BD8A
:104090001404024010B50E48006820F040000C499E
:1040A00008600846006820F0800008600846006844
:1040B00040F040000860052003F00AFD0448006855
:1040C00040F0800002490860052003F001FD10BDAA
:1040D00014040240002004E00021084A1154411C4D
:1040E00088B20649B1F800148142F5DC002003498A
:1040F000A1F8000481F8020470470000D6010020F6
:1041000010B5054802F0C0F84FF4967003F0A4FC17
:10411000002002F0B9F810BD18FCFFFF10B503F045
:104120008FFB03F0E7FBFFF7EBFF10BD10B54FF47B
:104130007A7002F0A9F84FF4967003F08DFC00201D
:1041400002F0A2F810BD00001CB5FE200090022174
:104150001948FDF711FA1E2003F07EFC00215420BF
:1041600002F008F86A4601A9542001F0B7FD40B1F9
:1041700012A0FCF7A3F802210F48FDF7FBF9FF207E
:104180001CBD9DF8000010B1902808D103E012A0DA
:10419000FCF794F807E015A0FCF790F803E017A0EF
:1041A000FCF78CF800BF00BF02210348FDF7E2F9DD
:1041B0009DF80000E4E7000000080240CDA8D0C54B
:1041C000CAA7B0DC2CBDD3CAD5CAFDBEDDB0FCB4D5
:1041D000EDCEF30D0A000000CBF9D3D0D6B8CEC691
:1041E000C9BEB3FDB3C9B9A60D0A0000CEB4D7A2AB
:1041F000B2E1B5C4D3C3BBA70D0A0000C9BEB3FD6D
:10420000CAA7B0DC0D0A00003EB504463B48007862
:10421000002852D03AA0FCF751F83EA0FCF74EF827
:104220003FA0FCF74BF8414A00210846FDF712FC7D
:104230002020FF21002247F67C53CDE90021029087
:104240003BA230211820FDF710FA2020FF21002288
:104250004FF47843CDE90021029039A25A21382049
:10426000FDF703FA314801214FF4784337A2CDE935
:1042700000107E216020FDF71DFB1020FF21002291
:1042800047F67C53CDE90021029031A2DC210020C9
:10429000FDF7EBF91020FF21002247F67C53CDE912
:1042A000002102902CA2DC21B420FDF7DEF90A20C7
:1042B00003F072FD0020114908702A2C14D1FF224E
:1042C00024212748FCF781F90223254A24211F20B5
:1042D000FCF7C8FB112003F05FFD05202149088091
:1042E00001200649087007E0232C05D105201D494F
:1042F00008800120014908703EBD0000AF00002089
:104300000D0AC9BEB3FDCBF9D3D0BFA8C6AC3F3AA6
:104310000D0A0000A1BE2AA1BFC8B7C8CF0D0A0070
:10432000A1BE23A1BFC8A1CFFB0D0A0080BA00081F
:10433000C9BEB3FDCBF9D3D0BFA8C6AC0000000006
:10434000C8B7C8CFC9BEB3FD000000003F000000E1
:10435000C8B7C8CF282A2900C8A1CFFB2823290025
:10436000A1010020120000202DE9FE4F06464FF06B
:10437000010AD3464FF0000893480078002866D021
:1043800092A0FBF79BFF97A0FBF798FF98A0FBF785
:1043900095FF9AA0FBF792FF9B4A00210846FDF784
:1043A00059FB2020FF21002247F67C53CDE9002154
:1043B000029096A230211920FDF757F99248012169
:1043C0004CF2186395A2CDE9001078213220FDF758
:1043D00071FA8D4801214CF2186391A2CDE90010C9
:1043E00078218220FDF766FA1020FF21002247F68F
:1043F0007C53CDE9002102908AA2DC210020FDF748
:1044000034F91020FF21002247F67C53CDE900212A
:10441000029086A2DC21B420FDF727F9132003F0D7
:10442000BBFC844A24211F20FCF7C9FA1E208249C4
:10443000087000208149087000BF03E00021804A15
:104440001154401C0928F9DB00205F4908707B48A3
:104450000078092804D17BA0FBF730FF4FF0000A59
:10446000BAF1010F60D17D48FDF740FF0746262FC6
:104470005AD100241DE04FF0000800250DE06D48E2
:1044800000EB8400405D7549495D884203D108F125
:10449000010000F0FF08681CC5B2042DEFDBB8F185
:1044A000040F04D1611C6EA0FBF708FF03E0601C41
:1044B000C4B2092CDFDB00BFB8F1040F31D10020FA
:1044C00007E05F490A5C611C8A4201D14FF0000B92
:1044D000401C0928F5D3BBF1010F25D12020FF2175
:1044E0000022CDE90021029004F13100C2B247F66A
:1044F0007C53502150480078FDF7FAF8601C504971
:104500004E4A127888544D480078401C4B49087038
:10451000494800781430484908701D2003F03CFCDD
:1045200002E055A0FBF7CAFE2A2E43D100200090DE
:1045300001900290814600BF2AE0002200210AE09B
:104540001DF80130DFF8F8C01CF800C0634501D148
:10455000012202E0491C0929F2DB00BFBAB900219F
:104560000BE04FF0FF0C364B1B5C5B1EDFF8C4E02A
:104570000EEB830303F801C0491C0429F1DB304929
:10458000095C0DF8091009F1010101F0FF09401C57
:104590000928D2DB0223274A24211F20FCF762FAD4
:1045A000112003F0F9FB0520394908800120064954
:1045B000087007E0232E05D1052035490880012029
:1045C00001490870BDE8FE8FB00000200D0ACAB690
:1045D000B1F0C9BEB3FDBFA8C6ACBDE7C3E60D0AC6
:1045E00000000000CAB6B1F0BFA8C6AC0D0A0000BA
:1045F000C8B7C8CF282A290D0A000000B7B5BBD814
:104600002823290D0A00000080BA0008CAB6B1F0BC
:10461000C9BEB3FDBFA8C6AC00000000500000003A
:1046200051000000C8B7C8CF282A2900B7B5BBD8A9
:1046300028232900A1010020B1000020B2000020A1
:10464000F7050020CAB6B1F0D2D1B4EFC9CFCFDEA2
:104650002CC7EBCFC8C9BEB3FD0D0A003B0000203C
:10466000B4CBBFA8C6ACB5C4D7A2B2E14944CEAA68
:1046700025640D0A00000000B4CBBFA8C6ACCEB4C0
:10468000D7A2B2E12CC7EBCFC8D7A2B2E10D0A0086
:10469000120000203EB504463D480078002852D064
:1046A000062003F079FB3BA0FBF708FE3EA0FBF7DA
:1046B00005FE40A0FBF702FE414A00210846FDF737
:1046C000C9F92020FF21002247F67C53CDE90021C3
:1046D00002903CA230211820FCF7C7FF2020FF21C8
:1046E000002247F67C53CDE90021029039A25521E2
:1046F0003820FCF7BAFF324801214FF4784338A242
:10470000CDE900107E216020FDF7D4F81020FF21B4
:10471000002247F67C53CDE90021029031A2DC2132
:104720000020FCF7A2FF1020FF21002247F67C5357
:10473000CDE9002102902DA2DC21B420FCF795FFE9
:104740000020134908702A2C19D1FFF7FDFCFF2225
:1047500009212848FBF739FF0223264A09211520A1
:10476000FCF780F924A0FBF7A9FD112003F014FB4E
:1047700004202649088001200549087007E0232C01
:1047800005D10420214908800120014908703EBD5F
:10479000A00000200D0AC9BEB3FDCBF9D3D0D6B816
:1047A000CEC63F3A0D0A0000A1BE2AA1BFC8B7C8B5
:1047B000CF0D0A0023A1BFC8A1CFFB0D0A00000046
:1047C00080BA0008C9BEB3FDCBF9D3D0D6B8CEC6E7
:1047D00000000000C8B7C8CFC9BEB3FD000000008C
:1047E0003F000000C8B7C8CF282A2900C8A1CFFBC6
:1047F0002823290098010020D2D1C9BEB3FDCBF9EE
:10480000D3D0D6B8CEC60D0A00000000120000209A
:10481000FEB5054670480078012858D16FA0FBF717
:104820004DFD74A0FBF74AFD75A0FBF747FD77A08F
:10483000FBF744FD784A00210846FDF70BF92020DC
:10484000FF21002247F67C53CDE90021029073A29C
:1048500030211920FCF709FF6F4801214CF2186341
:1048600072A2CDE9001078216020FDF723F8102016
:10487000FF21002247F67C53CDE9002102906CA273
:10488000DC21A020FCF7F1FE1020FF21002247F6DA
:104890007C53CDE90021029068A2DC210020FCF7C6
:1048A000E4FE694A09211520FCF789F81E206749B2
:1048B000088000206649087000BF03E00021654AB7
:1048C0001154401C0928F9DB002043490870614954
:1048D0005F4A12788818FDF725FD08BB5C48007810
:1048E00009281DDA5A480078401C594908702020D0
:1048F000FF210022CDE90021029055480078401E9A
:104900005449085C3030C2B247F67C5350214F48BE
:104910000088FCF7EDFE4D48008814304B490880B4
:104920004B480078092807D149480078401C48497D
:10493000087049A0FBF7C2FC2A2D43D1002000904B
:10494000019002900026002428E00027002008E0C3
:104950001DF800103F4A125D914201D1012702E08B
:10496000401C0928F4DB00BFBFB93A49085DFCF7D9
:10497000A9FB002009E03449095C364A125D9142E6
:1049800002D1FF21304A1154401C0928F3DB314881
:10499000005D0DF80600701CC6B2641C2C4800783F
:1049A0008442D2DB0223284A09211520FCF75AF859
:1049B000112003F0F1F90420334908800120064951
:1049C000087007E0232D05D104202F49088001201D
:1049D00001490870FEBD0000A10000200D0ACAB602
:1049E000B1F0C9BEB3FDD6B8CEC6BDE7C3E60D0A69
:1049F00000000000CAB6B1F0D6B8CEC60D0A00005D
:104A0000A1BE2AA1BFC8B7C8CF0D0A00A1BE23A16D
:104A1000BFC8A1CFFB0D0A0080BA0008CAB6B1F02A
:104A2000C9BEB3FDD6B8CEC6000000005A000000D3
:104A3000A1BE23A1BFB7B5BBD8000000C8B7C8CF7F
:104A4000A1BE2AA1BF00000098010020A200002002
:104A5000A4000020EE050020D6B8CEC6CAB6B1F03C
:104A6000B8F6CAFDB4EFB5BDC9CFCFDE2CC7EBCFCA
:104A7000C8C9BEB3FDD2D1BEADCAB6B1F0D6B8CEAC
:104A8000C649440D0A00000012000020FEB504468D
:104A90001E264F480078002865D0072003F07CF9D7
:104AA0004CA0FBF70BFC51A0FBF708FC53A0FBF755
:104AB00005FC58A0FBF702FC5B4A00210846FCF706
:104AC000C9FF2020FF21002247F67C53CDE90021B9
:104AD000029056A230211820FCF7C7FD1020FF21BC
:104AE000002247F67C53CDE90021029053A2DC213D
:104AF0000020FCF7BAFD1020FF21002247F67C536E
:104B0000CDE90021029050A2DC219620FCF7ADFDFA
:104B1000504A09211520FBF752FF00BF00251DE078
:104B20004C48405DFF2817D04A48415D4AA0FBF73A
:104B3000C5FB2020FF210022CDE90021029045483D
:104B4000405D3030C2B247F67C5350213046FCF70E
:104B5000CFFD06F1140086B2681CC5B2092DDFDB5B
:104B600000201B490870FF2C1DD0232C1BD02A2CA1
:104B700019D0A4F13001C8B2FCF7A4FA3849086092
:104B80000846006878B9FF21A4F13100314A115478
:104B9000022309211520FBF765FF112003F0FCF823
:104BA00001200B490870232C02D02A2C0DD106E0DD
:104BB00004202C49088001200549087005E00120E7
:104BC000284908800249087000BF00BFFEBD0000F0
:104BD0009B0000200D0AC9BEB3FDD6B8B6A8D6B852
:104BE000CEC6BDE7C3E63A0D0A000000C7EBD1A16F
:104BF000D4F1D6B8CEC649440D0A0000A1BE23A107
:104C0000BFBBD8B5BDC9CFD2BBBCB6B2CBB5A50D65
:104C10000A000000A1BE2AA1BFBBD8B5BDD6F7BD12
:104C2000E7C3E60D0A00000080BA0008C9BEB3FD64
:104C3000D6B8B6A8D6B8CEC600000000A1BE2AA13C
:104C4000BFD6F7BDE7C3E600C9CFD2BBBCB6A1BE95
:104C500023A1BF009801002025752020000000003E
:104C60009C00002012000020FEB504466348007836
:104C7000002876D062A0FBF721FB67A0FBF71EFBA4
:104C800069A0FBF71BFB6EA0FBF718FB714A002124
:104C90000846FCF7DFFE2020FF21002247F67C5368
:104CA000CDE9002102906CA230211820FCF7DDFC38
:104CB0001020FF21002247F67C53CDE9002102900D
:104CC00069A2DC210020FCF7D0FC1020FF2100228B
:104CD00047F67C53CDE90021029066A2DC219620A4
:104CE000FCF7C3FC0B2003F057F8654A24211F2072
:104CF000FBF765FE1E2063490880002062490870AA
:104D0000002529E0002622E05D4800EB8500805D5B
:104D1000FF281AD02020FF210022CDE90021029097
:104D200005F13100C2B247F67C5350215548008846
:104D3000FCF7DEFC54480078401C53490870514889
:104D4000008814304F49088003E0701CC6B2042E5E
:104D5000DADB00BF681CC5B2092DD3DB0020274970
:104D6000087049480078002823DDFF2C31D0232C1F
:104D70002FD02A2C2DD0002007E0FF22A4F13101F2
:104D80003F4B03EB81010A54401C0428F5DB02234E
:104D90003B4A24211F20FBF765FE112002F0FCFF97
:104DA00039480078401E38490870012013490870BE
:104DB0000FE036A0FBF782FA2020FF2100224FF4FB
:104DC0007843CDE90021029038A2AA211E20FCF7E9
:104DD0004CFC232C02D02A2C0DD106E005203749AB
:104DE000088001200549087005E00120334908804A
:104DF0000249087000BF00BFFEBD0000AB000020EC
:104E00000D0AC9BEB3FDD6B8B6A8BFA8C6ACBDE7EB
:104E1000C3E63A0D0A000000C7EBD1A1D4F1BFA848
:104E2000C6AC0D0A00000000A1BE23A1BFBBD8B5CF
:104E3000BDC9CFD2BBBCB6B2CBB5A50D0A00000030
:104E4000A1BE2AA1BFBBD8B5BDD6F7BDE7C3E60D4D
:104E50000A00000080BA0008C9BEB3FDD6B8B6A8E3
:104E6000BFA8C6AC00000000A1BE2AA1BFD6F7BDF6
:104E7000E7C3E600C9CFD2BBBCB6A1BE23A1BF0029
:104E8000A1010020AC000020AE000020C3BBD3D0A5
:104E9000D3C3BBA7D7A2B2E1BCC7C2BC2CC7EBCF60
:104EA000C8D7A2B2E1BFA8C6AC0D0A00C7EBCFC8F5
:104EB000D7A2B2E1BFA8C6AC0000000012000020DB
:104EC0003EB504463448007800284FD033A0FBF7A5
:104ED000F5F938A0FBF7F2F939A0FBF7EFF93B4AF7
:104EE00000210846FCF7B6FD2020FF21002247F6EE
:104EF0007C53CDE90021029035A230211820FCF727
:104F0000B4FB1020FF21002247F67C53CDE900219D
:104F1000029033A255213820FCF7A7FB2B48012132
:104F20004FF4784331A2CDE900107E216020FCF7D8
:104F3000C1FC1020FF21002247F67C53CDE900215F
:104F400002902BA2D2210020FCF78FFB1020FF2122
:104F5000002247F67C53CDE90021029026A2D221FF
:104F6000B420FCF782FB00200B4908702A2C09D1E1
:104F70000020234908600120224908800649087062
:104F800002F03AF8232C05D102201E4908800120A6
:104F9000014908703EBD0000B40000200D0ABBD6D8
:104FA000B8B4B3F6B3A7C9E8D6C3BDE7C3E63A0DB4
:104FB0000A000000A1BE2AA1BFC8B7C8CF0D0A00D1
:104FC000A1BE23A1BFC8A1CFFB0D0A0080BA000873
:104FD000BBD6B8B4B3F6B3A7C9E8D6C30000000087
:104FE000C8B7C8CFBBD6B8B4A3BF00004800000004
:104FF000C8B7C8CF282A2900C8A1CFFB2823290079
:10500000400400401200002000BF054A128802F050
:105010004002002AF9D0C2B2014B9A8070470000CA
:10502000001001401E48006840F001001C49086063
:105030000846006840F0040008601A48006820F440
:105040004030184908600846006840F48030086025
:105050001548006820F4402013490860084600689D
:1050600040F4802008600F48406820F480700D49AB
:1050700048600D48001D006840F400700A49091D91
:1050800008600848406940F4807006494861064855
:105090001430006840F40070034914310860704710
:1050A00030380240000002400008024010B51748A6
:1050B000406920F48070154948611548006840F443
:1050C0000070134908601148406920F480700F494E
:1050D0004861052002F0FCFC0C48406940F48070F7
:1050E0000A494861052002F0F3FC0948001F0068E6
:1050F00000F4007008B1012400E000240348406976
:1051000020F4807001494861204610BD0000024033
:105110001408024070B51B48406920F4807019499A
:1051200048611948006840F400701749086000257C
:105130001DE01448406920F4807012494861052040
:1051400002F0C6FC0F48406940F480700D49486188
:10515000052002F0BDFC6006040E0B48001F00682D
:1051600000F4007008B144F00104681CC5B2082DB9
:10517000DFDB0448406920F4807002494861204622
:1051800070BD0000000002401408024010B5044643
:105190001448406920F4807012494861032002F0ED
:1051A00097FC34B11048006840F400700E49086064
:1051B00005E00D48006820F400700B4908600220EB
:1051C00002F086FC0748406940F480700549486158
:1051D000052002F07DFC0348406920F480700149FD
:1051E000486110BD000002401408024070B504463A
:1051F000002528E01848406920F48070164948616D
:10520000032002F065FC04F0800030B11348006810
:1052100040F400701149086005E01048006820F46F
:1052200000700E490860022002F052FC0A484069F2
:1052300040F4807008494861052002F049FC60068E
:10524000040E681CC5B2082DD4DB0348406920F465
:1052500080700149486170BD00000240140802409E
:1052600010B51248406920F4807010494861104818
:10527000006840F400700E4908600C48406940F432
:1052800080700A494861052002F022FC0848006845
:1052900020F4007006490860052002F019FC03485C
:1052A000406920F480700149486110BD000002404F
:1052B0001408024010B50F48406920F480700D4971
:1052C00048610D48006820F400700B4908600948E7
:1052D000406940F4807007494861052002F0F8FBFE
:1052E0000548006840F4007003490860052002F09A
:1052F000EFFB10BD00000240140802404AF6AA204D
:105300000149086070470000003000400E48006806
:1053100040F001000C49086000BF0B48006800F035
:1053200002000028F9D045F25550084908600520D0
:10533000486040F6C41088604AF6AA2008604CF61F
:10534000CC400860704700007438024000300040D4
:105350001CB501210846FDF747FA01210420FDF79D
:1053600043FA0020009001908DF804000120009085
:1053700000208DF8070069460548FCF787F84FF4D0
:105380000050009069460348FCF780F81CBD0000FF
:10539000000002400008024010B50024012120480E
:1053A000FCF7DFF878B11F48007860B1142002F0F4
:1053B00053FB01211A48FCF7D4F8D0B10124002096
:1053C0001849087015E04FF400511748FCF7C9F868
:1053D00078B91448007860B1142002F03DFB4FF416
:1053E00000511148FCF7BDF818B9022400200D49FE
:1053F000087001210A48FCF7B4F878B94FF400515D
:105400000948FCF7AEF808B9012000E0002028B9EF
:10541000142002F021FB012002490870204610BD33
:10542000000002404D000020000802401CB5012190
:105430000220FDF7D9F900200090019001208DF89D
:10544000040000208DF806004FF44070009000200A
:105450008DF807008DF8050069460448FCF716F83A
:105460004FF440710148FCF787F81CBD000402406E
:105470004FF4A060FDF790F8FFF7D8FFFFF768FF43
:105480004FF4E13002F0A0FB02F016FFFEF762FCE1
:1054900002F088FAFCF713FB02F0C2FCFBF746FCB3
:1054A000FFF734FFFEF73AFE01F0AEFF00F090FA8E
:1054B000FCF726FD012002F045FB03F003F8FBF7A3
:1054C00073FE4FA151A0FBF767FF534908700846D0
:1054D000007868B901205149087000F0F3FE0128F6
:1054E00003D14FA0FAF7EAFE02E057A0FAF7E6FE72
:1054F00002F090F882E0FFF701FF4748007880B99A
:105500004648007868B901204449087000F0DAFE86
:10551000012803D142A0FAF7D1FE02E04AA0FAF72F
:10552000CDFEFBF709FB5249087052480088292834
:1055300028D007DC08285CD2DFE800F05B10151AE1
:105540001F3851562A380D2853D2DFE800F02025A5
:105550002A52525252525234393E43004448007843
:1055600000F08AF845E042480078FEF799FA40E0FA
:105570003F48007801F01AFA3BE03D48007800F01F
:105580004FFA36E03A480078FBF77CFC31E03848C7
:105590000078FFF77BFA2CE035480078FFF77AF8BF
:1055A00027E033480078FFF733F922E030480078ED
:1055B00001F060FD1DE02E48007801F04FFB18E07F
:1055C0002B480078FFF750FB13E029480078FEF7DE
:1055D0001BFE0EE026480078FEF7C6FE09E02448D0
:1055E000007802F049FC04E021480078FFF768FCED
:1055F00000BF00BF02F0A2F8FDF7E4F87BE700006F
:10560000383838383838383800000000333139330A
:105610003334383534000000490000204A000020AF
:105620004D515454B7FECEF1C6F7C1ACBDD3B3C98A
:10563000B9A621D4B6B3CCBFAACBF8B9A6C4DCBFF7
:10564000AAC6F4A3A10D0A004D515454B7FECEF1E1
:10565000C6F7C1ACBDD3CAA7B0DC21D4B6B3CCBFAA
:10566000AACBF8B9A6C4DCB9D8B1D5A3A10D0A005C
:1056700011000020120000207CB504461F4920467E
:1056800001F000F80546012D0CD102201C490880CC
:10569000C1011C48FBF76EFF00201B490861012077
:1056A0001A49087015480078FF2803D100F0FCFE65
:1056B00000F062FE144880684EF6602188421BD3D9
:1056C0000020114988601249FDF740FA1149002075
:1056D000FDF7E2F90E48437802780FA11148FAF776
:1056E000F9FD114801214CF218630E4ACDE9001072
:1056F0003A210020FCF7DEF87CBD000060000020AD
:105700001200002000040240700100204800002028
:105710001400002018000020253032643A25303271
:1057200064000000DA05002080BA00087CB5044659
:105730002146512000F01EFD6A4601A9512000F0CB
:10574000CDFA0546002D4ED19DF80000B5282DD08C
:105750000BDCB2281ED003DCA0B1B1283ED115E08D
:10576000B3281BD0B42839D11CE0B8282AD004DCD7
:10577000B6281FD0B72831D120E0C02826D0C228B3
:105780002CD127E01CA0FAF799FD2BE022A0FAF714
:1057900095FD27E027A0FAF791FD23E02BA0FAF76B
:1057A0008DFD1FE037A0FAF789FD1BE043A0FAF753
:1057B00085FD17E04EA0FAF781FD13E05AA0FAF735
:1057C0007DFD0FE065A0FAF779FD0BE069A0FAF71F
:1057D00075FD07E06BA0FAF771FD03E070A0FAF722
:1057E0006DFD00BF04E076A0FAF768FDFF207CBDE8
:1057F0009DF80000FBE70000D7A5C8A1D6B8CEC62B
:10580000CDBCCFF1BCB0CCD8D5F7C1BFCCE1C8A1DD
:10581000B3C9B9A60D0A0000D6B8CEC6B9FDD0A14D
:1058200028736D616C6C2066696E676572290D0A5C
:1058300000000000CEDED6B8CEC620286E6F2066EF
:10584000696E676572290D0A00000000D6B8CEC6E1
:10585000CEBBD6C3B9FDD3DABFBFD7F3A3ACD0E874
:10586000D2AABDABCAD6D6B8BFBFD3D2B1DFDEF4A1
:10587000B0B4286C6566742066696E676572290D20
:105880000A000000D6B8CEC6CEBBD6C3B9FDD3DA67
:10589000BFBFD3D2A3ACD0E8D2AABDABCAD6D6B8CC
:1058A000BFBFD7F3B1DFDEF4B0B4287269676874A4
:1058B0002066696E676572290D0A0000D6B8CEC6EB
:1058C000CEBBD6C3B9FDD3DABFBFC9CFA3ACD0E836
:1058D000D2AABDABCAD6D6B8BFBFCFC2B1DFDEF445
:1058E000B0B42875702066696E676572290D0A006C
:1058F000D6B8CEC6CEBBD6C3B9FDD3DABFBFCFC2F2
:10590000A3ACD0E8D2AABDABCAD6D6B8BFBFC9CF68
:10591000B1DFDEF4B0B428646F776E2066696E671D
:105920006572290D0A000000CAAACAD6D6B820A3FB
:10593000A8D6B8CEC6B1EDC3E6B3F6BAB9BBF2D5B8
:10594000DFCBAED7D5B9FDB6E0A3A9202877657423
:105950002066696E676572290D0A0000B8C9D4EF28
:10596000CAD6D6B8286472792066696E67657229CE
:105970000D0A0000CCD8D5F7CCE1C8A1B4EDCEF328
:105980000D0A0000CCD8D5F7CCE1C8A1B4EDCEF318
:105990002028CDBCCFF1D6CAC1BFB2EE290D0A0076
:1059A000D7A5C8A1D6B8CEC6CDBCCFF1BCB0CCD897
:1059B000D5F7C1BFCCE1C8A1B4EDCEF30D0A00000C
:1059C000CDA8D0C5CAA7B0DCA3A10D0A0000000075
:1059D0001CB54FF4E13000F0EDFB01210420FCF791
:1059E00003FF0020009001908DF80400012000903A
:1059F00069460A48FBF74AFD01208DF804000220A1
:105A0000009069460548FBF741FD02210348FBF77A
:105A1000B1FD02210148FBF7ADFD1CBD00080240AD
:105A20001FB504466848007800287DD067A0FAF7C3
:105A300045FC6BA0FAF742FC6DA0FAF73FFC72A0A0
:105A4000FAF73CFC75A0FAF739FC79A0FAF736FCB6
:105A50007DA0FAF733FC814A00210846FBF7FAFFE4
:105A60002020FF21002247F67C53CDE9002102903F
:105A70007BA230211A20FBF7F8FD1020FF21002225
:105A800047F67C53CDE90021029079A253210520ED
:105A9000FBF7EBFD1020FF21002247F67C53CDE9F8
:105AA0000021029076A26C210520FBF7DEFD10207C
:105AB000FF21002247F67C53CDE90021029075A218
:105AC00085210520FBF7D1FD1020FF21002247F69C
:105AD0007C53CDE90021029073A29E210520FBF7A3
