:020000040800F2
:10000000880700203D02000845020008470200085A
:10001000490200084B0200084D02000800000000E1
:100020000000000000000000000000004F02000877
:1000300051020008000000005302000855020008A9
:10004000570200085702000857020008FD1A00086E
:10005000570200085702000857020008570200081C
:10006000570200085702000857020008570200080C
:1000700057020008570200085702000857020008FC
:10008000570200085702000857020008000000004D
:1000900000000000000000000000000057020008FF
:1000A000511D0008570200085702000857020008B7
:1000B00057020008570200085702000857020008BC
:1000C00057020008570200085702000857020008AC
:1000D000570200087D2000085702000800000000B9
:1000E0005702000829170008570200080000000006
:1000F000000000000000000000000000570200089F
:1001000000000000570200085702000857020008CC
:1001100000000000000000000000000000000000DF
:10012000570200085702000857020008570200084B
:10013000570200080000000000000000000000005E
:10014000000000000000000000000000570200084E
:10015000570200085702000857020008570200081B
:1001600057020008570200080000000000000000CD
:10017000000000000000000000000000000000007F
:10018000000000005702000800000000000000000E
:100190005702000800F002F800F041F80AA090E8C9
:1001A000000C82448344AAF10107DA4501D100F032
:1001B00036F8AFF2090EBAE80F0013F0010F18BFBE
:1001C000FB1A43F001031847B82A0200D82A02009C
:1001D000103A24BF78C878C1FAD8520724BF30C873
:1001E00030C144BF04680C60704700000023002445
:1001F00000250026103A28BF78C1FBD8520728BF37
:1002000030C148BF0B607047642900F09380002024
:1002100070471FB503F0EEFC1FBD10B510BD00F018
:100220008DFA1146FFF7F5FF02F0BAFC00F0ABFAC9
:1002300003B4FFF7F2FF03BC02F08CF809488047D3
:1002400009480047FEE7FEE7FEE7FEE7FEE7FEE7B8
:10025000FEE7FEE7FEE7FEE704480549054A064BD0
:1002600070470000E91C0008950100088801002083
:100270008807002088030020880300207047B2F11F
:1002800020030AD5C2F1200301FA02F120FA03F398
:1002900000FA02F041EA0301704700FA03F14FF05F
:1002A000000070470FB4044910B503AA029800F08B
:1002B0002FFA10BC5DF814FB1C0000200FB41CB515
:1002C000074B06AA7B4469460090059800F007FAA0
:1002D0000020694600F016FA1CBC5DF814FB000013
:1002E0003D04000070B5044685690068C10601D56B
:1002F000302600E02026C00707D070BDD4E90121D8
:1003000030469047206A401C20626D1EF6D570BDB5
:1003100070B5044685690078C00707D170BDD4E97F
:10032000012120209047206A401C20626D1EF6D5D6
:1003300070BD00002DE9F0410646002410687529C3
:10034000314616A510D0AFF30080002802DA4042F3
:1003500013A507E031688A0701D512A502E0490715
:1003600004D511A5012401E0AFF3008000210A2289
:1003700006F1240709E0B0FBF2FCB0FBF2F302FB4C
:100380001C00303078541846491C0028F3D123460D
:100390002A463046BDE8F04100F042B900000000B6
:1003A0002D0000002B000000200000002DE9F05F70
:1003B000894604464FF0000ADFF824B1FB44C0F838
:1003C00020A02046E168884700287DD0252806D057
:1003D000D4E901219047206A401C2062F1E7002502
:1003E0005F462046E16888472028064607DB312E15
:1003F00005D2B81910F8200C08B10543F1E7A80799
:1004000001D525F00405C4F81CA00027C4F818A0E5
:100410002A2E09D0304601F096FF38B304EB870846
:10042000303EC8F8186019E059F8041B204604EB68
:1004300087029161E1688847012F064618D1E0697B
:10044000002820DA25F020051DE0D8F8180000EB80
:10045000800006EB40003038C8F818002046E168FC
:100460008847064601F06FFF0028EED1012F0AD021
:100470002E2E08D12046E16888477F1C0646022FB1
:1004800045F02005C4DBA069002803DA404245F0AE
:100490000105A061E80701D025F01005A6B1A6F17D
:1004A0004100192802D8203645F400654A463146F5
:1004B000204625604D46FFF7A7FE60B1012807D012
:1004C000ED1D25F0070000E007E000F1080978E7DE
:1004D00005F1040975E730467AE7206ABDE8F09F28
:1004E000AE28020010B5203AC0F00B80B1E81850D9
:1004F000203AA0E81850B1E81850A0E81850BFF40E
:10050000F5AF5FEA027C24BFB1E81850A0E81850AC
:1005100044BF18C918C0BDE810405FEA827C24BF00
:1005200051F8043B40F8043B08BF7047D20728BF8E
:1005300031F8023B48BF11F8012B28BF20F8023BDD
:1005400048BF00F8012B70474FF0000200B513467A
:1005500094469646203922BFA0E80C50A0E80C50E3
:10056000B1F12001BFF4F7AF090728BFA0E80C5094
:1005700048BF0CC05DF804EB890028BF40F8042B8D
:1005800008BF704748BF20F8022B11F0804F18BFFA
:1005900000F8012B704700004FF0013C50F8042B8D
:1005A00051F8043B9A4221D1A2EB0C03934313EA86
:1005B000CC1317D150F8042B51F8043B9A4215D1B3
:1005C000A2EB0C03934313EACC130BD150F8042B8A
:1005D00051F8043B9A4209D1A2EB0C03934313EA6E
:1005E000CC13DBD04FF00000704700BFD01A01BA27
:1005F000B1FA81F101F0180122FA01F0CB40C1F10A
:100600002001DBB2C0B2C01A2CFA01F3D11A914317
:1006100011EAC311E6D170477047704770477047C1
:100620002DE9F0470D4699469246044600F124080C
:100630000168880604D5E06921F01001216000E01E
:100640000120A84201DD471B00E00027A1697A19BB
:1006500002EB0900081AA0612078C00602D42046E7
:10066000FFF740FE002608E0D4E901211AF8060051
:100670009047206A401C761C20624E45F4DB2078AF
:10068000C0060AD52046FFF72DFE06E0D4E9012179
:1006900030209047206A401C2062381EA7F10107D5
:1006A000F4DC07E0D4E9012118F805009047206A3E
:1006B000401C2062281EA5F10105F3DC2046FFF74F
:1006C00027FE2078000602D50220BDE8F087012031
:1006D000FBE7000001694A1C02610878704700B519
:1006E0008FB0CDE901310021059105497944CDE96B
:1006F000031011466846FFF759FE0FB000BD000019
:10070000E5FFFFFF0A6802F8010B0A60704700006E
:10071000074B70B50D467B44FFF7E1FF04462846C2
:1007200000F008F810B14FF0FF3070BD204670BDEA
:1007300007200000007B00F080007047754600F045
:100740002BF8AE4605006946534620F00700854663
:1007500018B020B5FFF780FDBDE820404FF000063F
:100760004FF000074FF000084FF0000B21F0070199
:10077000AC46ACE8C009ACE8C009ACE8C009ACE8DC
:10078000C0098D46704710B50446AFF3008020467F
:10079000BDE81040FFF74CBD00487047280100201D
:1007A0002DE9F04104460D46164602F0E5F8A04654
:1007B000E11704EB11610912A02202EB4101C8B25A
:1007C00002F0A0F801F0FEFF0746012F04D102F06D
:1007D000FDF80120BDE8F081E0B202F093F801F0ED
:1007E000F1FF0746012F03D102F0F0F80220F1E7F4
:1007F00002F0C2F8A046E11704EB11610912A12230
:1008000002EB4101C8B202F07DF801F0DBFF0746C0
:10081000012F03D102F0DAF80120DBE70DE002F04E
:1008200005F83070681E85B21DB9012002F03AF853
:1008300004E0002002F036F8761CF0E700BF02F07A
:10084000C5F80020C6E72DE9F04106460D46904662
:100850001F4619E0F80096FBF0F100FB1160C0EBB9
:10086000C700C4B2AC4205DBE9B24246304600F0F4
:1008700010F80AE042462146304600F00AF83019E6
:1008800086B2281B85B2A044E4E700BF0020BDE883
:10089000F0812DE9F04104460D46164602F06CF851
:1008A000A046E11704EB11610912A02202EB4101FD
:1008B000C8B202F027F801F085FF0746012F04D1E6
:1008C00002F084F80120BDE8F081E0B202F01AF8ED
:1008D00001F078FF0746012F03D102F077F80220DC
:1008E000F1E710E0307802F00DF801F06BFF0746F9
:1008F000012F03D102F06AF80320E4E7681EC5B2B5
:1009000005B901E0761CEDE700BF02F05FF80520B5
:1009100002F04CFE0020D6E710B5FF240E48006917
:1009200000F0020068B90D48007850B100F018F8E6
:100930000446FF2C05D00020084908701D2002F055
:1009400053FF0548006900F0020010B1012003497F
:100950000870204610BD0000000002403400002056
:1009600010B501F06FFEA02001F034FE01F0A0FDF3
:1009700018B101F091FE012010BD00BF3B48006896
:1009800000F040000028F9D0082001F023FE01F01B
:100990008FFD18B101F080FE0220EDE700BF334863
:1009A000006800F040000028F9D001F04BFEA120C3
:1009B00001F010FE01F07CFD18B101F06DFE032086
:1009C000DAE700BF2948006800F040000028F9D0AD
:1009D00001F098FD0446002001F0CCFD01F092FDED
:1009E00044EA0024012001F0C5FD01F055FE402C31
:1009F0002AD00EDC082C29D006DC012C1AD0022CBF
:100A00001ED0042C2ED127E0102C29D0202C29D147
:100A100020E0B4F5007F21D005DC802C0ED0B4F5A9
:100A2000807F1FD114E0B4F5806F05D0B4F5006F5E
:100A300018D107E031209FE732209DE733209BE764
:100A4000342099E7352097E7362095E7372093E75C
:100A5000382091E739208FE72A208DE730208BE777
:100A6000232089E700BFFF2086E700001004024032
:100A700070B50446002601F0E5FDA02001F0AAFDB6
:100A800001F016FD18B101F007FE012070BD00BF96
:100A90001D48006800F040000028F9D0B02001F0A7
:100AA00099FD01F005FD18B101F0F6FD0220EDE71A
:100AB00000BF1548006800F040000028F9D001256B
:100AC0001BE0162D03D1F0B201F084FD05E0207883
:100AD00001F080FD20780644641C01F0E9FC18B1A7
:100AE00001F0DAFD0320D1E700BF0748006800F0FD
:100AF00040000028F9D0681CC5B2162DE1DD01F0D8
:100B0000CBFD0020C2E700001004024000B58DB00C
:100B1000182107A8FFF718FD18220BA101A8FFF75D
:100B2000E1FC01F0A5FC0E48006840F001000C4912
:100B300008600C48006820F00C000A49086001A811
:100B4000FFF796FF0DB000BD000083F3983F3F3FD5
:100B50003F3F3F3F3F3F3F3F3F3F3F3F7F00000022
:100B60003038024000000240014908607047000030
:100B7000143C0140F0B50A4600210023002400BFC8
:100B80003DE0012505FA01F3156805EA03049C42DE
:100B900034D105684F000326BE40B5430560157982
:100BA0004E00B5400668354305601579012D02D029
:100BB0001579022D16D185684F000326BE40B54336
:100BC000856055794E00B540866835438560456837
:100BD00001268E40B5434560456896798E40B6B291
:100BE00035434560C5684F000326BE40B543C56028
:100BF000D5794E00B540C6683543C560491C1029FB
:100C0000BFD3F0BDF0B5002300244D07ED0E02FA6E
:100C100005F3CE1000F1200555F826504E07F70ECB
:100C20000F26BE40B543CF1000F1200646F82750EE
:100C3000CE1000F1200555F8265045EA0304CE10E9
:100C400000F1200545F82640F0BD0246002013695A
:100C50000B400BB1012000E000207047418370473A
:100C6000018370471CB50121022000F06FFC45F2A2
:100C70000240009001208DF8040000208DF806004D
:100C80008DF8070069460648FFF774FF0221044803
:100C9000FFF7E4FF4FF480510148FFF7E1FF1CBD6F
:100CA0000004024070B506460C4615462A2002F0A4
:100CB00027FB304602F054FB304602F051FB2B205C
:100CC00002F01EFB204602F04BFB204602F048FBE0
:100CD0002C2002F015FB284602F042FB70BD2DE9E6
:100CE000F04707460C4615469946781B801E1FFAAA
:100CF00080F828E0601B801E86B21CE0A8EB07008D
:100D00004043311B321B01FB020105FB05F0814210
:100D10000FDBA8EB07004043311B321B01FB020134
:100D2000A81C4043814204DC4A4631464046FFF756
:100D3000B9FF701C86B26019801CB042DEDA08F17F
:100D400001001FFA80F87819801C4045D2DABDE80E
:100D5000F0872DE9FE4F06460F4615469A46DDE917
:100D60000C890E9C33E0287820281DDB28787F280A
:100D70001ADC04EBD4714910C1F1F001B14202DA7E
:100D80000026381987B2CDE9008902942A785346A3
:100D90003946304600F020F86D1C204604EBD07137
:100DA00006EB61018EB212E0C4F1F000B04202DA4B
:100DB0000026381987B253462A4639463046CDE9CF
:100DC0000089029400F06AF8AD1C301986B22878C8
:100DD0000028C8D1BDE8FE8F2DE9F04F95B08046C0
:100DE000894692469B46209C5046C7B2102C07D19C
:100DF000610301EB071010AA102102F025FE08E0A4
:100E0000202C06D1244901EB87106A46402102F0CC
:100E10001BFE00253BE0102C03D110A8405D149070
:100E20000AE0202C08D16800401C1DF800001DF8C5
:100E3000151040EA01201490002621E004EBD47143
:100E40004910491E8A1B01219140149A114049B151
:100E500009EB050291B208EB060290B25A46FFF781
:100E600021FF0BE01E98012808D109EB050291B281
:100E700008EB060290B21F9AFFF714FF701CC6B26F
:100E800004EBD471B6EB610FD8DB681CC5B2A54288
:100E9000C1DB15B0BDE8F08F060802002DE9F04F68
:100EA000A9B08046894692469B46349D00BF9AF879
:100EB0000100A1389AF80010A139C1EB011202EB30
:100EC000411100EB410087B2102D07D1314901EBF0
:100ED000471020AA202102F0B7FD08E0202D06D1FE
:100EE0002D4901EBC7106A46802102F0ADFD0024B8
:100EF0004AE0102D09D1012000EB440020A9085C34
:100F000011F8141040EA01202890202D17D11DF867
:100F100024000006012101EB84011DF8011040EAC4
:100F20000140022101EB84011DF8011040EA01207B
:100F3000032101EB84011DF80110084328900026CD
:100F40001EE0681E811B012088402899084048B196
:100F500009EB040291B208EB060290B25A46FFF781
:100F6000A1FE0BE03298012808D109EB040291B2EE
:100F700008EB060290B2339AFFF794FE701CC6B2DB
:100F8000AE42DEDB601CC4B2AC42B2DB29B0BDE8CD
:100F9000F08F00000C280200522606002DE9FF4FBA
:100FA00083B081468A469346BDE0002508E09BF861
:100FB00000006049495D884200D105E0681C85B2A7
:100FC0005C48405D0028F2D100BF5A48405D10B92E
:100FD00007B0BDE8F08F00249CE004EB4400400023
:100FE00005EBC50100EB41105349085C01020022EA
:100FF00004EB4400400005EBC50300EB4310401C2C
:101000004D4B185C1243014304EB4400400005EBD8
:10101000C50300EB4310801C474B1B5C00200006FF
:1010200040EA132042EA0362084304EB440149000A
:1010300005EBC50301EB4311C91C3F4B5B5C002171
:10104000090441EA13414FEA034C034642EA0C000B
:1010500043EA010204EB4401490005EBC50301EB3F
:101060004311091D344B5B5C0021090241EA136105
:101070004FEA032C134640EA0C0243EA010004EB5A
:101080004401490005EBC50301EB4311491D2A4BFF
:10109000595C42EA01078046002637E0C6F12F027C
:1010A00001210020CDE9010108460199FFF7E7F889
:1010B000384001EA0801002358405940084309D04C
:1010C0000AEB040291B209EB060290B2069AFFF70E
:1010D000E9FD19E01098012816D109EB06000AEB8A
:1010E0000401C1EB011100EB01111198083000EB74
:1010F00041030093009B1A880AEB040399B209EBA1
:10110000060398B2FFF7CEFD701C86B2302EC5DB09
:10111000601C84B2302CFFF660AF0BF1010B09F1BB
:1011200030001FFA80F99BF8000000287FF43DAFE3
:1011300000BF4DE7FE3B00080B3C00082DE9F047DF
:1011400007460E461446254604F108082A2002F0F8
:10115000D7F8384602F004F969883944491E88B244
:1011600002F0FEF82B2002F0CBF8304602F0F8F83F
:10117000A9883144491E88B202F0F2F82C2002F00E
:10118000BFF84FF0000907E0B8F8000002F0E8F8F7
:1011900008F1020809F101096888A988484348450F
:1011A000F2D8BDE8F087000010B500F0EBF8FFF7CB
:1011B00059FD02F093F8362002F0A2F8002002F068
:1011C000B7F83A2002F09CF8052002F0B1F8B220FE
:1011D00002F096F80C2002F0ABF80C2002F0A8F810
:1011E000002002F0A5F8332002F0A2F8332002F02C
:1011F0009FF8B72002F084F8352002F099F8BB2060
:1012000002F07EF8192002F093F8C02002F078F87E
:101210002C2002F08DF8C22002F072F8012002F0BA
:1012200087F8C32002F06CF8122002F081F8C42085
:1012300002F066F8202002F07BF8C62002F060F889
:101240000F2002F075F8D02002F05AF8A42002F026
:101250006FF8A12002F06CF8E02002F051F8D020E5
:1012600002F066F8042002F063F80D2002F060F846
:10127000112002F05DF8132002F05AF82B2002F042
:1012800057F83F2002F054F8542002F051F84C2057
:1012900002F04EF8182002F04BF80D2002F048F84A
:1012A0000B2002F045F81F2002F042F8232002F044
:1012B0003FF8E12002F024F8D02002F039F80420B1
:1012C00002F036F80C2002F033F8112002F030F86A
:1012D000132002F02DF82C2002F02AF83F2002F013
:1012E00027F8442002F024F8512002F021F82F20A2
:1012F00002F01EF81F2002F01BF81F2002F018F861
:10130000202002F015F8232002F012F8212001F02D
:10131000F7FF112001F0F4FF292001F0F1FF022175
:101320000148FFF79DFC10BD000402402DE9F04785
:1013300007460D4614469946381B1FFA80F81BE0F5
:10134000281B86B211E0A8EB07004043711B721BFB
:1013500001FB020104FB04F0814204DC4A463146F1
:101360004046FFF79FFC701C86B22819B042EADAAB
:1013700008F101001FFA80F838194045E0DABDE8AD
:10138000F08700001CB50121022000F0DFF84FF4C7
:101390002040009001208DF8040000208DF8060008
:1013A0008DF8070002208DF8050069460448FFF714
:1013B000E1FB4FF400510248FFF750FC1CBD000058
:1013C0000004024070B5044600251BE04FF40051B4
:1013D0000E48FFF743FC04F0800028B14FF40041B1
:1013E0000A48FFF73DFC04E04FF400410748FFF7CF
:1013F00035FC4FF400510548FFF732FC6006040E3F
:10140000681CC5B2082DE1DB70BD0000000402407D
:101410002DE9F05F06460D4614461F46DDF82C9078
:101420004FF0000AC5EB051006EB00110C980830D0
:1014300000EB41082A2001F063FF304601F090FFE5
:101440003119491E88B201F08BFF2B2001F058FFA3
:10145000284601F085FFE919491E88B201F080FF96
:101460002C2001F04DFFD3461DE0B9F1000F03D150
:101470000A9801F075FF14E0B9F1010F11D1B8F825
:10148000000001F06DFF08F102080AF101001FFAE7
:1014900080FAA24505D1C4F1F00008EB40084FF0F6
:1014A000000A0BF1010B04FB07F05845DDD8BDE83D
:1014B000F09F000070B5002100230F22C4781CB3F8
:1014C000174C246804F4E064C4F5E064C4F3072115
:1014D000C1F10404E3B20A4144789C40E1B284784B
:1014E000144021430C07210E0E4C057861550478F9
:1014F00004F01F050124AC4005786D11AD0005F125
:10150000E025C5F8004109E0047804F01F05012436
:10151000AC40054D0678761145F8264070BD0000B8
:101520000CED00E000E400E080E100E0024901434E
:10153000024A1160704700000000FA050CED00E05F
:10154000014908627047000000000E4229B1064AB6
:1015500012680243044B1A6004E0034A1268824393
:10156000014B1A60704700003038024029B1064A2A
:1015700012680243044B1A6004E0034A1268824373
:10158000014B1A60704700004038024029B1064AFA
:1015900012680243044B1A6004E0034A1268824353
:1015A000014B1A607047000044380240F0B500213A
:1015B00000220024022500260223324F3F6807F054
:1015C0000C0121B1042905D0082937D105E02E4F9F
:1015D000076036E02D4F076033E02A4F3F1F3F681A
:1015E000C7F38056274F3F1F3F6807F03F036EB198
:1015F000264FB7FBF3F7DFF88CC0ACF1040CDCF836
:1016000000C0CCF3881C07FB0CF40CE01E4FB7FBAA
:10161000F3F7DFF870C0ACF1040CDCF800C0CCF3D9
:10162000881C07FB0CF4174F3F1F3F68C7F30147A7
:101630007F1C7D00B4FBF5F7076002E0124F0760E6
:1016400000BF00BF0F4F3F6807F0F0010909104FBE
:101650007A5C0768D74047600A4F3F6807F4E0515B
:10166000890A0B4F7A5C4768D7408760054F3F680F
:1016700007F46041490B064F7A5C4768D740C76062
:10168000F0BD0000083802400024F40040787D01DD
:101690008100002010B501460022002300204A11DD
:1016A000012A02D10A4C236808E0022A03D1084C1F
:1016B0007034236802E0064C7434236801F01F0282
:1016C000012494401C400CB1012000E0002010BD1A
:1016D000003802400149086070470000800E474210
:1016E00001490860704700003C0E4742002100F4A9
:1016F0004072B2F5407F08D1094A116821F4F8110F
:10170000084A02401143064A1160054A68321268CD
:10171000C0F30B031A43024B68331A607047000092
:1017200008380240FFFCFF0F10B54FF4805000F066
:101730009FF818B14FF4805000F01EF84FF40030BD
:10174000FFF712FA10BD014600BF080900EB800048
:10175000420001F00F001044C0B270470146002261
:1017600004E0501CC2B2A1F10A00C1B20A29F8DAA1
:10177000100741EA10607047002101098AB242F067
:101780008002044B1B6803F0800363EA0202014BF2
:101790001A6070470C28004008B500220092002013
:1017A0000021104A126802F04002CAB9421E0D4BD5
:1017B0001A6000BF0B4A126802F04001009A521CE6
:1017C0000092009AB2F5803F01D00029F2D0054A7C
:1017D000126802F040020AB1012002E0002000E09D
:1017E000012008BD0C2800400348006820F080005C
:1017F00001490860704700000C28004070B506469B
:101800000C4600250E4800680E4900EA0105280C28
:10181000E070C5F30420607005F03F00A070C5F3D0
:10182000423020705EB9E078FFF78DFFE07060789D
:10183000FFF789FF6070A078FFF785FFA07070BD8B
:10184000042800403FFFFF0010B5014600200022A1
:10185000054B1B68054C03EA040202EA01030BB1C5
:10186000012000E0002010BD0C2800407F3F010057
:1018700030B501460020002200230C4C246804F0FF
:1018800004020A4C383C24680C4002EAD13544EA90
:101890000503064C343C246804EA11121BB194B2CF
:1018A0000CB1012000E0002030BD000040280040C5
:1018B00070B506460C4600250F4800680F4900EA3F
:1018C0000105C5F305402070C5F30620607005F0E2
:1018D0007F00A07005F48000000CE0705EB92078F5
:1018E000FFF731FF20706078FFF72DFF6070A07860
:1018F000FFF729FFA07070BD002800407F7F7F00A8
:1019000030B504460025CA201549086053200860F8
:10191000FFF742FF00B91DE011481C38006820F0B5
:1019200040000F491C3908600846006821680843D8
:101930000B491C3908600A491439A0680860084638
:101940000068A18840EA0140054914390860FFF7A2
:101950004BFF0125FF2002490860284630BD0000EA
:10196000242800402DE9F04105460C4600260027BA
:101970004DB9607800F01000102804D1607820F094
:1019800010000A30607005B908E06078FFF7DBFEF0
:101990000646A078FFF7D7FE064600BF55B1E078AF
:1019A0000004617840EA0120A1780843217840EAE8
:1019B000413611E0E078FFF7D1FE4FEA0048607849
:1019C000FFF7CCFE48EA0028A078FFF7C7FE48EAF8
:1019D0000008207848EA4036CA201249086053209F
:1019E0000860FFF7D9FE08B9002714E00E48304020
:1019F0000C4920390860FFF7F7FE0A481C380068D8
:101A000000F0200030B900F085F808B9002702E0A6
:101A1000012700E00127FF20024908603846BDE8A1
:101A2000F0810000242800403FFFFF002DE9F04135
:101A300005460C46002600274DB92E48006800F0E8
:101A4000400000B102E00020E07000BF0DE0294836
:101A5000006800F0400020B12078FFF774FE0646D1
:101A600002E00020E07000BF00BF55B12078000404
:101A7000617840EA0120A1780843E17840EA014614
:101A800011E02078FFF76AFE4FEA00486078FFF720
:101A900065FE48EA0028A078FFF760FE48EA0008E3
:101AA000E07848EA0046CA2012491C3108605320F9
:101AB0000860FFF771FE08B9002713E00E483040B8
:101AC0000C4908390860FFF78FFE0A48006800F0EB
:101AD000200030B900F01EF808B9002702E0012705
:101AE00000E00127FF2003491C3108603846BDE8AB
:101AF000F0810000082800407F7F7F0010B54FF480
:101B00008040FFF7B5FE18B14FF48040FFF734FE78
:101B100010BD000008B50022009200200021CA225A
:101B2000134B1A6053221A60114A183A126822F0B5
:101B3000A0020F4B183B1A6000BF0D4A183A1268FA
:101B400002F02001009A521C0092009AB2F5003F68
:101B500001D00029F1D0064A183A126802F020029A
:101B60000AB1012000E00020FF22014B1A6008BDED
:101B70002428004018B1FF21044A116004E0CA2162
:101B8000024A116053211160704700002428004070
:101B900021B1028842F04002028004E002884FF640
:101BA000BF731A40028070470246002013890B4021
:101BB0000BB1012000E00020704701468889704782
:101BC0008181704710B50022028802F441520B88CF
:101BD0004C8823438C882343CC8823430C8923439C
:101BE0004C8923438C892343CC8923431A430280A5
:101BF000838B4FF2FF74234083830B8A038210BDD3
:101C00000CB50020019000903348006840F480300B
:101C10003149086000BF3048006800F4003000908F
:101C20000198401C0190009818B90198B0F5A04F98
:101C3000F1D12948006800F4003010B10120009073
:101C400001E0002000900098012844D12248403053
:101C5000006840F080502049403108601F4800680B
:101C600040F440401D4908601B48083000681A498C
:101C7000083108600846006808600846006840F4BB
:101C8000805008601648091F0860081F006840F06F
:101C90008070091F086000BF0F48006800F00070E6
:101CA0000028F9D040F202700E4908600A48083056
:101CB000006820F003000849083108600846006801
:101CC00040F00200086000BF03480830006800F0E0
:101CD0000C000828F8D10CBD00380240007000400C
:101CE00019544107003C024010B51548006840F403
:101CF0007000134908601348006840F00100114962
:101D0000086000200F49083108600E4800680E493D
:101D100008400C4908600D48091D0860081F00684C
:101D200020F48020091F0860002006490C3108605B
:101D3000FFF766FF4FF0006001498039086010BD71
:101D400088ED00E000380240FFFFF6FE103000246E
:101D500010B501211E4800F05EF8012836D101219E
:101D60001B4800F040F81B480088401E19490880B5
:101D700008464088401C488008468088401C88806F
:101D800008464088022821DB00204880124800785D
:101D900001280DD111480068401C10490860084610
:101DA0000068B0F57A7F11D300200B4908700DE070
:101DB0000948007850B909480068401E0749086082
:101DC0000846006810B901200349087010BD0000E2
:101DD00000400140000100201800002040080040A1
:101DE000CA4302827047CA430282704721B1028807
:101DF00042F00102028004E002884FF6FE731A40AE
:101E00000280704702460020138A0B400BB101206C
:101E100000E00020704730B5024600200023002477
:101E2000158A05EA0103958905EA010413B10CB18D
:101E3000012000E0002030BD1AB183890B4383816B
:101E400002E083898B4383817047000070B50024D2
:101E500000220023058C4FF6FE7635400584028C67
:101E60008388048B4FF68F752C40B51E2C400D884F
:101E70002C43751E2A408D892A434D882A43104DD4
:101E8000A84202D00F4DA84213D14FF6F7752A4051
:101E9000CD892A434FF6FB752A408D882A434FF699
:101EA000FF652B404FF6FF552B400D8A2B434D8A83
:101EB0002B43838004838D684563028470BD0000DA
:101EC000000001400004014070B5002400220023FE
:101ED000058C4FF6EF7635400584028C8388048BA1
:101EE00048F6FF752C404FF6FF452C400D884FF605
:101EF000FF7606EA05252C434FF6DF752A408D89CB
:101F000006EA05152A434D8806EA05152A43154DAC
:101F1000A84202D0144DA8421DD14FF67F752A4029
:101F2000CD894FF6FF7606EA05152A434FF6BF75B1
:101F30002A408D8806EA05152A434FF6FF352B40C7
:101F40004FF2FF752B400D8A06EA85052B434D8A1B
:101F500006EA85052B43838004838D6885630284AC
:101F600070BD0000000001400004014070B5002277
:101F700000230024058C4EF6FF7635400584038C43
:101F80008488828B48F6FF752A404FF6FF452A4029
:101F90000D884FF6FF7606EA05252A434DF6FF75B4
:101FA0002B408D8906EA05352B434D8806EA053519
:101FB0002B430A4DA84202D0094DA84208D14BF646
:101FC000FF752C400D8A4FF6FF7606EA85152C43E7
:101FD000848082838D680564038470BD00000140A5
:101FE0000004014000220288184B98420ED0184B82
:101FF00098420BD0B0F1804F08D0164B984205D0D4
:10200000154B984202D0154B984204D14FF68F736E
:102010001A404B881A43124B984207D0114B9842F2
:1020200004D04FF6FF431A400B891A4302804B68D5
:10203000C3620B880385054B984202D0044B98423B
:1020400001D18B7A0386012383827047000001400F
:10205000000401400004004000080040000C004063
:1020600000100040001400404FF0FF31416000219B
:1020700001800181418081727047000008B540F203
:102080002551354800F0A1F8002850D040F22551E4
:10209000314800F07FF83148007801283BD12E48C4
:1020A00000F04CF9C0B200906A4601212C4800684B
:1020B00001F090FC4FF480712A48FEF7CFFD2848CC
:1020C0000068401C2649086027480068401E2649D1
:1020D000086008460068002829D124A0FEF7E2F82D
:1020E0004FF480711F48FEF7BBFD00201B490870AC
:1020F00045F255502549086000BF2448C06800F0EB
:1021000002000028F9D1FA20204988604AF6AA2066
:10211000086000BFFEE7104800F010F9C1B21C488B
:10212000426E406E401C1A4B58661846815440F26D
:102130002441094800F049F868B10748008806487A
:10214000808800201249496E114A50541146486651
:10215000012081F8680008BD001001400000002047
:10216000100000200004024014000020D7D6BFE277
:10217000C9D5C2BCCDEAB3C92C3173BAF3D7D4B632
:10218000AFB8B4CEBBC9E8B1B80D0A00003000400A
:102190009400002010B50022002340F66A14A142EA
:1021A00000D100BF0A1201249440A3B2DC43048092
:1021B00010BD21B1828942F40052828104E08289FB
:1021C0004DF6FF731A408281704770B502460024B5
:1021D00000230025002040F66A16B14200D100BF5E
:1021E000C1F3421501F01F03012606FA03F3012D86
:1021F00002D19689334006E0022D02D1168A33407F
:1022000001E0968A33400C12012606FA04F416887F
:10221000344013B10CB1012000E0002070BDF0B5D6
:102220000346002400260025002040F66A17B94224
:1022300000D100BF1846C1F3421401F01F06012768
:1022400007FA06F5012C01D10C3004E0022C01D173
:10225000103000E014301AB107682F43076002E025
:102260000768AF430760F0BD2DE9FF4705460E46FE
:102270000024A14600BFA046B08900B100BF2C8A4F
:1022800024F44054F08804432C82AC8941F20C6061
:102290008443B08831890843718908430443AC8181
:1022A000AC8A24F44074B0890443AC826846FFF7DA
:1022B0007DF92048854202D01F48854202D1DDF8D1
:1022C0000C9001E0DDF80890A88900F4004040B1CE
:1022D00009EBC90000EB091031684900B0FBF1F7C8
:1022E00007E009EBC90000EB091031688900B0FB79
:1022F000F1F76420B7FBF0F004012009642101FB31
:102300001078A88900F4004040B1322000EBC800EA
:10231000B0FBF1F000F00700044308E0322000EBCE
:1023200008106421B0FBF1F000F00F0004432C8191
:10233000BDE8FF8700100140001401400146888875
:10234000C0F30800704730380A2801D201207047D6
:102350000020704700BF704700B500F0EFF900BDE6
:102360002DE9F04104460E4600F006FB2746E11732
:1023700004EB11610912A02202EB4101C8B200F086
:10238000C1FA00F01FFA0546012D04D100F01EFB32
:102390000120BDE8F081E0B200F0B4FA00F012FADA
:1023A0000546012D03D100F011FB0220F1E700F0FA
:1023B000E3FA2746E11704EB11610912A12202EBAF
:1023C0004101C8B200F09EFA00F0FCF90546012D6B
:1023D00003D100F0FBFA0120DBE700F027FA3070B0
:1023E000012000F05FFA00F0F1FA0020D1E72DE9BA
:1023F000F04104460F4600F0BFFA2646E11704EB11
:1024000011610912A02202EB4101C8B200F07AFA70
:1024100000F0D8F90546012D04D100F0D7FA0120CB
:10242000BDE8F0812646E11704EB11610912A4EB27
:102430000121C8B200F066FA00F0C4F90546012D8A
:1024400003D100F0C3FA0220EAE7384600F05AFA56
:1024500000F0B8F90546012D03D100F0B7FA0320CA
:10246000DEE700F0B3FA052001F0A0F80020D7E77E
:102470001CB501210220FFF769F801208DF8040046
:102480008DF80600C020009000208DF807008DF820
:10249000050069460548FEF76DFB40210348FEF73D
:1024A000DFFB80210148FEF7DBFB1CBD000402407E
:1024B00010B500241248006820F040001049086060
:1024C0000846006840F0800008600846006820F078
:1024D00040000860052001F0A5F80948006840F0B8
:1024E000400007490860052001F09CF80448001FDF
:1024F000006800F0800000B900E00124204610BD13
:102500001404024070B51A48006820F040001849D1
:1025100008600846006840F08000086000251DE063
:102520001348006820F0400011490860052001F0C0
:1025300079F80F48006840F040000D490860052018
:1025400001F070F86006040E0948001F006800F0F2
:10255000800008B144F00104681CC5B2082DDFDB1F
:102560000348006820F0400001490860204670BD23
:102570001404024010B504461548006820F04000DD
:1025800013490860032001F04DF834B91048006881
:1025900020F080000E49086007E0012C05D10C48AE
:1025A000006840F080000A490860022001F03AF813
:1025B0000748006840F0400005490860052001F028
:1025C00031F80348006820F040000149086010BD60
:1025D0001404024070B50446002528E0184800683D
:1025E00020F0400016490860032001F01BF804F0B9
:1025F000800030B11248006840F080001049086047
:1026000005E00F48006820F080000D4908600220B6
:1026100001F008F80A48006840F0400008490860E6
:10262000052000F0FFFF6006040E681CC5B2082DEF
:10263000D4DB0348006820F040000149086070BD09
:102640001404024010B51348006820F040001149FE
:102650000860052000F0E6FF0E48006840F08000AA
:102660000C4908600846006840F0400008600520FA
:1026700000F0D8FF0748006820F080000549086096
:10268000052000F0CFFF0348006820F0400001491A
:10269000086010BD1404024010B50E48006820F018
:1026A00040000C4908600846006820F0800008607F
:1026B0000846006840F040000860052000F0B2FFC6
:1026C0000448006840F0800002490860052000F0DE
:1026D000A9FF10BD1404024010B5054800F0D2FA5D
:1026E0004FF4967000F062FF002000F0CBFA10BDAE
:1026F00018FCFFFF10B500F04DFE00F0A5FEFFF73F
:10270000EBFF10BD10B54FF47A7000F0BBFA4FF438
:10271000967000F04BFF002000F0B4FA10BD0000EE
:1027200000BF054A128802F04002002AF9D0C2B266
:10273000014B9A8070470000001001401E4800685D
:1027400040F001001C4908600846006840F00400A1
:1027500008601A48006820F44030184908600846AC
:10276000006840F4803008601548006820F440207C
:10277000134908600846006840F4802008600F484C
:10278000406820F480700D4948600D48001D0068C5
:1027900040F400700A49091D08600848406940F487
:1027A00080700649486106481430006840F40070A3
:1027B000034914310860704730380240000002407D
:1027C0000008024010B51748406920F48070154990
:1027D00048611548006840F40070134908601148CA
:1027E000406920F480700F494861052000F01AFF0D
:1027F0000C48406940F480700A494861052000F0A7
:1028000011FF0948001F006800F4007008B101249E
:1028100000E000240348406920F4807001494861C9
:10282000204610BD000002401408024070B51B484D
:10283000406920F48070194948611948006840F4E3
:1028400000701749086000251DE01448406920F415
:10285000807012494861052000F0E4FE0F4840698D
:1028600040F480700D494861052000F0DBFE6006F1
:10287000040E0B48001F006800F4007008B144F01B
:102880000104681CC5B2082DDFDB0448406920F450
:10289000807002494861204670BD0000000002407F
:1028A0001408024010B504461448406920F48070B2
:1028B00012494861032000F0B5FE34B110480068A9
:1028C00040F400700E49086005E00D48006820F4EF
:1028D00000700B490860022000F0A4FE0748406920
:1028E00040F4807005494861052000F09BFE0348D4
:1028F000406920F480700149486110BD0000024029
:102900001408024070B50446002528E018484069C4
:1029100020F4807016494861032000F083FE04F023
:10292000800030B11348006840F40070114908601D
:1029300005E01048006820F400700E49086002208D
:1029400000F070FE0A48406940F480700849486110
:10295000052000F067FE6006040E681CC5B2082D55
:10296000D4DB0348406920F480700149486170BDA0
:10297000000002401408024010B51248406920F4DB
:102980008070104948611048006840F400700E499A
:1029900008600C48406940F480700A49486105208D
:1029A00000F040FE0848006820F400700649086006
:1029B000052000F037FE0348406920F4807001498B
:1029C000486110BD000002401408024010B50F48D5
:1029D000406920F480700D4948610D48006820F47A
:1029E00000700B4908600948406940F4807007494D
:1029F0004861052000F016FE0548006840F40070AC
:102A000003490860052000F00DFE10BD00000240E3
:102A1000140802404AF6AA200149086070470000E5
:102A20000030004010B51048006840F001000E4929
:102A3000086000BF0C48006800F002000028F9D0D0
:102A400045F25550094908600520486040F6C41019
:102A500088604AF6AA2008604CF6CC40086004A0C2
:102A6000FDF720FC10BD000074380240003000402B
:102A7000BFB4C3C5B9B7C6F4B6AF0D0A00000000B5
:102A80001CB501210846FEF761FD01210420FEF777
:102A90005DFD0020009001908DF804000120009061
:102AA00000208DF8070069460548FEF763F84FF4EB
:102AB0000050009069460348FEF75CF81CBD00001A
:102AC000000002400008024010B500240121204807
:102AD000FEF7BBF878B11F48007860B1142000F011
:102AE00065FD01211A48FEF7B0F8D0B1012400209D
:102AF0001849087015E04FF400511748FEF7A5F883
:102B000078B91448007860B1142000F04FFD4FF4FC
:102B100000511148FEF799F818B9022400200D4918
:102B2000087001210A48FEF790F878B94FF4005177
:102B30000948FEF78AF808B9012000E0002028B90A
:102B4000142000F033FD012002490870204610BD1A
:102B5000000002400C000020000802401CB50121CA
:102B60000220FEF7F3FC00200090019001208DF878
:102B7000040000208DF806004FF440700090002003
:102B80008DF807008DF8050069460448FDF7F2FF4F
:102B90004FF440710148FEF763F81CBD0004024089
:102BA0004FF4A060FEF7C2FCFFF7D8FFFFF768FF05
:102BB0004FF4E13000F0B2FD00F0EAFEFFF7CCFB8D
:102BC00000F09AFCFEF7F0FA00F052FEFDF79EFFCF
:102BD000FFF728FFFFF78EFD00F090FA012000F0CC
:102BE0005BFD00F0DBFF0FE0FFF714FFFDF794FE45
:102BF0000649087006480088012804D10846007874
:102C000000F008F800BF00BFEEE700000100002060
:102C1000020000201CB50446204600F051F811487F
:102C200080884EF6602188421BDB00200D49888099
:102C30000D49FEF73DFE0D490020FEF7DFFD0A4875
:102C4000437802780AA10D48FDF738FB0C480121B2
:102C50004CF21863094ACDE900103A210020FEF732
:102C60009DF91CBD00010020040000200800002088
:102C7000253032643A25303264000000140100200F
:102C8000666A000830B900214FF0804291630B4A18
:102C9000116011E0002806DD4FF0804188630021BB
:102CA000064A116008E0002806DA00214FF0804251
:102CB00091634142014A11607047000034040040B2
:102CC000FEB50446B7480078002843D0B6490A202C
:102CD000FFF746FBB54A00210846FEF72FFA2D20E4
:102CE000B349087000260FE04CF218630822B1487F
:102CF0000178AF480078FDF7F2FFAD4800781E304C
:102D0000AB490870701CC6B2062EEDDB0020A54949
:102D100008702D20A64908704EF66020A6498880CC
:102D2000A24801214CF21863A4A2CDE90010782139
:102D30006020FEF733F94FF4FA7000F037FC9B483F
:102D400001214FF6E0739DA2CDE9001078216020AB
:102D5000FEF724F994480078FF287DD09848007841
:102D6000012812D110204FF4784100220B46CDE902
:102D70000021029093A282214620FDF7EAFF0D2058
:102D800000F032FD00208E4908702A2C68D0232CD8
:102D9000FCD0FF2CFAD08F480078062861DA8E48E4
:102DA0008C49097844548B480078401C8949087044
:102DB0004CF2186308227F4801787D480078FEF7BE
:102DC000B5FA7B4800781E30794908708148007850
:102DD000062845D1754801214FF6FF721023CDE931
:102DE00000210290A622C0212520FEF711FB2D20F4
:102DF0006F49087000260FE04CF2186308226D48F6
:102E000001786B480078FDF76AFF694800781E304A
:102E100067490870701CC6B2062EEDDB63480121BD
:102E20004FF6FF721023CDE9002102906422822127
:102E30004620FEF7EDFA10204FF4784100220B46B1
:102E4000CDE90021029065A282214620FDF781FF95
:102E50000E2000F0C9FC00E04CE02D205449087021
:102E60009EE05C4800780628FADB5A480078801F0C
:102E70005F490C5457480078401C564908704CF282
:102E8000186308224B48017849480078FEF74EFA4B
:102E9000474800781E30464908704E4800780C2894
:102EA0007ED153494C48FDF777FBB0B90223504A15
:102EB00007210B20FDF7C7FCFF210A20FFF797FA37
:102EC00001203849087000204249087001203C491F
:102ED0000870112000F088FC62E001203849087079
:102EE00000203C49087001202E490870102000F095
:102EF0007BFC55E032480078012805D10C2000F019
:102F000073FC00202E4908702A2C49D0232C47D06E
:102F1000FF2C45D02F480078062841DA2E482D494D
:102F2000097844542B480078401C2A4908704CF218
:102F3000186308221F4801781D480078FEF7F6F94B
:102F40001B4800781E301A4908702248007806286D
:102F500026D1274A07210B20FDF722FC24491E48D1
:102F6000FDF71AFB78B9182000F03EFCFFF7CAFB0A
:102F700001200C49087000201649087001201049F2
:102F8000087001250CE00120064908700020114955
:102F90000870192000F028FC01200949087000255C
:102FA000FEBD00002100002020000020666A00080D
:102FB0002200002023000020000100205A00000011
:102FC00024000020C7EBC9E8D6C3D0C2C3DCC2EBE3
:102FD000000000003300002025000020C7EBD4D9FA
:102FE000B4CECAE4C8EBD0C2C3DCC2EB0000000020
:102FF0002C00002010B510210748FDF72FFE0520FA
:1030000000F076FCFF2000F073FC0446102102481B
:10301000FDF726FE204610BD0000024038B53348BB
:103020004078303831490978303901EB810100EBC3
:1030300041002F4908712D48007930382B49C97853
:10304000303901EB810100EB4100294948712748E3
:10305000C079303825498979303901EB810100EB9D
:1030600041002349887123480079302803DB214837
:103070000079392802DD30201E4908711D48807A08
:1030800030381C49497A303901EB810100EB4100AD
:10309000174908701748407930381649097930398E
:1030A00001EB810100EB410011498870002405E02B
:1030B0001048005D0DF80400601CC4B2032CF7DB5F
:1030C00000208DF80300002409E00B4800EB840188
:1030D0006846FDF761FA00B903E0601CC4B20C2C2D
:1030E000F3DB00BF601C0249487038BD3C00002083
:1030F00035000020450000205100002000B585B0BB
:1031000001210807FEF732FA0120FEF719FA012023
:10311000FEF7E0FA00BF6120FEF7BCFA0028FAD003
:103120004FF40070FEF7E2FA0120FEF7D9FA002012
:10313000FEF720FDFEF730FB00BF4020FEF784FBCA
:103140000028FAD0002002900390049002907F2083
:103150000390F920049002A8FEF7D2FBFFF75EFF70
:1031600000F04CF80D480068FF280FD00C480168AB
:1031700000918188ADF8041080798DF80600DDE9B2
:10318000000100F00FF8FF2004490860FEF72CFB57
:103190000120FEF7EFFC05B000BD00005028004004
:1031A0003500002003B583B0002002909DF8100088
:1031B0008DF808009DF811008DF809009DF81200A7
:1031C0008DF80A0002A90020FEF730FC00200190D3
:1031D0009DF80F008DF804009DF80C008DF8070095
:1031E0009DF80D008DF805009DF80E008DF8060085
:1031F00001A90020FEF7B6FB05B000BD3FB532A522
:103200003CCD8DE83C0000214FF4FD6015E000F05E
:1032100003022AB96422B0FBF2F302FB130232B9B3
:103220004FF4C872B0FBF2F302FB130212B901F5BE
:10323000B77101E001F26D11401C274A127802F5C6
:10324000FA628242E3D8244B1B7803F5FA62D31763
:1032500002EB93739B10A2EB83034BB91E4B1B78BD
:1032600003F5FA63642493FBF4F504FB153353B9B7
:10327000194B1B7803F5FA634FF4C87493FBF4F50C
:1032800004FB15332BB99DF80220521CD2B28DF8E5
:103290000220002003E01DF800201144401C0E4ACB
:1032A00052788242F7D80C4A927811440722B1FB37
:1032B000F2F302FB1312084BDA701A46D2780AB9FD
:1032C0000722DA703FBD0000001F1C1F1E1F1E1FBB
:1032D0001F1E1F1E1F0000003500002010B54FF4F8
:1032E00080610648FDF7BAFC642000F05FF94FF4F6
:1032F00080610248FDF7B4FC10BD000000040240EC
:1033000010B504464FF480510848FDF7A7FC4FF470
:1033100080410648FDF7A2FC2046FEF753F84FF423
:1033200080510248FDF79CFC10BD000000040240E3
:1033300010B504464FF480510848FDF78FFC4FF458
:1033400080410648FDF78CFC2046FEF73BF84FF421
:1033500080510248FDF784FC10BD000000040240CB
:1033600010B504464FF480510948FDF777FC4FF43F
:1033700080410748FDF774FC2012FEF723F8E0B205
:10338000FEF720F84FF480510148FDF769FC10BDAD
:103390000004024000B58BB001210220FEF7D6F8F0
:1033A000002009900A9002208DF8280000208DF856
:1033B0002A000820099000208DF82B008DF82900A4
:1033C00009A92048FDF7D6FB012203211D48FDF77E
:1033D00019FC01210846FEF7C9F800214FF0804092
:1033E000FEF704FD002006900790089006A8FEF75F
:1033F0003BFE5320ADF8180040F2E7300790002064
:10340000ADF81A0006A94FF08040FEF7EBFD14213D
:1034100001A8FDF799F86020ADF804000020ADF890
:1034200010000120ADF806000020039001A94FF024
:103430008040FEF749FD01218807FEF7D7FC0BB05D
:1034400000BD00000004024000B58BB00121022045
:10345000FEF77CF8002009900A9002208DF82800E1
:1034600000208DF82A001020099000208DF82B00F4
:103470008DF8290009A91E48FDF77CFB02220421D2
:103480001B48FDF7BFFB01210220FEF76FF800216A
:103490001848FEF7ABFC002006900790089006A89D
:1034A000FEF7E2FD5320ADF8180040F2E730079038
:1034B0000020ADF81A0006A90E48FEF793FD14216E
:1034C00001A8FDF741F86020ADF804000020ADF838
:1034D00010000120ADF806000020039001A9054866
:1034E000FEF7B4FC01210348FEF780FC0BB000BDE1
:1034F000000402400004004000B58BB0012102200E
:10350000FEF724F8002009900A9002208DF8280088
:1035100000208DF82A004FF40070099000208DF8EB
:103520002B008DF8290009A91E48FDF723FB022274
:1035300009211C48FDF766FB01210420FEF716F85F
:1035400000211948FEF752FC0020069007900890D1
:1035500006A8FEF789FD5320ADF8180040F2E730C9
:1035600007900020ADF81A0006A90F48FEF73AFDB3
:10357000142101A8FCF7E8FF6020ADF8040000204A
:10358000ADF810000120ADF806000020039001A95D
:103590000548FEF7EBFC01210348FEF727FC0BB0C2
:1035A00000BD000000040240000800403EB5044693
:1035B00001210820FDF7DAFF00211948FEF716FC6B
:1035C00000200090019002906846FEF74DFD42F207
:1035D000CF00ADF8000004EB84000121C1EB4000F6
:1035E00001900020ADF8020069460D48FEF7FAFC94
:1035F00001210B48FEF7F4FB01210948FEF7F6FB19
:1036000000BF01210648FEF7FDFB0028F9D001218B
:103610000348FEF7E5FB00210148FEF7E7FB3EBD4E
:10362000000C00403EB5044601210820FDF79EFF36
:1036300000211848FEF7DAFB00200090019002906C
:103640006846FEF711FD2920ADF800000120C0EB0F
:10365000440001900020ADF8020069460D48FEF7D5
:10366000C1FC01210B48FEF7BBFB01210948FEF715
:10367000BDFB00BF01210748FEF7C4FB0028F9D0BD
:1036800001210448FEF7ACFB00210248FEF7AEFB27
:103690003EBD0000000C00401FB504460121080497
:1036A000FDF774FF00211C48FEF7A0FB00200190ED
:1036B0000290039001A8FEF7D7FC42F2CF00ADF8CC
:1036C000040004EB84000121C1EB400002900020C3
:1036D000ADF8060001A91048FEF784FC01210E4850
:1036E000FEF781FB0020009018208DF800000020DC
:1036F0008DF801008DF8020001208DF80300684666
:10370000FDF7D8FE012211460348FEF795FB012183
:103710000148FEF76BFB1FBD0040014010B588B0AB
:10372000044601210846FDF711FF072209212C4814
:10373000FDF768FA07220A212948FDF763FA0020FD
:103740000690079002208DF81C0000208DF81E00C6
:103750008DF81F0002208DF81D004FF4C060069008
:1037600006A91F48FDF706FA01211020FDF70EFFFC
:10377000002002900390049005900294ADF8100090
:10378000ADF80E00ADF80C000C20ADF812000020D2
:10379000ADF8140002A91348FEF766FD0020019061
:1037A00025208DF8040001208DF805008DF8060015
:1037B0008DF8070001A8FDF77DFE012240F225519A
:1037C0000848FEF72CFD012240F224410548FEF78F
:1037D00026FD01210348FEF7ECFC08B010BD0000F7
:1037E000000002400010014070B5044600BF1021E7
:1037F0000B48FDF72AFA0028F9D100F013F800254C
:103800000BE004F0800010B100F01EF801E000F0C1
:103810005BF86006040E681CC5B2082DF1DB70BDB4
:103820000008024010B520210648FDF719FA0820CB
:10383000FFF7BCFE20210348FDF710FA0120FFF737
:10384000B5FE10BD0008024010B520210748FDF765
:1038500007FA40F2DC50FFF7E5FE20210348FDF7B0
:10386000FDF94FF4FA70FFF7DDFE10BD00080240CD
:103870001CB500200090019001210420FDF766FE98
:1038800001208DF8040000208DF806002020009013
:1038900000208DF807008DF8050069460948FDF7FE
:1038A00069F900208DF80400102000906946054851
:1038B000FDF760F920210348FDF7D0F96420FFF7F8
:1038C00075FE1CBD0008024010B520210748FDF719
:1038D000C7F94FF4FA70FFF7A5FE20210348FDF762
:1038E000BDF940F2DC50FFF79DFE10BD000802401C
:1038F00070B50446002500BF02210B48FEF754F9BD
:103900000028F9D021460848FEF75AF900BF0121E6
:103910000548FEF749F90028F9D00348FEF74DF9AC
:10392000C5B2284670BD00000030014010B5044605
:1039300000F008F910210E48FDF790F9D820FFF7A4
:10394000D7FFC4F30740FFF7D3FFC4F30720FFF707
:10395000CFFFE0B2FFF7CCFF10210548FDF780F95B
:1039600000BFFFF747FB00F001000028F9D110BDB0
:103970000000024070B505460C4606E02846FFF7F9
:10398000D5FF05F58035601EC4B2002CF6D170BDA0
:103990001CB500F081F801210846FDF7D7FD012094
:1039A0008DF8040000208DF8060010200090002003
:1039B0008DF8070002208DF8050069460448FDF7E0
:1039C000D9F810210248FDF74BF900F0CBF81CBDE7
:1039D0000000024070B504460D461646210A6019E3
:1039E000401EB1EB102F01D0002070BD00F0AAF8EE
:1039F00010211448FDF732F90220FFF779FFC4F3D4
:103A00000740FFF775FFC4F30720FFF771FFE0B22F
:103A1000FFF76EFF07E03078FFF76AFF681EC5B258
:103A200005B901E0761CF6E700BF10210548FDF757
:103A300017F900BFFFF7DEFA00F001000028F9D106
:103A40000120D2E70000024070B504460D4616463C
:103A500010211048FDF702F90320FFF749FFC4F3D6
:103A60000740FFF745FFC4F30720FFF741FFE0B22F
:103A7000FFF73EFF07E0FF20FFF73AFF30706D1EB3
:103A800005B901E0761CF6E700BF10210148FDF7FB
:103A9000E7F870BD0000024000B587B0012108467C
:103AA000FDF754FD00200590069002208DF81800C7
:103AB00000208DF81A00E020059000208DF81B00F2
:103AC00002208DF8190005A91C48FDF753F80522BE
:103AD00011461A48FDF796F8052206211748FDF70A
:103AE00091F8052207211548FDF78CF801210803FC
:103AF000FDF74CFD14216846FCF726FD0020ADF8CB
:103B00000C00ADF80800ADF80600ADF80400ADF803
:103B10000000ADF80E004FF48270ADF802004FF4D3
:103B20000070ADF80A0069460548FEF74BF8012120
:103B30000348FEF72DF807B000BD0000000002406A
:103B40000030014010B510210548FDF787F8062028
:103B5000FFF7CEFE10210248FDF782F810BD0000ED
:103B60000000024010B5FFF7EDFF10210A48FDF7F5
:103B700075F80120FFF7BCFE0020FFF7B9FE102109
:103B80000548FDF76DF800BFFFF734FA00F00100BB
:103B90000028F9D110BD00000000024010B5FEF76A
:103BA00093FF0446022C0CD106A0FCF77BFB1521E9
:103BB0002004FFF7DFFE0BA0FCF774FB01200C498B
:103BC000087010BDD5FDD4DAB2C1B3FDD7D6BFE2BF
:103BD000B4E6B4A2CBF9D0E8D2AAB5C4BFD5BCE450
:103BE0002E2E2E00B2C1B3FDCDEAB3C9A3A10A00A7
:103BF000000000204FF04070E1EE100A70473031B5
:103C000032333435363738393A5A00000000000074
:103C10000000000000000000000000000000001F85
:103C2000F8000000007FFE00000000FFFF00000021
:103C300001FFFF80000003FFFFC0000007FFFFE05F
:103C400000000FFC3FF000000FF00FF000001FF02D
:103C500007F000001FE007F800001FE003F8000075
:103C60003FC003F800003FC003FC00003FC003FC5E
:103C700000003F8003FC00003F8001FC00003F800B
:103C800001FC00007F8001FC00007F8001FC00003F
:103C90007F8001FC00007F8001FC00007F8001FC30
:103CA00000007F8001FC00007F8001FC00007F801D
:103CB00001FC00007F8001FC00003F8001FC00004F
:103CC0003F8003FC00003F8003FC00003FC003FC7A
:103CD00000003FC003F800003FC003F800001FC011
:103CE00007F800001FE007F000000FF00FF00000E1
:103CF0000FF81FE0000007FFFFE0000007FFFFC014
:103D0000000003FFFF80000001FFFF000000007FB4
:103D1000FE000000001FF000000000000000000096
:103D20000000000000000000000000000000000093
:103D3000000000000000000000001F8000000000E4
:103D40001F80000000003F80000000007F80000016
:103D500000007F8000000000FF8000000001FF8065
:103D600000000007FF800000000FFF800000003F00
:103D7000FF80000000FFFF80000001FFFF800000C7
:103D800001FFBF80000001FF3F80000001FC3F8079
:103D9000000001F03F80000001C03F8000000100F2
:103DA0003F80000000003F80000000003F800000D6
:103DB00000003F80000000003F80000000003F80C6
:103DC000000000003F80000000003F800000000075
:103DD0003F80000000003F80000000003F800000A6
:103DE00000003F80000000003F80000000003F8096
:103DF000000000003F80000000003F800000000045
:103E00003F80000000003F80000000003F80000075
:103E100000003F80000000003F80000000003F8065
:103E2000000000003F80000000003F800000000014
:103E30003F800000000000000000000000000000C3
:103E40000000000000000000000000000000000072
:103E50000000000000000000000FF8000000003F1C
:103E6000FF00000000FFFFC0000001FFFFE00000B6
:103E700003FFFFF0000007FFFFF000000FFFFFF857
:103E800000000FF80FF800001FF003FC00001FE017
:103E900003FC00000FC001FC000007C001FC000093
:103EA00001C001FC0000000001FC0000000001FC5A
:103EB0000000000003FC0000000003FC0000000004
:103EC00007F8000000000FF8000000001FF00000DD
:103ED00000003FF0000000007FE000000001FFC094
:103EE00000000003FF8000000007FF000000001F2B
:103EF000FC000000003FF8000000007FE000000030
:103F000000FFC000000001FF8000000003FF000070
:103F1000000003FE0000000007FC000000000FF896
:103F2000000000001FF0000000001FFFFFFC000069
:103F30003FFFFFFC00003FFFFFFC00003FFFFFFCD6
:103F400000003FFFFFFC00003FFFFFFC00003FFFC1
:103F5000FFFC000000000000000000000000000066
:103F60000000000000000000000000000000000051
:103F70000000000000000000000FF8000000007FBB
:103F8000FE00000001FFFF80000003FFFFC00000F3
:103F900007FFFFE0000007FFFFF000000FFFFFF04A
:103FA00000001FF80FF000001FE007F800001FE0FE
:103FB00007F800001FC007F800001FC007F8000046
:103FC0001FC007F80000000007F80000000007F815
:103FD000000000000FF0000000003FF00000003F74
:103FE000FFE00000003FFFC00000003FFF000000B6
:103FF000003FFF000000003FFFC00000003FFFE067
:104000000000003FFFF0000000001FF8000000006B
:1040100007FC0000000003FC0000000001FC0000A1
:10402000000001FE0000000001FE00003F8001FED4
:1040300000003F8001FE00003F8001FC00003FC007
:1040400003FC00003FE003FC00001FF00FF800003D
:104050001FFFFFF800000FFFFFF0000007FFFFE069
:10406000000003FFFFC0000000FFFF000000003F52
:10407000FC0000000003C000000000000000000081
:104080000000000000000000000000000000000030
:10409000000000000000000000000FC00000000051
:1040A0001FC0000000001FC0000000003FC0000053
:1040B00000007FC000000000FFC000000000FFC043
:1040C00000000001FFC000000003FFC0000000036B
:1040D000FFC000000007FFC00000000FFFC000008D
:1040E000001FFFC00000001FDFC00000003F9FC096
:1040F0000000007F9FC00000007F1FC0000000FE86
:104100001FC0000001FE1FC0000003FC1FC0000014
:1041100003F81FC0000007F01FC000000FF01FC011
:1041200000000FE01FC000001FC01FC000003FC004
:104130001FC000007FFFFFFE00007FFFFFFE0000AA
:104140007FFFFFFE00007FFFFFFE00007FFFFFFEFE
:1041500000007FFFFFFE00007FFFFFFE0000000069
:104160001FC0000000001FC0000000001FC00000B2
:1041700000001FC0000000001FC0000000001FC0A2
:10418000000000001FC0000000001FC00000000071
:104190001FC0000000000000000000000000000040
:1041A000000000000000000000000000000000000F
:1041B000000000000000000000000000000007FFF9
:1041C000FFF8000007FFFFF8000007FFFFF80000FE
:1041D00007FFFFF8000007FFFFF8000007FFFFF8E8
:1041E000000007FFFFF000000FE0000000000FE0FC
:1041F000000000000FE0000000000FE000000000E1
:104200000FE0000000000FE0000000000FEFFC00D6
:1042100000000FFFFF0000001FFFFF8000001FFFD6
:10422000FFE000001FFFFFF000001FFFFFF0000095
:104230001FFFFFF800001FE00FF800001FC007FC81
:1042400000001F8003FC0000000001FC00000000D3
:1042500001FC0000000001FE0000000001FE000063
:10426000000001FE0000000001FE00003F8001FC94
:1042700000003F8001FC00003F8003FC00003FC0C5
:1042800003FC00003FE007F800001FF00FF80000FB
:104290001FFFFFF000000FFFFFF0000007FFFFE02F
:1042A000000003FFFFC0000000FFFF000000003F10
:1042B000FC0000000003C00000000000000000003F
:1042C00000000000000000000000000000000000EE
:1042D0000000000000000000000FF8000000003F98
:1042E000FF00000000FFFF80000001FFFFC0000092
:1042F00003FFFFE0000007FFFFF0000007FF7FF86B
:1043000000000FF807F800000FE003F800001FE0BE
:1043100003FC00001FC001FC00001FC000000000E3
:104320003F80000000003F80000000003F87F80051
:1043300000003F9FFF0000003FBFFFC000007FFF65
:10434000FFE000007FFFFFF000007FFFFFF00000B4
:104350007FFE3FF800007FF007F800007FC003FCFD
:1043600000007FC003FC00007F8001FC00007F8014
:1043700001FC00007F8001FE00003F8001FE000084
:104380003F8001FE00003F8001FE00003F8001FCF5
:1043900000003F8001FC00001FC001FC00001FC0A6
:1043A00003FC00001FE007F800000FF80FF8000002
:1043B0000FFFFFF0000007FFFFF0000003FFFFE02A
:1043C000000001FFFFC0000000FFFF000000001F11
:1043D000FC000000000000000000000000000000E1
:1043E00000000000000000000000000000000000CD
:1043F00000000000000000000000000000007FFF3F
:10440000FFFE00007FFFFFFE00007FFFFFFE0000B9
:104410007FFFFFFE00007FFFFFFE00007FFFFFFC2D
:1044200000007FFFFFF8000000000FF00000000018
:104430000FF0000000001FE0000000003FC000007F
:1044400000003FC0000000007F80000000007F00EF
:1044500000000000FF0000000000FE00000000015E
:10446000FE0000000003FC0000000003FC00000050
:104470000003F80000000007F80000000007F0004B
:104480000000000FF0000000000FE0000000001F1F
:10449000E0000000001FE0000000001FC00000005E
:1044A000003FC0000000003FC0000000003F80004F
:1044B0000000007F80000000007F80000000007F7F
:1044C00080000000007F0000000000FF00000000EE
:1044D00000FF0000000000FF0000000000FE0000E0
:1044E000000001FE0000000001FE0000000001FECF
:1044F00000000000000000000000000000000000BC
:1045000000000000000000000000000000000000AB
:104510000000000000000000000FF0000000007F1D
:10452000FC00000000FFFF00000003FFFF80000010
:1045300007FFFFC0000007FFFFE000000FFE7FF055
:1045400000000FF01FF000001FE00FF000001FE060
:1045500007F800001FE007F800001FC003F8000084
:104560001FE003F800001FE007F800001FE007F855
:1045700000000FF007F000000FF80FF0000007FF39
:10458000FFE0000003FFFFC0000001FFFF8000000C
:1045900000FFFF00000003FFFFC0000007FFFFE077
:1045A00000000FFFFFF000001FF00FF800003FE0D9
:1045B00003FC00003FC003FC00007F8001FC000002
:1045C0007F8001FE00007F8001FE00007F8001FEF1
:1045D00000007F8001FE00007F8001FE00007FC0A0
:1045E00001FE00003FC003FC00003FF007FC00009C
:1045F0001FFE7FF800001FFFFFF800000FFFFFF015
:10460000000003FFFFE0000001FFFF800000007FCB
:10461000FC000000001FF00000000000000000008F
:10462000000000000000000000000000000000008A
:104630000000000000000000001FF8000000007FE4
:10464000FE00000001FFFF80000003FFFFC000002C
:1046500007FFFFE000000FFFFFE000000FFFFFF08B
:1046600000001FF00FF800001FC007F800003FC057
:1046700003F800003F8001FC00003F8001FC0000C7
:104680003F8001FC00007F8001FC00007F8001FC76
:1046900000007F8001FE00007F8001FE00003F805F
:1046A00001FE00003F8001FE00003FC003FE00004D
:1046B0003FC007FE00001FE00FFE00001FFFFFFECF
:1046C00000000FFFFFFE000007FFFFFE000003FFDA
:1046D000FFFE000001FFFDFC000000FFF9FC0000F0
:1046E000001FC1FC0000000001FC0000000003FCF2
:1046F0000000038003F800001F8003F800001FC0C3
:1047000007F800001FC00FF000001FF01FF00000AE
:104710000FFFFFE000000FFFFFC0000007FFFF805A
:10472000000003FFFF00000000FFFE000000003F4C
:10473000F800000000000000000000000000000081
:104740000000000000000000000000000000000069
:104750000000000000000000000000000000000059
:104760000000000000000000000000000000000049
:104770000000000000000000000000000000000039
:104780000000000000000000000000000000000029
:10479000000000000003C00000000007E00000006F
:1047A000000FF0000000000FF0000000000FF0000C
:1047B00000000007E00000000003C000000000004F
:1047C00000000000000000000000000000000000E9
:1047D00000000000000000000000000000000000D9
:1047E00000000000000000000000000000000003C6
:1047F000C00000000007E0000000000FF000000013
:10480000000FF0000000000FF00000000007E000C3
:1048100000000003C00000000000000000000000D5
:104820000000000000000000000000000000000088
:104830000000000000000000000000000000000078
:104840000000000000000000000000000000000068
:104850000000000000000000000000000000000058
:10486000000000000000000000000000003FFE000B
:10487000000003FFFF8000000FFFFFE000001FE0CB
:1048800007F800003F0000FC0000FC03C03F0001EF
:10489000F007FE0F8003E1E3FF878003C3E0FFE33F
:1048A00080038FC007F000001F0001F8301C3E1F7E
:1048B000F07C781C7C7FF03E783CF8FFF01F3C38A1
:1048C000F1FC000F3C79E3E001C79E79E7C3C1E743
:1048D0009E73CF9FF9E3CEF3CF3FFCF3CFF38E3F30
:1048E000FC718FE39E781E7807E79E701E7807E7BD
:1048F0009E718E78C7E79C73CE39E7E79C73CE39FB
:10490000E7E71CF3C039E7E73CF3C039E7EF3CF3D6
:104910008039E7CF38E38E79E70E00E38E79E71E22
:1049200061E38E79EF3CE1E78E79EF3CE1C79E7160
:10493000EE39E3C71C71C003C3CF1C71C003C78F1E
:104940003CF1C007879E3CF3C00F0F1E38E3C00642
:104950001E3C79E380003E3C71E780007C78F1C723
:104960008001F8F9E3C70003F1F1E3870003C3E333
:10497000C786000183C78F000000078F8F000000EB
:10498000070F1E000000000E1C00000000000000C9
:1049900000000000000000000000000000001010F7
:1049A00010101010100000181800000012362448D3
:1049B00000000000000000000000000000002424AF
:1049C00024FE484848FE484848000000001038547B
:1049D000545030181414545438101000000044A4DB
:1049E000A8A8A8541A2A2A2A440000000000304827
:1049F0004848506EA494888976000000606020C00A
:104A00000000000000000000000000000204080890
:104A100010101010101008080402000040201010A0
:104A200008080808080810102040000000000010C6
:104A300010D63838D610100000000000000000101A
:104A4000101010FE101010100000000000000000F8
:104A500000000000000000606020C00000000000B6
:104A60000000007F000000000000000000000000C7
:104A70000000000000000060600000000001020271
:104A800004040808101020204040000000001824F2
:104A9000424242424242422418000000000010708C
:104AA00010101010101010107C00000000003C428C
:104AB00042420404081020427E00000000003C42F4
:104AC0004204180402024244380000000000040CB2
:104AD00014242444447E04041E00000000007E4090
:104AE00040405864020242443800000000001C2488
:104AF00040405864424242241800000000007E44B6
:104B000044080810101010101000000000003C4273
:104B100042422418244242423C0000000000182473
:104B2000424242261A02022438000000000000001F
:104B30000018180000000018180000000000000015
:104B4000000010000000000010102000000002040F
:104B5000081020402010080402000000000000009F
:104B600000FE000000FE00000000000000004020E9
:104B700010080402040810204000000000003C421D
:104B800042620204080800181800000000003844BF
:104B90005AAAAAAAAAB44244380000000000101081
:104BA000182828243C444242E70000000000F84452
:104BB0004444784442424244F800000000003E422F
:104BC0004280808080804244380000000000F84429
:104BD0004242424242424244F80000000000FC428D
:104BE0004848784848404242FC0000000000FC422F
:104BF0004848784848404040E000000000003C44FD
:104C0000448080808E844444380000000000E742E5
:104C10004242427E42424242E700000000007C10D5
:104C200010101010101010107C00000000003E0842
:104C300008080808080808080888F0000000EE4482
:104C40004850705048484444EE0000000000E040E6
:104C50004040404040404042FE0000000000EE6CFA
:104C60006C6C6C5454545454D60000000000C7625D
:104C70006252524A4A4A4646E20000000000384466
:104C80008282828282828244380000000000FC42DC
:104C90004242427C40404040E00000000000384476
:104CA0008282828282B2CA4C380600000000FC4236
:104CB00042427C4848444442E300000000003E4237
:104CC00042402018040242427C0000000000FE9294
:104CD0001010101010101010380000000000E742F3
:104CE00042424242424242423C0000000000E7424F
:104CF0004244242428281810100000000000D692F6
:104D0000929292AAAA6C4444440000000000E74238
:104D10002424181818242442E70000000000EE4460
:104D200044282810101010103800000000007E8465
:104D30000408081020204242FC0000001E10101041
:104D40001010101010101010101E00000040402015
:104D50002010101008080404040202007808080853
:104D60000808080808080808087800001C22000045
:104D70000000000000000000000000000000000033
:104D800000000000000000000000FF0060100000B4
:104D90000000000000000000000000000000000013
:104DA00000003C421E2242423F0000000000C04082
:104DB0004040586442424264580000000000000035
:104DC00000001C22404040221C000000000006029F
:104DD00002021E22424242261B0000000000000088
:104DE00000003C427E4040423C00000000000F11A9
:104DF00010107E10101010107C0000000000000049
:104E000000003E444438403C42423C000000C04068
:104E100040405C6242424242E70000000000303005
:104E200000007010101010107C00000000000C0C2E
:104E300000001C0404040404044478000000C04082
:104E400040404E4850684844EE000000000070109A
:104E500010101010101010107C0000000000000056
:104E60000000FE4949494949ED00000000000000EA
:104E70000000DC6242424242E70000000000000005
:104E800000003C42424242423C0000000000000060
:104E90000000D864424242447840E0000000000034
:104EA00000001E22424242221E02070000000000B3
:104EB0000000EE3220202020F8000000000000005A
:104EC00000003E42403C02427C0000000000000026
:104ED00010107C10101010100C00000000000000DA
:104EE0000000C642424242463B0000000000000073
:104EF0000000E742242428101000000000000000F9
:104F00000000D79292AAAA444400000000000000CA
:104F100000006E241818182476000000000000001D
:104F20000000E742242428181010E00000000000D0
:104F300000007E44081010227E00000003040404D8
:104F4000040408040404040404030008080808080E
:104F50000808080808080808080808006010101069
:104F60001010081010101010106000304C4300009A
:104F70000000000000000000000000000000000031
:104F80000000000000000000000000000000000021
:104F90000000000000000000000000000000000011
:104FA0000000000000000000000000000000000001
:104FB00000000000000000000000000000000000F1
:104FC000000000000003800380038003800380034F
:104FD00080038001000100010001000100010001C7
:104FE000000000000000000000018003C003C001B9
:104FF0008000000000000000000000000000000031
:1050000000073807380F780E701CE018C010802198
:105010000000000000000000000000000000000090
:105020000000000000000000000000000000000080
:105030000000000000000000000000000000000070
:10504000000000000000000408040804080408042C
:10505000087FFE7FFE0810081008100810081008CE
:105060001008107FFE7FFE1020102010201020104E
:105070002000000000000000000000000000000010
:105080000000000080008003E00698088C188C184F
:105090009C189C1C800E80078003C001E000F0007B
:1050A000B8009C008C388C388C308C308818B00755
:1050B000E000800080008000000000000000000090
:1050C0000000000000000038086C18C610C630C68A
:1050D00020C620C640C640C6806CB839EC014401E9
:1050E000C602C602C604C604C60CC60844186C1024
:1050F0003800000000000000000000000000000078
:10510000000000000000000F001980318031803164
:10511000803180310033001E00187C38106C104C38
:1051200010C620C620C320C3C0C1C260C271641EA5
:105130003800000000000000000000000000000037
:105140000038003C003C000C000C000800300060FF
:10515000000000000000000000000000000000004F
:10516000000000000000000000000000000000003F
:10517000000000000000000000000000000000002F
:105180000000020004000800100030002000600051
:10519000C000C000C0018001800180018001800149
:1051A000800180018000C000C000C000600060007D
:1051B00030001000080004000200000000000000A1
:1051C0000040002000100008000C0004000600034E
:1051D0000003000300018001800180018001800143
:1051E0008001800180030003000300060006000C1C
:1051F0000008001000200040000000000000000037
:105200000000000000000000000000008001C0015C
:10521000C00080388E3C9E1EBC03E0008003E01E70
:10522000BC3C9E388E008001C001C001800000009F
:10523000000000000000000000000000000000006E
:1052400000000000000000000000000000008000DE
:1052500080008000800080008000803FFE00800091
:10526000800080008000800080008000000000003E
:10527000000000000000000000000000000000002E
:10528000000000000000000000000000000000001E
:10529000000000000000000000000000000000000E
:1052A000000000000000000000000038003C003C4E
:1052B000000C000C0008003000600000000000003E
:1052C00000000000000000000000000000000000DE
:1052D00000000000000000000000007FFE00000051
:1052E00000000000000000000000000000000000BE
:1052F00000000000000000000000000000000000AE
:10530000000000000000000000000000000000009D
:10531000000000000000000000000000000000008D
:1053200000000000000000000018003C003C0018D5
:10533000000000000000000000000000000000006D
:1053400000000200060004000C0008001800100015
:105350003000200060004000C00080018001000398
:10536000000200060004000C0008001800100030C5
:10537000002000600040000000000000000000006D
:105380000000000000000003E006300C18180C18A4
:105390000C18043006300630063006300630063071
:1053A00006300630061804180C180C0C18063003CA
:1053B000E00000000000000000000000000000000D
:1053C00000000000000000008001801F80018001BB
:1053D00080018001800180018001800180018001C5
:1053E0008001800180018001800180018003C01F55
:1053F000F8000000000000000000000000000000B5
:105400000000000000000007E008381018200C2001
:105410000C300C300C000C00180010002000400074
:105420008001000200040408041004200C3FF83F2F
:10543000F800000000000000000000000000000074
:105440000000000000000007C01870303030183035
:1054500018301800180030006003C00070001800F9
:1054600008000C000C300C300C30083018183007D5
:10547000C00000000000000000000000000000006C
:105480000000000000000000300070007000F0011B
:10549000700170027006700470087008701070203F
:1054A0007020707FFE00700070007000700070004F
:1054B0007003FE000000000000000000000000007B
:1054C000000000000000000FFC0FFC0800080008AE
:1054D000001000100013E0143018181008000C0021
:1054E0000C000C000C300C300C2018201810300F61
:1054F000C0000000000000000000000000000000EC
:105500000000000000000001F00308040C080C1863
:105510000018001000300031F036183C0C3806300E
:1055200006300630063006180618040C0C06180360
:10553000E00000000000000000000000000000008B
:10554000000000000000001FFC1FFC380830102085
:1055500010202000200040004000800080008001DA
:105560000001000100030003000300030003000327
:10557000000000000000000000000000000000002B
:105580000000000000000007E00C301818300C305C
:105590000C300C380C1C180E1007E00DE0187030A1
:1055A00038601C600C600C600C600C301818300700
:1055B000C00000000000000000000000000000002B
:1055C0000000000000000007C018203010301860F4
:1055D00008600C600C600C600C601C303C186C0F98
:1055E0008C000C0018001800183030306030C00FEC
:1055F000800000000000000000000000000000002B
:10560000000000000000000000000000000000009A
:105610000000000000018003C003C0018000000002
:10562000000000000000000000018003C003C00172
:1056300080000000000000000000000000000000EA
:10564000000000000000000000000000000000005A
:105650000000000000030003000000000000000044
:105660000000000000000000000000000003000334
:105670000001000100020002000000000000000024
:10568000000000000000040008001000200060007E
:10569000C00180030006000C001800300018000C48
:1056A0000006000300018000C00060002000100020
:1056B00008000400000000000000000000000000DE
:1056C00000000000000000000000000000000000DA
:1056D00000000000007FFE0000000000000000004D
:1056E000007FFE000000000000000000000000003D
:1056F00000000000000000000000000000000000AA
:105700000000000000200010000800040006000354
:1057100000018000C0006000300018000C0018007C
:1057200030006000C0018003000600040008001083
:105730000020000000000000000000000000000049
:10574000000000000003E00C18100C1006300638B2
:105750000638063806000C003800600080010001A1
:10576000000100010000000000018003C003C0012F
:1057700080000000000000000000000000000000A9
:105780000000000000000003E00618080C180430B8
:10579000F431B26132633263326632662266226667
:1057A00064666466A8333830021004180C0C1803C1
:1057B000E000000000000000000000000000000009
:1057C0000000000000008003800380038002800648
:1057D000C004C004C004C00C600860086008601FFA
:1057E000F01030103010303030201820186018F8C9
:1057F0003E0000000000000000000000000000006B
:10580000000000000000007FE01838181C180C1879
:105810000C180C180C181818301FE01818180C1851
:105820000418061806180618061806180C18187F0B
:10583000F000000000000000000000000000000078
:105840000000000000000003E4061C080C180430EF
:1058500002300220006000600060006000600060B4
:105860000060006000300230023004180C0C180395
:10587000E000000000000000000000000000000048
:10588000000000000000007FC018701818180C18E5
:105890000C180C180618061806180618061806180C
:1058A0000618061806180C180C1808181818707F17
:1058B000C000000000000000000000000000000028
:1058C000000000000000007FFC180C1804180618E7
:1058D0000218001810181018301FF018301810187F
:1058E00010180018001800180218021804180C7F6D
:1058F000FC000000000000000000000000000000AC
:10590000000000000000007FFE180E1802180318A7
:105910000118001808180818181FF818181808187F
:105920000818001800180018001800180018007E49
:105930000000000000000000000000000000000067
:105940000000000000000003C80E380808180830E6
:1059500004300420006000600060006000600060AF
:105960003F600C600C300C300C180C180C0C100341
:10597000E000000000000000000000000000000047
:1059800000000000000000FC7E3018301830183095
:1059900018301830183018301830183FF8301830D8
:1059A000183018301830183018301830183018FCEB
:1059B0007E00000000000000000000000000000069
:1059C000000000000000001FF8018001800180013C
:1059D00080018001800180018001800180018001BF
:1059E0008001800180018001800180018001801F91
:1059F000F8000000000000000000000000000000AF
:105A00000000000000000007FE0060006000600071
:105A10006000600060006000600060006000600086
:105A20006000600060006000600060006000600076
:105A3000600060706070C071803F00000000000076
:105A4000000000000000007E3E18181810182018F2
:105A50006018401880198019801B801DC01CC01858
:105A6000E018601870183018381818180C180C7EC8
:105A70003F000000000000000000000000000000E7
:105A8000000000000000007E001800180018001838
:105A90000018001800180018001800180018001846
:105AA00000180018001800180218021804180C7FBB
:105AB000FC000000000000000000000000000000EA
:105AC00000000000000000F81F381C381C381C388B
:105AD0003C2C2C2C2C2C2C2C6C2E4C264C264C2666
