:020000040800F2
:10000000B00C0020950200089D0200089F02000825
:10001000A1020008A3020008A502000800000000D9
:10002000000000000000000000000000A70200081F
:10003000A902000800000000AB020008AD020008A1
:10004000AF020008AF020008AF020008612F0008ED
:10005000AF020008AF020008AF020008AF020008BC
:10006000AF020008AF020008AF020008AF020008AC
:10007000AF020008AF020008AF020008AF0200089C
:10008000AF020008AF020008AF0200080000000045
:10009000000000000000000000000000AF020008A7
:1000A00059330008AF020008AF020008AF02000891
:1000B000AF020008AF020008AF020008AF0200085C
:1000C000AF020008AF020008AF020008AF0200084C
:1000D000AF0200084937000861380008000000003E
:1000E000AF0200088D2B0008AF02000800000000DE
:1000F000000000000000000000000000AF02000847
:1001000000000000AF020008AF020008AF020008C4
:1001100000000000000000000000000000000000DF
:10012000AF020008AF020008AF020008AF020008EB
:10013000AF02000800000000000000000000000006
:10014000000000000000000000000000AF020008F6
:10015000AF020008AF020008AF020008D53800085F
:10016000AF020008AF02000800000000000000001D
:10017000000000000000000000000000000000007F
:1001800000000000AF0200080000000000000000B6
:10019000AF02000800F002F800F06DF80AA090E845
:1001A000000C82448344AAF10107DA4501D100F032
:1001B00062F8AFF2090EBAE80F0013F0010F18BF92
:1001C000FB1A43F0010318475C7F02007C7F0200AA
:1001D0000A444FF0000C10F8013B13F0070408BF6D
:1001E00010F8014B1D1108BF10F8015B641E05D00B
:1001F00010F8016B641E01F8016BF9D113F0080FC0
:100200001EBF10F8014BAD1C0C1B09D16D1E58BF51
:1002100001F801CBFAD505E014F8016B01F8016B88
:100220006D1EF9D59142D6D37047000000230024FB
:1002300000250026103A28BF78C1FBD8520728BFF6
:1002400030C148BF0B607047642900F09F8075295A
:1002500000F09C80002070471FB508F021FB00F0E3
:10026000FFFB04000020002108F004FB401C60603C
:100270001FBD10B510BD00F0CEFB1146FFF7ECFF1F
:1002800005F0DEF900F0FEFB03B4FFF7F2FF03BC5C
:1002900003F0EBFC0948804709480047FEE7FEE70A
:1002A000FEE7FEE7FEE7FEE7FEE7FEE7FEE7FEE726
:1002B00004480549054A064B70470000F132000822
:1002C00095010008B0060020B00C0020B008002006
:1002D000B00800207047B2F120030AD5C2F1200314
:1002E00001FA02F120FA03F300FA02F041EA0301F5
:1002F000704700FA03F14FF0000070470FB4044953
:1003000010B503AA029800F0BBFA10BC5DF814FB0C
:100310005C0000200FB41CB5074B06AA7B4469465D
:100320000090059800F093FA0020694600F0A2FAC8
:100330001CBC5DF814FB00005505000070B50446B8
:1003400085690068C10601D5302600E02026C00777
:1003500007D070BDD4E9012130469047206A401C87
:1003600020626D1EF6D570BD70B5044685690078B3
:10037000C00707D170BDD4E9012120209047206A31
:10038000401C20626D1EF6D570BD00002DE9F041C5
:100390000646002410687529314616A510D0AFF323
:1003A0000080002802DA404213A507E031688A077E
:1003B00001D512A502E0490704D511A5012401E0E9
:1003C000AFF3008000210A2206F1240709E0B0FB08
:1003D000F2FCB0FBF2F302FB1C00303078541846FC
:1003E000491C0028F3D123462A463046BDE8F04197
:1003F00000F0CEB9000000002D0000002B0000002E
:10040000200000002DE9F05F894604464FF0000A05
:10041000DFF824B1FB44C0F820A02046E1688847FB
:1004200000287DD0252806D0D4E901219047206AF4
:10043000401C2062F1E700255F462046E1688847BE
:100440002028064607DB312E05D2B81910F8200CFB
:1004500008B10543F1E7A80701D525F00405C4F864
:100460001CA00027C4F818A02A2E09D0304603F09B
:10047000F5FB38B304EB8708303EC8F8186019E084
:1004800059F8041B204604EB87029161E168884714
:10049000012F064618D1E069002820DA25F0200552
:1004A0001DE0D8F8180000EB800006EB4000303863
:1004B000C8F818002046E1688847064603F0CEFBDE
:1004C0000028EED1012F0AD02E2E08D12046E16857
:1004D00088477F1C0646022F45F02005C4DBA06933
:1004E000002803DA404245F00105A061E80701D089
:1004F00025F01005A6B1A6F14100192802D8203632
:1005000045F400654A463146204625604D46FFF7D2
:100510009BFE60B1012807D0ED1D25F0070000E02B
:1005200007E000F1080978E705F1040975E73046AE
:100530007AE7206ABDE8F09F027C020070B50646AB
:1005400000F022F90468054630460A22002100F036
:10055000A9F92C6070BD401ECAB210F8011F8A4272
:1005600002D00029F9D10020704730B505460B466E
:100570002A4613F8014B12F8010B08B1A042F8D03B
:100580001CB1002802D06D1CF1E7284630BD40EABE
:10059000010370B59B072ED14FF00136042A2AD3F0
:1005A00008C810C99D1B9D43121F15EAC61517D018
:1005B000D8B2E1B2401A50EA056110D198B2A1B2A6
:1005C000401A50EA05410AD123F07F4024F07F41D0
:1005D000401A50EA052102D1180EA0EB146070BD3C
:1005E000A342DBD018BA21BA884201D9012070BDDC
:1005F0004FF0FF3070BD0AB9002070BD10F8013B0C
:1006000011F8014B63B1A3420AD1521E08D010F871
:10061000013B11F8014B1BB1A34201D1521EEDD198
:10062000181B70BD421E12F8013F002BFBD111F8C0
:10063000013B002B02F8013BF9D1704710B5203A7D
:10064000C0F00B80B1E81850203AA0E81850B1E88B
:100650001850A0E81850BFF4F5AF5FEA027C24BF41
:10066000B1E81850A0E8185044BF18C918C0BDE838
:1006700010405FEA827C24BF51F8043B40F8043B01
:1006800008BF7047D20728BF31F8023B48BF11F8B6
:10069000012B28BF20F8023B48BF00F8012B704710
:1006A00002F0FF0343EA032242EA024200F034B9B7
:1006B0004FF0000200B5134694469646203922BFFB
:1006C000A0E80C50A0E80C50B1F12001BFF4F7AF46
:1006D000090728BFA0E80C5048BF0CC05DF804EB28
:1006E000890028BF40F8042B08BF704748BF20F896
:1006F000022B11F0804F18BF00F8012B704700004B
:100700004FF0013C50F8042B51F8043B9A4221D1A0
:10071000A2EB0C03934313EACC1317D150F8042B2C
:1007200051F8043B9A4215D1A2EB0C03934313EA10
:10073000CC130BD150F8042B51F8043B9A4209D149
:10074000A2EB0C03934313EACC13DBD04FF0000071
:10075000704700BFD01A01BAB1FA81F101F0180157
:1007600022FA01F0CB40C1F12001DBB2C0B2C01AC5
:100770002CFA01F3D11A914311EAC311E6D1704763
:100780007047704770477047004870475006002018
:100790002DE9F0470D4699469246044600F124089B
:1007A0000168880604D5E06921F01001216000E0AD
:1007B0000120A84201DD471B00E00027A1697A194A
:1007C00002EB0900081AA0612078C00602D4204676
:1007D000FFF7B4FD002608E0D4E901211AF806006D
:1007E0009047206A401C761C20624E45F4DB20783E
:1007F000C0060AD52046FFF7A1FD06E0D4E9012195
:1008000030209047206A401C2062381EA7F1010763
:10081000F4DC07E0D4E9012118F805009047206ACC
:10082000401C2062281EA5F10105F3DC2046FFF7DD
:100830009BFD2078000602D50220BDE8F08701204C
:10084000FBE7000001694A1C02610878704700B5A7
:100850008FB0CDE901310021059105497944CDE9F9
:10086000031011466846FFF7CDFD0FB000BD000034
:10087000E5FFFFFF0A6802F8010B0A6070470000FD
:10088000074B70B50D467B44FFF7E1FF0446284651
:1008900000F0BDF810B14FF0FF3070BD204670BDC4
:1008A0004F4900002DE9F04791460F468046044627
:1008B000002614F8015B2DB100F052F80068405D8D
:1008C000C007F6D12B2D02D02D2D18D0641E4A461C
:1008D0003946204600F04CF827B13968A14201D1D1
:1008E000C7F800804FF0020471050BD54042002884
:1008F00003DDFFF749FF0460A007BDE8F08746F479
:100900008066E4E70028F8DAFFF73EFF04606FF046
:100910000040F2E74FF000020429C0F0128010F00E
:10092000030C3FF4C7AECCF1040CBCF1020F18BFAE
:1009300000F8012BA8BF20F8022BA1EB0C01FFF758
:10094000B9BE5FEAC17C24BF00F8012B00F8012B7F
:1009500048BF00F8012B7047004870475006002040
:1009600010B500F07DF8001D10BD00BF097F00002C
:100970002DE9F05F824615468B4600270AF10104F7
:10098000B9460078302801D09DB113E014F8010B6E
:100990000127782803D0582801D045B10AE00DB1CD
:1009A000102D07D1002714F8010B102502E00825AF
:1009B00000E00A250026B0460EE005FB080005FB16
:1009C00006F101271FFA80F801EB1046B6F5803FCB
:1009D00000D3B94614F8010B294600F045F8002869
:1009E000EBDABBF1000F05D00FB1641E00E05446F6
:1009F000CBF80040B9F1000F06D0FFF7C5FE022189
:100A00000160C81EBDE8F09F48EA0640FAE7007B97
:100A100000F0800070477546FFF79EFFAE46050068
:100A20006946534620F00700854618B020B5FFF709
:100A30003FFCBDE820404FF000064FF000074FF0AC
:100A400000084FF0000B21F00701AC46ACE8C009EC
:100A5000ACE8C009ACE8C009ACE8C0098D467047F5
:100A600000487047700600203A2800D2303820F045
:100A70002002412A01D3A2F13700884201D34FF06E
:100A8000FF30704710B50446AFF300802046BDE844
:100A90001040FFF7F9BB2DE9F04104460D4616461C
:100AA00004F0C6FCA046E11704EB11610912A02274
:100AB00002EB4101C8B204F081FC04F0DFFB074601
:100AC000012F04D104F0DEFC0120BDE8F081E0B28A
:100AD00004F074FC04F0D2FB0746012F03D104F0AC
:100AE000D1FC0220F1E704F0A3FCA046E11704EBDF
:100AF00011610912A12202EB4101C8B204F05EFCAF
:100B000004F0BCFB0746012F03D104F0BBFC01201D
:100B1000DBE70DE004F0E6FB3070681E85B21DB91E
:100B2000012004F01BFC04E0002004F017FC761CFC
:100B3000F0E700BF04F0A6FC0020C6E72DE9F04175
:100B400006460D4690461F4619E0F80096FBF0F168
:100B500000FB1160C0EBC700C4B2AC4205DBE9B2D8
:100B60004246304600F010F80AE042462146304640
:100B700000F00AF8301986B2281B85B2A044E4E7D9
:100B800000BF0020BDE8F0812DE9F04104460D468C
:100B9000164604F04DFCA046E11704EB1161091262
:100BA000A02202EB4101C8B204F008FC04F066FB8D
:100BB0000746012F04D104F065FC0120BDE8F08157
:100BC000E0B204F0FBFB04F059FB0746012F03D110
:100BD00004F058FC0220F1E710E0307804F0EEFB5E
:100BE00004F04CFB0746012F03D104F04BFC03201B
:100BF000E4E7681EC5B205B901E0761CEDE700BF69
:100C000004F040FC052007F0D3F80020D6E70000F0
:100C100010B5FF240E48006900F0020068B90D48C5
:100C2000007850B100F018F80446FF2C05D00020E1
:100C3000084908701D2007F05BFA0548006900F0BC
:100C4000020010B1012003490870204610BD0000C9
:100C500000000240B500002010B503F0D9FAA02032
:100C600003F09EFA03F00AFA18B103F0FBFA012030
:100C700010BD00BF3B48006800F040000028F9D0DC
:100C8000082003F08DFA03F0F9F918B103F0EAFA3D
:100C90000220EDE700BF3348006800F04000002864
:100CA000F9D003F0B5FAA12003F07AFA03F0E6F9DF
:100CB00018B103F0D7FA0320DAE700BF294800682B
:100CC00000F040000028F9D003F002FA04460020AA
:100CD00003F036FA03F0FCF944EA0024012003F0A3
:100CE0002FFA03F0BFFA402C2AD00EDC082C29D0B2
:100CF00006DC012C1AD0022C1ED0042C2ED127E0A9
:100D0000102C29D0202C29D120E0B4F5007F21D04F
:100D100005DC802C0ED0B4F5807F1FD114E0B4F533
:100D2000806F05D0B4F5006F18D107E031209FE740
:100D300032209DE733209BE7342099E7352097E761
:100D4000362095E7372093E7382091E739208FE761
:100D50002A208DE730208BE7232089E700BFFF2082
:100D600086E700001004024070B50446002603F038
:100D70004FFAA02003F014FA03F080F918B103F041
:100D800071FA012070BD00BF1D48006800F04000EE
:100D90000028F9D0B02003F003FA03F06FF918B17E
:100DA00003F060FA0220EDE700BF1548006800F08C
:100DB00040000028F9D001251BE0162D03D1F0B228
:100DC00003F0EEF905E0207803F0EAF92078064414
:100DD000641C03F053F918B103F044FA0320D1E77F
:100DE00000BF0748006800F040000028F9D0681CE8
:100DF000C5B2162DE1DD03F035FA0020C2E7000090
:100E00001004024000B58DB0182107A8FFF750FC70
:100E100018220BA101A8FFF711FC03F00FF90E48EF
:100E2000006840F001000C4908600C48006820F0A0
:100E30000C000A49086001A8FFF796FF0DB000BD3D
:100E4000000083F3983F3F3F3F3F3F3F3F3F3F3FDF
:100E50003F3F3F3F7F00000030380240000002402B
:100E60002DE9F0410746884615460421052000F08B
:100E70002DF80021012002F0D5FE80210A2002F089
:100E8000B5F9002405E0395D092002F0CBFE601CB5
:100E9000C4B24445F7DB0321012002F0C3FEFF2466
:100EA00000BF052002F012F90646601EC4B21CB154
:100EB00006F004000028F4D0222002F007F9287080
:100EC000212002F003F96870BDE8F08170B5054695
:100ED0000C460026284602F0F9F8064626EA0401E8
:100EE000284602F09FFE70BD10B540F6B83208A14A
:100EF00009A000F07FFA04461CB90BA0FFF7FEF929
:100F000002E00EA0FFF7FAF903F0CCF9204610BD7D
:100F1000726561647900000041542B524553544F6F
:100F200052450D0A00000000BBD6B8B4B3F6B3A713
:100F3000C9E8D6C3B3C9B9A60D0A0000BBD6B8B478
:100F4000B3F6B3A7C9E8D6C3CAA7B0DC0D0A000040
:100F50000149086070470000143C01403EB5054659
:100F60005F48007800286ED05EA0FFF7C7F963A045
:100F7000FFF7C4F967A0FFF7C1F96B4A00210846E3
:100F800000F0D4FD2020FF21002247F67C53CDE95C
:100F90000021029065A23021182000F0D2FB102021
:100FA000FF21002247F67C53CDE90021029063A285
:100FB000DC21002000F0C5FB1020FF21002247F6B5
:100FC0007C53CDE9002102905FA2DC21962000F045
:100FD000B8FB554801214CF218635EA2CDE9001020
:100FE0007821602000F0D2FC5B4A09211520FFF730
:100FF00052FD1E2059490880002420E05648005D1B
:10100000FF281AD05448015D55A0FFF777F920203A
:10101000FF210022CDE9002102904F48005D3030D1
:10102000C2B247F67C5350214C48008800F0CCFBFC
:101030004A480088143049490880601CC4B2092C11
:10104000DCDB002407E016E04348005DFF2800D108
:1010500003E0601CC4B2092CF6DB00BF601C4249EF
:101060000870084600780A2802D140A0FFF746F928
:1010700000201B4908703C4800780A281BDA3A48CF
:10108000007804F06BFF3F4908600846006890B99B
:10109000354801780078401E2F4A11540223092157
:1010A0001520FFF74BFD3048017837A0FFF726F9F0
:1010B00001200B490870232D02D02A2D0DD106E006
:1010C00004203549088001200549087005E0012009
:1010D000314908800249087000BF00BF3EBD0000D2
:1010E000920000200D0AD7A2B2E1D3C3BBA7D6B8A5
:1010F000CEC6BDE7C3E63A0D0A000000A1BE23A19B
:10110000BFBBD8B5BDC9CFD2BBBCB6B2CBB5A50DA0
:101110000A000000A1BE2AA1BFBBD8B5BDD6F7BD4D
:10112000E7C3E60D0A000000D8BD0008D7A2B2E16F
:10113000D3C3BBA7D6B8CEC600000000A1BE2AA16B
:10114000BFD6F7BDE7C3E600C9CFD2BBBCB6A1BED0
:1011500023A1BF005A000000E801002098000020F1
:1011600025752020000000009A000020D7A2B2E1DF
:10117000D6B8CEC6CAFDC1BFD2D4B4EFC9CFCFDE78
:101180000D0A000094000020D2D1D7A2B2E125645C
:10119000BAC549440D0A0000120000201CB50446DF
:1011A000FE20009002211E4800F052FA1E2006F098
:1011B000FFFD2146732005F0DFF86A4601A9732080
:1011C00004F08EFE40B117A0FFF798F802211448F2
:1011D00000F03CFAFF201CBD9DF8000030B18328D0
:1011E00009D090280BD0FF2811D10CE0214614A083
:1011F000FFF784F80BE017A0FFF780F807E018A0CE
:10120000FFF77CF803E01AA0FFF778F800BF00BFF3
:101210000221034800F01AFA9DF80000DBE7000005
:1012200000080240CDA8D0C5CAA7B0DC2CBDD3CAE7
:10123000D5CAFDBEDDB0FCB4EDCEF30D0A00000052
:10124000D6B8CEC62564C9BEB3FDB3C9B9A60D0ACA
:1012500000000000B2CECAFDB4EDCEF30D0A0000CE
:10126000CEB4D7A2B2E1B5C4D3C3BBA70D0A000068
:10127000D0B4C8EB524F4DB4EDCEF30D0A000000D0
:1012800010B506F0B3FE0A2221A122A000F0B2F8A8
:1012900003F008F80A221EA11EA000F0ABF818B156
:1012A00003F000F800F040F902F0FCFFFFF71CFE2D
:1012B00002F0F8FF0A2216A118A000F09BF818B956
:1012C0001AA0FFF71BF802E01FA0FFF717F802F0C3
:1012D000E9FF0A220EA123A000F08CF818B925A07E
:1012E000FFF70CF802E028A0FFF708F802F0DAFF99
:1012F0000A2207A129A000F07DF818B92DA0FEF759
:10130000FDFF02E033A0FEF7F9FF02F0CBFF10BDB6
:101310004F4B000041540D0A0000000041542B4384
:10132000574D4F44453D310D0A000000BFCDBBA7CE
:10133000B6CBC4A3CABDD6B8C1EED6B4D0D0B3C95B
:10134000B9A60D0A00000000BFCDBBA7B6CBC4A351
:10135000CABDD6B8C1EED6B4D0D0CAA7B0DC0D0A8B
:101360000000000041542B4349504D4F44453D314E
:101370000D0A0000CDB8B4ABD6B8C1EED6B4D0D00B
:10138000B3C9B9A60D0A0000CDB8B4ABD6B8C1EE4A
:10139000D6B4D0D0CAA7B0DC0D0A000041542B430C
:1013A000575245434F4E4E4346473D362C300D0A6B
:1013B0000000000057692D466920D6D8C1ACC5E4AD
:1013C000D6C3D6B8C1EED6B4D0D0B3C9B9A60D0A2B
:1013D0000000000057692D466920D6D8C1ACC5E48D
:1013E000D6C3D6B8C1EED6B4D0D0CAA7B0DC0D0AE9
:1013F000000000002DE9F04106460F461546002486
:10140000304606F059FE642006F0D2FC40F6B838AB
:1014100022E00DE0641C012006F0CAFCAC4207D1BA
:1014200002F040FF0DA0FEF769FF0120BDE8F0814A
:101430000E4890F802040028ECD039460B48FFF71C
:1014400094F808B10020F1E7641C012006F0B0FC1C
:10145000444501D10120E9E7DBE70000CFECD3A64A
:10146000CAFDBEDDB3ACCAB10D0A000026020020E1
:1014700030B58DB004460D46342214496846FFF756
:10148000DDF821466846FFF7CDF811A16846FFF761
:10149000C9F829466846FFF7C5F80EA16846FFF768
:1014A000C1F802F0FFFE41F288320BA16846FFF757
:1014B000A1FF28B909A0FEF721FF00200DB030BD23
:1014C0000FA0FEF71BFF0120F8E70000E87F0208ED
:1014D000222C2200220D0A004F4B0000574946499A
:1014E000C1ACBDD3D6B8C1EED6B4D0D0B3C9B9A6BD
:1014F0002CBFAACABCC1ACBDD34D5154540D0A0077
:1015000057494649C1ACBDD3D6B8C1EED6B4D0D048
:10151000CAA7B0DC2CD4B6B3CCBFAACBF8B9A6C44A
:10152000DCCAA7D0A70D0A0010B505A006F0C4FDBF
:101530004FF4FA6006F03CFC02A0FEF7DFFE10BD9F
:101540002B2B2B00CDB8B4ABC4A3CABDD2D4CDCB0A
:10155000B3F62CBDF8C8EBC9E8D6C3C4A3CABD0D09
:101560000A000000F0B50A4600210023002400BF55
:101570003DE0012505FA01F3156805EA03049C42E4
:1015800034D105684F000326BE40B5430560157988
:101590004E00B5400668354305601579012D02D02F
:1015A0001579022D16D185684F000326BE40B5433C
:1015B000856055794E00B54086683543856045683D
:1015C00001268E40B5434560456896798E40B6B297
:1015D00035434560C5684F000326BE40B543C5602E
:1015E000D5794E00B540C6683543C560491C102901
:1015F000BFD3F0BDF0B5002300244D07ED0E02FA75
:1016000005F3CE1000F1200555F826504E07F70ED1
:101610000F26BE40B543CF1000F1200646F82750F4
:10162000CE1000F1200555F8265045EA0304CE10EF
:1016300000F1200545F82640F0BD02460020136960
:101640000B400BB1012000E0002070474183704740
:10165000018370471CB50121022001F0A9F945F270
:101660000240009001208DF8040000208DF8060053
:101670008DF8070069460648FFF774FF0221044809
:10168000FFF7E4FF4FF480510148FFF7E1FF1CBD75
:101690000004024070B506460C4615462A2006F0A6
:1016A00081F9304606F0AEF9304606F0ABF92B2052
:1016B00006F078F9204606F0A5F9204606F0A2F9D2
:1016C0002C2006F06FF9284606F09CF970BD2DE934
:1016D000F04707460C4615469946781B801E1FFAB0
:1016E00080F828E0601B801E86B21CE0A8EB070093
:1016F0004043311B321B01FB020105FB05F0814217
:101700000FDBA8EB07004043311B321B01FB02013A
:10171000A81C4043814204DC4A4631464046FFF75C
:10172000B9FF701C86B26019801CB042DEDA08F185
:1017300001001FFA80F87819801C4045D2DABDE814
:10174000F0872DE9FE4F06460F4615469A46DDE91D
:101750000C890E9C33E0287820281DDB28787F2810
:101760001ADC04EBD4714910C1F1F001B14202DA84
:101770000026381987B2CDE9008902942A785346A9
:101780003946304600F020F86D1C204604EBD0713D
:1017900006EB61018EB212E0C4F1F000B04202DA51
:1017A0000026381987B253462A4639463046CDE9D5
:1017B0000089029400F06AF8AD1C301986B22878CE
:1017C0000028C8D1BDE8FE8F2DE9F04F95B08046C6
:1017D000894692469B46209C5046C7B2102C07D1A2
:1017E000610301EB071010AA102106F06DFF08E05D
:1017F000202C06D1244901EB87106A46402106F0CF
:1018000063FF00253BE0102C03D110A8405D14902D
:101810000AE0202C08D16800401C1DF800001DF8CB
:10182000151040EA01201490002621E004EBD47149
:101830004910491E8A1B01219140149A114049B157
:1018400009EB050291B208EB060290B25A46FFF787
:1018500021FF0BE01E98012808D109EB050291B287
:1018600008EB060290B21F9AFFF714FF701CC6B275
:1018700004EBD471B6EB610FD8DB681CC5B2A5428E
:10188000C1DB15B0BDE8F08F060802002DE9F04F6E
:10189000A9B08046894692469B46349D00BF9AF87F
:1018A0000100A1389AF80010A139C1EB011202EB36
:1018B000411100EB410087B2102D07D1314901EBF6
:1018C000471020AA202106F0FFFE08E0202D06D1B7
:1018D0002D4901EBC7106A46802106F0F5FE002471
:1018E0004AE0102D09D1012000EB440020A9085C3A
:1018F00011F8141040EA01202890202D17D11DF86E
:1019000024000006012101EB84011DF8011040EACA
:101910000140022101EB84011DF8011040EA012081
:10192000032101EB84011DF80110084328900026D3
:101930001EE0681E811B012088402899084048B19C
:1019400009EB040291B208EB060290B25A46FFF787
:10195000A1FE0BE03298012808D109EB040291B2F4
:1019600008EB060290B2339AFFF794FE701CC6B2E1
:10197000AE42DEDB601CC4B2AC42B2DB29B0BDE8D3
:10198000F08F00000C280200522606002DE9FF4FC0
:1019900083B081468A469346BDE0002508E09BF867
:1019A00000006049495D884200D105E0681C85B2AD
:1019B0005C48405D0028F2D100BF5A48405D10B934
:1019C00007B0BDE8F08F00249CE004EB4400400029
:1019D00005EBC50100EB41105349085C01020022F0
:1019E00004EB4400400005EBC50300EB4310401C32
:1019F0004D4B185C1243014304EB4400400005EBDF
:101A0000C50300EB4310801C474B1B5C0020000605
:101A100040EA132042EA0362084304EB4401490010
:101A200005EBC50301EB4311C91C3F4B5B5C002177
:101A3000090441EA13414FEA034C034642EA0C0011
:101A400043EA010204EB4401490005EBC50301EB45
:101A50004311091D344B5B5C0021090241EA13610B
:101A60004FEA032C134640EA0C0243EA010004EB60
:101A70004401490005EBC50301EB4311491D2A4B05
:101A8000595C42EA01078046002637E0C6F12F0282
:101A900001210020CDE9010108460199FEF71BFC58
:101AA000384001EA0801002358405940084309D052
:101AB0000AEB040291B209EB060290B2069AFFF714
:101AC000E9FD19E01098012816D109EB06000AEB90
:101AD0000401C1EB011100EB01111198083000EB7A
:101AE00041030093009B1A880AEB040399B209EBA7
:101AF000060398B2FFF7CEFD701C86B2302EC5DB10
:101B0000601C84B2302CFFF660AF0BF1010B09F1C1
:101B100030001FFA80F99BF8000000287FF43DAFE9
:101B200000BF4DE7AA880008BD8800082DE9F047EE
:101B300007460E461446254604F108082A2005F0FB
:101B400031FF384605F05EFF69883944491E88B286
:101B500005F058FF2B2005F025FF304605F052FF19
:101B6000A9883144491E88B205F04CFF2C2005F0AD
:101B700019FF4FF0000907E0B8F8000005F042FF38
:101B800008F1020809F101096888A9884843484515
:101B9000F2D8BDE8F08710B500F0E6F8FFF75AFD7F
:101BA00005F0EEFE362005F0FDFE002005F012FFE8
:101BB0003A2005F0F7FE052005F00CFFB22005F0F5
:101BC000F1FE0C2005F006FF0C2005F003FF0020BD
:101BD00005F000FF332005F0FDFE332005F0FAFE8E
:101BE000B72005F0DFFE352005F0F4FEBB2005F040
:101BF000D9FE192005F0EEFEC02005F0D3FE2C2002
:101C000005F0E8FEC22005F0CDFE012005F0E2FE61
:101C1000C32005F0C7FE122005F0DCFEC42005F04D
:101C2000C1FE202005F0D6FEC62005F0BBFE0F2029
:101C300005F0D0FED02005F0B5FEA42005F0CAFEC8
:101C4000A12005F0C7FEE02005F0ACFED02005F095
:101C5000C1FE042005F0BEFE0D2005F0BBFE1120E4
:101C600005F0B8FE132005F0B5FE2B2005F0B2FEFE
:101C70003F2005F0AFFE542005F0ACFE4C2005F0EF
:101C8000A9FE182005F0A6FE0D2005F0A3FE0B20EE
:101C900005F0A0FE1F2005F09DFE232005F09AFE12
:101CA000E12005F07FFED02005F094FE042005F031
:101CB00091FE0C2005F08EFE112005F08BFE132006
:101CC00005F088FE2C2005F085FE3F2005F082FE01
:101CD000442005F07FFE512005F07CFE2F2005F00A
:101CE00079FE1F2005F076FE1F2005F073FE2020F0
:101CF00005F070FE232005F06DFE212005F052FE58
:101D0000112005F04FFE292005F04CFE01F080FB6C
:101D100010BD2DE9F04707460D4614469946381B7D
:101D20001FFA80F81BE0281B86B211E0A8EB070021
:101D30004043711B721B01FB020104FB04F0814252
:101D400004DC4A4631464046FFF7A4FC701C86B2CC
:101D50002819B042EADA08F101001FFA80F83819B0
:101D60004045E0DABDE8F0871CB50121022000F013
:101D70001FFE4FF42040009001208DF80400002049
:101D80008DF806008DF8070002208DF805006946E1
:101D90000448FFF7E7FB4FF400510248FFF756FCF9
:101DA0001CBD00000004024070B5044600251BE085
:101DB0004FF400510E48FFF749FC04F0800028B1B1
:101DC0004FF400410A48FFF743FC04E04FF40041A0
:101DD0000748FFF73BFC4FF400510548FFF738FC7C
:101DE0006006040E681CC5B2082DE1DB70BD000062
:101DF000000402402DE9F05F06460D4614461F46DA
:101E0000DDF82C904FF0000AC5EB051006EB001131
:101E10000C98083000EB41082A2005F0C3FD30463D
:101E200005F0F0FD3119491E88B205F0EBFD2B20BD
:101E300005F0B8FD284605F0E5FDE919491E88B210
:101E400005F0E0FD2C2005F0ADFDD3461DE0B9F115
:101E5000000F03D10A9805F0D5FD14E0B9F1010F88
:101E600011D1B8F8000005F0CDFD08F102080AF123
:101E700001001FFA80FAA24505D1C4F1F00008EB79
:101E800040084FF0000A0BF1010B04FB07F0584526
:101E9000DDD8BDE8F09F10B503211420FFF716F838
:101EA00010BD10B5142001F011F9044604F0030030
:101EB00018B90321142001F099F910BDF0B587B0CD
:101EC0000546002708210846FFF700F800210D20ED
:101ED00001F0A8FE80210E20FEF7F8FF93208DF878
:101EE000040020208DF8050006A801AB022201A9FC
:101EF00000900C2000F07DF90646262E10D100241B
:101F000007E001A8005D285501A8005D4740601C5E
:101F1000C4B2042CF5DB01A8005DB84200D0BB269A
:101F200080210E2001F062F9304607B0F0BD2DE9A6
:101F3000F04387B006460F4690469946002006902B
:101F40008DF804608DF80570002406E018F8041080
:101F500001AAA01C1154601CC4B2062CF6DB00249C
:101F600007E019F8041001AA04F108001154601CDC
:101F7000C4B2042CF5DB06A801AB0C2201A9009029
:101F80000E2000F036F90546262D05D1082001F077
:101F90009DF800F0080000B9BB25284607B0BDE851
:101FA000F08310B588B050208DF8080000208DF81F
:101FB00009000DF10A02022102A8FEF751FF07A84D
:101FC00002AB042202A900900C2000F012F9044692
:101FD000262008B010BD00001CB501210D2000F026
:101FE000E7FC4FF4A050009001208DF80400002081
:101FF0008DF806008DF8070069461248FFF7B2FA1F
:102000004FF40040009069460F48FFF7ABFA0420F8
:10201000009069460D48FFF7A5FA00208DF80400EE
:102020004FF40060009069460648FFF79BFA0421D0
:102030000648FFF70DFB4FF400410348FFF708FB8C
:102040001CBD00000008024000000240000C0240DD
:10205000F0B587B005460E4630208DF804008DF8A7
:1020600005500DF10602022101A8FEF7F9FE06A8AF
:1020700001AB042201A900900C2000F0BAF8074639
:10208000262F0CD10698902809D1002404E001A83D
:10209000005D3055601CC4B2102CF8DB00E0BB279B
:1020A000384607B0F0BD70B588B005460C4608212B
:1020B0000846FEF70BFF07210D2001F0B3FD0321B9
:1020C000142001F093F88DF8085007A802AB012204
:1020D00002A900900C2000F08CF80646262E09D1AB
:1020E0000798102806D19DF8080020709DF8090077
:1020F000607000E0BB26304608B070BD10B504210A
:102100001E48FFF7A5FA022005F08EFE04211B48A9
:10211000FFF79CFA022005F087FE04211748FFF71D
:1021200097FA022005F080FE0F21012001F07AFDD0
:1021300000BF012000F0CAFF00F010000028F8D115
:10214000022005F071FE3D21112001F06BFD1E21E2
:102150002D2001F067FD00212C2001F063FD8D2171
:102160002A2001F05FFD3E212B2001F05BFD402184
:10217000152001F057FD262010BD0000000C024084
:1021800070B588B0054693208DF8080070208DF852
:10219000090000208DF80E0000240BE0295D02AA42
:1021A000A01C11549DF80E00295D48408DF80E00CA
:1021B000601CC4B2042CF1DB0DF10F02072102A850
:1021C000FEF74EFE08210846FEF780FE07A802AB88
:1021D000092202A900900C2000F00BF80646262EDA
:1021E00003D10798182800D100E0BB26304608B07C
:1021F00070BD2DE9FE4F0646884691469A46DDF8A9
:1022000030B0BB2002900020019000900C2E06D030
:102210000E2E09D1122001901020009005E07720A9
:1022200001903020009000E000BF00BF019840F016
:102230008001022001F0F6FC80210420FEF746FE1A
:102240000021012001F0EEFC80210A2000F0CEFFE9
:10225000002505E018F80510092001F0E3FC6D1CCD
:102260004D45F7D33146012001F0DCFC0C2E03D1A3
:1022700080210D2000F0BAFF042000F027FF044663
:1022800040F2DC5500BF042000F020FF04466D1E24
:1022900035B104F0010018B9009820400028F2D0B0
:1022A00080210D20FEF712FE95B3062000F00EFFF0
:1022B00000F01B0068BB262002900198204000F02F
:1022C000010008B1CC2002900C2E24D10A2000F08D
:1022D000FDFE04460C2000F0F9FE00F007072FB1C8
:1022E000601E07EBC000CBF8000002E0E000CBF876
:1022F000000004B90124122C00DD1224002505E0A1
:10230000092000F0E3FE0AF805006D1CA542F7D392
:1023100001E0BB20029080210C2000F067FF00212B
:10232000012001F07FFC0298BDE8FE8FF0B587B078
:1023300006460F46A0208DF804008DF805600DF1CB
:102340000602022101A8FEF78BFD06A801AB0422BC
:1023500001A900900C20FFF74CFF0546262D08D15F
:102360000698042805D19DF8040000F00F000A2803
:1023700000D0BB25262D22D1002404E0385D01A920
:102380000855601CC4B2102CF8DB05AA102101A866
:10239000FEF766FD06A801AB122201A900900C20F1
:1023A000FFF727FF0546262D08D10698042805D1FA
:1023B0009DF8040000F00F000A2800D0BB25284635
:1023C00007B0F0BD38B504460020009069465220A1
:1023D000FFF769FE262807D0FFF790FEFFF75BFDA9
:1023E000FFF75FFD012038BD2046FFF767FD262877
:1023F00001D00220F7E72620F5E700001FB50446CC
:10240000FE2002904F48007898B9162005F070FE23
:102410004DA0FDF773FF554801214CF2186354A2FB
:10242000CDE9001078216020FFF7B0FA012045497E
:10243000087001214F48FFF700F900283DD04148BE
:102440000078012839D102214A48FFF701F91E20FE
:1024500005F0AEFC00204849C860444801214FF611
:10246000E07343A2CDE9001078216020FFF78EFAD7
:1024700000BF002003F05CFA02903F48C06841F2C0
:10248000883188420CD33DA0FDF738FF00202D494C
:10249000087002213748FFF7D9F8FC2004B010BDBE
:1024A0009DF808000028E4D1FF20264908703CA0D0
:1024B000FDF724FF162005F01BFE01212D48FFF734
:1024C000BCF800283CD11F480078FF2838D12748A5
:1024D00001214CF2186326A2CDE90010782160207A
:1024E000FFF754FA0021712003F046FF02AA03A966
:1024F000712003F0F5FC40B12FA0FDF7FFFE022193
:102500001C48FFF7A3F8FF20C8E79DF8080028B98A
:102510009DF80C102FA0FDF7F1FE03E032A0FDF7AF
:10252000EDFE00BF00BF9DF80C00207001200549A2
:10253000087002210F48FFF789F89DF80800ADE701
:10254000FE20ABE751010020C7EBBDABCAD6D6B821
:10255000B7C5B5BDD6B8CEC6C4A3BFE9BFAACABC6D
:10256000CAB6B1F0D6B8CEC60D0A0000D8BD000874
:102570005A00000000080240C0010020B4ABB8D0EF
:10258000C6F7D2ECB3A3A3ACB2C9BCAFCAA7B0DC48
:10259000A3ACC7EBD6D8D0C2D7A2B2E10D0A0000D7
:1025A000D6B8CEC6B2C9BCAFB3C9B9A62CC7EBB7B3
:1025B000C5CAD6D6B80D0A00CDA8D0C5CAA7B0DC0A
:1025C0002CBDD3CAD5CAFDBEDDB0FCB4EDCEF30D33
:1025D0000A000000D6B8CEC6B6D4B1C8B3C9B9A6F1
:1025E0003A25640D0A000000B8C3D6B8CEC6B2BB07
:1025F000B4E6D4DA0D0A000070B5002100230F22E2
:10260000C4781CB3174C246804F4E064C4F5E06497
:10261000C4F30721C1F10404E3B20A4144789C40A9
:10262000E1B28478144021430C07210E0E4C05784A
:102630006155047804F01F050124AC4005786D1144
:10264000AD0005F1E025C5F8004109E0047804F08B
:102650001F050124AC40054D0678761145F826404B
:1026600070BD00000CED00E000E400E080E100E05F
:1026700002490143024A1160704700000000FA0558
:102680000CED00E0014908627047000000000E42B6
:102690002DE9F34F83B000200190029089A10398A7
:1026A000FDF763FF00282ED08AA10398FDF75DFF98
:1026B000074647B33A213846FDF74DFF074617B3A3
:1026C0007F1C3846FDF73AFF8146B9F1000F07D16C
:1026D0004FF480718348FEF7BBFF01F0F9FD12E073
:1026E000B9F1010F0FD14FF480717E48FEF7AEFFB4
:1026F000182005F0FDFC01F001FE00207A49086178
:1027000001207A4908707AA10398FDF72EFF8046D0
:10271000B8F1000F35D03A214046FDF71CFF804646
:10272000B8F1000F2AD008F101084046FDF706FF76
:1027300006461EB1032E01D0042E08D16FA0FDF76E
:10274000DDFD0120704908707049087016E0012E07
:1027500001D0022E12D16C480078012808D16CA05B
:10276000FDF7CCFD0020684908707049087005E04D
:102770006FA0FDF7C3FD0020644908700020704978
:10278000087070A10398FDF7F0FE0546DDB13A210F
:102790002846FDF7E0FE0546ADB16D1C6D1C6D1CB5
:1027A0002846FDF7CBFE8346BBF1060F08D068A094
:1027B000FDF7A4FD0020544908705C49087002E050
:1027C00068A0FDF79BFD6BA10398FDF7CEFE0446C4
:1027D000002C74D00D344FF0000A14E0694850F812
:1027E0002A1003222046FDF7D2FE50B90AF101005B
:1027F000072190FBF1F201FB1200C0B28DF8070037
:1028000004E00AF1010ABAF1070FE7DB00BF241D5B
:102810004FF0000A0FE05C4850F82A1003222046CF
:10282000FDF7B5FE28B90AF10100C0B28DF8050028
:1028300004E00AF1010ABAF10C0FECDB00BF241D21
:102840002046FDF77BFEC0B28DF8060000E0641C58
:1028500020782028FBD1641C2046FDF76FFEC0B213
:102860008DF8080000E0641C20783A28FBD1641C35
:102870002046FDF763FEC0B28DF8090000E0641C3D
:1028800020783A28FBD1641C2046FDF757FEC0B2E1
:102890008DF80A0000E0641C20782028FBD1641C1D
:1028A0002046FDF74BFE00900098A0F5FA60C0B2FC
:1028B0008DF80400DDE9010104F020FF00BF05B040
:1028C000BDE8F08F617474726962757465732F70FE
:1028D00075736800226C6F636B5F737461747573DA
:1028E000223A000000040240C001002048000020FD
:1028F0002B435753544154453A00000077696669A9
:10290000B6CFBFAA0D0A0000490000204B000020EE
:1029100077696669C1ACBDD3BBD6B8B42CBFAACAAF
:10292000BCC1ACBDD34D5154540D0A004A00002027
:1029300077696669D5FDB3A3C1ACBDD30D0A0000AC
:102940004C0000202B4D515454434F4E4E3A000042
:102950004D515454B6CFBFAA2CB3A2CAD4D6D8C1B5
:10296000AC0D0A004D515454C1ACBDD3D5FDB3A339
:102970000D0A00002B434950534E545054494D45C5
:102980003A000000E8000020B800002010B5074819
:1029900090F8020400B910BD0448B0F80014FFF725
:1029A00077FE01F07FFC00BFF5E700002602002063
:1029B00029B1064A12680243044B1A6004E0034A34
:1029C00012688243014B1A607047000030380240A1
:1029D00029B1064A12680243044B1A6004E0034A14
:1029E00012688243014B1A60704700004038024071
:1029F00029B1064A12680243044B1A6004E0034AF4
:102A000012688243014B1A6070470000443802404C
:102A1000F0B5002100220024022500260223324FB7
:102A20003F6807F00C0121B1042905D0082937D1EE
:102A300005E02E4F076036E02D4F076033E02A4F48
:102A40003F1F3F68C7F38056274F3F1F3F6807F07F
:102A50003F036EB1264FB7FBF3F7DFF88CC0ACF144
:102A6000040CDCF800C0CCF3881C07FB0CF40CE071
:102A70001E4FB7FBF3F7DFF870C0ACF1040CDCF8C5
:102A800000C0CCF3881C07FB0CF4174F3F1F3F68B6
:102A9000C7F301477F1C7D00B4FBF5F7076002E038
:102AA000124F076000BF00BF0F4F3F6807F0F001F3
:102AB0000909104F7A5C0768D74047600A4F3F68A2
:102AC00007F4E051890A0B4F7A5C4768D74087606A
:102AD000054F3F6807F46041490B064F7A5C476831
:102AE000D740C760F0BD0000083802400024F40061
:102AF00040787D010000002010B50146002200232F
:102B000000204A11012A02D10A4C236808E0022A57
:102B100003D1084C7034236802E0064C74342368F7
:102B200001F01F02012494401C400CB1012000E080
:102B3000002010BD003802400149086070470000C5
:102B4000800E474201490860704700003C0E474232
:102B5000002100F44072B2F5407F08D1094A1168A3
:102B600021F4F811084A02401143064A1160054A4F
:102B700068321268C0F30B031A43024B68331A60C1
:102B80007047000008380240FFFCFF0F10B54FF4FB
:102B9000805000F09FF818B14FF4805000F01EF8FC
:102BA0004FF40030FEF7D4F910BD014600BF08090C
:102BB00000EB8000420001F00F001044C0B27047EB
:102BC0000146002204E0501CC2B2A1F10A00C1B2C9
:102BD0000A29F8DA100741EA10607047002101095C
:102BE0008AB242F08002044B1B6803F0800363EA60
:102BF0000202014B1A6070470C28004008B5002201
:102C0000009200200021104A126802F04002CAB966
:102C1000421E0D4B1A6000BF0B4A126802F04001C1
:102C2000009A521C0092009AB2F5803F01D0002910
:102C3000F2D0054A126802F040020AB1012002E017
:102C4000002000E0012008BD0C2800400348006877
:102C500020F0800001490860704700000C28004007
:102C600070B506460C4600250E4800680E4900EA7D
:102C70000105280CE070C5F30420607005F03F00EA
:102C8000A070C5F3423020705EB9E078FFF78DFF89
:102C9000E0706078FFF789FF6070A078FFF785FF2C
:102CA000A07070BD042800403FFFFF0010B5014632
:102CB00000200022054B1B68054C03EA040202EACF
:102CC00001030BB1012000E0002010BD0C280040E2
:102CD0007F3F010030B501460020002200230C4C4C
:102CE000246804F004020A4C383C24680C4002EAD0
:102CF000D13544EA0503064C343C246804EA111239
:102D00001BB194B20CB1012000E0002030BD0000E6
:102D10004028004070B506460C4600250F48006864
:102D20000F4900EA0105C5F305402070C5F30620F0
:102D3000607005F07F00A07005F48000000CE0706A
:102D40005EB92078FFF731FF20706078FFF72DFF24
:102D50006070A078FFF729FFA07070BD00280040C8
:102D60007F7F7F0030B504460025CA2015490860E2
:102D700053200860FFF742FF00B91DE011481C38DE
:102D8000006820F040000F491C39086008460068C0
:102D9000216808430B491C3908600A491439A068A6
:102DA000086008460068A18840EA014005491439D6
:102DB0000860FFF74BFF0125FF2002490860284605
:102DC00030BD0000242800402DE9F04105460C46A6
:102DD000002600274DB9607800F01000102804D1BB
:102DE000607820F010000A30607005B908E0607863
:102DF000FFF7DBFE0646A078FFF7D7FE064600BFCA
:102E000055B1E0780004617840EA0120A1780843D8
:102E1000217840EA413611E0E078FFF7D1FE4FEA31
:102E200000486078FFF7CCFE48EA0028A078FFF75A
:102E3000C7FE48EA0008207848EA4036CA2012490E
:102E4000086053200860FFF7D9FE08B9002714E096
:102E50000E4830400C4920390860FFF7F7FE0A4859
:102E60001C38006800F0200030B900F085F808B97F
:102E7000002702E0012700E00127FF200249086047
:102E80003846BDE8F0810000242800403FFFFF00E5
:102E90002DE9F04105460C46002600274DB92E4885
:102EA000006800F0400000B102E00020E07000BFC8
:102EB0000DE02948006800F0400020B12078FFF7BD
:102EC00074FE064602E00020E07000BF00BF55B16E
:102ED00020780004617840EA0120A1780843E17875
:102EE00040EA014611E02078FFF76AFE4FEA004809
:102EF0006078FFF765FE48EA0028A078FFF760FEDB
:102F000048EA0008E07848EA0046CA2012491C3125
:102F1000086053200860FFF771FE08B9002713E02E
:102F20000E4830400C4908390860FFF78FFE0A4808
:102F3000006800F0200030B900F01EF808B9002742
:102F400002E0012700E00127FF2003491C3108604F
:102F50003846BDE8F0810000082800407F7F7F00F0
:102F600010B54FF48040FFF7B5FE18B14FF4804024
:102F7000FFF734FE10BD000008B5002200920020CB
:102F80000021CA22134B1A6053221A60114A183AC0
:102F9000126822F0A0020F4B183B1A6000BF0D4AC6
:102FA000183A126802F02001009A521C0092009A0E
:102FB000B2F5003F01D00029F1D0064A183A126854
:102FC00002F020020AB1012000E00020FF22014BA4
:102FD0001A6008BD2428004018B1FF21044A11607E
:102FE00004E0CA21024A11605321116070470000B9
:102FF00024280040F8B504460F46154600200090EE
:1030000069465220FFF74FF8262807D0FFF776F8D9
:10301000FEF741FFFEF745FF0120F8BD2846FEF709
:103020004DFF262801D00220F7E72846FFF7A8F831
:10303000262801D00320F0E71D2005F059F8E017FD
:1030400004EB90708010032202EB8000C1B22B468B
:10305000104A6020FEF76BFF262806D00EA0FDF771
:103060004DF9FEF79EFF0420D7E739462046FEF7CC
:10307000EFFF262806D00DA0FDF740F9FEF791FFDF
:103080000520CAE7FEF78DFF0CA0FDF737F92620D3
:10309000C3E7000025000020C3DCC2EB41B6D4B179
:1030A000C8CAA7B0DC210D0A00000000CAFDBEDDC1
:1030B000B6C1C8A1CAA7B0DC210D0A00CAFDBEDD99
:1030C000B6C1C8A1B3C9B9A60D0A000070B50446BF
:1030D00000264FF400410E48FEF7B8FA022004F033
:1030E000A3FE7E2000EA440040F08005284600F060
:1030F00011F8FF2000F00EF806464FF40041044896
:10310000FEF7A6FA022004F08FFE304670BD0000E4
:103110000000024070B504464FF480611648FEF787
:1031200097FA002523E04FF480611348FEF78EFAEA
:1031300004F0800028B14FF480510F48FEF788FA60
:1031400004E04FF480510C48FEF780FA6006040E4C
:103150004FF480610848FEF77BFA4FF4006106489F
:10316000FEF76BFA08B144F00104681CC5B2082DE3
:10317000D9DB204670BD00000008024021B1028862
:1031800042F04002028004E002884FF6BF731A400A
:10319000028070470246002013890B400BB10120CA
:1031A00000E00020704701468889704781817047A0
:1031B00010B50022028802F441520B884C88234348
:1031C0008C882343CC8823430C8923434C89234395
:1031D0008C892343CC8923431A430280838B4FF28B
:1031E000FF74234083830B8A038210BD70B50546AC
:1031F0000C4600262846FFF769FF064646EA04010A
:10320000284600F00FFD70BD0CB500200190009025
:103210003348006840F480303149086000BF3048CE
:10322000006800F4003000900198401C0190009864
:1032300018B90198B0F5A04FF1D12948006800F401
:10324000003010B10120009001E0002000900098B3
:10325000012844D122484030006840F08050204985
:10326000403108601F48006840F440401D49086034
:103270001B48083000681A49083108600846006891
:1032800008600846006840F4805008601648091F2E
:103290000860081F006840F08070091F086000BFC8
:1032A0000F48006800F000700028F9D040F202706A
:1032B0000E4908600A480830006820F003000849F9
:1032C000083108600846006840F00200086000BF4E
:1032D00003480830006800F00C000828F8D10CBD45
:1032E000003802400070004019544107003C024081
:1032F00010B51548006840F4700013490860134881
:10330000006840F001001149086000200F490831B1
:1033100008600E4800680E4908400C4908600D48D6
:10332000091D0860081F006820F48020091F08603C
:10333000002006490C310860FFF766FF4FF000607F
:1033400001498039086010BD88ED00E00038024076
:10335000FFFFF6FE1030002410B50121284800F0D0
:10336000C0F801284AD10121254800F0A2F82548DB
:103370000068401E2349086008464068401C4860B9
:1033800008468068401C88600846C068401CC860C9
:1033900008460069401C086108464069401C4861B5
:1033A00008468069401C88610846C069401CC861A5
:1033B00008464068022821D300204860124800785F
:1033C00001280DD111480068401C104908600846CA
:1033D0000068B0F57A7F11D300200B4908700DE02A
:1033E0000948007850B909480068401E074908603C
:1033F0000846006810B901200349087010BD00009C
:1034000000400140C001002058000020400800405A
:1034100000B58BB001210220FFF7CAFA02208DF817
:10342000280000208DF82A000220099000208DF845
:103430002B008DF8290009A91A48FEF793F80222FB
:1034400001211848FEF7D6F801210220FFF7C0FA43
:103450000020069007900890ADF81A0040F2E7307F
:1034600007905320ADF8180006A90F4800F020F986
:10347000142101A8FDF71CF96020ADF8040000201C
:10348000ADF810000120ADF806004FF47A700390FB
:1034900001A9054800F0D0F80121034800F00CF81C
:1034A0000BB000BD0004024000040040CA43028289
:1034B0007047CA430282704721B1028842F001027C
:1034C000028004E002884FF6FE731A4002807047C3
:1034D00002460020138A0B400BB1012000E00020BF
:1034E000704730B50246002000230024158A05EA03
:1034F0000103958905EA010413B10CB1012000E034
:10350000002030BD1AB183890B43838102E0838997
:103510008B4383817047000070B500240022002394
:10352000058C4FF6FE7635400584028C8388048B2B
:103530004FF68F752C40B51E2C400D882C43751E00
:103540002A408D892A434D882A43104DA84202D033
:103550000F4DA84213D14FF6F7752A40CD892A4363
:103560004FF6FB752A408D882A434FF6FF652B40A6
:103570004FF6FF552B400D8A2B434D8A2B438380FA
:1035800004838D684563028470BD00000000014023
:103590000004014070B5002400220023058C4FF682
:1035A000EF7635400584028C8388048B48F6FF75DE
:1035B0002C404FF6FF452C400D884FF6FF7606EA6B
:1035C00005252C434FF6DF752A408D8906EA05153F
:1035D0002A434D8806EA05152A43154DA84202D014
:1035E000144DA8421DD14FF67F752A40CD894FF664
:1035F000FF7606EA05152A434FF6BF752A408D88E7
:1036000006EA05152A434FF6FF352B404FF2FF75AA
:103610002B400D8A06EA85052B434D8A06EA85056F
:103620002B43838004838D688563028470BD000012
:10363000000001400004014070B500220023002476
:10364000058C4EF6FF7635400584038C8488828B8A
:1036500048F6FF752A404FF6FF452A400D884FF681
:10366000FF7606EA05252A434DF6FF752B408D8926
:1036700006EA05352B434D8806EA05352B430A4DEE
:10368000A84202D0094DA84208D14BF6FF752C4044
:103690000D8A4FF6FF7606EA85152C4384808283D7
:1036A0008D680564038470BD000001400004014082
:1036B00000220288184B98420ED0184B98420BD02B
:1036C000B0F1804F08D0164B984205D0154B984268
:1036D00002D0154B984204D14FF68F731A404B8895
:1036E0001A43124B984207D0114B984204D04FF620
:1036F000FF431A400B891A4302804B68C3620B8850
:103700000385054B984202D0044B984201D18B7A35
:1037100003860123838270470000014000040140BA
:103720000004004000080040000C00400010004071
:10373000001400404FF0FF31416000210180018101
:10374000418081727047000008B540F2255135482C
:1037500000F038F9002850D040F22551314800F0EF
:1037600009F93148007801283BD12E4800F0E4F9EE
:10377000C0B200906A4601212C48006804F06AFF3C
:103780004FF480712A48FDF761FF28480068401C0B
:103790002649086027480068401E264908600846F8
:1037A0000068002829D124A0FCF7A8FD4FF48071FF
:1037B0001F48FDF74DFF00201B49087045F255508A
:1037C0002549086000BF2448C06800F002000028B6
:1037D000F9D1FA20204988604AF6AA20086000BF83
:1037E000FEE7104800F0A8F9C1B21C48426E406ED6
:1037F000401C1A4B58661846815440F2244109482F
:1038000000F0E0F868B1074800880648808800208A
:103810001249496E114A505411464866012081F8F8
:10382000680008BD0010014010000020500000207A
:103830000004024054000020D7D6BFE2C9D5C2BC64
:10384000CDEAB3C92C3173BAF3D7D4B6AFB8B4CE7E
:10385000BBC9E8B1B80D0A00003000405401002097
:1038600010B540F22551194800F0ACF8B8B117482E
:1038700000F062F9C4B21648B0F80004B0F57F7FDA
:1038800002D900F00FFD10BD1148B0F80014B0F8D7
:103890000004401C0E4AA2F800041046445440F2B2
:1038A00024410A4800F08EF870B1084800880748A3
:1038B000001D008800200649B1F80014044A505445
:1038C0000120114681F8020400BFDCE700440040FB
:1038D0002602002010B540F22551134800F072F87E
:1038E00080B140F22551104800F044F80E4800F035
:1038F00023F9C1B20D4802780078401C0B4B1870B8
:103900000B48815440F22441074800F05BF850B165
:10391000054800880448001D0088002003490870FD
:1039200001200449087010BD001401405900002016
:103930001C0000202400002070B505460E4600241F
:1039400004E0285D00F006F8601CC4B2B442F8DB65
:1039500070BD000010B5044600BF8021044800F08F
:1039600024F80028F9D02146014800F0EAF810BDFB
:103970000014014010B50022002340F66A14A14251
:1039800000D100BF0A1201249440A3B2DC4304809A
:1039900010BD21B1828942F40052828104E0828903
:1039A0004DF6FF731A408281704702460020B1F540
:1039B000007F00D100BF13880B400BB1012000E055
:1039C0000020704770B50246002400230025002027
:1039D00040F66A16B14200D100BFC1F3421501F0B2
:1039E0001F03012606FA03F3012D02D19689334005
:1039F00006E0022D02D1168A334001E0968A334058
:103A00000C12012606FA04F41688344013B10CB1E6
:103A1000012000E0002070BDF0B503460024002620
:103A20000025002040F66A17B94200D100BF1846B1
:103A3000C1F3421401F01F06012707FA06F5012C15
:103A400001D10C3004E0022C01D1103000E0143020
:103A50001AB107682F43076002E00768AF430760A9
:103A6000F0BD00002DE9FF4705460E460024A146A3
:103A700000BFA046B08900B100BF2C8A24F4405496
:103A8000F08804432C82AC8941F20C608443B088F6
:103A900031890843718908430443AC81AC8A24F41A
:103AA0004074B0890443AC826846FEF7B1FF2048F9
:103AB000854202D01F48854202D1DDF80C9001E01A
:103AC000DDF80890A88900F4004040B109EBC90076
:103AD00000EB091031684900B0FBF1F707E009EB92
:103AE000C90000EB091031688900B0FBF1F76420D0
:103AF000B7FBF0F004012009642101FB1078A889CC
:103B000000F4004040B1322000EBC800B0FBF1F0FF
:103B100000F00700044308E0322000EB08106421A5
:103B2000B0FBF1F000F00F0004432C81BDE8FF87EB
:103B3000001001400014014001468888C0F30800CD
:103B40007047C1F30802828070470000F8B5044650
:103B50000F4615460020009069465220FEF7A3FA52
:103B6000262807D0FEF7CAFAFEF795F9FEF799F96D
:103B70000120F8BD2846FEF7A1F9262801D0022031
:103B8000F7E72846FEF7FCFA262801D00320F0E7E5
:103B90001D2004F0ADFAE01704EB907080100322B2
:103BA00002EB8000C1B22B46104A6020FEF7BFF93D
:103BB000262806D00EA0FCF7A1FBFEF7F2F90420A0
:103BC000D7E739462046FEF7B1FB262806D00DA0E0
:103BD000FCF794FBFEF7E5F90520CAE7FEF7E1F9EB
:103BE0000CA0FCF78BFB2620C3E70000250000207B
:103BF000C3DCC2EB41B6D4B1C8CAA7B0DC210D0A00
:103C000000000000CAFDBEDDD0B4C8EBCAA7B0DC1E
:103C1000210D0A00CAFDBEDDD0B4C8EBB3C9B9A6F8
:103C20000D0A000070B504460D464FF400410A48E5
:103C3000FDF70CFD7E2000EA44063046FFF76AFAE5
:103C40002846FFF767FA4FF400410348FDF700FDEF
:103C5000022004F0E9F870BD0000024030380A2864
:103C600001D2012070470020704700BF704700005C
:103C70003EB5044663480078012879D162A0FCF77C
:103C80003DFB65A0FCF73AFB67A0FCF737FB6AA099
:103C9000FCF734FB6DA0FCF731FB71A0FCF72EFBA9
:103CA00074A0FCF72BFB784A00210846FDF73EFF85
:103CB0002020FF21002247F67C53CDE9002102900D
:103CC00072A230212820FDF73CFD1020FF210022A8
:103CD00047F67C53CDE9002102906FA253210520C5
:103CE000FDF72FFD1020FF21002247F67C53CDE980
:103CF000002102906CA26C210520FDF722FD10200E
:103D0000FF21002247F67C53CDE9002102906AA2F0
:103D100085210520FDF715FD1020FF21002247F623
:103D20007C53CDE90021029067A29E210520FDF77A
:103D300008FD1020FF21002247F67C53CDE9002129
:103D4000029066A2B7210520FDF7FBFC1020FF21A1
:103D5000002247F67C53CDE90021029064A2D021D5
:103D60000520FDF7EEFC00206649886125490870B2
:103D70006448806942F21071884208D362A0FCF75F
:103D8000BDFA0120664908801E4908703EBD332CEB
:103D90001AD006DC232C2CD0312C07D0322C2ED17B
:103DA0000BE0342C17D0352C29D11BE003205C49C3
:103DB000088001201349087021E004205849088038
:103DC0000120104908701AE005205549088001209B
:103DD0000C49087013E00620514908800120094968
:103DE00008700CE007204E49088001200549087042
:103DF00005E001204A4908800249087000BF00BF61
:103E000000BFC3E77E0000200D0AB9DCC0EDD4B1CD
:103E1000BDE7C3E63A0D0A00A1BE31A1BFC3DCC2B3
:103E2000EBB9DCC0ED0D0A00A1BE32A1BFD6B8CE01
:103E3000C6B9DCC0ED0D0A00A1BE33A1BFC9E4C6FE
:103E4000B5BFA8B9DCC0ED0D0A000000A1BE34A1C9
:103E5000BFC9F9D2F4C1C1B6C8B5F7BDDA0D0A00C1
:103E6000A1BE35A1BFBBD6B8B4B3F6B3A7C9E8D6D7
:103E7000C30D0A00A1BE23A1BFCDCBB3F6B9DCC0F0
:103E8000EDBDE7C3E60D0A00D8BD0008B9DCC0ED02
:103E9000D4B1BDE7C3E60000A1BE31A1BFC3DCC2FF
:103EA000EBB9DCC0ED000000A1BE32A1BFD6B8CE98
:103EB000C6B9DCC0ED000000A1BE33A1BFC9E4C695
:103EC000B5BFA8B9DCC0ED00A1BE34A1BFC9F9D20D
:103ED000F4C1C1B6C8B5F7BDDA000000A1BE35A176
:103EE000BFBBD6B8B4B3F6B3A7C9E8D6C3000000C9
:103EF000A1BE23A1BFCDCBB3F6B9DCC0EDD4B1BD1B
:103F0000E7C3E600C0010020CEDEB2D9D7F73AB74A
:103F1000B5BBD8D6F7BDE7C3E6210D0A0000000007
:103F20001200002000B501F065F900BD2DE9F04157
:103F300004460E4601F07CFA2746E11704EB1161B6
:103F40000912A02202EB4101C8B201F037FA01F0D8
:103F500095F90546012D04D101F094FA0120BDE840
:103F6000F081E0B201F02AFA01F088F90546012D4E
:103F700003D101F087FA0220F1E701F059FA274650
:103F8000E11704EB11610912A12202EB4101C8B251
:103F900001F014FA01F072F90546012D03D101F088
:103FA00071FA0120DBE701F09DF93070012001F08A
:103FB000D5F901F067FA0020D1E72DE9F041044678
:103FC0000F4601F035FA2646E11704EB116109129C
:103FD000A02202EB4101C8B201F0F0F901F04EF964
:103FE0000546012D04D101F04DFA0120BDE8F08114
:103FF0002646E11704EB11610912A4EB0121C8B2B6
:1040000001F0DCF901F03AF90546012D03D101F088
:1040100039FA0220EAE7384601F0D0F901F02EF92A
:104020000546012D03D101F02DFA0320DEE701F052
:1040300029FA052003F0BCFE0020D7E71CB50121BA
:104040000220FEF7B5FC01208DF804008DF8060073
:10405000C020009000208DF807008DF8050069460B
:104060000548FDF77FFA40210348FDF7F1FA80216A
:104070000148FDF7EDFA1CBD0004024010B5002414
:104080001248006820F040001049086008460068A7
:1040900040F0800008600846006820F0400008609A
:1040A000052003F0C1FE0948006840F040000749C0
:1040B0000860052003F0B8FE0448001F006800F007
:1040C000800000B900E00124204610BD1404024025
:1040D00070B51A48006820F040001849086008468A
:1040E000006840F08000086000251DE0134800686B
:1040F00020F0400011490860052003F095FE0F48AC
:10410000006840F040000D490860052003F08CFE77
:104110006006040E0948001F006800F0800008B126
:1041200044F00104681CC5B2082DDFDB03480068B9
:1041300020F0400001490860204670BD1404024090
:1041400010B504461548006820F040001349086087
:10415000032003F069FE34B91048006820F08000A5
:104160000E49086007E0012C05D10C48006840F0BA
:1041700080000A490860022003F056FE07480068E4
:1041800040F0400005490860052003F04DFE03485B
:10419000006820F040000149086010BD140402408E
:1041A00070B50446002528E01848006820F040005B
:1041B00016490860032003F037FE04F0800030B198
:1041C0001248006840F080001049086005E00F4880
:1041D000006820F080000D490860022003F024FEF2
:1041E0000A48006840F0400008490860052003F0D4
:1041F0001BFE6006040E681CC5B2082DD4DB034804
:10420000006820F040000149086070BD14040240BD
:1042100010B51348006820F04000114908600520DF
:1042200003F002FE0E48006840F080000C49086070
:104230000846006840F040000860052003F0F4FDE7
:104240000748006820F0800005490860052003F059
:10425000EBFD0348006820F040000149086010BDF4
:104260001404024010B50E48006820F040000C49CC
:1042700008600846006820F0800008600846006872
:1042800040F040000860052003F0CEFD04480068BF
:1042900040F0800002490860052003F0C5FD10BD14
:1042A00014040240002004E00021084A1154411C7B
:1042B00088B20649B1F800148142F5DC00200349B8
:1042C000A1F8000481F802047047000026020020D3
:1042D00010B5054802F0DAF84FF4967003F068FD67
:1042E000002002F0D3F810BD18FCFFFF10B503F05A
:1042F00053FC03F0ABFCFFF7EBFF10BD10B54FF420
:104300007A7002F0C3F84FF4967003F051FD00206C
:1043100002F0BCF810BD00001CB5FE200090022188
:104320001948FDF795F91E2003F042FD00215420A5
:1043300002F022F86A4601A9542001F0D1FD40B1F3
:1043400012A0FBF7DBFF02210F48FDF77FF9FF20EA
:104350001CBD9DF8000010B1902808D103E012A008
:10436000FBF7CCFF07E015A0FBF7C8FF03E017A0A1
:10437000FBF7C4FF00BF00BF02210348FDF766F949
:104380009DF80000E4E7000000080240CDA8D0C579
:10439000CAA7B0DC2CBDD3CAD5CAFDBEDDB0FCB403
:1043A000EDCEF30D0A000000CBF9D3D0D6B8CEC6BF
:1043B000C9BEB3FDB3C9B9A60D0A0000CEB4D7A2D9
:1043C000B2E1B5C4D3C3BBA70D0A0000C9BEB3FD9B
:1043D000CAA7B0DC0D0A00003EB504463B48007891
:1043E000002852D03AA0FBF789FF3EA0FBF786FFDA
:1043F0003FA0FBF783FF414A00210846FDF796FBEB
:104400002020FF21002247F67C53CDE900210290B5
:104410003BA230211820FDF794F92020FF21002233
:104420004FF47843CDE90021029039A25A21382077
:10443000FDF787F9314801214FF4784337A2CDE9E0
:1044400000107E216020FDF7A1FA1020FF2100223C
:1044500047F67C53CDE90021029031A2DC210020F7
:10446000FDF76FF91020FF21002247F67C53CDE9BC
:10447000002102902CA2DC21B420FDF762F90A2071
:1044800003F036FE0020114908702A2C14D1FF22B7
:1044900024212748FCF704F90223254A24211F2060
:1044A000FCF74CFB112003F023FE05202149088076
:1044B00001200649087007E0232C05D105201D497D
:1044C00008800120014908703EBD0000AF000020B7
:1044D0000D0AC9BEB3FDCBF9D3D0BFA8C6AC3F3AD5
:1044E0000D0A0000A1BE2AA1BFC8B7C8CF0D0A009F
:1044F000A1BE23A1BFC8A1CFFB0D0A00D8BD0008F3
:10450000C9BEB3FDCBF9D3D0BFA8C6AC0000000034
:10451000C8B7C8CFC9BEB3FD000000003F0000000F
:10452000C8B7C8CF282A2900C8A1CFFB2823290053
:10453000F1010020120000202DE9FE4F06464FF049
:10454000010AD3464FF0000893480078002866D04F
:1045500092A0FBF7D3FE97A0FBF7D0FE98A0FBF745
:10456000CDFE9AA0FBF7CAFE9B4A00210846FDF744
:10457000DDFA2020FF21002247F67C53CDE90021FF
:10458000029096A230211920FDF7DBF89248012114
:104590004CF2186395A2CDE9001078213220FDF786
:1045A000F5F98D4801214CF2186391A2CDE9001074
:1045B00078218220FDF7EAF91020FF21002247F63A
:1045C0007C53CDE9002102908AA2DC210020FDF776
:1045D000B8F81020FF21002247F67C53CDE90021D6
:1045E000029086A2DC21B420FDF7ABF8132003F083
:1045F0007FFD844A24211F20FCF74DFA1E208249AA
:10460000087000208149087000BF03E00021804A43
:104610001154401C0928F9DB00205F4908707B48D1
:104620000078092804D17BA0FBF768FE4FF0000A50
:10463000BAF1010F60D17D48FDF7C4FE0746262F71
:104640005AD100241DE04FF0000800250DE06D4810
:1046500000EB8400405D7549495D884203D108F153
:10466000010000F0FF08681CC5B2042DEFDBB8F1B3
:10467000040F04D1611C6EA0FBF740FE03E0601C38
:10468000C4B2092CDFDB00BFB8F1040F31D1002028
:1046900007E05F490A5C611C8A4201D14FF0000BC0
:1046A000401C0928F5D3BBF1010F25D12020FF21A3
:1046B0000022CDE90021029004F13100C2B247F698
:1046C0007C53502150480078FDF77EF8601C50491B
:1046D0004E4A127888544D480078401C4B49087067
:1046E000494800781430484908701D2003F000FD47
:1046F00002E055A0FBF702FE2A2E43D100200090D5
:1047000001900290814600BF2AE0002200210AE0C9
:104710001DF80130DFF8F8C01CF800C0634501D176
:10472000012202E0491C0929F2DB00BFBAB90021CD
:104730000BE04FF0FF0C364B1B5C5B1EDFF8C4E058
:104740000EEB830303F801C0491C0429F1DB304957
:10475000095C0DF8091009F1010101F0FF09401C85
:104760000928D2DB0223274A24211F20FCF7E6F97F
:10477000112003F0BDFC05203949088001200649BD
:10478000087007E0232E05D1052035490880012057
:1047900001490870BDE8FE8FB00000200D0ACAB6BE
:1047A000B1F0C9BEB3FDBFA8C6ACBDE7C3E60D0AF4
:1047B00000000000CAB6B1F0BFA8C6AC0D0A0000E8
:1047C000C8B7C8CF282A290D0A000000B7B5BBD842
:1047D0002823290D0A000000D8BD0008CAB6B1F090
:1047E000C9BEB3FDBFA8C6AC000000005000000069
:1047F00051000000C8B7C8CF282A2900B7B5BBD8D8
:1048000028232900F1010020B1000020B20000207F
:1048100047060020CAB6B1F0D2D1B4EFC9CFCFDE7F
:104820002CC7EBCFC8C9BEB3FD0D0A003B0000206A
:10483000B4CBBFA8C6ACB5C4D7A2B2E14944CEAA96
:1048400025640D0A00000000B4CBBFA8C6ACCEB4EE
:10485000D7A2B2E12CC7EBCFC8D7A2B2E10D0A00B4
:10486000120000203EB504463D480078002852D092
:10487000062003F03DFC3BA0FBF740FD3EA0FBF70C
:104880003DFD40A0FBF73AFD414A00210846FDF7F7
:104890004DF92020FF21002247F67C53CDE900216D
:1048A00002903CA230211820FCF74BFF2020FF2172
:1048B000002247F67C53CDE90021029039A2552110
:1048C0003820FCF73EFF324801214FF4784338A2EC
:1048D000CDE900107E216020FDF758F81020FF215F
:1048E000002247F67C53CDE90021029031A2DC2161
:1048F0000020FCF726FF1020FF21002247F67C5302
:10490000CDE9002102902DA2DC21B420FCF719FF93
:104910000020134908702A2C19D1FFF7FDFCFF2253
:1049200009212848FBF7BCFE0223264A092115204D
:10493000FCF704F924A0FBF7E1FC112003F0D8FBFD
:1049400004202649088001200549087007E0232C2F
:1049500005D10420214908800120014908703EBD8D
:10496000A00000200D0AC9BEB3FDCBF9D3D0D6B844
:10497000CEC63F3A0D0A0000A1BE2AA1BFC8B7C8E3
:10498000CF0D0A0023A1BFC8A1CFFB0D0A00000074
:10499000D8BD0008C9BEB3FDCBF9D3D0D6B8CEC6BA
:1049A00000000000C8B7C8CFC9BEB3FD00000000BA
:1049B0003F000000C8B7C8CF282A2900C8A1CFFBF4
:1049C00028232900E8010020D2D1C9BEB3FDCBF9CC
:1049D000D3D0D6B8CEC60D0A0000000012000020C9
:1049E000FEB5054670480078012858D16FA0FBF746
:1049F00085FC74A0FBF782FC75A0FBF77FFC77A019
:104A0000FBF77CFC784A00210846FDF78FF8202050
:104A1000FF21002247F67C53CDE90021029073A2CA
:104A200030211920FCF78DFE6F4801214CF21863EC
:104A300072A2CDE9001078216020FCF7A7FF1020BA
:104A4000FF21002247F67C53CDE9002102906CA2A1
:104A5000DC21A020FCF775FE1020FF21002247F684
:104A60007C53CDE90021029068A2DC210020FCF7F4
:104A700068FE694A09211520FCF70DF81E206749D8
:104A8000088000206649087000BF03E00021654AE5
:104A90001154401C0928F9DB002043490870614982
:104AA0005F4A12788818FDF7A9FC08BB5C480078BB
:104AB00009281DDA5A480078401C594908702020FE
:104AC000FF210022CDE90021029055480078401EC8
:104AD0005449085C3030C2B247F67C5350214F48ED
:104AE0000088FCF771FE4D48008814304B4908805F
:104AF0004B480078092807D149480078401C4849AC
:104B0000087049A0FBF7FAFB2A2D43D10020009042
:104B1000019002900026002428E00027002008E0F1
:104B20001DF800103F4A125D914201D1012702E0B9
:104B3000401C0928F4DB00BFBFB93A49085DFCF707
:104B40002DFB002009E03449095C364A125D914290
:104B500002D1FF21304A1154401C0928F3DB3148AF
:104B6000005D0DF80600701CC6B2641C2C4800786D
:104B70008442D2DB0223284A09211520FBF7DEFFFD
:104B8000112003F0B5FA04203349088001200649BA
:104B9000087007E0232D05D104202F49088001204B
:104BA00001490870FEBD0000A10000200D0ACAB630
:104BB000B1F0C9BEB3FDD6B8CEC6BDE7C3E60D0A97
:104BC00000000000CAB6B1F0D6B8CEC60D0A00008B
:104BD000A1BE2AA1BFC8B7C8CF0D0A00A1BE23A19C
:104BE000BFC8A1CFFB0D0A00D8BD0008CAB6B1F0FE
:104BF000C9BEB3FDD6B8CEC6000000005A00000002
:104C0000A1BE23A1BFB7B5BBD8000000C8B7C8CFAD
:104C1000A1BE2AA1BF000000E8010020A2000020E0
:104C2000A40000203E060020D6B8CEC6CAB6B1F019
:104C3000B8F6CAFDB4EFB5BDC9CFCFDE2CC7EBCFF8
:104C4000C8C9BEB3FDD2D1BEADCAB6B1F0D6B8CEDA
:104C5000C649440D0A00000012000020FEB50446BB
:104C60001E264F480078002865D0072003F040FA40
:104C70004CA0FBF743FB51A0FBF740FB53A0FBF715
:104C80003DFB58A0FBF73AFB5B4A00210846FCF7C6
:104C90004DFF2020FF21002247F67C53CDE9002163
:104CA000029056A230211820FCF74BFD1020FF2166
:104CB000002247F67C53CDE90021029053A2DC216B
:104CC0000020FCF73EFD1020FF21002247F67C5318
:104CD000CDE90021029050A2DC219620FCF731FDA5
:104CE000504A09211520FBF7D6FE00BF00251DE024
:104CF0004C48405DFF2817D04A48415D4AA0FBF769
:104D0000FDFA2020FF210022CDE900210290454834
:104D1000405D3030C2B247F67C5350213046FCF73C
:104D200053FD06F1140086B2681CC5B2092DDFDB05
:104D300000201B490870FF2C1DD0232C1BD02A2CCF
:104D400019D0A4F13001C8B2FCF728FA384908603C
:104D50000846006878B9FF21A4F13100314A1154A6
:104D6000022309211520FBF7E9FE112003F0C0F909
:104D700001200B490870232C02D02A2C0DD106E00B
:104D800004202C49088001200549087005E0012015
:104D9000284908800249087000BF00BFFEBD00001E
:104DA0009B0000200D0AC9BEB3FDD6B8B6A8D6B880
:104DB000CEC6BDE7C3E63A0D0A000000C7EBD1A19D
:104DC000D4F1D6B8CEC649440D0A0000A1BE23A135
:104DD000BFBBD8B5BDC9CFD2BBBCB6B2CBB5A50D94
:104DE0000A000000A1BE2AA1BFBBD8B5BDD6F7BD41
:104DF000E7C3E60D0A000000D8BD0008C9BEB3FD38
:104E0000D6B8B6A8D6B8CEC600000000A1BE2AA16A
:104E1000BFD6F7BDE7C3E600C9CFD2BBBCB6A1BEC3
:104E200023A1BF00E801002025752020000000001C
:104E30009C00002012000020FEB504466348007864
:104E4000002876D062A0FBF759FA67A0FBF756FA64
:104E500069A0FBF753FA6EA0FBF750FA714A0021E4
:104E60000846FCF763FE2020FF21002247F67C5312
:104E7000CDE9002102906CA230211820FCF761FCE2
:104E80001020FF21002247F67C53CDE9002102903B
:104E900069A2DC210020FCF754FC1020FF21002235
:104EA00047F67C53CDE90021029066A2DC219620D2
:104EB000FCF747FC0B2003F01BF9654A24211F2057
:104EC000FBF7E9FD1E206349088000206249087055
:104ED000002529E0002622E05D4800EB8500805D8A
:104EE000FF281AD02020FF210022CDE900210290C6
:104EF00005F13100C2B247F67C5350215548008875
:104F0000FCF762FC54480078401C53490870514833
:104F1000008814304F49088003E0701CC6B2042E8C
:104F2000DADB00BF681CC5B2092DD3DB002027499E
:104F3000087049480078002823DDFF2C31D0232C4D
:104F40002FD02A2C2DD0002007E0FF22A4F1310120
:104F50003F4B03EB81010A54401C0428F5DB02237C
:104F60003B4A24211F20FBF7E9FD112003F0C0F884
:104F700039480078401E38490870012013490870EC
:104F80000FE036A0FBF7BAF92020FF2100224FF4F2
:104F90007843CDE90021029038A2AA211E20FCF717
:104FA000D0FB232C02D02A2C0DD106E00520374956
:104FB000088001200549087005E001203349088078
:104FC0000249087000BF00BFFEBD0000AB0000201A
:104FD0000D0AC9BEB3FDD6B8B6A8BFA8C6ACBDE71A
:104FE000C3E63A0D0A000000C7EBD1A1D4F1BFA877
:104FF000C6AC0D0A00000000A1BE23A1BFBBD8B5FE
:10500000BDC9CFD2BBBCB6B2CBB5A50D0A0000005E
:10501000A1BE2AA1BFBBD8B5BDD6F7BDE7C3E60D7B
:105020000A000000D8BD0008C9BEB3FDD6B8B6A8B6
:10503000BFA8C6AC00000000A1BE2AA1BFD6F7BD24
:10504000E7C3E600C9CFD2BBBCB6A1BE23A1BF0057
:10505000F1010020AC000020AE000020C3BBD3D083
:10506000D3C3BBA7D7A2B2E1BCC7C2BC2CC7EBCF8E
:10507000C8D7A2B2E1BFA8C6AC0D0A00C7EBCFC823
:10508000D7A2B2E1BFA8C6AC000000001200002009
:105090003EB504463448007800284FD033A0FBF7D3
:1050A0002DF938A0FBF72AF939A0FBF727F93B4A7D
:1050B00000210846FCF73AFD2020FF21002247F698
:1050C0007C53CDE90021029035A230211820FCF755
:1050D00038FB1020FF21002247F67C53CDE9002148
:1050E000029033A255213820FCF72BFB2B480121DD
:1050F0004FF4784331A2CDE900107E216020FCF707
:1051000045FC1020FF21002247F67C53CDE9002109
:1051100002902BA2D2210020FCF713FB1020FF21CC
:10512000002247F67C53CDE90021029026A2D2212D
:10513000B420FCF706FB00200B4908702A2C09D18B
:105140000020234908600120224908800649087090
:1051500002F080F8232C05D102201E49088001208E
:10516000014908703EBD0000B40000200D0ABBD606
:10517000B8B4B3F6B3A7C9E8D6C3BDE7C3E63A0DE2
:105180000A000000A1BE2AA1BFC8B7C8CF0D0A00FF
:10519000A1BE23A1BFC8A1CFFB0D0A00D8BD000846
:1051A000BBD6B8B4B3F6B3A7C9E8D6C300000000B5
:1051B000C8B7C8CFBBD6B8B4A3BF00004800000032
:1051C000C8B7C8CF282A2900C8A1CFFB28232900A7
:1051D000400400401200002000BF054A128802F07F
:1051E0004002002AF9D0C2B2014B9A8070470000F9
:1051F000001001401E48006840F001001C49086092
:105200000846006840F0040008601A48006820F46E
:105210004030184908600846006840F48030086053
:105220001548006820F440201349086008460068CB
:1052300040F4802008600F48406820F480700D49D9
:1052400048600D48001D006840F400700A49091DBF
:1052500008600848406940F4807006494861064883
:105260001430006840F4007003491431086070473E
:1052700030380240000002400008024010B51748D4
:10528000406920F48070154948611548006840F471
:105290000070134908601148406920F480700F497C
:1052A0004861052002F0C0FD0C48406940F4807060
:1052B0000A494861052002F0B7FD0948001F00684F
:1052C00000F4007008B1012400E0002403484069A4
:1052D00020F4807001494861204610BD0000024062
:1052E0001408024070B51B48406920F480701949C9
:1052F00048611948006840F40070174908600025AB
:105300001DE01448406920F480701249486105206E
:1053100002F08AFD0F48406940F480700D494861F1
:10532000052002F081FD6006040E0B48001F006896
:1053300000F4007008B144F00104681CC5B2082DE7
:10534000DFDB0448406920F4807002494861204650
:1053500070BD0000000002401408024010B5044671
:105360001448406920F4807012494861032002F01B
:105370005BFD34B11048006840F400700E490860CD
:1053800005E00D48006820F400700B490860022019
:1053900002F04AFD0748406940F4807005494861C1
:1053A000052002F041FD0348406920F48070014966
:1053B000486110BD000002401408024070B5044668
:1053C000002528E01848406920F48070164948619B
:1053D000032002F029FD04F0800030B1134800687A
:1053E00040F400701149086005E01048006820F49E
:1053F00000700E490860022002F016FD0A4840695C
:1054000040F4807008494861052002F00DFD6006F7
:10541000040E681CC5B2082DD4DB0348406920F493
:1054200080700149486170BD0000024014080240CC
:1054300010B51248406920F4807010494861104846
:10544000006840F400700E4908600C48406940F460
:1054500080700A494861052002F0E6FC08480068AF
:1054600020F4007006490860052002F0DDFC0348C6
:10547000406920F480700149486110BD000002407D
:105480001408024010B50F48406920F480700D499F
:1054900048610D48006820F400700B490860094815
:1054A000406940F4807007494861052002F0BCFC67
:1054B0000548006840F4007003490860052002F0C8
:1054C000B3FC10BD00000240140802404AF6AA20B6
:1054D0000149086070470000003000400E48006835
:1054E00040F001000C49086000BF0B48006800F064
:1054F00002000028F9D045F25550084908600520FF
:10550000486040F6C41088604AF6AA2008604CF64D
:10551000CC40086070470000743802400030004002
:105520001CB501210846FDF743FA01210420FDF7CF
:105530003FFA0020009001908DF8040001200090B7
:1055400000208DF8070069460548FCF70BF84FF47A
:105550000050009069460348FCF704F81CBD0000A9
:10556000000002400008024010B50024012120483C
:10557000FCF763F878B11F48007860B1142002F09E
:1055800017FC01211A48FCF758F8D0B1012400207B
:105590001849087015E04FF400511748FCF74DF812
:1055A00078B91448007860B1142002F001FC4FF47F
:1055B00000511148FCF741F818B9022400200D49A8
:1055C000087001210A48FCF738F878B94FF4005107
:1055D0000948FCF732F808B9012000E0002028B99A
:1055E000142002F0E5FB012002490870204610BD9E
:1055F000000002404E000020000802401CB50121BE
:105600000220FDF7D5F900200090019001208DF8CF
:10561000040000208DF806004FF440700090002038
:105620008DF807008DF8050069460448FBF79AFFDE
:105630004FF440710148FCF70BF81CBD0004024018
:105640004FF4A060FDF714F8FFF7D8FFFFF768FFED
:105650004FF4E13002F064FC02F0DAFFFEF762FC86
:1056600002F04CFBFCF797FA02F086FDFBF7CAFB51
:10567000FFF734FFFEF73AFE01F0F4FF00F0AAFA5C
:10568000FCF7AAFC012002F009FC03F0C7F8FBF7C5
:10569000F7FD55A157A0FBF7EBFE594908700846E6
:1056A000007860B902F0DCF800F00EFF012803D1A9
:1056B00054A0FAF723FE02E05CA0FAF71FFE02F006
:1056C00027F98FE0FFF702FF4D48007880B9614865
:1056D000007868B901205F49087000F0F5FE0128E4
:1056E00003D148A0FAF70AFE02E050A0FAF706FE3E
:1056F00059480078012808D100205749087040F621
:10570000B83256A156A0FBF775FEFBF781FA59494E
:10571000087059480088292828D007DC08285CD25E
:10572000DFE800F05B10151A1F3851562A380D2893
:1057300053D2DFE800F020252A52525252525234FE
:10574000393E43004B48007800F098F845E049485E
:105750000078FEF78DFA40E04648007801F056FAEE
:105760003BE04448007800F05DFA36E041480078BC
:10577000FBF7F4FB31E03F480078FFF76FFA2CE0CD
:105780003C480078FFF76EF827E03A480078FFF7CA
:1057900027F922E03748007801F09AFD1DE03548EE
:1057A000007801F08BFB18E032480078FFF744FBEB
:1057B00013E030480078FEF70FFE0EE02D48007829
:1057C000FEF7BAFE09E02B48007802F001FD04E084
:1057D00028480078FFF75CFC00BF00BF02F02CF9FE
:1057E000FDF7D4F86EE700003838383838383838E4
:1057F00000000000333139333334383534000000D1
:10580000490000204D515454B7FECEF1C6F7C1AC4B
:10581000BDD3B3C9B9A621D4B6B3CCBFAACBF8B90E
:10582000A6C4DCBFAAC6F4A3A10D0A004D5154546E
:10583000B7FECEF1C6F7C1ACBDD3CAA7B0DC21D448
:10584000B6B3CCBFAACBF8B9A6C4DCB9D8B1D5A33E
:10585000A10D0A004A0000204D0000204F4B00001F
:1058600041542B434950534E545054494D453F0DDC
:105870000A00000011000020120000207CB5044640
:105880001F49204601F02EF80546012D0CD10220BB
:105890001C490880C1011C48FBF7D8FE00201B49A9
:1058A000086101201A49087015480078FF2803D1C3
:1058B00000F02AFF00F090FE144880684EF6602148
:1058C00088421BD30020114988601249FDF722FA53
:1058D00011490020FDF7C4F90E48437802780FA162
:1058E0001148FAF717FD114801214CF218630E4ACE
:1058F000CDE900103A210020FCF748F87CBD0000FB
:10590000600000201200002000040240C0010020BE
:1059100048000020140000201800002025303264C8
:105920003A253032640000002A060020D8BD000865
:105930007CB504462146512000F01EFD6A4601A9AF
:10594000512000F0CDFA0546002D4ED19DF8000003
:10595000B5282DD00BDCB2281ED003DCA0B1B128B5
:105960003ED115E0B3281BD0B42839D11CE0B828AB
:105970002AD004DCB6281FD0B72831D120E0C028B7
:1059800026D0C2282CD127E01CA0FAF7B7FC2BE0C8
:1059900022A0FAF7B3FC27E027A0FAF7AFFC23E038
:1059A0002BA0FAF7ABFC1FE037A0FAF7A7FC1BE02F
:1059B00043A0FAF7A3FC17E04EA0FAF79FFC13E010
:1059C0005AA0FAF79BFC0FE065A0FAF797FC0BE0F2
:1059D00069A0FAF793FC07E06BA0FAF78FFC03E0ED
:1059E00070A0FAF78BFC00BF04E076A0FAF786FC03
:1059F000FF207CBD9DF80000FBE70000D7A5C8A1F3
:105A0000D6B8CEC6CDBCCFF1BCB0CCD8D5F7C1BFCF
:105A1000CCE1C8A1B3C9B9A60D0A0000D6B8CEC65C
:105A2000B9FDD0A128736D616C6C2066696E6765E5
:105A300072290D0A00000000CEDED6B8CEC620289E
:105A40006E6F2066696E676572290D0A000000009E
:105A5000D6B8CEC6CEBBD6C3B9FDD3DABFBFD7F357
:105A6000A3ACD0E8D2AABDABCAD6D6B8BFBFD3D2FA
:105A7000B1DFDEF4B0B4286C6566742066696E67C9
:105A80006572290D0A000000D6B8CEC6CEBBD6C3BB
:105A9000B9FDD3DABFBFD3D2A3ACD0E8D2AABDAB95
:105AA000CAD6D6B8BFBFD7F3B1DFDEF4B0B4287220
:105AB000696768742066696E676572290D0A00005F
:105AC000D6B8CEC6CEBBD6C3B9FDD3DABFBFC9CF19
:105AD000A3ACD0E8D2AABDABCAD6D6B8BFBFCFC29E
