:020000040800F2
:1000000020070020390200084102000843020008CE
:1000100045020008470200084902000800000000ED
:100020000000000000000000000000004B0200087B
:100030004D020008000000004F02000851020008B5
:10004000530200085302000853020008530200083C
:10005000530200085302000853020008530200082C
:10006000530200085302000853020008530200081C
:10007000530200085302000853020008530200080C
:100080005302000853020008530200080000000059
:100090000000000000000000000000005302000803
:1000A000111500085302000853020008530200080B
:1000B00053020008530200085302000853020008CC
:1000C00053020008530200085302000853020008BC
:1000D0005302000835180008530200080000000011
:1000E00053020008530200085302000800000000F9
:1000F00000000000000000000000000053020008A3
:1001000000000000530200085302000853020008D8
:1001100000000000000000000000000000000000DF
:10012000530200085302000853020008530200085B
:100130005302000800000000000000000000000062
:100140000000000000000000000000005302000852
:10015000530200085302000853020008530200082B
:1001600053020008530200080000000000000000D5
:10017000000000000000000000000000000000007F
:100180000000000053020008000000000000000012
:100190005302000800F002F800F03EF80AA090E8D0
:1001A000000C82448344AAF10107DA4501D100F032
:1001B00033F8AFF2090EBAE80F0013F0010F18BFC1
:1001C000FB1A43F00103184780F00100A0F0010082
:1001D000103A24BF78C878C1FAD8520724BF30C873
:1001E00030C144BF04680C60704700000023002445
:1001F00000250026103A28BF78C1FBD8520728BF37
:1002000030C148BF0B607047002070471FB502F037
:1002100009FF1FBD10B510BD00F0A4F91146FFF78E
:10022000F5FF02F099F800F0C2F903B4FFF7F2FF0E
:1002300003BC01F06BFC00000948804709480047F7
:10024000FEE7FEE7FEE7FEE7FEE7FEE7FEE7FEE786
:10025000FEE7FEE704480549054A064B70470000E3
:10026000A9140008950100082001002020070020A3
:100270002003002020030020704700000FB4044931
:1002800010B503AA029800F03FF910BC5DF814FB0A
:10029000100000202DE9F05F894604464FF0000A67
:1002A000DFF824B1FB44C0F820A02046E16888476D
:1002B00000287DD0252806D0D4E901219047206A66
:1002C000401C2062F1E700255F462046E168884730
:1002D0002028064607DB312E05D2B81910F8200C6D
:1002E00008B10543F1E7A80701D525F00405C4F8D6
:1002F0001CA00027C4F818A02A2E09D0304601F00F
:10030000FEFB38B304EB8708303EC8F8186019E0EC
:1003100059F8041B204604EB87029161E168884785
:10032000012F064618D1E069002820DA25F02005C3
:100330001DE0D8F8180000EB800006EB40003038D4
:10034000C8F818002046E1688847064601F0D7FB48
:100350000028EED1012F0AD02E2E08D12046E168C8
:1003600088477F1C0646022F45F02005C4DBA069A4
:10037000002803DA404245F00105A061E80701D0FA
:1003800025F01005A6B1A6F14100192802D82036A3
:1003900045F400654A463146204625604D46FFF744
:1003A00033FF60B1012807D0ED1D25F0070000E004
:1003B00007E000F1080978E705F1040975E7304620
:1003C0007AE7206ABDE8F09F8EEF010010B5203A71
:1003D000C0F00B80B1E81850203AA0E81850B1E8FE
:1003E0001850A0E81850BFF4F5AF5FEA027C24BFB4
:1003F000B1E81850A0E8185044BF18C918C0BDE8AB
:1004000010405FEA827C24BF51F8043B40F8043B73
:1004100008BF7047D20728BF31F8023B48BF11F828
:10042000012B28BF20F8023B48BF00F8012B704782
:100430004FF0000200B5134694469646203922BF7D
:10044000A0E80C50A0E80C50B1F12001BFF4F7AFC8
:10045000090728BFA0E80C5048BF0CC05DF804EBAA
:10046000890028BF40F8042B08BF704748BF20F818
:10047000022B11F0804F18BF00F8012B70470000CD
:100480004FF0013C50F8042B51F8043B9A4221D123
:10049000A2EB0C03934313EACC1317D150F8042BAF
:1004A00051F8043B9A4215D1A2EB0C03934313EA93
:1004B000CC130BD150F8042B51F8043B9A4209D1CC
:1004C000A2EB0C03934313EACC13DBD04FF00000F4
:1004D000704700BFD01A01BAB1FA81F101F01801DA
:1004E00022FA01F0CB40C1F12001DBB2C0B2C01A48
:1004F0002CFA01F3D11A914311EAC311E6D17047E6
:100500007047704770477047074B70B50D467B4486
:1005100000F011F80446284600F020F810B14FF022
:10052000FF3070BD204670BDC719000001694A1C2C
:1005300002610878704700B58FB0CDE90131002124
:10054000059105497944CDE9031011466846FFF746
:10055000A1FE0FB000BD0000E5FFFFFF007B00F033
:1005600080007047754600F02BF8AE4605006946DE
:10057000534620F00700854618B020B5FFF76AFE05
:10058000BDE820404FF000064FF000074FF0000894
:100590004FF0000B21F00701AC46ACE8C009ACE815
:1005A000C009ACE8C009ACE8C0098D46704710B579
:1005B0000446AFF300802046BDE81040FFF735BE8B
:1005C00000487047BC0000202DE9F04104460D466C
:1005D000164601F0ADFDA046E11704EB11610912CA
:1005E000A02202EB4101C8B201F068FD01F0C6FC97
:1005F0000746012F04D101F0C5FD0120BDE8F081BF
:10060000E0B201F05BFD01F0B9FC0746012F03D118
:1006100001F0B8FD0220F1E701F08AFDA046E117E4
:1006200004EB11610912A12202EB4101C8B201F0F1
:1006300045FD01F0A3FC0746012F03D101F0A2FD07
:100640000120DBE70DE001F0CDFC3070681E85B2C3
:100650001DB9012001F002FD04E0002001F0FEFCC4
:10066000761CF0E700BF01F08DFD0020C6E72DE904
:10067000F04106460D4690461F4619E0F80096FBED
:10068000F0F100FB1160C0EBC700C4B2AC4205DB67
:10069000E9B24246304600F010F80AE042462146F0
:1006A000304600F00AF8301986B2281B85B2A04403
:1006B000E4E700BF0020BDE8F0812DE9F0410446E9
:1006C0000D46164601F034FDA046E11704EB11611A
:1006D0000912A02202EB4101C8B201F0EFFC01F0C7
:1006E0004DFC0746012F04D101F04CFD0120BDE86F
:1006F000F081E0B201F0E2FC01F040FC0746012F7E
:1007000003D101F03FFD0220F1E710E0307801F065
:10071000D5FC01F033FC0746012F03D101F032FD77
:100720000320E4E7681EC5B205B901E0761CEDE7D9
:1007300000BF01F027FD052002F050F90020D6E7A8
:1007400010B5FF240E48006900F0020068B90D489A
:10075000007850B100F018F80446FF2C05D00020B6
:10076000084908701D2002F057FA0548006900F09A
:10077000020010B1012003490870204610BD00009E
:10078000000002402800002010B501F037FBA02037
:1007900001F0FCFA01F068FA18B101F059FB0120F0
:1007A00010BD00BF3B48006800F040000028F9D0B1
:1007B000082001F0EBFA01F057FA18B101F048FBFC
:1007C0000220EDE700BF3348006800F04000002839
:1007D000F9D001F013FBA12001F0D8FA01F044FA9E
:1007E00018B101F035FB0320DAE700BF29480068A3
:1007F00000F040000028F9D001F060FA0446002023
:1008000001F094FA01F05AFA44EA0024012001F0C0
:100810008DFA01F01DFB402C2AD00EDC082C29D0CB
:1008200006DC012C1AD0022C1ED0042C2ED127E07D
:10083000102C29D0202C29D120E0B4F5007F21D024
:1008400005DC802C0ED0B4F5807F1FD114E0B4F508
:10085000806F05D0B4F5006F18D107E031209FE715
:1008600032209DE733209BE7342099E7352097E736
:10087000362095E7372093E7382091E739208FE736
:100880002A208DE730208BE7232089E700BFFF2057
:1008900086E700001004024070B50446002601F00F
:1008A000ADFAA02001F072FA01F0DEF918B101F002
:1008B000CFFA012070BD00BF1D48006800F0400065
:1008C0000028F9D0B02001F061FA01F0CDF918B19B
:1008D00001F0BEFA0220EDE700BF1548006800F005
:1008E00040000028F9D001251BE0162D03D1F0B2FD
:1008F00001F04CFA05E0207801F048FA207806442F
:10090000641C01F0B1F918B101F0A2FA0320D1E79B
:1009100000BF0748006800F040000028F9D0681CBC
:10092000C5B2162DE1DD01F093FA0020C2E7000008
:100930001004024000B58DB0182107A8FFF778FD1C
:1009400018220BA101A8FFF741FD01F06DF90E4837
:10095000006840F001000C4908600C48006820F075
:100960000C000A49086001A8FFF796FF0DB000BD12
:10097000000083F3983F3F3F3F3F3F3F3F3F3F3FB4
:100980003F3F3F3F7F000000303802400000024000
:10099000F0B50A4600210023002400BF3DE00125F8
:1009A00005FA01F3156805EA03049C4234D1056891
:1009B0004F000326BE40B543056015794E00B54093
:1009C0000668354305601579012D02D01579022D91
:1009D00016D185684F000326BE40B5438560557922
:1009E0004E00B540866835438560456801268E40D7
:1009F000B5434560456896798E40B6B2354345604B
:100A0000C5684F000326BE40B543C560D5794E008A
:100A1000B540C6683543C560491C1029BFD3F0BD39
:100A2000F0B5002300244D07ED0E02FA05F3CE10B9
:100A300000F1200555F826504E07F70E0F26BE4050
:100A4000B543CF1000F1200646F82750CE1000F134
:100A5000200555F8265045EA0304CE1000F1200584
:100A600045F82640F0BD0246002013690B400BB14B
:100A7000012000E0002070474183704701837047E8
:100A80001CB50121022000F0BFFB45F2024000909E
:100A900001208DF8040000208DF806008DF8070075
:100AA00069460648FFF774FF02210448FFF7E4FF98
:100AB0004FF480510148FFF7E1FF1CBD00040240E4
:100AC00070B506460C4615462A2001F031FE304628
:100AD00001F05EFE304601F05BFE2B2001F028FEA7
:100AE000204601F055FE204601F052FE2C2001F078
:100AF0001FFE284601F04CFE70BD2DE9F047074669
:100B00000C4615469946781B801E1FFA80F828E08F
:100B1000601B801E86B21CE0A8EB07004043311B1F
:100B2000321B01FB020105FB05F081420FDBA8EB44
:100B300007004043311B321B01FB0201A81C40434C
:100B4000814204DC4A4631464046FFF7B9FF701C3B
:100B500086B26019801CB042DEDA08F101001FFA8B
:100B600080F87819801C4045D2DABDE8F08770B56E
:100B700005462A2001F0DCFD002001F009FEEF20EF
:100B800001F006FE2B2001F0D3FD002001F000FE55
:100B9000EF2001F0FDFD2C2001F0CAFD002403E050
:100BA000284601F0F5FD641CB4F5614FF8D370BD23
:100BB0002DE9FE4F06460F4615469A46DDE90C899B
:100BC0000E9C33E0287820281DDB28787F281ADC4B
:100BD00004EBD4714910C1F1F001B14202DA0026F0
:100BE000381987B2CDE9008902942A7853463946EC
:100BF000304600F021F86D1C204604EBD07106EB66
:100C000061018EB212E0C4F1F000B04202DA0026B7
:100C1000381987B253462A4639463046CDE900890D
:100C2000029400F06BF8AD1C301986B228780028C9
:100C3000C8D1BDE8FE8F00002DE9F04F95B0804689
:100C4000894692469B46209C5046C7B2102C07D13D
:100C5000610301EB071010AA102102F00DF908E062
:100C6000202C06D1244901EB87106A46402102F06E
:100C700003F900253BE0102C03D110A8405D14902F
:100C80000AE0202C08D16800401C1DF800001DF867
:100C9000151040EA01201490002621E004EBD471E5
:100CA0004910491E8A1B01219140149A114049B1F3
:100CB00009EB050291B208EB060290B25A46FFF723
:100CC000FFFE0BE01E98012808D109EB050291B246
:100CD00008EB060290B21F9AFFF7F2FE701CC6B234
:100CE00004EBD471B6EB610FD8DB681CC5B2A5422A
:100CF000C1DB15B0BDE8F08F060802002DE9F04F0A
:100D0000A9B08046894692469B46349D00BF9AF81A
:100D10000100A1389AF80010A139C1EB011202EBD1
:100D2000411100EB410087B2102D07D1314901EB91
:100D3000471020AA202102F09FF808E0202D06D1BC
:100D40002D4901EBC7106A46802102F095F8002476
:100D50004AE0102D09D1012000EB440020A9085CD5
:100D600011F8141040EA01202890202D17D11DF809
:100D700024000006012101EB84011DF8011040EA66
:100D80000140022101EB84011DF8011040EA01201D
:100D9000032101EB84011DF801100843289000266F
:100DA0001EE0681E811B012088402899084048B138
:100DB00009EB040291B208EB060290B25A46FFF723
:100DC0007FFE0BE03298012808D109EB040291B2B2
:100DD00008EB060290B2339AFFF772FE701CC6B29F
:100DE000AE42DEDB601CC4B2AC42B2DB29B0BDE86F
:100DF000F08F00000C280200522606002DE9F04773
:100E000007460E461446254604F108082A2001F03C
:100E10008FFC384601F0BCFC69883944491E88B211
:100E200001F0B6FC2B2001F083FC304601F0B0FC51
:100E3000A9883144491E88B201F0AAFC2C2001F097
:100E400077FC4FF0000907E0B8F8000001F0A0FCC3
:100E500008F1020809F101096888A9884843484552
:100E6000F2D8BDE8F087000010B500F0EFF8FFF70A
:100E700007FE01F04BFC362001F05AFC002001F087
:100E80006FFC3A2001F054FC052001F069FCB2200F
:100E900001F04EFC0C2001F063FC0C2001F060FC22
:100EA000002001F05DFC332001F05AFC332001F0FA
:100EB00057FCB72001F03CFC352001F051FCBB2071
:100EC00001F036FC192001F04BFCC02001F030FC91
:100ED0002C2001F045FCC22001F02AFC012001F089
:100EE0003FFCC32001F024FC122001F039FCC42097
:100EF00001F01EFC202001F033FCC62001F018FC9C
:100F00000F2001F02DFCD02001F012FCA42001F0F4
:100F100027FCA12001F024FCE02001F009FCD020F6
:100F200001F01EFC042001F01BFC0D2001F018FC58
:100F3000112001F015FC132001F012FC2B2001F010
:100F40000FFC3F2001F00CFC542001F009FC4C2068
:100F500001F006FC182001F003FC0D2001F000FC5C
:100F60000B2001F0FDFB1F2001F0FAFB232001F014
:100F7000F7FBE12001F0DCFBD02001F0F1FB0420C5
:100F800001F0EEFB0C2001F0EBFB112001F0E8FB7F
:100F9000132001F0E5FB2C2001F0E2FB3F2001F0E3
:100FA000DFFB442001F0DCFB512001F0D9FB2F20B6
:100FB00001F0D6FB1F2001F0D3FB1F2001F0D0FB76
:100FC000202001F0CDFB232001F0CAFB212001F0FD
:100FD000AFFB112001F0ACFB292001F0A9FB02219D
:100FE0000348FFF74BFD0020FFF7C1FD10BD0000D7
:100FF000000402402DE9F04707460D461446994685
:10100000381B1FFA80F81BE0281B86B211E0A8EB02
:1010100007004043711B721B01FB020104FB04F03B
:10102000814204DC4A4631464046FFF749FD701CC8
:1010300086B22819B042EADA08F101001FFA80F8F6
:1010400038194045E0DABDE8F08700001CB5012101
:10105000022000F0D9F84FF42040009001208DF8D4
:10106000040000208DF806008DF8070002208DF89E
:10107000050069460448FFF78BFC4FF40051024815
:10108000FFF7FAFC1CBD00000004024070B50446E6
:1010900000251BE04FF400510E48FFF7EDFC04F073
:1010A000800028B14FF400410A48FFF7E7FC04E054
:1010B0004FF400410748FFF7DFFC4FF400510548AB
:1010C000FFF7DCFC6006040E681CC5B2082DE1DBEE
:1010D00070BD0000000402402DE9F05F06460D4699
:1010E00014461F46DDF82C904FF0000AC5EB0510A2
:1010F00006EB00110C98083000EB41082A2001F0A3
:1011000017FB304601F044FB3119491E88B201F04B
:101110003FFB2B2001F00CFB284601F039FBE919BD
:10112000491E88B201F034FB2C2001F001FBD346AC
:101130001DE0B9F1000F03D10A9801F029FB14E07A
:10114000B9F1010F11D1B8F8000001F021FB08F14D
:1011500002080AF101001FFA80FAA24505D1C4F184
:10116000F00008EB40084FF0000A0BF1010B04FB04
:1011700007F05845DDD8BDE8F09F000070B50021AC
:1011800000230F22C4781CB3174C246804F4E064D5
:10119000C4F5E064C4F30721C1F10404E3B20A41D9
:1011A00044789C40E1B28478144021430C07210E1E
:1011B0000E4C05786155047804F01F050124AC40FD
:1011C00005786D11AD0005F1E025C5F8004109E095
:1011D000047804F01F050124AC40054D0678761113
:1011E00045F8264070BD00000CED00E000E400E092
:1011F00080E100E002490143024A116070470000AB
:101200000000FA050CED00E029B1064A126802431D
:10121000044B1A6004E0034A12688243014B1A60CF
:10122000704700003038024029B1064A1268024374
:10123000044B1A6004E0034A12688243014B1A60AF
:10124000704700004038024029B1064A1268024344
:10125000044B1A6004E0034A12688243014B1A608F
:101260007047000044380240F0B5002100220024FD
:10127000022500260223324F3F6807F00C0121B1FE
:10128000042905D0082937D105E02E4F076036E044
:101290002D4F076033E02A4F3F1F3F68C7F380564A
:1012A000274F3F1F3F6807F03F036EB1264FB7FB44
:1012B000F3F7DFF88CC0ACF1040CDCF800C0CCF321
:1012C000881C07FB0CF40CE01E4FB7FBF3F7DFF8AC
:1012D00070C0ACF1040CDCF800C0CCF3881C07FB38
:1012E0000CF4174F3F1F3F68C7F301477F1C7D0079
:1012F000B4FBF5F7076002E0124F076000BF00BFC4
:101300000F4F3F6807F0F0010909104F7A5C07683A
:10131000D74047600A4F3F6807F4E051890A0B4FF6
:101320007A5C4768D7408760054F3F6807F46041A3
:10133000490B064F7A5C4768D740C760F0BD000094
:10134000083802400024F40040787D012900002084
:1013500021B1028842F04002028004E002884FF688
:10136000BF731A40028070470246002013890B4069
:101370000BB1012000E000207047014688897047CA
:101380008181704710B50022028802F441520B8817
:101390004C8823438C882343CC8823430C892343E4
:1013A0004C8923438C892343CC8923431A430280ED
:1013B000838B4FF2FF74234083830B8A038210BD1B
:1013C0000CB50020019000903348006840F4803054
:1013D0003149086000BF3048006800F400300090D8
:1013E0000198401C0190009818B90198B0F5A04FE1
:1013F000F1D12948006800F4003010B101200090BC
:1014000001E0002000900098012844D1224840309B
:10141000006840F080502049403108601F48006853
:1014200040F440401D4908601B48083000681A49D4
:10143000083108600846006808600846006840F403
:10144000805008601648091F0860081F006840F0B7
:101450008070091F086000BF0F48006800F000702E
:101460000028F9D040F202700E4908600A4808309E
:10147000006820F003000849083108600846006849
:1014800040F00200086000BF03480830006800F028
:101490000C000828F8D10CBD003802400070004054
:1014A00019544107003C024010B51548006840F44B
:1014B0007000134908601348006840F001001149AA
:1014C000086000200F49083108600E4800680E4986
:1014D00008400C4908600D48091D0860081F006895
:1014E00020F48020091F0860002006490C310860A4
:1014F000FFF766FF4FF0006001498039086010BDBA
:1015000088ED00E000380240FFFFF6FE10300024B6
:1015100010B501211C4800F05AF8012832D10121F0
:10152000194800F03CF819480088401E1749088007
:1015300008464088401C488008464088022821DB35
:10154000002048801248007801280DD11148006819
:10155000401C1049086008460068B0F57A7F11D336
:1015600000200B4908700DE00948007850B909487F
:101570000068401E074908600846006810B901204D
:101580000349087010BD000000400140A800002081
:101590000C00002040080040CA4302827047CA4342
:1015A0000282704721B1028842F00102028004E009
:1015B00002884FF6FE731A400280704702460020F0
:1015C000138A0B400BB1012000E00020704730B5BA
:1015D0000246002000230024158A05EA01039589AC
:1015E00005EA010413B10CB1012000E0002030BD78
:1015F0001AB183890B43838102E083898B43838102
:101600007047000070B5002400220023058C4FF6BF
:10161000FE7635400584028C8388048B4FF68F75E7
:101620002C40B51E2C400D882C43751E2A408D89F8
:101630002A434D882A43104DA84202D00F4DA8429C
:1016400013D14FF6F7752A40CD892A434FF6FB7523
:101650002A408D882A434FF6FF652B404FF6FF55F1
:101660002B400D8A2B434D8A2B43838004838D6846
:101670004563028470BD0000000001400004014089
:1016800070B5002400220023058C4FF6EF7635401C
:101690000584028C8388048B48F6FF752C404FF636
:1016A000FF452C400D884FF6FF7606EA05252C43B2
:1016B0004FF6DF752A408D8906EA05152A434D88C5
:1016C00006EA05152A43154DA84202D0144DA8423A
:1016D0001DD14FF67F752A40CD894FF6FF7606EA79
:1016E00005152A434FF6BF752A408D8806EA051571
:1016F0002A434FF6FF352B404FF2FF752B400D8AE2
:1017000006EA85052B434D8A06EA85052B4383802F
:1017100004838D688563028470BD00000000014071
:101720000004014070B5002200230024058C4EF611
:10173000FF7635400584038C8488828B48F6FF75DC
:101740002A404FF6FF452A400D884FF6FF7606EAFD
:1017500005252A434DF6FF752B408D8906EA053590
:101760002B434D8806EA05352B430A4DA84202D08B
:10177000094DA84208D14BF6FF752C400D8A4FF653
:10178000FF7606EA85152C43848082838D68056484
:10179000038470BD00000140000401400022028863
:1017A000184B98420ED0184B98420BD0B0F1804F96
:1017B00008D0164B984205D0154B984202D0154BD5
:1017C000984204D14FF68F731A404B881A43124B3C
:1017D000984207D0114B984204D04FF6FF431A406D
:1017E0000B891A4302804B68C3620B880385054B43
:1017F000984202D0044B984201D18B7A0386012390
:101800008382704700000140000401400004004052
:1018100000080040000C0040001000400014004090
:101820004FF0FF31416000210180018141808172D0
:101830007047000008B540F22551354800F0A1F886
:10184000002850D040F22551314800F07FF831484F
:10185000007801283BD12E4800F04CF9C0B200902E
:101860006A4601212C48006801F0CCFA4FF48071DF
:101870002A48FFF701F928480068401C26490860FB
:1018800027480068401E264908600846006800286E
:1018900029D124A0FEF7F2FC4FF480711F48FFF716
:1018A000EDF800201B49087045F2555025490860A5
:1018B00000BF2448C06800F002000028F9D1FA20D7
:1018C000204988604AF6AA20086000BFFEE7104859
:1018D00000F010F9C1B21C48426E406E401C1A4B19
:1018E00058661846815440F22441094800F049F8EE
:1018F00068B1074800880648808800201249496E70
:10190000114A505411464866012081F8680008BD0C
:1019100000100140000000200400002000040240EC
:1019200008000020D7D6BFE2C9D5C2BCCDEAB3C9F2
:101930002C3173BAF3D7D4B6AFB8B4CEBBC9E8B1C3
:10194000B80D0A00003000403C00002010B5002215
:10195000002340F66A14A14200D100BF0A120124FC
:101960009440A3B2DC43048010BD21B1828942F4CB
:101970000052828104E082894DF6FF731A40828111
:10198000704770B50246002400230025002040F671
:101990006A16B14200D100BFC1F3421501F01F0326
:1019A000012606FA03F3012D02D19689334006E0A1
:1019B000022D02D1168A334001E0968A33400C1280
:1019C000012606FA04F41688344013B10CB1012044
:1019D00000E0002070BDF0B503460024002600257D
:1019E000002040F66A17B94200D100BF1846C1F383
:1019F000421401F01F06012707FA06F5012C01D158
:101A00000C3004E0022C01D1103000E014301AB187
:101A100007682F43076002E00768AF430760F0BD27
:101A20002DE9FF4705460E460024A14600BFA0460B
:101A3000B08900B100BF2C8A24F44054F0880443DC
:101A40002C82AC8941F20C608443B0883189084310
:101A5000718908430443AC81AC8A24F44074B08992
:101A60000443AC826846FFF7FFFB2048854202D062
:101A70001F48854202D1DDF80C9001E0DDF80890A6
:101A8000A88900F4004040B109EBC90000EB09103F
:101A900031684900B0FBF1F707E009EBC90000EB42
:101AA000091031688900B0FBF1F76420B7FBF0F052
:101AB00004012009642101FB1078A88900F400408A
:101AC00040B1322000EBC800B0FBF1F000F007009D
:101AD000044308E0322000EB08106421B0FBF1F071
:101AE00000F00F0004432C81BDE8FF870010014087
:101AF0000014014001468888C0F308007047303860
:101B00000A2801D2012070470020704700BF7047AB
:101B100000B500F0EFF900BD2DE9F04104460E4696
:101B200000F006FB2746E11704EB11610912A02221
:101B300002EB4101C8B200F0C1FA00F01FFA0546FD
:101B4000012D04D100F01EFB0120BDE8F081E0B2C0
:101B500000F0B4FA00F012FA0546012D03D100F0AE
:101B600011FB0220F1E700F0E3FA2746E11704EB4E
:101B700011610912A12202EB4101C8B200F09EFAE4
:101B800000F0FCF90546012D03D100F0FBFA01201D
:101B9000DBE700F027FA3070012000F05FFA00F078
:101BA000F1FA0020D1E72DE9F04104460F4600F09C
:101BB000BFFA2646E11704EB11610912A02202EBDD
:101BC0004101C8B200F07AFA00F0D8F90546012DBB
:101BD00004D100F0D7FA0120BDE8F0812646E117D4
:101BE00004EB11610912A4EB0121C8B200F066FAFE
:101BF00000F0C4F90546012D03D100F0C3FA02201C
:101C0000EAE7384600F05AFA00F0B8F90546012D27
:101C100003D100F0B7FA0320DEE700F0B3FA0520A5
:101C200000F0DCFE0020D7E71CB501210220FFF701
:101C3000EBFA01208DF804008DF80600C02000901A
:101C400000208DF807008DF8050069460548FEF76D
:101C50009FFE40210348FEF711FF80210148FEF757
:101C60000DFF1CBD0004024010B50024124800689E
:101C700020F04000104908600846006840F08000ED
:101C800008600846006820F040000860052000F069
:101C9000E1FE0948006840F040000749086005205F
:101CA00000F0D8FE0448001F006800F0800000B972
:101CB00000E00124204610BD1404024070B51A480B
:101CC000006820F04000184908600846006840F0AD
:101CD0008000086000251DE01348006820F04000E7
:101CE00011490860052000F0B5FE0F48006840F07B
:101CF00040000D490860052000F0ACFE6006040EAF
:101D00000948001F006800F0800008B144F0010499
:101D1000681CC5B2082DDFDB0348006820F04000D6
:101D200001490860204670BD1404024010B5044605
:101D30001548006820F0400013490860032000F0B7
:101D400089FE34B91048006820F080000E49086010
:101D500007E0012C05D10C48006840F080000A49DA
:101D60000860022000F076FE0748006840F040005E
:101D700005490860052000F06DFE0348006820F06A
:101D800040000149086010BD1404024070B50446CB
:101D9000002528E01848006820F040001649086037
:101DA000032000F057FE04F0800030B112480068B4
:101DB00040F080001049086005E00F48006820F0FE
:101DC00080000D490860022000F044FE0A480068C7
:101DD00040F0400008490860052000F03BFE600626
:101DE000040E681CC5B2082DD4DB0348006820F03F
:101DF00040000149086070BD1404024010B513484A
:101E0000006820F0400011490860052000F022FE23
:101E10000E48006840F080000C49086008460068E1
:101E200040F040000860052000F014FE07480068FC
:101E300020F0800005490860052000F00BFE0348F3
:101E4000006820F040000149086010BD1404024001
:101E500010B50E48006820F040000C4908600846A4
:101E6000006820F0800008600846006840F04000EC
:101E70000860052000F0EEFD0448006840F0800096
:101E800002490860052000F0E5FD10BD1404024081
:101E900010B5054800F090FA4FF4967000F09EFDE2
:101EA000002000F089FA10BD18FCFFFF10B500F00B
:101EB00089FC00F0E1FCFFF7EBFF10BD10B54FF41B
:101EC0007A7000F079FA4FF4967000F087FD0020E8
:101ED00000F072FA10BD000000BF054A128802F03F
:101EE0004002002AF9D0C2B2014B9A80704700002C
:101EF000001001401E48006840F001001C490860C5
:101F00000846006840F0040008601A48006820F4A1
:101F10004030184908600846006840F48030086086
:101F20001548006820F440201349086008460068FE
:101F300040F4802008600F48406820F480700D490C
:101F400048600D48001D006840F400700A49091DF2
:101F500008600848406940F48070064948610648B6
:101F60001430006840F40070034914310860704771
:101F700030380240000002400008024010B5174807
:101F8000406920F48070154948611548006840F4A4
:101F90000070134908601148406920F480700F49AF
:101FA0004861052000F056FD0C48406940F48070FF
:101FB0000A494861052000F04DFD0948001F0068EE
:101FC00000F4007008B1012400E0002403484069D7
:101FD00020F4807001494861204610BD0000024095
:101FE0001408024070B51B48406920F480701949FC
:101FF00048611948006840F40070174908600025DE
:102000001DE01448406920F48070124948610520A1
:1020100000F020FD0F48406940F480700D49486190
:10202000052000F017FD6006040E0B48001F006835
:1020300000F4007008B144F00104681CC5B2082D1A
:10204000DFDB0448406920F4807002494861204683
:1020500070BD0000000002401408024010B50446A4
:102060001448406920F4807012494861032000F050
:10207000F1FC34B11048006840F400700E4908606B
:1020800005E00D48006820F400700B49086002204C
:1020900000F0E0FC0748406940F480700549486161
:1020A000052000F0D7FC0348406920F48070014906
:1020B000486110BD000002401408024070B504469B
:1020C000002528E01848406920F4807016494861CE
:1020D000032000F0BFFC04F0800030B1134800681A
:1020E00040F400701149086005E01048006820F4D1
:1020F00000700E490860022000F0ACFC0A484069FC
:1021000040F4807008494861052000F0A3FC600697
:10211000040E681CC5B2082DD4DB0348406920F4C6
:1021200080700149486170BD0000024014080240FF
:1021300010B51248406920F4807010494861104879
:10214000006840F400700E4908600C48406940F493
:1021500080700A494861052000F07CFC084800684E
:1021600020F4007006490860052000F073FC034865
:10217000406920F480700149486110BD00000240B0
:102180001408024010B50F48406920F480700D49D2
:1021900048610D48006820F400700B490860094848
:1021A000406940F4807007494861052000F052FC06
:1021B0000548006840F4007003490860052000F0FD
:1021C00049FC10BD00000240140802404AF6AA2053
:1021D00001490860704700000030004010B5104809
:1021E000006840F001000E49086000BF0C4800681C
:1021F00000F002000028F9D045F255500949086066
:102200000520486040F6C41088604AF6AA2008609D
:102210004CF6CC40086004A0FEF730F810BD00007A
:102220007438024000300040BFB4C3C5B9B7C6F42B
:10223000B6AF0D0A000000001CB501210846FEF7EC
:10224000E3FF01210420FEF7DFFF00200090019052
:102250008DF804000120009000208DF807006946E9
:102260000548FEF795FB4FF400500090694603487F
:10227000FEF78EFB1CBD000000000240000802407B
:1022800010B5002401212048FEF7EDFB78B11F486E
:10229000007860B1142000F0A1FB01211A48FEF77C
:1022A000E2FBD0B1012400201849087015E04FF47A
:1022B00000511748FEF7D7FB78B91448007860B191
:1022C000142000F08BFB4FF400511148FEF7CBFBBC
:1022D00018B9022400200D49087001210A48FEF7B0
:1022E000C2FB78B94FF400510948FEF7BCFB08B9AE
:1022F000012000E0002028B9142000F06FFB01202D
:1023000002490870204610BD000002400200002073
:10231000000802401CB501210220FEF775FF0020D5
:102320000090019001208DF8040000208DF8060037
:102330004FF44070009000208DF807008DF80500E4
:1023400069460448FEF724FB4FF440710148FEF74C
:1023500095FB1CBD000402404FF4A060FEF74AFF4D
:10236000FFF7D8FFFFF768FF4FF4E13000F0EEFB16
:1023700000F026FDFFF7CCFB00F0D6FAFEF774FD67
:1023800000F08EFCFEF7D6FAFFF728FFFFF78EFD70
:10239000012000F099FB00F019FE09E0FFF716FF9D
:1023A000FEF7CEF9034908700846007800F022F8DD
:1023B000F4E700000100002030B900214FF0804216
:1023C00091630B4A116011E0002806DD4FF0804157
:1023D00088630021064A116008E0002806DA00211F
:1023E0004FF0804291634142014A11607047000002
:1023F00034040040FEB50446A848007828B3A84934
:102400000A20FFF789FBA74A00210846FEF7F6FCE1
:102410002D20A549087000260FE04CF21863082211
:10242000A2480178A0480078FEF767FB9E48007834
:102430001E309D490870701CC6B2062EEDDB0020D0
:10244000964908702D209849087095480078FF2813
:102450007ED097480078012812D110204FF478419F
:1024600000220B46CDE90021029092A28221462053
:10247000FEF79EFB0D2000F0CFFB00208C4908707A
:102480002A2C66D0232CFCD0FF2CFAD08D48007863
:10249000062862DA8C488B490978445489480078C8
:1024A000401C884908704CF2186308227F48017864
:1024B0007D480078FEF79EFD7B4800781E307A4903
:1024C000087080480078062843D1764801214FF6ED
:1024D000FF721023CDE900210290A622C021252001
:1024E000FEF7FAFD2D207049087000260FE04CF22F
:1024F000186308226D4801786B480078FEF7FDFAF2
:10250000694800781E3068490870701CC6B2062EF3
:10251000EDDB644801214FF6FF721023CDE9002165
:102520000290642282214620FEF7D6FD10204FF44F
:10253000784100220B46CDE90021029063A282215E
:102540004620FEF735FB0E2000F066FB2D2001E053
:102550004CE093E0544908709EE05A480078062801
:10256000FADB58480078801F5D490C5455480078C4
:10257000401C544908704CF2186308224B480178FB
:1025800049480078FEF736FD474800781E30464936
:1025900008704C4800780C287ED151494A48FDF714
:1025A0006FFFB0B902234E4A07210B20FEF75FF8F8
:1025B000FF210A20FFF7F7FA0120384908700020B0
:1025C0004049087001203A490870112000F024FBAE
:1025D00062E001203649087000203A490870012065
:1025E0002E490870102000F017FB55E030480078A5
:1025F000012805D10C2000F00FFB00202C490870A9
:102600002A2C49D0232C47D0FF2C45D02D480078C8
:10261000062841DA2C482B49097844542948007887
:10262000401C284908704CF2186308221F480178A2
:102630001D480078FEF7DEFC1B4800781E301A4962
:10264000087020480078062826D1254A07210B204B
:10265000FDF7BAFF22491C48FDF712FF78B9182090
:1026600000F0DAFAFFF72AFC01200C49087000207C
:102670001449087001200E49087001250CE0012062
:102680000649087000200F490870192000F0C4FAAC
:102690000120074908700025FEBD0000150000203C
:1026A000140000202E300008160000201700002023
:1026B00018000020C7EBC9E8D6C3D0C2C3DCC2EB08
:1026C000000000002700002019000020C7EBD4D92B
:1026D000B4CECAE4C8EBD0C2C3DCC2EB0000000039
:1026E0002000002010B510210748FEF7C5F905208D
:1026F00000F016FBFF2000F013FB044610210248F7
:10270000FEF7BCF9204610BD0000024010B54FF4A2
:1027100080610648FEF7B0F9642000F05FF94FF4DD
:1027200080610248FEF7AAF910BD000000040240D3
:1027300010B504464FF480510848FEF79DF94FF458
:1027400080410648FEF798F92046FEF79FFC4FF4BB
:1027500080510248FEF792F910BD000000040240CB
:1027600010B504464FF480510848FEF785F94FF440
:1027700080410648FEF782F92046FEF787FC4FF4B9
:1027800080510248FEF77AF910BD000000040240B3
:1027900010B504464FF480510948FEF76DF94FF427
:1027A00080410748FEF76AF92012FEF76FFCE0B29D
:1027B000FEF76CFC4FF480510148FEF75FF910BD45
:1027C0000004024000B58BB001210220FEF71CFD81
:1027D000002009900A9002208DF8280000208DF832
:1027E0002A000820099000208DF82B008DF8290080
:1027F00009A92048FEF7CCF8012203211D48FEF765
:102800000FF901210846FEF70FFD00214FF080402F
:10281000FEF7C8FE002006900790089006A8FEF775
:10282000FFFF5320ADF8180040F2E730079000207A
:10283000ADF81A0006A94FF08040FEF7AFFF142153
:1028400001A8FDF7F5FD6020ADF804000020ADF80B
:1028500010000120ADF806000020039001A94FF000
:102860008040FEF70DFF01218807FEF79BFE0BB0AD
:1028700000BD00000004024000B58BB00121022021
:10288000FEF7C2FC002009900A9002208DF8280073
:1028900000208DF82A001020099000208DF82B00D0
:1028A0008DF8290009A91E48FEF772F802220421BA
:1028B0001B48FEF7B5F801210220FEF7B5FC002108
:1028C0001848FEF76FFE002006900790089006A8B3
:1028D000FEF7A6FF5320ADF8180040F2E73007904E
:1028E0000020ADF81A0006A90E48FEF757FF142184
:1028F00001A8FDF79DFD6020ADF804000020ADF8B3
:1029000010000120ADF806000020039001A9054841
:10291000FEF778FE01210348FEF744FE0BB000BD30
:10292000000402400004004000B58BB001210220E9
:10293000FEF76AFC002009900A9002208DF828001A
:1029400000208DF82A004FF40070099000208DF8C7
:102950002B008DF8290009A91E48FEF719F802225C
:1029600009211C48FEF75CF801210420FEF75CFCFD
:1029700000211948FEF716FE0020069007900890E7
:1029800006A8FEF74DFF5320ADF8180040F2E730DF
:1029900007900020ADF81A0006A90F48FEF7FEFECA
:1029A000142101A8FDF744FD6020ADF804000020CB
:1029B000ADF810000120ADF806000020039001A939
:1029C0000548FEF7AFFE01210348FEF7EBFD0BB013
:1029D00000BD000000040240000800403EB504466F
:1029E00001210820FEF720FC00211948FEF7DAFD3E
:1029F00000200090019002906846FEF711FF42F21D
:102A0000CF00ADF8000004EB84000121C1EB4000D1
:102A100001900020ADF8020069460D48FEF7BEFEA9
:102A200001210B48FEF7B8FD01210948FEF7BAFD68
:102A300000BF01210648FEF7C1FD0028F9D00121A1
:102A40000348FEF7A9FD00210148FEF7ABFD3EBD9E
:102A5000000C00403EB5044601210820FEF7E4FBCF
:102A600000211848FEF79EFD002000900190029082
:102A70006846FEF7D5FE2920ADF800000120C0EB26
:102A8000440001900020ADF8020069460D48FEF7B1
:102A900085FE01210B48FEF77FFD01210948FEF765
:102AA00081FD00BF01210748FEF788FD0028F9D00D
:102AB00001210448FEF770FD00210248FEF772FD77
:102AC0003EBD0000000C00401FB504460121080473
:102AD000FEF7BAFB00211C48FEF764FD00200190C0
:102AE0000290039001A8FEF79BFE42F2CF00ADF8E2
:102AF000040004EB84000121C1EB4000029000209F
:102B0000ADF8060001A91048FEF748FE01210E4865
:102B1000FEF745FD0020009018208DF800000020F1
:102B20008DF801008DF8020001208DF80300684641
:102B3000FEF724FB012211460348FEF759FD01214F
:102B40000148FEF72FFD1FBD0040014010B588B0C1
:102B5000044601210846FEF757FB072209212C48AD
:102B6000FDF75EFF07220A212948FDF759FF0020E3
:102B70000690079002208DF81C0000208DF81E00A2
:102B80008DF81F0002208DF81D004FF4C0600690E4
:102B900006A91F48FDF7FCFE01211020FEF754FB9B
:102BA000002002900390049005900294ADF810006C
:102BB000ADF80E00ADF80C000C20ADF812000020AE
:102BC000ADF8140002A91348FEF72AFF0020019077
:102BD00025208DF8040001208DF805008DF80600F1
:102BE0008DF8070001A8FEF7C9FA012240F225512D
:102BF0000848FEF7F0FE012240F224410548FEF7A6
:102C0000EAFE01210348FEF7B0FE08B010BD000047
:102C1000000002400010014070B5044600BF1021C2
:102C20000B48FDF720FF0028F9D100F013F800252C
:102C30000BE004F0800010B100F01EF801E000F09D
:102C40005BF86006040E681CC5B2082DF1DB70BD90
:102C50000008024010B520210648FDF70FFF0820AC
:102C6000FFF7BCFE20210348FDF706FF0120FFF718
:102C7000B5FE10BD0008024010B520210748FDF741
:102C8000FDFE40F2DC50FFF7E5FE20210348FDF792
:102C9000F3FE4FF4FA70FFF7DDFE10BD00080240AE
:102CA0001CB500200090019001210420FEF7ACFA31
:102CB00001208DF8040000208DF8060020200090EF
:102CC00000208DF807008DF8050069460948FDF7DA
:102CD0005FFE00208DF80400102000906946054832
:102CE000FDF756FE20210348FDF7C6FE6420FFF7DE
:102CF00075FE1CBD0008024010B520210748FDF7F5
:102D0000BDFE4FF4FA70FFF7A5FE20210348FDF742
:102D1000B3FE40F2DC50FFF79DFE10BD00080240FC
:102D200070B50446002500BF02210B48FEF71CFBCE
:102D30000028F9D021460848FEF722FB00BF0121F8
:102D40000548FEF711FB0028F9D00348FEF715FBF4
:102D5000C5B2284670BD00000030014010B50446E1
:102D600000F008F910210E48FDF786FED820FFF785
:102D7000D7FFC4F30740FFF7D3FFC4F30720FFF7E3
:102D8000CFFFE0B2FFF7CCFF10210548FDF776FE3C
:102D900000BFFFF7A7FC00F001000028F9D110BD2B
:102DA0000000024070B505460C4606E02846FFF7D5
:102DB000D5FF05F58035601EC4B2002CF6D170BD7C
:102DC0001CB500F081F801210846FEF71DFA01202C
:102DD0008DF8040000208DF80600102000900020DF
:102DE0008DF8070002208DF8050069460448FDF7BC
:102DF000CFFD10210248FDF741FE00F0CBF81CBDCD
:102E00000000024070B504460D461646210A6019BE
:102E1000401EB1EB102F01D0002070BD00F0AAF8C9
:102E200010211448FDF728FE0220FFF779FFC4F3B4
:102E30000740FFF775FFC4F30720FFF771FFE0B20B
:102E4000FFF76EFF07E03078FFF76AFF681EC5B234
:102E500005B901E0761CF6E700BF10210548FDF733
:102E60000DFE00BFFFF73EFC00F001000028F9D185
:102E70000120D2E70000024070B504460D46164618
:102E800010211048FDF7F8FD0320FFF749FFC4F3B8
:102E90000740FFF745FFC4F30720FFF741FFE0B20B
:102EA000FFF73EFF07E0FF20FFF73AFF30706D1E8F
:102EB00005B901E0761CF6E700BF10210148FDF7D7
:102EC000DDFD70BD0000024000B587B0012108465D
:102ED000FEF79AF900200590069002208DF8180060
:102EE00000208DF81A00E020059000208DF81B00CE
:102EF00002208DF8190005A91C48FDF749FD05229F
:102F000011461A48FDF78CFD052206211748FDF7EA
:102F100087FD052207211548FDF782FD01210803E1
:102F2000FEF792F914216846FDF782FA0020ADF809
:102F30000C00ADF80800ADF80600ADF80400ADF8DF
:102F40000000ADF80E004FF48270ADF802004FF4AF
:102F50000070ADF80A0069460548FEF713FA012132
:102F60000348FEF7F5F907B000BD0000000002407D
:102F70000030014010B510210548FDF77DFD062009
:102F8000FFF7CEFE10210248FDF778FD10BD0000CE
:102F90000000024010B5FFF7EDFF10210A48FDF7D1
:102FA0006BFD0120FFF7BCFE0020FFF7B9FE1021EA
:102FB0000548FDF763FD00BFFFF794FB00F001003B
:102FC0000028F9D110BD00000000024010B5FFF745
:102FD00057F90446022C0CD106A0FDF74FF9152134
:102FE0002004FFF7DFFE0BA0FDF748F901200C4994
:102FF000087010BDD5FDD4DAB2C1B3FDD7D6BFE29B
:10300000B4E6B4A2CBF9D0E8D2AAB5C4BFD5BCE42B
:103010002E2E2E00B2C1B3FDCDEAB3C9A3A10A0082
:10302000000000204FF04070E1EE100A70470010E1
:10303000F000F000011B179C179C179C179C179C15
:10304000179C179C179C179C179C179C179C179CE8
:10305000179CF79B179CF79B169416941694F69B57
:10306000F69BF69BF69BF69BD69BD69BD693B69B80
:10307000B59395939593969376937693769376936B
:1030800076937693769375937593758B758B758B15
:10309000758B558B558B558B558B558B558B7593E8
:1030A000558B758B968B96839683968396839683A2
:1030B000968B768B7593759375937593959395937E
:1030C00095939693969396939693969396939693B9
:1030D0009693B6939693B593B593B593B69396930B
:1030E000969396939693969396939693968B968BA8
:1030F000B68BB793D793B79375937593959B559369
:10310000F4829372515AF0498E392D294D296E2936
:103110002C212C196C218C216C214C212D192D195D
:103120000D190D192D194D214C214C214C192C191B
:103130002C192C192C192C214D216D29AE29AF31B8
:10314000AF318F318F318F31AF31AF39AF39AF39C7
:10315000AF39CF39CF41CF41CF41CF41CF41CF411F
:10316000F0493152725A726292629262D36A147357
:10317000357B147B147B147B5583357B357B5583E2
:103180005583768376837683968B958B748354836D
:10319000748B748B748B548B548334833483348357
:1031A000147BF47A147B147B147B147B147B147BC8
:1031B000B37272625162D372557B5583347BD37282
:1031C000F47AF47AF47AD37AF482F482B37A3172AC
:1031D0007282928AB28A95A398BCF9C4F9C459CD77
:1031E000BAD53BDE3BD65BD65BD63BD63BD63CD690
:1031F0005CDE3BDE3BDE3CDE3CDE3CDE3CDE3CDEE1
:103200003CDE3CDE3CDE3CDE3CDE3CDE3CDE3CDEEE
:103210003CDE3CDE3CDE169C169C169C169C169CE6
:10322000169C169C169CF79BF79BF79BF79BF79BAE
:10323000F79BF79BF79BF79B179417941794F79BB3
:10324000F79BF69BF69BF69BD69BD69BD693B69B9D
:10325000B693959395939693969396939693769328
:1032600076937693769375937593758B758B758B33
:10327000758B558B558B558B558B558B558B759306
:10328000558B758B768B968B968396839683968BD0
:10329000968B768B7593759375937593959395939C
:1032A00095939693969396939693969396939693D7
:1032B0009693B6939693B593B593B593B693969329
:1032C00096939693969396939693969396939693B6
:1032D000968BB68BB693B793969395937593F3822B
:1032E000516AF059AF416E392D29EC200C212D2166
:1032F0000C190C194C216D214D214D212D190D1941
:10330000EC18EC10EC10EC10EC100C192C192C191A
:103310004D216D216D21AE29AE298E296D294D21BA
:103320004D212D212D214E296E298E318E318E3148
:103330008E318E318E318E316E316E318E39AF419C
:10334000CF41EF49104A104A105210521052105AF1
:10335000105A105A315A926A926A72627262926A72
:10336000B36A147B357B35835583558354835483EB
:10337000758B958B958B758B958B758B548355833E
:1033800055833583147B147BF47AB372B372F47A69
:10339000147BD372726AEF515162D372147BF47A48
:1033A000F47AF47AB372B372B37AB37A937A727AA4
:1033B000527A52827282D28AB5A377B4F8C418C501
:1033C000BACDFBD53BD65BD65BD63BD63BD65CDED7
:1033D0005CDE3CDE1BD63CDE3CDE3CDE3CDE3CDE26
:1033E0003CDE3CDE3CDE3CDE3CDE3CDE3CDE3CDE0D
:1033F0003CDE3CDE3CDE169C169C16941694F69B36
:10340000F69BF79BF79BF79BF79BF79BF79BF79B2D
:10341000F79BF79BF79BF79BF79BF79BF79BF79B1C
:10342000F79BF79BF69BD69BD69BD69BD69BB69BD2
:10343000B693969396939593959396939593969327
:103440009593758B758B758B758B758B758B558B74
:10345000558B558B558B558B558B558B559355935C
:1034600055935593768B768B768B968B968B768B46
:10347000968B768B758B75937593958B958B958BBA
:10348000958B969396939693B693969396939693DD
:10349000B693B693B693B693B593B593B693B693E6
:1034A00096939693969396939693969396939693D4
:1034B000969396939693969376937593348B927294
:1034C000AF514E390D310C29EB20CC180D212D2197
:1034D0000C190C192C194D192D190D190D19ED1068
:1034E000EC10CD10CC10CC10CC10EC100C192D1908
:1034F0006D216D218D296D294D212C210C190C195F
:103500000C192D214D212D210C21EC20EC180C2122
:103510002D294D294D292D294D292D312D292D318B
:103520004D314D318E396E398E398E418E418E41FD
:10353000AE41AF49CF49105A315A105A315A7262CE
:10354000B36AF47A157B5583758B9693D693D6938D
:10355000D693B6939593758B558B558B558B558B11
:103560005583348334831483147BF47AF37AB272F0
:10357000726A9372F47AB26AF059CF515162D3727F
:10358000D372F47AF47AD47AB37A52727272B382C2
:10359000527A517A517A5072B182D5A3D8BCF8BC14
:1035A0009ACDDAD53BD63BD65BD65CD65CD65CDE14
:1035B0005CDE3CDE1BD63CDE3CDE3CDE3CDE3CDE44
:1035C0003CDE3CDE3CDE3CDE3CDE3CDE3CDE3CDE2B
:1035D0003CDE3CDE3CDE1694169416941694F69B64
:1035E000F69BF79BF79BF79BF79BF79BF79BF79B4C
:1035F000F79BF79BF79BF793F79BF79BF79BF79B43
:10360000F793F79BF79BD79BD79BD79BD69BB69BF4
:10361000B693969396939593959395939593959347
:10362000958B958B958B758B758B758B758B558B5A
:10363000558B558B558B558B558B558B559355937A
:10364000559355935593768B768B768B768B768BBD
:10365000768B758B758B958B958B958B958B958BC9
:10366000958B968BB6939693B693B69396939693C3
:10367000B693B693B693B693B593B693B693B69303
:103680009693968BB693B6939593959395939593BE
:10369000969396939693558B558B348BF37A516210
:1036A0008F490D31EC28EC28EC200D212E214E21E4
:1036B0000D190C190D190D190D19ED10EC10EC1058
:1036C000CC10ED10ED180D190D190D190D190D195E
:1036D0002C192C192C19EB10EB10EB10EB10EB182C
:1036E0002C214D216D292C212C210C21EC20EC20AA
:1036F0000C210C210C210C292D292D290C29EC2819
:10370000EC280C292D314D396E39AE41EF4930523C
:103710001052EF49CF49CF51F051F051F051105AAA
:1037200031625262726AB272B372D37A1483548372
:10373000758B9593B6939693758B9593B693969355
:10374000758B34833483148314831483147BF47A49
:10375000D37AB372726A726A305AF059CF51105AE2
:10376000516AD47A35833583F47A72725272B38295
:10377000727A527A9282717A7072338B97B419C5C9
:103780007ACDBACD1BD61BD63CD63CD63CD65CDE19
:103790005CDE3CDE1BD63CDE3CDE3CDE3CDE3CDE62
:1037A0003CDE3CDE3CDE3CDE3CDE3CDE3CDE3CDE49
:1037B0003BDE3CDE3CDEF693F693F693F693F6930F
:1037C000F693F693F693F693F693F69BF69BF69B99
:1037D000F69BF69BF69BF793F793F79BF79BF79B6C
:1037E000F793F79BF79BF79BF79BD79BD693B693E3
:1037F000B693B693B6939593B593B593B5939593C6
:10380000958B958B958B758B758B758B758B558B78
:10381000558B558B558B558B558B55935593559390
:10382000559355935593559356935693768B768B24
:10383000758B758B958B958B958B958B958B958BC8
:10384000968BB68BB68BB68BB693B6939693B69390
:10385000B693B693B693B593B593B693B693B69322
:10386000B68B968BB68BB58BB593959395939593B5
:10387000969B75937593148B348B1483B26A105294
:103880006E410D31ED280D290D212D212E212E21E6
:103890000D19EC18EC10EC10EC10EC10EC10EC1016
:1038A000EC100C112D192E192E190E190E19ED18D8
:1038B000EC10EC10EC10CB10EB10EB180C190C19F1
:1038C0000B19EB18EB18EB180C210C210C210C2117
:1038D0000C210C290C290C292D292D312D294D3194
:1038E0004D312D312D312D312D312C316D39AF41EF
:1038F000EF4910523052315A315A5162516251627D
:10390000726A9372B372D372B372B372D37AF37A68
:10391000137B3483548B558B7593758B558B358BFB
:10392000558B558B3583358B1483F4821483148324
:103930001483B372516A1062716A716AF059F05956
:10394000CF513162B372F47A147BB37A7272727AA5
:10395000727A31729282F38A917A907AB49BD8BC4F
:1039600039C579C5DACDFBD53BD63CD63CD63CD65D
:103970005CDE3CDE3BDE3CDE3CDE3CDE3CDE3CDE58
:103980003CDE3CDE3CDE3CDE3CDE3CDE3CDE3CDE67
:103990003BDE3CDE3CDEF693F693F693F693F6932D
:1039A000F693F693F693F693F693F69BF69BF69BB7
:1039B000F69BF69BF693F693F793F79BF79BF79B93
:1039C000F793F793F69BF79BF69BD793D69BD693EB
:1039D000D693B693B693B593B593B593B58BB58B94
:1039E000958B958B958B958B958B758B758B558B57
:1039F000558B558B558B558B558B558B558B5593BF
:103A00005593559355935593559355935593758B5E
:103A1000758B758B958B958B958B958B958B958BE6
:103A2000B68BB68BB68BB68BB68BB68BB58BB69387
:103A3000B693B693B593B593B593B693B693B68B49
:103A4000B58BB58BB58BB58BB58B959395939593BE
:103A500075935593148B148B3483F372305A8E41C3
:103A60002D31EC28EC20EC20EC20EC180D19ED1891
:103A7000EC10EC10CC10EC10EC100C110C11EB1045
:103A8000EB100C110D190D190D190E19ED18ED1083
:103A9000ED10ED10EC10EC180C190C192C212C2148
:103AA000EB18CB10AA10EB18EB180C210C210C21F1
:103AB0002C294D294D314D316E318E396E316D319C
:103AC0006D316E398E398E398E398E418E418E41EF
:103AD0008E416E398E41CF49F0513162726272620D
:103AE000926AB372D372B372B37AF47A3483558B19
:103AF000558B558B758B558B348B1483F482F482E4
:103B0000148314831483358BF48214831583D37A3E
:103B10009372B37AD37AD37AB372726A516A31628A
:103B2000AE516E49D0593162926AD37AB3727272D1
:103B300072721172717AF38A917A0F6AD18216A425
:103B4000B7B439C59ACDDACDFBD51BD61BD63BD63B
:103B50003CDE3BDE3BDE3CDE3CDE3CDE3CDE3CDE97
:103B60003CDE3CDE3CDE3CDE3CDE3CDE3CDE3CDE85
:103B70003BDE3CDE3CDEF693F693F693F693F6934B
:103B8000F693F693F693F693F693F693F693F693ED
:103B9000F693F693F693F693F693F79BF79BF693CB
:103BA000F693F793F693F693F693F693D693D6930C
:103BB000D693D693D593B58BD58BD58BB58BB58B4B
:103BC000B58BB58B958B958B958B758B758B558B35
:103BD000558B558B558B558B558B558B558B558BE5
:103BE000558B558B559355935593559355935593A5
:103BF00075937593958B958B958B958B958B968BF4
:103C0000968BB68BB68BB58BB68BB68BB58BB58BCF
:103C1000D58BD593D593B593B593D593D58BD68BBB
:103C2000B58BB58BB58BB58BB58BB59395939593BC
:103C300075933493F38A1483F47A71628E390C2964
:103C4000EC20EC20EB20EB18EB18EB18EC18CC1068
:103C5000EC180C19EC18EC10EC100C110C190B19D9
:103C60000B190B190C190C110C11EC10ED10ED10B7
:103C7000ED18ED18ED18ED180D190D192D190C2171
:103C80002C210C190C192C216D296D298E316E31C6
:103C90006E316D314D316E31AF39CF418E396D316D
:103CA0006E398E39CF41CF41CF41AE41AE41AE41A9
:103CB000AE41AE41AF41EF51F0517262926A926AE9
:103CC000B372B372B372D37AD47AF482348B558BD5
:103CD0009593B693B69396937693769396937693BD
:103CE000348BF482F482D482F482F482F482D4821B
:103CF0001483158BD47AD37AB37A7272516A105ABC
:103D0000EF598E514D416E49CF515162B372B3722A
:103D1000927252723172B27AB27A306A7072538B86
:103D200056ACF8BC59C59ACDDBCDFBD5FBD5FBD540
:103D30001BD61BD63CDE3CDE3CDE3CDE3CDE3CDE05
:103D40003CDE3CDE3CDE3CDE3CDE3CDE3CDE3CDEA3
:103D50003BDE3CDE3CDEF693F693F693F693F69369
:103D6000F693F693F693D693D693D693D693D693AB
:103D7000F693F693F693F693F693F69B1694F693D2
:103D8000F693F693F693F693F693F693F693D6930B
:103D9000D693D693D593D58BD48BD48BB58BB48B4C
:103DA000B48BB58BB58B958B958B758B758B758B14
:103DB000558B558B558B558B758B758B548B548BC5
:103DC000748B758B748B549355935593559375934E
:103DD00075937593958B958B958B958B958B968B12
:103DE000968BB693B58BB58BB58BB58BD58BD58BA9
:103DF000D58BF58BD58BD593D593D58BD58BD58B93
:103E0000D58BD58BD58BB58BB58BB58B9593959B7A
:103E1000959B5593148BD382B272CF49EC28AB1883
:103E2000EB18EB18CA18EA18EA18EB18EB18EB189D
:103E30002C192D210C19EC18EC10EC100C192C1964
:103E40002B192B192B192B190B190C190C19EC10F8
:103E5000EC10CC10CC102D210D190D190D190C19C9
:103E60002C214D214D214D294D294D294D294D29DB
:103E70006D296E316E316E31AF39AF41AF39AE3928
:103E8000CF41CF41EF41F049EF41CF41EF493052AF
:103E9000515251523152715A5162B36AB36A926AA5
:103EA000B372D37AD47AD37AD37AD37AF37A148367
:103EB0003483758B758B969396939693969396937E
:103EC000969376935593358B158B158BF482937A55
:103ED000937A158B5693358B9372316A316AF05908
:103EE0001062F0598E492D412D41AF51726AF37A1B
:103EF000D37AB37A51723172B27A917A7072D18276
:103F000036ACB8B439C57ACDBBCDFBD5FBCDFBD52E
:103F10001BD61BD63CDE3CDE3CDE3CDE3CDE3CDE23
:103F20003CDE3CDE3CDE3CDE3CDE3CDE3CDE3CDEC1
:103F30003BDE3CDE3CDED693D693D693D693F69307
:103F4000F693F693F693F693D693F693D693D69389
:103F50001694F693F693F693F693F693F693F693F8
:103F6000F693F693F693F693D693F693F693D68B51
:103F7000D68BF693D58BD48BF58BD48BB48BB48343
:103F80009483948B948BB58B5483958B958B758B85
:103F9000558B7593348B548B548354833383748340
:103FA00074837483948B748B748B7493548B549339
:103FB00075937593758B958B758B758B9593758BA9
:103FC0009693758BB593958BD68BD58BB483F58BE8
:103FD000F48BD483D48BB48BD48BD48BD48BB48319
:103FE000D483F58BD483D583B483D58BB593959344
:103FF00095935593148BD37A71628E41EB208A107E
:10400000AA10EA18E918E918C918E918A910EA105D
:104010000B19EB18EB18CB10CB10EB100B190B197D
:104020000A190A190A192A194B19EA182B19CB105F
:10403000EC18ED18CD184E212E210D190D19CC18A4
:104040000D216E296D292D214D294D294D294D29EF
:104050006E316E318E318E398E39AE39AF39AF4116
:10406000CF41CF41CF41EF41EF49EF49104A515283
:10407000925A925A9262B262B36AB36AB372B372DC
:10408000B372B372B372D372D372B37AB372D37A98
:10409000F47A348335839693969376939693B69B6E
:1040A000B69BB69B969B96937593358BF482D38281
:1040B000B37AD482358B358B937A7272526AF061FF
:1040C00010623162CF516E492D416E49105AF37A18
:1040D000D37AD37A9272316A927AB27A7072917A82
:1040E000B49B77B419C55AC59BCDDBD5DBCDFBD5C9
:1040F0001BD61BD63CDE3CDE3CDE3BDE3BDE1BD66D
:104100001BD63BDE3BDE3BDE3BDE3BDE3CDE3CDE0D
:104110003CDE3CDE3CDED693D693D693D693F69324
:10412000F693F693D693D693F693379CF693B58B86
:10413000D58BF693F58BD58BF58BD58BD58B1694CC
:10414000579C3694F58BD58BD58BD58B16941594BF
:10415000D58BF58B158CF48BD483F48BB48394833B
:10416000D58BB58B958B958BB693758B758B9593FE
:10417000548B548B958B748B9483337B737B7383B9
:104180009483D48BD48B94837383B593748BB59BB6
:104190009593338B548B9593758B758B548B558B73
:1041A000758B958B958B958BF68B158CF58BF48396
:1041B000F483F483D383F48BB48BD48B158CD483A6
:1041C000B483D483D483D483F58BF58B7383948B9E
:1041D000338B548B548B916AAE494D31EC20CB1804
:1041E0000B19E9100919E818C810C810A808E91037
:1041F0000A19A910A910EA100A110A11EA10E91007
:10420000E9100911E810291929194A192A19A908C8
:104210002C210C190D194E214E210D192E21CC18CF
:104220000C19AF314D214D294D294D294D294D29CD
:104230006D296E316E316E31AF39AF418E398E39A5
:10424000AE39CF41CF41EF49EF41CF41EF49305235
:10425000715AB262D36AB36AD36AF472D372B36A20
:10426000926A936AB372926AB272D372F37AD37219
:10427000D372F37A147B1483558B768B9693B69313
:10428000B69BB69BB69B7693769356935593559370
:10429000158BB37A72729372358BF4827272526A92
:1042A0001162CF59105A105AF059AF51AF51F0590D
:1042B000B372D37AD37A7272516A7172917A9172AF
:1042C000B17AF6A3D8BC19C539C5BBCDFCD5FBD591
:1042D0003CDE5CDE3CDE3CDE3CDE3CDE3BDE1BD618
:1042E0001BD61BD63BDE3BDE3BDE3BDE3CDE3CDE54
:1042F0003CDE3CDE3CDEB693D693D693D693D69383
:10430000D693D693D693F693D693F69317941694A2
:104310001694D58B158C96A4D7ACF8ACF8ACF8AC49
:1043200019AD39B539B518AD18AD39ADF7A4F8A444
:1043300038ADB69CF7A4F8A4969C979CF9ACB8A4A9
:1043400077A478A4F693B593548B758B758B548BA7
:1043500054833383958B948B369CF9AC5694779C1D
:10436000779CB7A456943594569C948B7383948B06
:104370001383748B95937593759396937593759337
:10438000559395939593D593579C39AD7AB518A5C8
:1043900017A518A518A539B539B539B539B5F8AC8B
:1043A000F8A4F8A4F9A4F8A4979C159493837383B4
:1043B000127B3383B16AAD49AD41CB208A100F42E5
:1043C0007463315B7163916B7163315B315B526319
:1043D000736B5363326352637263936B72635263A2
:1043E000315BF052AE4A2C3AAA298A294A21E910B7
:1043F000EA184C210C19CB102D212D212D214D21F6
:104400004E210D190D212D210D210D212D212D299B
:104410002D294D296D318E39CF39F041F041CF41F1
:10442000AF41AE41AE41AE41F04930523052305210
:10443000F049EF49EF491052305A51629262D372FB
:10444000F472147BF47A147BF47AD472F47A147BC9
:10445000347B147BF47A147B35835583558B558BD1
:10446000558B559355935593558B358B148B158BD5
:104470001483F482D37AB37A937AD482158B148B13
:10448000B37A11628E516E496E49AF51EF598E4920
:104490003162726A516AB37A7272306A5172917A79
:1044A000707A539316A4B8B4F9BC7AC5DBD5FBD5A2
:1044B0001CDE5CDE3CDE3CDE3CDE3CDE3BDE1BD656
:1044C0001BD61BD61BD63BDE3BDE3BDE3CDE3CDE9A
:1044D0003CDE3CDE3CDEB693B693D693D693D693C1
:1044E000D693D693D693F6931694F693F693F58BCC
:1044F000D48B569C7BBD7EDE9EDEDFE6DFE6DFE60C
:10450000DFE6DFE6FFE6DFDE1FE7FFDEFFDEFFE6DA
:10451000FFE63FEF1FE7FFE6FFE6FFEEBFE6BFEE79
:104520001ED678A4D693958B758B758B3483748B3C
:10453000748B748BB48BF48BF48B5ED6BFE6FFE682
:10454000DFE6FFE6BFDEFFE67EDEF48BF58B527B17
:104550005383548B9593959375937593B69B969BC4
:104560005593548B748BB58B1594DCC51FE7FFDE18
:104570005FE73FE71FE75DD67EDE7EDE9FDE9FDEE4
:104580009FDE7ED6BFDEDFE6BFDE9EDE5DD6BBC52C
:10459000779C527B8C410A290B29EB20CB182B21CD
:1045A000125B7EC63FDF3FDFFED6FED61FD79ECE14
:1045B0003DC61DBE1DBEFDBD3DBE3DBE5DBE5EC653
:1045C0007EC67DC65DC67DC6BDCE9DCEBAAD357CF0
:1045D000115BCC314B212B194C21EB100B192C21E9
:1045E0000C192D216E294E292D210D212D212D292A
:1045F0004D296E318E316E316E318E39AF39AE3913
:104600006D314D316E396E39AF41CF49CF49AF4130
:10461000AF41EF4930521052515A72629262B26AFF
:10462000D36A1473357B357B558376835583357B0D
:10463000558355835583558335833483147B148385
:104640003583558B558B358B358B348B358B358B33
:1046500014831483358BF48272727272F482158B18
:10466000D48272721062AF518E518E518E51AF5101
:10467000AF51CF59516A9272B37A7172306A5172E6
:10468000917A917A539316A4D9BC3AC59ACDDBD5C9
:10469000FBD51BD65CDE3CDE3CDE3CDE3BDE3BDE9F
:1046A0003BDE3BDE3BDE3BDE3BDE3BDE3CDE3CDE40
:1046B0003CDE3CDE3CDEB693B693B693B693D6931F
:1046C000D693D693D693F6931694F693D58BD48B34
:1046D000F58BB8A49BBDFCCD9ABD18ADD79CD7A4D3
:1046E00018A518A518A539A539AD59AD79AD59AD9D
:1046F000DBBD1FE75FEFFFE6DFE6DFE6BFE65BBDA2
:10470000B58B748B9593B693758B3483B693748BFA
:104710007483F5939383927BDBC5DFE61FEFDFE6BF
:104720007DD6FFE61FEF3FEF1FE77DD65594937BC5
:10473000B48374837483B6937593558B969B969BC1
:1047400095939693B593B48BB48318A51FDF7FEF31
:104750009FEF7FE7BDD6D79C5694F48BF48BF48BF8
:104760003594B79C5AB5DBC57ED61FEFDFDEFFE67A
:10477000BFDE39ADAB390921EA18CA18CB18EA18DF
:104780008C29FBAD3ED75FDF1ED75FDF1FD7D78CED
:10479000F05A8F4A4F422E3A2E3A6F42B04A125B7D
:1047A000936BF4735584189D7DC6BECEFED67FE70D
:1047B000FED65CBE99AD72638C294B214B214C21F6
:1047C0002C21EB182D214E292D210D212D212D29B4
:1047D0004D294D296D316D316E31CF41314A104A2D
:1047E000AE416D394D316E398E41AE41CF491052D7
:1047F000315A515A726292627162515A515A92629E
:10480000B362D36AB262D36AB262D36A357B76830B
:1048100055837683B78B968B55833583147B1483AE
:104820001483348314831483148314833583558B46
:10483000358314831483358BF4827272F061116AAC
:10484000D482148B937A526AF059AF518E494D41FC
:104850000C39CF51726A526A326A52725172306A9E
:1048600051725072917A538B57B419C57ACDBBCD22
:10487000DBD51BD63CDE3BDE3BDE3BDE3CDE3CDEFE
:104880003CDE3CDE3CDE3BDE3BDE3CDE3CDE3CDE5A
:104890003CDE3CDE3CDEB693B693B693B693B6935D
:1048A000B693D693D693F693B58BD58BF58BB4830D
:1048B000D4835694969C348C348C348C1484348CED
:1048C000558C558C3584F47BF37B3484147C38A56B
:1048D000FFDE3FE73FE77FEFFFE61CCE5694737B9A
:1048E000B58BB593958B758B758B958BB6935483E0
:1048F000B58B9483B383BABDDEDE1FE75CCEF38B4A
:10490000D2831BC61FE71FE75FEF1FE77DCE18A509
:10491000937BB483D58B958B95937593348B7593DB
:104920005593F7A3179CD58BD4837594DED65FE798
:104930001EDF7FE79CCED383727BB483158C937B81
:10494000B383B37BB37BB27B13845CCE3FE75FEF73
:104950001FE7DFDE147C0919EA18EB18AB18EA1818
:104960006B211BB67EDF5ED71DCF7FDFFED6716366
:10497000E810C810C910EA18EA10CA10EA10CA10E4
:10498000C910C910E91009196A212C3A547C5BBE80
:104990003FDF9FE7FED6FFD6DBAD315B2A192A1930
:1049A0002B21CB100C190D210D210C210C210C21D8
:1049B000EC20EC20EC20CB200C298E39CF41EF41AC
:1049C000CF41CF41EF49105231523052515A715AB2
:1049D0009262B26AD36AD36AB26271621052EF49CC
:1049E000EF493052515A51529262D36AD36AF472EB
:1049F000557B7683558355835583558355835583DE
:104A000014831483148314831483F37AF37A148342
:104A1000147BF37AD37AD47A358BD4825272316A8A
:104A2000D061116A158B568B358B31628E518E4950
:104A30002D414D418F51116252727272727A927A87
:104A40005172717A707AB17A949BF9BC9BCD9ACDF0
:104A5000DBD53CDE1BD61BD61BD63BDE3CDE3CDE6C
:104A60003CDE3CDE3CDE3CDE3BDE3CDE3CDE3CDE77
:104A70003CDE3CDE5CDE96939693B693B693B6939B
:104A8000B693B693D68BD68BF593579C3AB5FDCD9E
:104A90005ED67EDE7ED6BEDE9DD61BC638AD959434
:104AA00054843484348434843484D6943BBE1FDFED
:104AB0001EDF1EDF5FE79DD638AD148CD483B48B28
:104AC000B58BF79BB6937693558B5483958BF69362
:104AD000948B737B9ABD1FE71FE7BDDE7594B17B96
:104AE000917BD283FAC51FE71FE73FE7DFD65DCE94
:104AF00039A5D4835373758396939693348B558BD2
:104B00001483B69BD593F58B158C96941FDF5FE7C6
:104B10001ED79FE7FDD6D383B383D483D483727B20
:104B2000D483D4831484F38333847CCE3FE75FE75C
:104B30003FDFDED6347CC808E910EB18AA10A910B4
:104B40006B217CBE9FDF5DCF1DCF7FDFFECE305B54
:104B5000A708C9100B190B19EB10CB10EB10EB10B9
:104B6000EB10EB100B190B190B192A19AB292C3A66
:104B7000B9A55FDF7FDF3EDF7FE77DC6F473AC2939
:104B8000ED31CE312C214D294D294D294D292D298D
:104B90002C210C210C21EC200C294D318E398E3921
:104BA0006E396E398E398E41CF49F0511052F05125
:104BB0001052105A515A71629262D26AD36AF36AE1
:104BC000D362B262925A715A104A104A715AB36A49
:104BD000B36AD36A1473F472F472357B768B768B76
:104BE0005583348334831483348334831483147B54
:104BF000D37A9272716A7272D37AF482B37A5272F1
:104C000031723172116A316AB37AD37A9272F05981
:104C10008F514D410C396F51326A937A927A927A60
:104C20005172717A717A5072F28257AC5AC57ACD4C
:104C3000BACD1BD6FBD51BD61BD63BDE3CDE3CDEFD
:104C40003CDE3CDE3CDE3CDE3CDE3CDE3CDE3CDE94
:104C50003CDE3CDE5CDE9693969396939693B693F9
:104C6000B693B68BB68B179C1AB51AB5F9AC39B595
:104C700039B57ABD1CCEDEDEFEDE1EE73FE73FE73C
:104C8000BDD61BBE99AD99ADD9B5BDCE5FE71EDFD0
:104C90005FE71EDFB9AD3384148CF48BD48BD58BD6
:104CA000B58B758B758B9693958B758B7483B48B45
:104CB000B48B9BC5DFE61EE79CD6D59CB17B5073B9
:104CC000B17BD27B917354843BC63FDF3FDF3FDF34
:104CD000BFD639A5B47B7483958B758B9593B69BA2
:104CE0007593B693948B9383B37B9694FED65FDFD4
:104CF0001ED77FDFFED6F383F483D483F483D4837B
:104D00001484D383959438AD3BC61FE7FEDEBDD631
:104D10007CC674848A212A19EA10CB10EC18EB188F
:104D20006B217CBE7ED77ED75DD79FDF1FD7726396
:104D3000E810C910EB18EC10EC10EC10EC10EC18AB
:104D40000D190C19EC180C192C19CA10E9106A214C
:104D50004C3A1AB63ED75FDF5FDF3FDF5DC6AF4A32
:104D60002A216C29CE31AE31AF31AF318E316E3167
:104D70006E316E316D316D312C290C294D316D3113
:104D80006D398E39CF41AF49CF49CF49CF49AF496E
:104D90008E418E41AE49AE41EF49505A715A9262EE
:104DA000B362D362F36A146B146B1473D36A9262A6
:104DB00092629362B36AF472D372F472347B558355
:104DC000147BF372F372F37AF37AF47A34833583D3
:104DD000D372726A516A726A72729272937AB37AF9
:104DE000727A31723172316A116A52727272B37AA6
:104DF000B372F0594E490D414E51116A727251729F
:104E0000727A30720F6A2F6A9072B59BD8BC7ACDD5
:104E1000BBCDDBD51BD61BD61BD63CDE3CDE5CDE19
:104E20005CDE3BDE3BDE3CDE3CDE3CDE3CDE3CDE94
:104E30003CDE5CDE5CDE9693969396939693B693F7
:104E4000B693B68BB693B58BB58BF6931694D58B7C
:104E5000F58B1594F48B348CF69CDABDDDD63FE7E8
:104E60003FDF3FDF1EDF3FDF3FDF3FDF1EDF3FE78C
:104E7000FEDEDAB5D69C95947594969CB8A4B9AC30
:104E800058A4B693968B75837583B5835373B37BA0
:104E90009ABDDFE65FEFFEDEF69C9073F283D27B75
:104EA000F283B27BD273B173337C9DCEDED63FDF0B
:104EB0005FE7BED638A5937B737B958B5483558B68
:104EC000558BB693748B9383D383B694FED65FDFF2
:104ED0001ED77FDF1ED75484D79CF7A458ADDABD08
:104EE0005CCE5CCEDED6FEDEDED63CC6BAB5558CD8
:104EF0008E4A6B292A212B192C19EB180C198A08B8
:104F00004B193CBE5ED75ED77EDF7FDF1FD7B36B0A
:104F10000A19AA10CB10EB102C192D192D192D19C7
:104F2000EC10EC102D192D19EC104D210A196A21E5
:104F3000081191631ED77FE79FE75FE71FDFF373D9
:104F4000EC316C296D298E318E318F316E316E3995
:104F50008E398E396E396E39AF41AF416E396E3947
:104F60008E41AF41AF41AF41CF49F051F0511052A6
:104F700010521052F051EF49105210523052515A03
:104F8000515A715A9262B262D36AD36AD36AD46AAE
:104F9000D46AD36AB362B36AF46A14733473347331
:104FA00014731473F4721473147B347B347B147B8A
:104FB000F472B36AB372726A526A316A316A727297
:104FC000937A937A9382727A3172317252727272D8
:104FD0001483D47A316A4E51EC400D498F59316AAD
:104FE0007172EF61EF61106A5072F28257AC3ACD84
:104FF0007BCD9BCDFCDD1CDE1BD63BDE5CDE7CDE90
:105000005BDE3BD65BDE5BD65CDE5CDE5CDE5CDE04
:105010005CDE5CDE5CDE958B958B958B958B968B41
:10502000968BB58BB58BD693F693B58BB58BF593E5
:10503000D58BF58B1594358CF37BF27B748C99AD05
:10504000DDD65FE73FDF5FE75FE73FE73FDF3FDF5B
:105050001FDFFFDEBED6BEDE9EDEFCCDF9AC1794B0
:10506000D68BB68BB68BB68BB583947BB383BABD28
:105070001FE71FE77FEF3FEF9CD67CCEDEDE9DD69D
:10508000DEDEDEDE9ED6BED6BED6FFDE5FDF5FE7AB
:10509000FFDE1FDFFFDEF8A472739483D58B758B60
:1050A0009693758B7483D48B148CB694FED63ED7AE
:1050B0001ED75FDF1ED73484548C1CC6FFDE5FEF23
:1050C0007FEF1EE75BC6D9B5958CB27330636E4A2D
:1050D000CC394B29EA180B192C210C190C190C1975
:1050E0006C213CB6BFE7DFE79FDF5EDFDECE525BC1
:1050F000EA10EA100B19EB100C110C190C11EC1042
:10510000EC100D190D190C19CB102C19C910E91040
:105110000711B16B1ED75EDF5EE77FE7FED6726BCD
:10512000AC314C29AE318E316E316E318F398F39C1
:105130008E396E398E398F41AF41AF418E396E391C
:10514000AF41AF41AF418E416E398E41AF49AF495A
:10515000F051305A5162D36AB36A7162315A515A6E
:105160007162926292629262B262B362B362B36A35
:10517000D36AD36AD36AF46AF46A147335733573E5
:105180001473147314731473F372B36AB36AD3721F
:10519000D372B36A926AB3729272526A316A52726D
:1051A000937AB37A937AB382B37A727A116A116A74
:1051B0001062D47AF482727A8F592D490D496E515A
:1051C000516A927A517230720F6A5072549378B465
:1051D00019C59BD5FCDD1CDEFBD5FBD55CDE7CDE7A
:1051E0005BDE3BD65BD63BD65BD65CDE5CDE5CDE54
:1051F0005CDE5CDE5CDE958B958B958B958B968B60
:10520000968BB58BB58B95835383D58BF693D58BC6
:10521000F58BF593F58B348C758C548478ADFEDE6C
:105220007FE77FEF5FE77FE71EDF9CCE7CC63BC654
:10523000FABDBAB559ADF8A4B7A4569436941694ED
:10524000D58BB58BD58B93835273B37BDBC5DFE6F0
:105250007FF7DEE6FAC5DAC55CD63CD61CCE1CCE9E
:10526000FCCDDBC51CCE1CC63CC63CC61BBEFED658
:105270007FEF3FE71FE7FFDE18A5D483B483B59324
:10528000B693748B5383737BB37BB6943FE71ED77F
:105290005FDF7FDFDDD6558CB37B1484D79C3CCE9B
:1052A0001FE71EDF1EDFDEDE9DD638A530634D4AC8
:1052B000CC390A21C918EA184C214D21CB108A0893
:1052C0002B195CBE7FDF5EDF1DD73ED7DECE52637B
:1052D0000A190B19EA100C19EC10EC10EC10AB10B9
:1052E000EC100C19EB10EB182B19C91009194921F6
:1052F0002B3AF9B59FEFBFEF5FE71FDFBAB5AC31CF
:105300004B210B194D298E318E318E398E318E39CC
:10531000AF41CF41CF41AF41AF39AF418F418E391E
:10532000CF41F049F049D049AF41CF49CF49AE49CB
:10533000AF49EF49315A7262B36AD36AD36AD36A0A
:10534000D36AB36AB36AD36AD36AD36AD46AF46A93
:10535000F46AF46AF4721473F46AF4721473557391
:1053600055733573357314731473F472D36A7262A0
:105370007262936AB36A926A9272B3729372526A59
:10538000516A7272727A727A937A937A5172CF59A1
:10539000F061D0597272F4827272D0614E510C4138
:1053A0006E51106A51725172106AEF69917AD5A3E9
:1053B000B8BCBCD5DCDD1CDEFBD5FAD53BD65CDE4B
:1053C0005BD63BD63BD63BD63BD63CD65CDE5CDEE2
:1053D0005CDE5CDE7CDE9693969396939693B69312
:1053E000B693B68BB68BB58BB58B9583F693169427
:1053F000D58BF58BF48BD37BD6945CCE5FE73FE700
:105400003FDF1FE71EDF9DD699AD948C3484338433
:105410003484348C1484F483F483F48BF58B3694C5
:105420003694D48B727BB383969CDAC51FEF1FEF43
:10543000BEDE969C927B517B727B938373837383D6
:10544000737B9383937B937B9273B2739273F37B9F
:105450007DCE3FE73FE71FDFFEDE79B59383537BC9
:10546000748BD693D593D58B158CB69CFEDE3EDF20
:105470005FE75FDFFEDE148CF58BF583F483D38367
:1054800038AD9DD63FE75FEF3FE73FEF7DD67594A0
:105490002D4AE920E9200A19EA10EB186D210C19B0
:1054A0008C217DBE5FDF7FDF5EDF7FDF1ED7315B5C
:1054B000C810EA10EA100B19EB100C190C19EB18B4
:1054C000EB18CB10A908C9100A19091949218D4AEE
:1054D000DAB53FDF3EDFFED63FDFDAB50D3A6C29A5
:1054E0008D318E312D294D298F31CF39AF39AF39DB
:1054F000CF41CF41AF41CF41CF41CF41CF41AF416C
:10550000F049315251523152CF49CF49CF49AF4979
:10551000CF49EF491052315A9262D36AD36AD36AA3
:10552000F472F4721473147314731473357B357B33
:1055300035733573357315731573147314733573AD
:105540005573557B3573557B34731473F472B36A9A
:10555000B36AB372926A526251629272D37A726A79
:1055600010621062316A7272937A7272316A1162D9
:10557000CF59CF598F59D06172727272F0616E51EA
:105580002D496E59EF61106A1072EF690F6A128B24
:1055900016AC9CD5BCD5FCDDFBDDFBD5FBD51BD605
:1055A0003BD65BD63BD63BD63BD63CD63CD65CDE28
:1055B0005CDE5CDE5CDE9593959395939593B59355
:1055C000B593B58BB68BB58BB58B16941694F58BBE
:1055D000D58BD58B36947AB5BED63FE75FEFFFDE2D
:1055E000FEDE7CCED69C1384D27B13843484138459
:1055F000F383F383348C358C76945594D483B383BE
:10560000D383148C348C959CBABDDEE6BEDEFFE6F7
:1056100059B5D38B727B73835383748B748B748B68
:105620007483948B73839483937B937BB37B516B51
:105630003484BEDE1FE7FED61FDFFFE65AB51594A1
:10564000B58BB58BB58BD48B937BB69C1FDF5FE797
:105650007FE73FE77CCED383B483D58BF58BB383D1
:105660005173148C18ADDBC59EDE3FEF5FEF1FE773
:105670005CCE558CEC414A212B190B194C210B198E
:105680002A19FBB53ED71DD71DD77FE71ED77263FA
:10569000E810E9180A19EA18EA10EA180A19EA18CB
:1056A000C910C9102A196B29CC31305B38A59DCEA1
:1056B0001FDFFEDEFEDE7CC675840C3A2A214C21FB
:1056C0004D214E290D212D294D296E318E318E39D6
:1056D0008E39CF41F041304A104A31523152F049AF
:1056E000F049315251523152F0491052F049CF49EC
:1056F000AF49CF49105272629262926272629262B4
:10570000B36AD36AD36AF472F4721473357B557B2F
:10571000557B357B357B357B557B3573F472F46A6D
:1057200014733573347335731473F472F472B36A8B
:10573000B36AB472936A926A516251627262516240
:10574000316231621062516A726A7272516A106219
:10575000F0611062AF598E51CF59316A516A1062AF
:105760008E516D516E59AF6110721072CF695072C7
:1057700053933ACDBCDDFCDD1CDEFBD5FBD5FACD69
:105780001BD65BD63BD63BD63BD63CD63CD63CD68E
:105790005CDE5CDE5CDE9593959395939593B59373
:1057A000B693B68BB68BD68BD693B58BD58BF58B44
:1057B000D58BF9AC5FDEDFE6FFE6FFE61FE71FE70C
:1057C0003CC6F7A4F7A418A5B69CB69CB69CB79C9B
:1057D000D7A4769C769C5594358C358C9694B69C43
:1057E000F7A4D9BDBDDE3FEF3FEF1FEF1FEF39B587
:1057F0007383B58B958B34833483348B3483558B8F
:10580000548B548B758B548394839483737B727BFA
:10581000B37BF4835CCE5FE73FDF5FE7FFE65AB51B
:10582000169474839483D48BD483D79C7DD6FFDE67
:105830001FE7FEDEDEDE148C73837483B58B9483E6
:10584000D48B9383517B527B769CDBC5BEDEDEDE40
:105850003FEF3FE71CBE189D115B8C290A196B2195
:105860000D323CBE7FDF9FE77FDF9FE73FDF968CF7
:105870004E42AC318B29CC310D3A4E42D05272633C
:10588000F473B78CBBAD1CBE3CBEDED61FDF1FDF82
:10589000BED69AAD147C0C3A4A216B29CA18CB1893
:1058A0008E310D214E292E290D210C210C212D295F
:1058B0006E31CF41104A104A104A314A3152104AD3
:1058C000104A315251523152515A515A515A315A49
:1058D000105210521052315A515A726292629262B0
:1058E0009262926A9262B26AB36AD36AF472147371
:1058F000357B357B357B567B7683557B1473F46A19
:10590000147355733573147335733573D46A7262B7
:105910005162726A936A936AB36A926A3162105AE8
:1059200051625162105AF059105A726A926A1062AA
:105930003162EF59F0591062CF59AF51CF593062EF
:105940001062AE598E598E59CF69107210722F7233
:10595000B18257B47BD5FDE51CDEFBD51CD63BD60A
:105960001BD63BD63BD63BD63BD63CD63CD63CD6CC
:105970005CDE5CDE5CDE959395939593B693B6936F
:10598000B693B693B693D693D6931694F693579C44
:10599000BDCD9FE6BFE6DFE6DFDEFFE61FE7DFE621
:1059A000BEDEBEDEDFE6DFDEFFE6FFE6DFE6BFE609
:1059B000BFE6BFE6BFE69FDE7EDE7EDEBEDEFFE642
:1059C000FFE61FE77FF75FEF1FE7BEDE7EDED58BCA
:1059D0003383548B9693568B358B769B7693358B8E
:1059E000358B7593348B758B548354839483B48334
:1059F000937BD483D79CDED65FE7FFDE1FEFBFE645
:105A00001DD6D9ACD58B9383F48B5AB5FFE61FE72F
:105A10001FE7FFE6BEDE769CD58BB58BD69354830D
:105A20007483538332835383337BD06210639594A2
:105A30001BC6DED61FDF1FD75DC6FCB5978C946BE7
:105A4000157C9DC65FDF3EDFFDD61ED75FDFBECE75
:105A50003DBE1CBE3DBE1CBE3CBE5DC67DC67EC6F8
:105A60009DC69ECE9ECE9DCE9DCE5CC69AAD926BBF
:105A7000AF526B29E9182A216B292B214C294D297A
:105A8000EC182E290D210D212D292C290C210C2952
:105A90004D296E318E39CF41AF41CF41104A104A66
:105AA000104A11523152525A725A10523152926265
:105AB000B36AD36A9262305A315A726292627262E7
:105AC0009262B36AD36AB36AB36AD36AD372F47266
:105AD0001473357B357B357B557B557B357335733F
