:020000040800F2
:10000000F8060020350200083D0200083F02000803
:1000100041020008430200084502000800000000F9
:10002000000000000000000000000000470200087F
:1000300049020008000000004B0200084D020008C1
:100040004F0200084F0200084F0200084F0200084C
:100050004F0200084F0200084F0200084F0200083C
:100060004F0200084F0200084F0200084F0200082C
:100070004F0200084F0200084F0200084F0200081C
:100080004F0200084F0200084F0200080000000065
:100090000000000000000000000000004F02000807
:1000A000390900084F0200084F0200084F020008FB
:1000B0004F0200084F0200084F0200084F020008DC
:1000C0004F0200084F0200084F0200084F020008CC
:1000D0004F020008C50A00084F0200080000000097
:1000E0004F0200084F0200084F0200080000000005
:1000F0000000000000000000000000004F020008A7
:10010000000000004F0200084F0200084F020008E4
:1001100000000000000000000000000000000000DF
:100120004F0200084F0200084F0200084F0200086B
:100130004F02000800000000000000000000000066
:100140000000000000000000000000004F02000856
:100150004F0200084F0200084F0200084F0200083B
:100160004F0200084F0200080000000000000000DD
:10017000000000000000000000000000000000007F
:10018000000000004F020008000000000000000016
:100190004F02000800F002F800F03CF80AA090E8D6
:1001A000000C82448344AAF10107DA4501D100F032
:1001B00031F8AFF2090EBAE80F0013F0010F18BFC3
:1001C000FB1A43F001031847240E0000440E000000
:1001D000103A24BF78C878C1FAD8520724BF30C873
:1001E00030C144BF04680C60704700000023002445
:1001F00000250026103A28BF78C1FBD8520728BF37
:1002000030C148BF0B6070471FB500F0E9FE1FBD4D
:1002100010B510BD00F033F81146FFF7F5FF00F000
:10022000A5FD00F051F803B4FFF7F2FF03BC00F0A6
:1002300054FD00000948804709480047FEE7FEE7F3
:10024000FEE7FEE7FEE7FEE7FEE7FEE7FEE7FEE786
:1002500004480549054A064B70470000D1080008CC
:1002600095010008F8000020F8060020F8020020A0
:10027000F802002070477047704770477047754616
:1002800000F02CF8AE4605006946534620F0070002
:10029000854618B020B5FFF7DBFFBDE820404FF0E2
:1002A00000064FF000074FF000084FF0000B21F060
:1002B0000701AC46ACE8C009ACE8C009ACE8C0092D
:1002C000ACE8C0098D46704710B50446AFF3008016
:1002D0002046BDE81040FFF7A6BF00000048704769
:1002E00094000020F0B50A4600210023002400BF3E
:1002F0003DE0012505FA01F3156805EA03049C4277
:1003000034D105684F000326BE40B543056015791A
:100310004E00B5400668354305601579012D02D0C1
:100320001579022D16D185684F000326BE40B543CE
:10033000856055794E00B5408668354385604568CF
:1003400001268E40B5434560456896798E40B6B229
:1003500035434560C5684F000326BE40B543C560C0
:10036000D5794E00B540C6683543C560491C102993
:10037000BFD3F0BDF0B5002300244D07ED0E02FA07
:1003800005F3CE1000F1200555F826504E07F70E64
:100390000F26BE40B543CF1000F1200646F8275087
:1003A000CE1000F1200555F8265045EA0304CE1082
:1003B00000F1200545F82640F0BD418370470183D8
:1003C000704700001CB50121022000F069F945F2D8
:1003D0000240009001208DF8040000208DF80600F6
:1003E0008DF8070069460648FFF77CFF02210448A4
:1003F000FFF7E3FF4FF480510148FFF7E0FF1CBD1A
:100400000004024010B500F0BFF8FFF7DBFF00F07A
:10041000C1FC362000F0D0FC002000F0E5FC3A20C2
:1004200000F0CAFC052000F0DFFCB22000F0C4FCA4
:100430000C2000F0D9FC0C2000F0D6FC002000F0CD
:10044000D3FC332000F0D0FC332000F0CDFCB720EB
:1004500000F0B2FC352000F0C7FCBB2000F0ACFC83
:10046000192000F0C1FCC02000F0A6FC2C2000F0F8
:10047000BBFCC22000F0A0FC012000F0B5FCC320B2
:1004800000F09AFC122000F0AFFCC42000F094FCB5
:10049000202000F0A9FCC62000F08EFC0F2000F008
:1004A000A3FCD02000F088FCA42000F09DFCA1203B
:1004B00000F09AFCE02000F07FFCD02000F094FCDB
:1004C000042000F091FC0D2000F08EFC112000F0C3
:1004D0008BFC132000F088FC2B2000F085FC3F20D3
:1004E00000F082FC542000F07FFC4C2000F07CFCEB
:1004F000182000F079FC0D2000F076FC0B2000F0B5
:1005000073FC1F2000F070FC232000F06DFCE12044
:1005100000F052FCD02000F067FC042000F064FCE6
:100520000C2000F061FC112000F05EFC132000F0B4
:100530005BFC2C2000F058FC3F2000F055FC4420D0
:1005400000F052FC512000F04FFC2F2000F04CFC3A
:100550001F2000F049FC1F2000F046FC202000F086
:1005600043FC232000F040FC212000F025FC11205A
:1005700000F022FC292000F01FFC02210148FFF7B7
:100580001EFF10BD000402401CB50121022000F036
:1005900087F84FF42040009001208DF804000020DF
:1005A0008DF806008DF8070002208DF805006946D9
:1005B0000448FFF797FE4FF400510248FFF7FDFE95
:1005C0001CBD00000004024070B5044600251BE07D
:1005D0004FF400510E48FFF7F0FE04F0800028B100
:1005E0004FF400410A48FFF7EAFE04E04FF40041EF
:1005F0000748FFF7E2FE4FF400510548FFF7DFFE22
:100600006006040E681CC5B2082DE1DB70BD000059
:100610000004024070B5002100230F22C4781CB3EF
:10062000174C246804F4E064C4F5E064C4F30721C3
:10063000C1F10404E3B20A4144789C40E1B28478F9
:10064000144021430C07210E0E4C057861550478A7
:1006500004F01F050124AC4005786D11AD0005F1D3
:10066000E025C5F8004109E0047804F01F050124E5
:10067000AC40054D0678761145F8264070BD000067
:100680000CED00E000E400E080E100E002490143FD
:10069000024A1160704700000000FA050CED00E00E
:1006A00029B1064A12680243044B1A6004E0034A67
:1006B00012688243014B1A607047000030380240D4
:1006C00029B1064A12680243044B1A6004E0034A47
:1006D00012688243014B1A607047000040380240A4
:1006E00029B1064A12680243044B1A6004E0034A27
:1006F00012688243014B1A60704700004438024080
:10070000F0B5002100220024022500260223324FEA
:100710003F6807F00C0121B1042905D0082937D121
:1007200005E02E4F076036E02D4F076033E02A4F7B
:100730003F1F3F68C7F38056274F3F1F3F6807F0B2
:100740003F036EB1264FB7FBF3F7DFF88CC0ACF177
:10075000040CDCF800C0CCF3881C07FB0CF40CE0A4
:100760001E4FB7FBF3F7DFF870C0ACF1040CDCF8F8
:1007700000C0CCF3881C07FB0CF4174F3F1F3F68E9
:10078000C7F301477F1C7D00B4FBF5F7076002E06B
:10079000124F076000BF00BF0F4F3F6807F0F00126
:1007A0000909104F7A5C0768D74047600A4F3F68D5
:1007B00007F4E051890A0B4F7A5C4768D74087609D
:1007C000054F3F6807F46041490B064F7A5C476864
:1007D000D740C760F0BD0000083802400024F40094
:1007E00040787D01010000200CB5002001900090B0
:1007F0003348006840F480303149086000BF304819
:10080000006800F4003000900198401C01900098AE
:1008100018B90198B0F5A04FF1D12948006800F44B
:10082000003010B10120009001E0002000900098FD
:10083000012844D122484030006840F080502049CF
:10084000403108601F48006840F440401D4908607E
:100850001B48083000681A490831086008460068DB
:1008600008600846006840F4805008601648091F78
:100870000860081F006840F08070091F086000BF12
:100880000F48006800F000700028F9D040F20270B4
:100890000E4908600A480830006820F00300084943
:1008A000083108600846006840F00200086000BF98
:1008B00003480830006800F00C000828F8D10CBD8F
:1008C000003802400070004019544107003C0240CB
:1008D00010B51548006840F47000134908601348CB
:1008E000006840F001001149086000200F490831FC
:1008F00008600E4800680E4908400C4908600D4821
:10090000091D0860081F006820F48020091F086086
:10091000002006490C310860FFF766FF4FF00060C9
:1009200001498039086010BD88ED00E000380240C0
:10093000FFFFF6FE1030002410B501211C4800F026
:100940005AF8012832D10121194800F03CF8194821
:100950000088401E1749088008464088401C48808F
:1009600008464088022821DB002048801248007891
:1009700001280DD111480068401C10490860084644
:100980000068B0F57A7F11D300200B4908700DE0A4
:100990000948007850B909480068401E07490860B6
:1009A0000846006810B901200349087010BD000016
:1009B000004001408000002000000020400800406E
:1009C000CA4302827047CA430282704721B102883B
:1009D00042F00102028004E002884FF6FE731A40E2
:1009E0000280704702460020138A0B400BB10120A1
:1009F00000E00020704730B50246002000230024AC
:100A0000158A05EA0103958905EA010413B10CB1C1
:100A1000012000E0002030BD1AB183890B4383819F
:100A200002E083898B4383817047000000220288A3
:100A3000184B98420ED0184B98420BD0B0F1804F13
:100A400008D0164B984205D0154B984202D0154B52
:100A5000984204D14FF68F731A404B881A43124BB9
:100A6000984207D0114B984204D04FF6FF431A40EA
:100A70000B891A4302804B68C3620B880385054BC0
:100A8000984202D0044B984201D18B7A038601230D
:100A900083827047000001400004014000040040D0
:100AA00000080040000C004000100040001400400E
:100AB0004FF0FF314160002101800181418081724E
:100AC0007047000010B540F22551154800F047F876
:100AD00080B140F22551124800F026F8104800F08D
:100AE000F7F8C1B20F48426E406E401C0D4B58667D
:100AF0001846815440F22441094800F030F868B1AA
:100B0000074800880648808800200649496E054A43
:100B1000505411464866012081F8680010BD00005D
:100B2000001001401400002010B50022002340F600
:100B30006A14A14200D100BF0A1201249440A3B25A
:100B4000DC43048010BD21B1828942F400528281CD
:100B500004E082894DF6FF731A408281704770B5B8
:100B60000246002400230025002040F66A16B14208
:100B700000D100BFC1F3421501F01F03012606FAA0
:100B800003F3012D02D19689334006E0022D02D1F4
:100B9000168A334001E0968A33400C12012606FA89
:100BA00004F41688344013B10CB1012000E0002099
:100BB00070BDF0B50346002400260025002040F655
:100BC0006A17B94200D100BF1846C1F3421401F0C0
:100BD0001F06012707FA06F5012C01D10C3004E0AD
:100BE000022C01D1103000E014301AB107682F43F5
:100BF000076002E00768AF430760F0BD2DE9FF47DB
:100C000005460E460024A14600BFA046B08900B1AB
:100C100000BF2C8A24F44054F08804432C82AC8911
:100C200041F20C608443B0883189084371890843DC
:100C30000443AC81AC8A24F44074B0890443AC8290
:100C40006846FFF75DFD2048854202D01F48854277
:100C500002D1DDF80C9001E0DDF80890A88900F4DD
:100C6000004040B109EBC90000EB091031684900B0
:100C7000B0FBF1F707E009EBC90000EB09103168A0
:100C80008900B0FBF1F76420B7FBF0F00401200904
:100C9000642101FB1078A88900F4004040B13220A3
:100CA00000EBC800B0FBF1F000F00700044308E0DF
:100CB000322000EB08106421B0FBF1F000F00F00CF
:100CC00004432C81BDE8FF8700100140001401405F
:100CD00001468888C0F30800704700BF70470000D5
:100CE0001CB501210846FFF7DBFC01210420FFF7BA
:100CF000D7FC0020009001908DF8040001200090A6
:100D000000208DF8070069460548FFF7EBFA4FF41D
:100D10000050009069460348FFF7E4FA1CBD00004C
:100D200000000240000802401CB501210220FFF72C
:100D3000B7FC00200090019001208DF804000020F5
:100D40008DF806004FF44070009000208DF80700E9
:100D50008DF8050069460448FFF7C4FA4FF4407166
:100D60000148FFF72CFB1CBD0004024000BF4FF4FC
:100D7000A060FFF78BFCFFF7D7FFFFF7B1FF4FF441
:100D8000E13000F0C7F8012000F082F8FFF73AFBED
:100D900000BFFEE710B54FF480610648FFF70DFB7A
:100DA000642000F039F84FF480610248FFF707FB38
:100DB00010BD00000004024010B504464FF48051FD
:100DC0000848FFF7FAFA4FF480410648FFF7F5FAB2
:100DD0002046FFF7F9FB4FF480510248FFF7EFFA86
:100DE00010BD00000004024010B504464FF48051CD
:100DF0000848FFF7E2FA4FF480410648FFF7DFFAB0
:100E00002046FFF7E1FB4FF480510248FFF7D7FA85
:100E100010BD0000000402403EB504460121082038
:100E2000FFF74EFC00211948FFF7D0FD002000908D
:100E3000019002906846FFF73BFE42F2CF00ADF80A
:100E4000000004EB84000121C1EB40000190002070
:100E5000ADF8020069460D48FFF7E8FD01210B4897
:100E6000FFF7AEFD01210948FFF7B0FD00BF0121EA
:100E70000648FFF7B7FD0028F9D001210348FFF726
:100E80009FFD00210148FFF7A1FD3EBD000C004081
:100E90001FB5044601210804FFF722FC00211C486D
:100EA000FFF794FD002001900290039001A8FFF746
:100EB000FFFD42F2CF00ADF8040004EB84000121F5
:100EC000C1EB400002900020ADF8060001A91048D7
:100ED000FFF7ACFD01210E48FFF775FD00200090E3
:100EE00018208DF8000000208DF801008DF8020018
:100EF00001208DF803006846FFF78CFB01221146A4
:100F00000348FFF789FD01210148FFF75FFD1FBD81
:100F10000040014010B588B0044601210846FFF7A3
:100F2000BFFB072209212C48FFF724FA07220A21D8
:100F30002948FFF71FFA00200690079002208DF83D
:100F40001C0000208DF81E008DF81F0002208DF877
:100F50001D004FF4C060069006A91F48FFF7C2F9B4
:100F600001211020FFF7BCFB0020029003900490A9
:100F700005900294ADF81000ADF80E00ADF80C002D
:100F80000C20ADF812000020ADF8140002A913489F
:100F9000FFF734FE0020019025208DF80400012089
:100FA0008DF805008DF806008DF8070001A8FFF701
:100FB00031FB012240F225510848FFF7FAFD0122DA
:100FC00040F224410548FFF7F4FD01210348FFF7F3
:100FD000BAFD08B010BD0000000002400010014042
:100FE0004FF04070E1EE100A704700000C1000084E
:100FF0000000002014000000D001000820100008AC
:1010000014000020E4060000EC01000801000000CC
:10101000000102030401020304060708090000009E
:040000050800019559
:00000001FF
